:020000040000FA
:10000000005A001081BD000089BD00008BBD0000BA
:100010008DBD00008FBD000091BD000000000000FC
:1000200000000000000000000000000093BD000080
:1000300095BD00000000000097BD00002D6B000082
:100040009BBD000099090000B7090000C909000024
:10005000DB09000045D600009BBD00009BBD0000F1
:10006000ADD700009BBD00009BBD00009BBD000004
:100070009BBD00009BBD00009BBD00009BBD000020
:100080009BBD00009DFD00009BBD00009BBD0000CE
:100090009BBD00009BBD00009BBD00009BBD000000
:1000A000A1F200009BBD00009BBD00009BBD0000B5
:1000B0009BBD00009BBD00009BBD00009BBD0000E0
:1000C0009BBD00009BBD00009BBD00009BBD0000D0
:1000D0009BBD00009BBD0000A10500009BBD000072
:1000E0009BBD000000F002F800F0B0F80AA090E814
:1000F000000C82448344AAF10107DA4501D100F0E3
:10010000A5F8AFF2090EBAE80F0013F0010F18BFFF
:10011000FB1A43F0010318474CDB07006CDB0700B8
:100120000A444FF0000C10F8013B13F0070408BF1D
:1001300010F8014B1D1108BF10F8015B641E05D0BB
:1001400010F8016B641E01F8016BF9D113F0080F70
:100150001EBF10F8014BAD1C0C1B09D16D1E58BF02
:1001600001F801CBFAD505E014F8016B01F8016B39
:100170006D1EF9D59142D6D37047000000230024AC
:1001800000250026103A28BF78C1FBD8520728BFA7
:1001900030C148BF0B6070476E2912F00081702992
:1001A00012F03D82662915F0B680652915F0B380FE
:1001B000672915F0B0806129AFF3008003681B0A3E
:1001C00028BF41F08001692911F03C86642911F0B3
:1001D0003986752911F036866F2912F0CA8178297F
:1001E00012F00982E92912F06581E42912F0628196
:1001F000F52912F05F81EF2912F0C781F82912F07A
:1002000008820368DB0928BF41F08001632912F0EE
:100210007384732912F07884E32912F08384F3291C
:1002200012F08884002070471FB512F0D9FC04003A
:100230000020002113F01CFF401C60600020002102
:1002400013F000FFE0601FBD10B510BD12F09AFC66
:100250001146FFF7E9FF00F0D0F912F077FD03B483
:10026000FFF7F2FF03BC12F07BFD000070B50546FE
:100270000C46A4F120000B4A02EB00111022284684
:1002800011F010FF70BDA1F1200202EB4202064BFB
:1002900003EB8202136803605368436092688260D4
:1002A00070470000548E0100449401000D4843F64D
:1002B000C46102E000220270401C0A1EA1F1010389
:1002C00099B2F7D1084843F6482102E0FF220270B4
:1002D000401C0A1EA1F1010399B2F7D1014B83F82A
:1002E0007C2470476C0F0010E813001070477047B3
:1002F00070470A6802F8010B0A607047FFFFFFFFB2
:1003000040F20120954908609549C1F8840193495C
:1003100008310860091D0860091D0860091D086092
:10032000091D0860091D0860091D0860091D086095
:10033000091D0860091D0860091D0860091D086085
:10034000091D0860091D0860091D0860091D086075
:10035000091D0860091D0860091D0860091D086065
:10036000091D0860091D0860091D0860091D086055
:10037000091D0860091D0860091D0860091D086045
:10038000091D0860091D0860091D0860091D086035
:10039000091D0860091D0860091D0860091D086025
:1003A000091D0860091D0860091D0860091D086015
:1003B000091D0860091D0860091D0860091D086005
:1003C000091D0860091D0860091D0860091D0860F5
:1003D000091D0860091D0860091D0860091D0860E5
:1003E000091D0860091D08605C49E43108605B492B
:1003F00040390860091D0860091D086057493039F7
:100400000860564920390860544910390860091DB0
:100410000860091D08605249C1F87C0170472DE948
:10042000F04100BF00BF4F48006840F400604D49F4
:10043000C439C1F8C40041F61F704B49086001205F
:100440004A49086000208860FFF75AFF4848006862
:100450004849B0FBF1F74348C438D0F8000100B177
:100460007F084FF47A70B0FBF7F404F11300B0FB8F
:10047000F4F03E4908630F204863002088630120A0
:10048000C86304F11300B0FBF4F0801C0864012081
:10049000486404F13E00B0FBF4F0886404F13E00CF
:1004A000B0FBF4F0C8640F20086504F13E00B0FB17
:1004B000F4F0486501208865886240F203302E49D7
:1004C00008604FF4D0602949C1F800016421002080
:1004D00000F0E4F940F2831024490862C8210020AA
:1004E00000F0DCF940F20310204908620220486263
:1004F000002600E0761C802EFCD341F68465A5F131
:10050000100085B22D1105FB07F04FF47A71B0FB96
:10051000F1F085B2154845628320144908621748F6
:100520000588002008621448001F006840F400207D
:10053000C1F800010121002000F0B0F901210020E4
:1005400000F0ACF90848006820F01F0848F01100DE
:100550000449C439C1F8DC01BDE8F08180C1024022
:1005600000C00240C4C00F40DCC10F4000C00920E1
:10057000F400001040420F0004C10920003003A025
:1005800010B5002807DACA06140EB44A00F00F03AB
:100590001B1FD45403E0CA06130EB14A135410BDF6
:1005A00010B50122132100200BF07EFE20B326207F
:1005B00000F01F0201219140AA4A430942F823108A
:1005C00000BF6FF07F4400E0641E002CFCD1A64801
:1005D000006830B10020A44908600F20A3490860DA
:1005E00005E00120A04908600220A04908604FF4FE
:1005F000002100200BF083FE10BD1FB500200BF082
:10060000F8FF06460020984908604FF47A70B6FB60
:10061000F0F0451EB5F1807F00D311E025F07F405A
:10062000401E4FF0E02148611F214FF0FF30FFF7DF
:10063000A7FF00204FF0E02188610720086100BF7C
:100640000122D10400200BF011FE01212620FFF72A
:1006500097FF262000F01F020121914042099200DD
:1006600002F1E022C2F8001100BF642006F00FFB87
:100670000DF05EFB06F0F8FB0FF0A2FB06F046FB68
:1006800006F06EFB06F0A5FA0CF02EFF002076496E
:100690000860FFF7C4FE002000F08AFA7449486938
:1006A000002100F0BEFA012000F082FAFFF7FEFD03
:1006B000002006F0B2FB06F01FF906F036FF0F200F
:1006C0006A49086050E006F067FC0446FF2C03D13D
:1006D00000206849086004E066480068401C6549DD
:1006E000086064480068022814D10020614908604D
:1006F0004FF0501000F09AFB22465FA101A811F0C4
:1007000063FB00206FF07F4301AA2821009078202E
:1007100000F0C9FC554800680A2817D006DC0228FA
:100720000BD005280FD006281CD109E00C2810D0CA
:100730000F2811D0102815D111E006F086FF12E025
:1007400007F070FB0FE008F0C9FB0CE00AF021FF96
:1007500009E00AF0A8F906E00AF078F903E00AF0E7
:100760000FF900E000BF00BFADE770B5012143A065
:100770000EF060F90546002D0EDD00BF4FF47A62E1
:100780004148016828460EF035FA0446002CF5D1A0
:1007900028460EF030FC00E070BD00BFFCE72DE9FC
:1007A000F041012135A00EF045F90746002F25DD67
:1007B0004FF47A623448016838460EF01BFA022181
:1007C00032A00EF037F90446002C11DD002500BFE1
:1007D0004FF47A622C48016820460EF075FB0646FD
:1007E00035442D488542F3D320460EF004FC01E049
:1007F000BDE8F08138460EF0FEFB00E0F8E700BFF0
:10080000F6E770B501211DA00EF014F90646002E82
:1008100020DD02211DA00EF00DF90446002C14DD90
:1008200000BF4FF47A621848016830460EF0E2F9D2
:1008300005462A461448016820460EF045FB002D67
:10084000EFD120460EF0D7FB00E070BD30460EF031
:10085000D2FB00E0F9E700BFF7E7000018ED00E089
:1008600000E400E080E100E0D4000010E4000010AB
:100870001C0000107C000010253264004D535245CE
:1008800041442E5458540000800100104A4B323528
:100890003230422E5458540080969800F8B9022203
:1008A0004FF040235A600022DA60B74A12684FF4D2
:1008B0007A73B2FBF3F2521E4A434FF040239A611F
:1008C000FF221A6004225A6101225A6000BF4FF0D1
:1008D0004022526802F00102002AF8D15BE00128B0
:1008E0001CD10222A94B5A600022DA60A64A126883
:1008F0004FF47A73B2FBF3F2521E4A43A34B9A6150
:10090000FF221A6004225A6101225A6000BF9F4AE6
:10091000526802F00102002AF9D13CE002281CD101
:1009200002229B4B5A600022DA60974A12684FF409
:100930007A73B2FBF3F2521E4A43954B9A61FF223F
:100940001A6004225A6101225A6000BF904A52681C
:1009500002F00102002AF9D11DE003281BD1022276
:100960008C4B5A600022DA60874A12684FF47A731F
:10097000B2FBF3F2521E4A43864B9A61FF221A6081
:1009800004225A6101225A6000BF824A526802F072
:100990000102002AF9D1704701204FF04021086080
:1009A0007D480068401C7C4908607C480068401C09
:1009B0007A490860704701207449086078480068E7
:1009C000401C7749086070470120714908607548EC
:1009D0000068401C73490860704701206D49086039
:1009E00071480068401C70490860704720B90121B7
:1009F0004FF04022516010E0012803D10121634AE9
:100A000051600AE0022803D10121614A516004E0EB
:100A1000032802D101215F4A5160704720B90021AB
:100A20004FF04022516010E0012803D10021574AC5
:100A300051600AE0022803D10021554A516004E0C8
:100A4000032802D10021524A51607047014631B952
:100A50004FF04022506840F00200506016E001293B
:100A600005D14A4A506840F0020050600EE0022969
:100A700005D1474A506840F00200506006E0032963
:100A800004D1444A506840F002005060704770B58D
:100A900005460C46F5B900203F4908604348006808
:100AA00040F002004149C439C1F8C4004FF0402071
:100AB000406840F002004FF0402148604EF65F2051
:100AC000C8600846846103204861012000F050F8A6
:100AD000012070BD012D1CD1002031490860334830
:100AE000006840F004003149C439C1F8C400274807
:100AF000406840F00400254948604EF65F20C86019
:100B00000846846103204861022000F031F801208A
:100B1000DFE7022D13D10020224908602348006836
:100B200040F480002149C439C1F8C40018488461E8
:100B300003201749486100F01BF80120C9E7032D85
:100B400014D10020184908601848006840F40000DB
:100B50001649C439C1F8C4000E48846103200D4908
:100B60004861042000F004F80120B2E70020B0E75B
:100B700000F01F02012191404209920002F1E0229F
:100B8000C2F8001170470000F8000010008000401B
:100B90000000094000400940000000101000001053
:100BA00004000010080000100C000010C4C00F402A
:100BB00008B5B0B1FC49896941F00101FA4A916177
:100BC00042F21071009108E0F749896941F400612F
:100BD000F54A91610099491E009100990029F3D1CD
:100BE00015E0F149896921F40061EF4A916142F20F
:100BF0001071009102E00099491E009100990029AE
:100C0000F9D1E949896921F00101E74A916108BDFB
:100C1000E64A002102E008C808C2491C8029FAD32C
:100C200070472DE9704381460D46DFF8848300BF8D
:100C30002720E04908614861DF490860DD49C1F8C3
:100C40007402DE490860091D0860091D0860091D5D
:100C50000860D8498861C861D84948390860091DC9
:100C60000860091D0860091D0860091D0860091D4C
:100C70000860D04908624862D04918310860091DEF
:100C80000860CE4930390860091D0860091D0860F8
:100C9000091D0860C94910390860C849091F086062
:100CA000C6490C390860091D0860C249C1F8000135
:100CB000C348006C40F00200C14908640846806DDA
:100CC00040F00A008865BF48D0F8C40040F0010039
:100CD000BC49C1F8C400BC48006820F00100BA4912
:100CE00008600020B04988610846806920F00E0045
:100CF00088610846806940F00A008861084680697A
:100D000040F0200088610846806920F080008861FA
:100D10000846806920F4807088610846806920F464
:100D2000007088610846806920F480608861084608
:100D3000806920F400608861A4480068A449B0FB81
:100D4000F1F0A049C1F8B8019748806840F0806090
:100D5000954988600846806820F020008860084631
:100D6000806840F4006088600846806840F48050E5
:100D700088600846806820F40050886008468068D3
:100D800020F480408860084680689249084086497F
:100D9000886008468068904908438349886000203D
:100DA00008600846006840F01C500860084600686B
:100DB00040F4802008600846006840F480700860B5
:100DC0000846006840F0740008600020486008464B
:100DD000406840F0006048600846406840F40020E9
:100DE00048600846406840F48060486008464068B3
:100DF00040F20F1108436C49486040460861486161
:100E000015B12846FFF704FF694E002403E04FF4B4
:100E10007F0001C6641CB4F5FF3FF8D342F21074A2
:100E200000E0641E002CFCD1BDE87083604A002104
:100E300001E001C2491CB1F5FF3FFAD370472DE92B
:100E4000F0411C46069FC1F5887CACF1010CCCEB4F
:100E50000C1CDFF85C8108EBCC18C0F5F07CACF121
:100E6000010C08EB8C0300260FE0002502E043F89C
:100E700004796D1CA2EB000CAC45F8D8A2EB000C79
:100E8000CCF5F07CA3EB8C03761CA4EB010CB445F1
:100E9000EBD8BDE8F08170B5454BB0F5F07F02DAD4
:100EA000B1F5887F00DB70BDC0F5F0756D1EC1F532
:100EB0008876761EC6EB061605EB461403EB840314
:100EC0001A6000BFEFE72DE9F04F04460D4691464A
:100ED0009A46DDF824B04C4503DD0FFA89F7A146A8
:100EE000BCB2554503DD0FFA8AF7AA46BDB2A9EB9D
:100EF00004000FFA80F8AAEB050006B2B8F1000F63
:100F00000BD100BF5A4629462046FFF7C4FF681C94
:100F100085B2AA45F6DABDE8F08F56B900BF5A4649
:100F200029462046FFF7B7FF601C84B2A145F6DAD8
:100F3000F1E7B04521DDC8EB460007B215E05A469F
:100F400029462046FFF7A7FF601C84B2002F08DD6A
:100F5000681C85B27000022101FB1800384407B2FA
:100F600003E0022000FB067007B24C45E7D15A4669
:100F700029462046FFF78FFF3BE0C6EB480007B24B
:100F800030E05A4629462046FFF785FF681C85B2A7
:100F9000002F23DD601C84B27000022101FB1800C9
:100FA000384407B21EE000000080082000820820BC
:100FB000000001A000C0024070C2024018C10240FF
:100FC0000080092000C00F40008C0820F8000010AD
:100FD000B0475D00FFFF00FC0000DF01022000FBC6
:100FE000067007B25545CCD15A4629462046FFF730
:100FF00052FF00BF8FE72DE9FF5F06460F46904680
:101000009946DDF838B041466846FFF72FF90024CD
:101010001DE01DF804A0002516E0C5F107004AFAFE
:1010200000F000F0010038B13A1991B2721990B293
:101030004A46FFF730FF06E03A1991B2721990B2B2
:101040005A46FFF728FF6D1C082DE6D3641C102CB0
:10105000DFD3BDE8FF9F2DE9FE4F06460F469046C1
:101060009946DDF830B041466846FFF70CF9002498
:1010700015E01DF804A000250EE0C5F107004AFAAE
:1010800000F000F0010030B13A1991B2721990B23B
:101090004A46FFF700FF6D1C082DEED3641C0C2C94
:1010A000E7D3BDE8FE8F2DE9F84305460E4614460A
:1010B0009846DDF8209000BF14F8017B43463A467D
:1010C00031462846CDF80090FFF795FFB5F5EC7F47
:1010D00003DA05F1080085B208E0FF2E04DC0025E4
:1010E00006F1100086B201E00025002620780028D5
:1010F000E2D1BDE8F8832DE9FF4F074688469B46BD
:101100003C464546BA4646464FF0000915E0A4F174
:10111000140188B22946029AFFF7BDFE601C84B212
:10112000A6F1140081B25046029AFFF7B4FE701C7B
:1011300086B209F101001FFA80F9B9F1280FE6DB48
:101140003C464546BA4646464FF000092BE0A5F11D
:10115000140291B2A4F1140290B25A46FFF79BFE1A
:1011600005F1140291B2A4F1140290B25A46FFF7AD
:1011700092FE601C84B2A6F1140291B2AAF114028C
:1011800090B25A46FFF787FEA6F1140291B20AF117
:10119000140290B25A46FFF77EFE701C86B209F127
:1011A00001001FFA80F9B9F10A0FD0DB3C46454631
:1011B000BA4646464FF000092BE0A5F1140291B261
:1011C00004F10A0290B25A46FFF765FE05F11402D7
:1011D00091B204F10A0290B25A46FFF75CFE601C1D
:1011E00084B206F10A0291B2AAF1140290B25A46F0
:1011F000FFF751FE06F10A0291B20AF1140290B211
:101200005A46FFF748FE701C86B209F101001FFA2A
:1012100080F9B9F10A0FD0DBBDE8FF8F10B50246A7
:10122000002112E001EB8110F74B185C1378984213
:1012300009D1507801EB8113F34C23445B78984239
:1012400001D1084610BD481C81B27729EAD300209D
:10125000F8E710B50246002114E001EB0110EB4B5A
:1012600013F81000137898420AD1507801EB01135B
:10127000E64C04EB43035B78984201D1084610BD6D
:10128000481C81B2A929E8D30020F8E72DE9F04FE6
:1012900004460F4615469846A3464FF0000900261F
:1012A0002DE0099810F806904FF0000A21E009F0AF
:1012B000800030B1D648394602682046FFF7EBFD82
:1012C00005E0D348394642682046FFF7E4FD4FEA7F
:1012D00049604FEA1069601C84B2A4EB0B00A8427D
:1012E00003D15C46781C87B206E00AF1010000F0E9
:1012F000FF0ABAF1080FDADB00BF701C86B205FBEB
:1013000008F0C11700EB5171B6EBE10FC9DBBDE886
:10131000F08F2DE9F04F0546894692469B46A84638
:101320000026BBF1000F32D100242DE00AEB0A1099
:10133000B64901EB4000801C065D00271FE006F067
:10134000800030B1B248494602682846FFF7A3FD45
:1013500005E0AF48494642682846FFF79CFD700605
:10136000060E681C85B2A5EB0800102805D145467D
:1013700009F101001FFA80F903E0781CC7B2082FB9
:10138000DDDB00BF601CC4B2202CCFDB31E00024C9
:101390002DE00AEB0A109D4901EB4000801C065D20
:1013A00000271FE006F0800030B1994849464268A6
:1013B0002846FFF770FD05E0954849460268284633
:1013C000FFF769FD7006060E681C85B2A5EB0800E4
:1013D000102805D1454609F101001FFA80F903E004
:1013E000781CC7B2082FDDDB00BF601CC4B2202C04
:1013F000CFDBBDE8F08F2DE9F04F054689469246D8
:101400009B46A8460026BBF1000F31D100242CE0FA
:101410000AEB8A107C490844801C065D00271FE007
:1014200006F0800030B17A48494602682846FFF746
:1014300032FD05E07648494642682846FFF72BFD15
:101440007006060E681C85B2A5EB0800182805D1A9
:10145000454609F101001FFA80F903E0781CC7B284
:10146000082FDDDB00BF601CC4B23F2CD0DB30E0B6
:1014700000242CE00AEB8A1063490844801C065DB6
:1014800000271FE006F0800030B1614849464268FD
:101490002846FFF700FD05E05D48494602682846FA
:1014A000FFF7F9FC7006060E681C85B2A5EB080074
:1014B000182805D1454609F101001FFA80F903E01B
:1014C000781CC7B2082FDDDB00BF601CC4B23F2C04
:1014D000D0DBBDE8F08FF0B504460D4616461F463A
:1014E0003B46224631462846FFF785FF1820F0BDCF
:1014F000F0B504460D4616461F463B462246314689
:101500002846FFF706FF1220F0BD2DE9F8430646F6
:101510000D4614461F464FF00008C14652E02078A1
:1015200000B950E006EB090086B2207880281ADD69
:1015300006F11800B0F5F07F07DD002605F1160072
:1015400085B2B5F5887F00DD00252046FFF766FEF1
:101550001FFA80F83B462A4631464046FFF7BBFF5C
:101560008146A41C2DE020780D280AD105F1160033
:1015700085B2B5F5887F00DD0025641C4FF00009B9
:1015800020E020780A2804D10026641C4FF00009CE
:1015900018E006F10C00B0F5F07F07DD002605F13C
:1015A0000C0085B2B5F5887F00DD0025184840683D
:1015B000009017482278294603683046FFF71BFD44
:1015C000641C00BFABE700BFBDE8F8832DE9F84716
:1015D0000546884614464FF0000A00263AE0207877
:1015E00000B938E02078302807DB2078392804DC7F
:1015F000207830381FFA80F914E020782E2809D19D
:101600004FF00A090EE000000A5401004172010087
:101610001400001020782D2802D14FF00B0901E0B2
:101620004FF00C094FEA4917F81707EB5070C0103C
:1016300000EBC001C1EB8010B6490844A919009025
:1016400088B2372320224146FFF720FE641C06F1B2
:10165000200086B2C3E700BFBDE8F8872DE9F84354
:1016600006460D4614461F464FF00008C14654E09A
:10167000207800B952E006EB090086B22078802875
:101680001ADD06F11000B0F5F07F07DD002605F148
:10169000100085B2B5F5887F00DD00252046FFF7F4
:1016A000D8FD1FFA80F83B462A4631464046FFF7F0
:1016B0001FFF8146A41C2FE020780D280AD105F1D8
:1016C000100085B2B5F5887F00DD0025641C4FF061
:1016D000000922E020780A2804D10026641C4FF07B
:1016E00000091AE006F10800B0F5F07F07DD0026DA
:1016F00005F1080085B2B5F5887F00DD0025864834
:101700004068009084482278294603683046FFF7F5
:1017100072FC641C4FF00A0900BFA9E700BFBDE8D6
:10172000F8832DE9F84306460D4614461F464FF050
:101730000008C14654E0207800B952E006EB0900E9
:1017400086B2207880281ADD06F11000B0F5F07F0F
:1017500007DD002605F1100085B2B5F5887F00DDB4
:1017600000252046FFF775FD1FFA80F83B462A4604
:1017700031464046FFF7BCFE8146A41C2FE020788E
:101780000D280AD105F1100085B2B5F5887F00DD7E
:101790000025641C4FF0000922E020780A2804D1BB
:1017A0000026641C4FF000091AE006F10800B0F5AD
:1017B000F07F07DD002605F1080085B2B5F5887FCA
:1017C00000DD00255448406800905348227829469F
:1017D00003683046FFF73FFC641C4FF0080900BF68
:1017E000A9E700BFBDE8F883F0B504461D46062A08
:1017F00000DD0A2202B90122052900DD05219142FE
:1018000000DD1146002004E02026444F3E54461CD3
:10181000F0B20C28F8D310460FE00A26B4FBF6F716
:1018200006FB17463036471EDFF8F0C00CF807609D
:101830000A26B4FBF6F4461EF0B20028EDDC89B1AE
:101840001346084605E05E1E344FBE5DFE545E1E24
:10185000F3B2061EA0F10107F8B2F4D12E262F4FE5
:10186000FE5402E020262D4FBE54A5B900200EE004
:101870002A4E365C302E07D1284F461CBE5D2E2ED8
:1018800002D020263E5400E004E0461CF0B2561E72
:101890008642EDDC00BF561CF2B2104604E0002682
:1018A0001E4F3E54461CF0B20C28F8D3F0BD30B5A4
:1018B0001B4A00210CE004782404457844EA0524FE
:1018C000857844EA050308C2401C401C401C491CA2
:1018D000B1F5FF3FEFD330BD70B51149002214E0E0
:1018E00000230CE005782D04467845EA0625867825
:1018F00045EA060410C1401C401C401C5B1CB3F5AB
:10190000B57FEFD301F5EC71521CB2F5887FE7D3B8
:1019100070BD0000F49A010014000010B8520010CD
:10192000000001A038B5002474E0FD48A10004EBDC
:10193000440303EB041301EB8301009088B204EB32
:1019400084014C2303EB01118AB240F20F13E4210E
:10195000FFF775FAF34804EB84014C2303EB011104
:101960008AB204EB84010901491C009088B2E32388
:101970001946FFF7A8FAEB4804EB84014C2303EB6C
:1019800001118AB204EB840103EB0111009088B2CB
:1019900040F20F13E321FFF796FA002004EB8401D5
:1019A0004C2303EB0111491C8AB204EB840103EBC5
:1019B0000111491C009088B240F20F13E321FFF798
:1019C00082FA002004EB84014C2303EB0111891CF3
:1019D0008AB204EB840103EB0111891C009088B2E8
:1019E00040F20F13E321FFF76EFA002004EB8401AD
:1019F0004C2303EB0111C91C8AB204EB840103EBF5
:101A00000111C91C009088B240F20F13E321FFF7C7
:101A10005AFA641C062C88D338BD10B5FFF782FF34
:101A2000BF48C14948606FF07F4008600023BFA2F3
:101A3000F1215420FFF712FE0023BEA2F121A420C1
:101A4000FFF70CFE10BD70B50546FFF76BFFB448FD
:101A5000B54948606FF07F400860A5B900240FE0E9
:101A600004EB4401B54B03EB410204EB8401542326
:101A700003EB01100023F121FFF7F0FD601CC4B25D
:101A8000052CEDDB14E0002410E0611D01EB4101A9
:101A9000AA4B03EB410204EB8401542303EB011036
:101AA0000023F121FFF7DAFD601CC4B2052CECDB4A
:101AB00070BD10B5FFF736FF99489B4948606FF03D
:101AC0007F4008609E4890F8D80030B100239DA266
:101AD000F1215420FFF7C2FD05E000239CA2F12173
:101AE0005420FFF7BBFD10BD10B5FFF71BFF8C485E
:101AF0008D4948606FF07F400860002396A2F12175
:101B00005420FFF7ABFD10BD10B50446FFF70AFFE8
:101B1000002C71D16FF07F40834908608048486095
:101B2000874890F8D800002832D000238BA2E72104
:101B30005420FFF793FD00238AA2FB215420FFF7D6
:101B40008DFD002385A2E721A420FFF787FD002358
:101B500086A2FB21A420FFF781FD002385A2E721B7
:101B6000F420FFF77BFD002380A2FB21F420FFF788
:101B700075FD00237FA2E7214FF4A270FFF76EFDF1
:101B800000237DA2FB214FF4A270FFF767FDA9E0BF
:101B900000237BA2E7215420FFF760FD00237AA2F7
:101BA000FB215420FFF75AFD002375A2E721A42052
:101BB000FFF754FD002376A2FB21A420FFF74EFD82
:101BC000002375A2E721F420FFF748FD002370A24F
:101BD000FB21F420FFF742FD00236FA2E7214FF421
:101BE000A270FFF73BFD00236DA2FB214FF4A27012
:101BF000FFF734FD76E0FFE7012C50D16FF07F4016
:101C000049490860464848604D4890F8D800F8B106
:101C1000002365A2E7215420FFF720FD002364A2E2
:101C2000FB215420FFF71AFD002363A2E721A42023
:101C3000FFF714FD002362A2FB21A420FFF70EFD95
:101C4000002361A2E7214FF4CA70FFF707FD1EE0F1
:101C500000235FA2E7215420FFF700FD00235EA2CE
:101C6000FB215420FFF7FAFC00235DA2E721A4200A
:101C7000FFF7F4FC00235CA2FB21A420FFF7EEFC9D
:101C800000235BA2E7214FF4CA70FFF7E7FC0023B3
:101C900059A2FB214FF4CA70FFF7E0FC22E06FF07D
:101CA0007F40214908601E484860254890F8D800C8
:101CB00060B1002352A2F2215320FFF7CFFC002392
:101CC00051A2F221A320FFF7C9FC0BE0002350A290
:101CD000F2215320FFF7C2FC00234FA2F221A320E0
:101CE000FFF7BCFC10BD10B5FFF71CFE6FF07F4086
:101CF0000D4908600A484860114890F8D80068B15A
:101D0000002347A2E7215420FFF7A8FC002346A2A6
:101D1000FB215420FFF7A2FC002389E096E000009D
:101D2000380031006843690014000010206DA6B827
:101D30002020000020A6B82000000000DADB01000F
:101D4000680E001020436F6E6669726D20000000FF
:101D500020C8B7C8CF2000002A3100004D454153AC
:101D60000000000044495350000000005345545502
:101D70005000000053595300494E464F00000000E8
:101D8000B2E2C1BF00000000CFD4CABE0000000014
:101D9000C9E8D6C300000000CFB5CDB300000000F5
:101DA000D0C5CFA20000000046696C65730000003A
:101DB0004D616E616765000053617665000000004B
:101DC00044617461000000004D6F72650000000006
:101DD000CEC4BCFE00000000B9DCC0ED0000000075
:101DE000B1A3B4E600000000CAFDBEDD00000000A3
:101DF000B8FCB6E00000000020322F3200000000E6
:101E000043616E63656C0000436F6E6669726D00BE
:101E10002020C8A1CFFB20002020C8B7C8CF2000B9
:101E200044656C65746500005461626C6500000077
:101E3000FEA2F1214FF4A270FFF710FC0023FDA2D7
:101E4000F1214FF4CA70FFF709FC19E00023FBA24F
:101E5000E7215420FFF702FC0023FAA2FB215420C3
:101E6000FFF7FCFB0023F9A2F1214FF4A270FFF76A
:101E7000F5FB0023F7A2F1214FF4CA70FFF7EEFB48
:101E800010BD10B50446FFF74DFD0CB1012C64D117
:101E90006FF07F40F1490860F1484860F14890F8E0
:101EA000D80000282CD00023EFA2F1215420FFF706
:101EB000D5FB0023EFA2E721A420FFF7CFFB0023EF
:101EC000EEA2FB21A420FFF7C9FB0023EDA2E7212E
:101ED000F420FFF7C3FB0023EDA2FB21F420FFF762
:101EE000BDFB0023D1A2F1214FF4A270FFF7B6FB96
:101EF0000023D0A2F1214FF4CA70FFF7AFFB77E0C7
:101F00000023E5A2F1215420FFF7A8FB0023E4A25F
:101F1000E721A420FFF7A2FB0023E3A2FB21A420DA
:101F2000FFF79CFB0023E2A2E721F420FFF796FBDA
:101F30000023DDA2FB21F420FFF790FB0023C3A2C6
:101F4000F1214FF4A270FFF789FB0023C1A2F12118
:101F50004FF4CA70FFF782FB4AE06FF07F40BF4941
:101F60000860BF484860BF4890F8D80000B300231D
:101F7000BDA2F1215420FFF771FB0023BFA2E7218E
:101F8000A420FFF76BFB0023CBA2FB21A420FFF7CB
:101F900065FB0023A5A2F1214FF4A270FFF75EFBC1
:101FA0000023A4A2F1214FF4CA70FFF757FB1FE0F2
:101FB0000023B9A2F1215420FFF750FB0023BAA25D
:101FC000E721A420FFF74AFB0023BDA2FB21A420A8
:101FD000FFF744FB00239DA2F1214FF4A270FFF70D
:101FE0003DFB00239BA2F1214FF4CA70FFF736FBA3
:101FF00010BD10B50446FFF795FC002C7ED16FF0A4
:102000007F409649086096484860964890F8D80006
:1020100000283AD00023AFF2BC22E7215420FFF77A
:102020001DFB0023AFF2C422FB215420FFF716FB57
:102030000023AFF2D822E721A420FFF70FFB0023F3
:10204000AFF2D822FB21A420FFF708FB0023AFF258
:10205000DC22E721F420FFF701FB0023AFF2F4229A
:10206000FB21F420FFF7FAFA0023AFF2F822E72170
:102070004FF4A270FFF7F2FA0023AFF20432FB2113
:102080004FF4A270FFF7EAFAA4E00023AFF2103297
:10209000E7215420FFF7E2FA0023AFF21432FB21CC
:1020A0005420FFF7DBFA0023AFF22C32E721A42003
:1020B000FFF7D4FA0023AFF22832FB21A420FFF768
:1020C000CDFA0023AFF23032E721F420FFF7C6FA51
:1020D0000023AFF24432FB21F420FFF7BFFA0023C4
:1020E000AFF24C32E7214FF4A270FFF7B7FA0023AA
:1020F000AFF25432FB214FF4A27000E002E0FFF790
:10210000ADFA67E0012C65D16FF07F40534908605C
:1021100053484860534890F8D80048B30023AFF2C2
:102120007832E7215420FFF799FA0023AFF280328A
:10213000FB215420FFF792FA0023AFF2C832E721C7
:10214000A420FFF78BFA00235FA2FB21A420FFF756
:1021500085FA00235EA2F121F420FFF77FFA002325
:10216000AFF29C32E7214FF4CA70FFF777FA29E00B
:102170000023AFF2A432E7215420FFF76FFA0023C7
:10218000AFF2AC32FB215420FFF768FA0023AFF224
:10219000F832E721A420FFF761FA0023AFF21042E2
:1021A000FB21A420FFF75AFA00234BA2F121F420CF
:1021B000FFF754FA0023AFF2C832E7214FF4CA7098
:1021C000FFF74CFA0023AFF2D032FB214FF4CA7074
:1021D000FFF744FA10BD10B56FF07F401F4908604B
:1021E0001F4848601F4890F8D80000281DD00023E1
:1021F000AFF29842E7215420FFF730FA0023AFF204
:102200009C42FB215420FFF729FA0023AFF2B4428D
:10221000E721A420FFF722FA0023AFF2B042FB210E
:10222000A420FFF71BFA00235AE077E050524556EE
:10223000000000004E45585400000000C7E5B3FD03
:1022400000000000B1EDB8F100000000C9CFD2BB22
:10225000D2B30000CFC2D2BBD2B300001400001032
:1022600038003100680E001044656C2D4C696E65B5
:10227000000000004C696E65617200004175746F6A
:10228000000000004C6F6761726974686D000000A7
:102290004179746F00000000C9BEB3FDD0D00000CA
:1022A000CFDFD0D400000000D7D4B6AF00000000CC
:1022B000B6D4CAFD00000000436F70790000000032
:1022C000B8B4D6C600000000536574557000000015
:1022D000546F6F6C73000000B9A4BEDF00000000F3
:1022E000AFF27052E721F420FFF7B8F90023AFF204
:1022F0008452FB21F420FFF7B1F90023AFF28C5296
:10230000E7214FF4A270FFF7A9F90023AFF298522A
:10231000FB214FF4A270FFF7A1F939E00023AFF2DF
:10232000A052E7215420FFF799F90023AFF2A852F9
:10233000FB215420FFF792F90023AFF2BC52E721B2
:10234000A420FFF78BF90023AFF2BC52FB21A4209D
:10235000FFF784F90023AFF2C052E721F420FFF722
:102360007DF90023AFF2D852FB21F420FFF776F974
:102370000023AFF2DC52E7214FF4A270FFF76EF9B1
:102380000023AFF2E452FB214FF4A270FFF766F98D
:1023900010BD08B5FE481623F02200210090084623
:1023A000FEF74DFD08BD08B5FA48CA2340F2DF121A
:1023B0005C2100900020FEF742FD08BD10B5FFF73C
:1023C000E8FFFFF7AFFAFFF7EEFF10BD10B5FFF71C
:1023D000F5FF6FF07F40F0490860ED484860EF4836
:1023E00090F8D80030B10023ED4A04211846FFF7D9
:1023F00035F905E00023EB4A04211846FFF72EF9D2
:102400006FF07F40E44908604FF0501048600024AE
:1024100053E0032C27D2E14890F8D80088B104EBB0
:102420008400E14B03EB400204EB440000EBC400EA
:102430001A2303EB400081B200231846FFF70EF980
:102440003AE004EB8400D94B03EB400204EB440078
:1024500000EBC4001A2303EB400081B200231846AE
:10246000FFF7FCF828E0CD4890F8D80090B104EBD5
:102470008400CD4B03EB4002E01E00EB400303EB76
:10248000C0001A2303EB400081B20023FA20FFF7BB
:10249000E5F811E004EB8400C44B03EB4002E01EBE
:1024A00000EB400303EBC0001A2303EB400081B2B2
:1024B0000023FA20FFF7D2F8641C062CA9D30020D1
:1024C000FFF722FB10BD08B5B248BE2340F2DF1271
:1024D000702100900020FEF7B2FC08BD10B5FFF798
:1024E00058FFFFF71FFAFFF7EEFF10BD38B504469F
:1024F0004FF05010A8494860AD4800EB840201231A
:10250000C8211420FFF7AAF8AA4800EB840201238F
:10251000C8214FF48C70FFF7A1F89E489E4948608F
:10252000A548372328227A2100905020FEF7AEFEDE
:10253000A248372328227A2100907820FEF7A6FEB1
:102540009F48372328227A2100908C20FEF79EFE98
:1025500038BD10B5FFF7C2FF6FF07F408E490860AD
:102560008B4848608D4890F8D80038B100238C4AD9
:10257000163204211846FFF771F806E00023894A55
:10258000163204211846FFF769F86FF07F40824940
:1025900008604FF05010486000244BE0032C23D219
:1025A0007E4890F8D80078B1864800EBC40204EB6E
:1025B000440000EBC4001A2303EB400081B2002367
:1025C0001846FFF74BF834E07F4800EBC40204EBF9
:1025D000440000EBC4001A2303EB400081B2002347
:1025E0001846FFF73BF824E06C4890F8D80080B11B
:1025F000744800EBC402E01E00EB400303EBC00094
:102600001A2303EB400081B20023FA20FFF726F8DB
:102610000FE06D4800EBC402E01E00EB400303EB4B
:10262000C0001A2303EB400081B20023FA20FFF719
:1026300015F8641C072CB1D3644991F8B803FFF76F
:1026400055FF0020FFF760FA10BD08B55148A023E0
:1026500040F2DF12562100900020FEF7F0FB4D48BB
:10266000E32340F2DF12C12100900020FEF7E7FBD8
:1026700008BD10B5FFF78DFEFFF754F9FFF7E5FF32
:1026800010BD2DE9F04104460D461646504B1B5D2A
:1026900003EB43034F4FDA19B1B2A8B20023FEF7A0
:1026A000DDFFBDE8F08110B5FFF7E3FF6FF07F407D
:1026B0003949086036484860384890F8D80038B141
:1026C0000023374A2C3204211846FEF7C7FF06E0E4
:1026D0000023344A2C3204211846FEF7BFFF6FF066
:1026E0007F402D4908604FF050104860002421E0E1
:1026F0002A4890F8D80070B1C4EBC401364BCA1810
:1027000004EB84014FF6FF7303EA411000231A2102
:10271000FEF7A4FF0DE0C4EBC401304BCA1804EB74
:1027200084014FF6FF7303EA411000231A21FEF7DC
:1027300095FF641C032CDBD32448D0F8C00300EBC6
:10274000400101EBC0002649421801231A213C2018
:10275000FEF784FF1D4A92F80C110023D2F80801FD
:102760000622FFF741F801231E4A1A21DC20FEF75A
:1027700075FF1648D0F8100100EB40001A494218C6
:1027800001231A214FF49170FEF768FF0F492DE0E5
:10279000F35203003434650014000010680E00107A
:1027A000A5D70100B3D60100B9C501007DC5010060
:1027B0004ACA0100A6CA0100F9AD01003CC00100EF
:1027C0004FC1010013D30100DBD201006C0F0010D8
:1027D0002BDC010043DC010097D80100ACD80100DC
:1027E000B8CB0100B852001016DC01001A22D1F853
:1027F000B8034FF49671FFF744FF0023FBA22E218C
:102800001846FEF78EFF0023F9A22E217820FEF74E
:1028100088FF0023F8A22E21F020FEF782FF00237C
:10282000F7A22E214FF4C870FEF77BFF06243FE08D
:10283000A01F012801D9072802D3A01F082803D907
:10284000F148F249486003E04FF05010EF4948600A
:10285000A01FC0EBC001EE4800EBC1004068E0B132
:10286000A21FC2EBC203EA4A02EBC302117AA21F03
:10287000C2EBC203E64A02EBC30201235068062200
:10288000FEF7B2FFA01FC0EB00103A3081B2012367
:10289000E04A7820FEF745FF09E0A01FC0EB0010DA
:1028A0003A3081B20123DCA27820FEF73AFF641CA3
:1028B0000F2CBDD3D448D5494860D948D0F844033B
:1028C00078B1D74A92F848130123D2F8440306227C
:1028D000FEF78AFF0123CF4AC4217820FEF721FFAB
:1028E00005E00123CCA2C4217820FEF71AFF1024B2
:1028F00047E0A4F11000012801D9072803D3A4F16F
:102900001000082803D9C048C049486003E04FF0D0
:102910005010BE494860A4F11000C0EBC001BC4893
:1029200000EBC100006A00B3A4F11002C2EBC203C5
:10293000B74A02EBC30292F82410A4F11002C2EBD2
:10294000C203B34A02EBC3020123106A0622FEF758
:102950004BFFA4F11000C0EB00103A3081B201230C
:10296000AC4AFA20FEF7DDFE0AE0A4F11000C0EB4D
:1029700000103A3081B20123A7A2FA20FEF7D1FE5F
:10298000641C192CB5D3A048A0494860A448D0F8CD
:10299000440378B1A24A92F82C130123D2F82803F9
:1029A0000622FEF721FF01239A4AC421FA20FEF7EE
:1029B000B8FE05E0012398A2C421FA20FEF7B1FE7B
:1029C000012419E0022C05D9082C03D28E488F4926
:1029D000486003E04FF050108C494860601E00EBE7
:1029E000C000904BC218C4EB04102B3081B20023FE
:1029F0000820FEF796FE641C0A2CE3D38248834924
:102A00004860002388A2C4211846FEF78AFE0023EE
:102A100086A2D4211846FEF784FE002385A2D42185
:102A2000F020FEF77EFE0020FFF76EF810BD08B51F
:102A30007548A02340F2DF12602100900020FEF7CD
:102A4000FEF908BD10B5FFF7A4FCFEF76BFFFFF71A
:102A5000EEFF10BD10B5FFF7F5FF6FF07F406B493B
:102A6000086076484860764890F8D80030B1002376
:102A7000744A04211846FEF7F1FD05E00023724A6E
:102A800004211846FEF7EAFD6FF07F405F490860B9
:102A90004FF0501048606A4890F8D80090B1002379
:102AA0006AA21A211846FEF7D9FD002369A2302137
:102AB0002820FEF7D3FD002369A230218C20FEF7E9
:102AC000CDFD11E0002368A21A211846FEF7C6FDCD
:102AD000002367A230212820FEF7C0FD002367A253
:102AE00030218C20FEF7BAFD002366A23021F020B1
:102AF000FEF7B4FD002365A230214FF4AA70FEF763
:102B0000ADFD002363A230214FF4DC70FEF7A6FD7B
:102B10000020FEF7F9FF10BD08B53B489A2340F2AC
:102B2000DF125A2100900020FEF789F908BD10B588
:102B3000FFF72FFCFEF7F6FEFFF7EEFF10BD10B516
:102B4000FFF7F5FF6FF07F40304908603B48486071
:102B50003B4890F8D80038B100233A4A1632042195
:102B60001846FEF77BFD06E00023374A16320421A3
:102B70001846FEF773FD6FF07F40244908604FF060
:102B8000501048600024BDE0092C2DD2022C05D93C
:102B9000062C03D21C481D49486003E04FF050103A
:102BA0001A494860264890F8D80070B104EB8400B8
:102BB000394B03EB4002162304FB03F01A3081B2B9
:102BC00000231846FEF74AFD9BE004EB8400334BDC
:102BD00003EB4002162304FB03F01A3081B20023FA
:102BE0001846FEF73BFD8CE05AE0000042494E00DB
:102BF0004C4F57205B465D00484947485B465D00A7
:102C0000434F554E5400000034346500140000104A
:102C100098100010B85200102D2D2D2D2D2D0000D4
:102C20006C0F00102CC50100326E64004155583AFB
:102C3000000000004F55543A00000000F35203001A
:102C4000680E0010E7D70100F5D601004D6F6465EE
:102C50003A000000467265715B487A5D0000000032
:102C60004C45565B565D0000B7BDCABD203A00001A
:102C7000C6B5C2CA5B487A5D00000000B5E7C6BDB4
:102C80005B565D0043705B465D000000445B205D69
:102C900000000000434D5000FFD301004BD3010062
:102CA000A4F10900022805D9062803D2FD48FE49EF
:102CB000486003E04FF05010FB494860FB4890F833
:102CC000D80078B104EB8400F94B03EB4002A4F187
:102CD0000900162358431A3081B20023FA20FEF768
:102CE000BDFC0EE004EB8400F24B03EB4002A4F1C8
:102CF0000900162358431A3081B20023FA20FEF748
:102D0000ADFC641C122CFFF43FAF0020FFF771F9FB
:102D100010BDF8B505464FF05010E3494860E6484D
:102D2000D0F8B80300EBC000E449421801231A218F
:102D30005820FEF793FCE048D0F8C00300EB4001B8
:102D400001EBC000DE494218012330215820FEF774
:102D500085FCD948D0F8C40300EB400101EBC0006A
:102D6000D8494218012346215820FEF777FCCF4866
:102D700090F8D80060B1D048D0F8180440B90023CA
:102D8000AFF608321A214FF4A970FEF767FC0EE087
:102D9000C948D0F8180400EB400101EBC000CA4953
:102DA000421800231A214FF4A970FEF757FCC248BD
:102DB000D0F8200400EB400101EBC000C3494218E9
:102DC000012346214FF4A970FEF748FCBA48D0F819
:102DD0001C0400EB400101EBC000BD494218012377
:102DE00030214FF4A970FEF739FC2878012800D172
:102DF00000E0002006461EB1FF20AB49486003E01A
:102E00004FF05010A8494860A74840686E234FF41F
:102E1000DD725A2100904FF4A970FEF710F8A64811
:102E2000D0F8280100EB400101EBC000A84942188E
:102E300001235C214FF4A970FEF710FCFEF772FD30
:102E4000287801281BD16FF07F4097490860A1487E
:102E50004860002410E004EB440101EBC4019C4BEA
:102E6000CA1804EB8401542303EB011188B2002338
:102E7000F121FEF7F3FB641C022CECD302E00020EE
:102E8000FEF742FEF8BDF8B505464FF050108649F2
:102E900048602878012800D100E0002006461EB1D5
:102EA000FF208149486003E04FF050107E494860A0
:102EB0007D4840682A234FF4D7721A2100904FF4BE
:102EC000BE70FDF7BCFF7C48D0F85C0300EB40010E
:102ED00001EBC0007E49421801231A214FF4BE7055
:102EE000FEF7BCFBFEF71EFD287801281BD16FF012
:102EF0007F406D49086077484860002410E004EB8B
:102F0000440101EBC401724BCA1804EB8401542341
:102F100003EB011188B20023F121FEF79FFB641C33
:102F2000022CECD302E00020FEF7EEFDF8BD70B5F8
:102F3000054601246DE1022C05DD072C03DA594812
:102F40005949486003E04FF0501057494860601EEF
:102F5000594991F87D1401EB810100EB410000EB30
:102F600080015D4800EB81008068401C40B933203F
:102F700000EB0411002359A2F620FEF7D2FB27E054
:102F8000621E4D4B93F87D3403EB830302EB430247
:102F900002EB8203504A02EB8302117B621E464B16
:102FA00093F87D3403EB830302EB430202EB8203CD
:102FB000494A02EB8302012390680522FEF714FCC4
:102FC000332000EB04110023464AF620FEF7A9FB4C
:102FD000601E394991F87D1401EB810100EB41003D
:102FE00000EB8001404800EB81008068401C48B93C
:102FF000332000EB0411002338A24FF4AD70FEF72C
:1030000090FB28E0621E2C4B93F87D3403EB830386
:1030100002EB430202EB8203334A02EB8302117B91
:10302000621E254B93F87D3403EB830302EB4302CE
:1030300002EB82032C4A02EB8302012390680522F3
:10304000FEF7D2FB332000EB04110023254A4FF496
:10305000AD70FEF766FB601E174991F87D1401EB19
:10306000810100EB41012148405CFF2809D1332058
:1030700000EB041100231EA24FF4DF70FEF751FB9A
:1030800049E0601E0C4991F87D1401EB810100EBD1
:1030900041011648405C78B3332000EB0411002353
:1030A00014A22AE03434650014000010680E0010E9
:1030B000FFD301004BD301006C0F001072C9010057
:1030C000B8CB01003FCE010088CE01006BCF0100DC
:1030D000A4CF010038003100901500102D2D2D2DAA
:1030E00000000000B8520010F825001060360010F3
:1030F0002D0000005000000004E04FF4DF70FEF7E8
:1031000010FB08E0332000EB04110023FEA24FF473
:10311000DF70FEF706FB022C05DD072C03DAFB4807
:10312000FB49486003E04FF05010F9494860601EC9
:10313000F84991F87D1401EB810100EB4101F6485B
:10314000405C1E2809DD332000EB04110023AFF2A0
:1031500074022620FEF7E5FA16E0601EED4B93F8A8
:103160007D3403EB830300EB4303EB48C05C00EBCF
:10317000400303EBC000E94BC218332000EB0411FD
:1031800000232620FEF7CDFA601EE24991F87D1457
:1031900001EB810100EB4101DF48D230405C0228A5
:1031A00009DD332000EB04110023AFF2D00292209E
:1031B000FEF7B7FA17E0601ED64B93F87D3403EBA9
:1031C000830300EB4303D448D230C05C00EB4003E0
:1031D00003EBC000D24BC218332000EB04110023D4
:1031E0009220FEF79EFACB4991F87D1401EB810104
:1031F00004EB4100012303220021FEF7F5FA3320FE
:1032000000EB04110023C74A0820FEF78AFA601C6D
:10321000C4B20B2CFFF68FAE70BDF8B5054628780A
:10322000022802D1FEF75FFD05E02878022802DDC2
:10323000A878FEF726FE2878012805D1A87818B9C5
:10324000FF20B349486003E04FF05010B049486098
:10325000AF4840682A235E221A2100903620FDF7ED
:10326000EEFDAC48D0F8840300EBC000AE49421834
:1032700000231A213620FEF7F1F92878022805D11B
:10328000A87818B9FF20A249486003E04FF0501019
:103290009F4948609E48406842231E223221009088
:1032A0000020FDF7CCFD0023A0A232211846FEF736
:1032B000D5F90324D7E12878A04206D1A8780228BE
:1032C00003D1FF209249486003E04FF0501090492D
:1032D00048608F4840680090A01E332202EB001027
:1032E000103083B2A01E02EB001081B24FF499722D
:1032F000FA20FDF7A4FDE01EE97801EB810100EB67
:10330000410000EB80018A4800EB81008068401C8E
:1033100058B9A01E332202EB001081B20023AFF295
:103320004422FA20FEF7FDF925E0E21EEB7803EBDC
:10333000830302EB430202EB82037D4A02EB83022A
:10334000117BE21EEB7803EB830302EB430202EBFB
:103350008203774A02EB8302012390680522FEF77D
:1033600043FAA01E332202EB001081B200236D4A03
:10337000FA20FEF7D6F92878A04206D1A8780328CB
:1033800003D1FF206249486003E04FF050106049CC
:1033900048605F4840680090A01E332202EB001096
:1033A000103083B2A01E02EB001081B24FF4C17244
:1033B0004FF4A570FDF743FDE01EE97801EB8101B4
:1033C00000EB410000EB80015A4800EB810080686F
:1033D000401C60B9A01E332202EB001081B2002312
:1033E000AFF208324FF4A570FEF79BF926E0E21E1B
:1033F000EB7803EB830302EB430202EB82034D4ABB
:1034000002EB8302117BE21EEB7803EB830302EBFA
:10341000430202EB8203474A02EB830201239068D6
:103420000522FEF7E1F9A01E332202EB001081B263
:1034300000233C4A4FF4A570FEF773F92878A042A8
:1034400006D1A878042803D1FF203149486003E061
:103450004FF050102E4948602D4840680090A01E43
:10346000332202EB0010103083B2A01E02EB0010DA
:1034700081B240F2DF124FF4D270FDF7E0FCE01EA3
:10348000E97801EB810100EB41012B48405CFF280A
:103490000CD1A01E332202EB001081B20023AFF248
:1034A000C4324FF4D270FEF73CF90BE0A01E332279
:1034B00002EB001081B20023AFF2C8324FF4D27099
:1034C000FEF72FF92878A04205D1A87818B9FF2077
:1034D0000F49486003E04FF050100D4948600C4818
:1034E00040680090A01E332202EB0010103083B21F
:1034F000A01E02EB001081B27E222820FDF79FFC67
:10350000E01EE9781AE0000046000000343465004F
:10351000140000106C0F0010EA130010B8CB01006B
:103520003FCE0100B852001072C901004E6F2E004C
:1035300090150010F82500106036001001EB810195
:1035400000EB4101F748405C30280BDDA01E332220
:1035500002EB001081B20023AFF280422820FEF778
:10356000E0F816E0E01EEB7803EB830300EB430387
:10357000EC48C05C00EB400303EBC000EA4BC21810
:10358000A01E332303EB001081B200232820FEF796
:10359000C8F82878A04206D1A878012803D1FF20D6
:1035A000E249486003E04FF05010E0494860DF48CE
:1035B00040680090A01E332202EB0010103083B24E
:1035C000A01E02EB001081B2C4227E20FDF737FC62
:1035D000E01EE97801EB810100EB4101D148D230D6
:1035E000405C02280BDDA01E332202EB001081B2EA
:1035F0000023AFF218527E20FEF793F817E0E01E8A
:10360000EB7803EB830300EB4303C648D230C05C86
:1036100000EB400303EBC000C54BC218A01E3323D0
:1036200003EB001081B200237E20FEF77AF84FF002
:103630005010BE4948604860E97801EB810104EB15
:103640004101881E012303220021FEF7CDF8A01EB0
:10365000332202EB001081B20023B64A0820FEF7A5
:1036600060F8601CC4B20D2CFFF625AEF8BDF8B5AD
:1036700005464FF05010AD4948602878012800D128
:1036800000E0002006461EB1FF20A849486003E084
:103690004FF05010A5494860A44840682A2358229A
:1036A0001A2100903020FDF7CAFBA34890F87C0453
:1036B00000EB8000A149421801231A213020FDF7B8
:1036C000CDFF2878022801D1012000E00020064625
:1036D0001EB1FF209549486003E04FF05010934918
:1036E00048609248406840231E2230210090082004
:1036F000FDF7A5FB0123AFF2CC1230210820FDF726
:10370000ADFFFEF70FF92878012819D16FF07F403F
:10371000864908608A48486000240EE004EB840172
:10372000864BCA1804EB8401542303EB011188B2C1
:103730000023F121FDF792FF641C022CEED334E04C
:10374000287802282ED16FF07F40784908607C48A5
:103750004860002423E07B4890F8D80078B1C4EB9F
:10376000C401794BCA18E11C01EB8101542303EB1E
:10377000011188B20023F121FDF770FF0EE0C4EBC8
:10378000C401724BCA18E11C01EB8101542303EB05
:10379000011188B20023F121FDF760FF641C022CA7
:1037A000D9D302E06878FEF7AFF9F8BDF8B5044662
:1037B0002078012800D100E0002006461EB1FF203D
:1037C0005A49486003E04FF0501058494860574844
:1037D00040682C23C022182100905820FDF72FFBB1
:1037E000584890F8D80058B156480078C0EBC0004F
:1037F0005749421800231A215820FDF72FFF0AE0ED
:1038000050480078C0EBC0005249421800231A21EA
:103810005820FDF723FF2078022801D1012000E085
:10382000002006461EB1FF204049486003E04FF0EB
:1038300050103E494860434A92F868100023506E89
:103840000522FDF7D1FF00233A4A30215820FDF729
:1038500005FF3C48C06E30B100233FA230219220CA
:10386000FDF7FCFE05E000233CA230219220FDF78D
:10387000F5FE2078032801D1012000E00020064653
:103880001EB1FF202949486003E04FF0501027493E
:1038900048602C4A117B002390680522FDF7A4FFA5
:1038A0000023244A46215820FDF7D8FE2548006908
:1038B00030B1002328A246219220FDF7CFFE05E07B
:1038C000002326A246219220FDF7C8FE2078042876
:1038D00001D1012000E0002006461EB1FF2013495F
:1038E000486003E04FF05010104948600F484068AE
:1038F0002C234FF4DD72182100904FF4A970FDF7CE
:103900009EFA104890F8D80058B10E4890F8400040
:1039100038B90023124A1A214FF4A970FDF79EFE10
:103920002FE01FE0EA130010B8CB010014000010D4
:103930003FCE0100B85200106C0F0010BACF01004A
:1039400038003100680E0010D2CF0100C4CF010052
:1039500021C6010013C6010020A6B8006DA6B8005C
:103960007C220000FE4890F8400000EB400101EB93
:10397000C000FC49421800231A214FF4A970FDF73A
:103980006DFE2078052801D1012000E000200646C8
:103990001EB1FF20F449486003E04FF05010F24997
:1039A0004860EF4A92F8A0100023D2F89C0004224D
:1039B000FDF71AFF0023ED4A30214FF4A970FDF7FF
:1039C0004DFE0023EAA230214FF4C170FDF746FE00
:1039D0002078062801D1012000E0002006461EB113
:1039E000FF20E149486003E04FF05010DE49486095
:1039F000DB4A92F82C100023906A0422FDF7F4FEB3
:103A00000023DA4A46214FF4A970FDF727FE002370
:103A1000D7A246214FF4C170FDF720FEFDF782FFCB
:103A2000207810B1012831D103E00020FEF76CF8B6
:103A30002DE06FF07F40CC490860CE4848600025FB
:103A400021E0C74890F8D80070B1C5EBC501CA4B5A
:103A5000CA1805EB8501542303EB011188B200233A
:103A6000F121FDF7FBFD0DE0C5EBC501C34BCA1805
:103A700005EB8501542303EB011188B20023F121EA
:103A8000FDF7ECFD6D1C022DDBD300E000BF00BF95
:103A9000F8BDF8B505462878012800D100E00020DF
:103AA00006461EB1FF20B049486003E04FF05010B9
:103AB000AD494860AC4840682C23C02218210090D2
:103AC0005820FDF7BCF9A64890F8D80058B1A44892
:103AD0000078C0EBC000A849421800231A215820E2
:103AE000FDF7BCFD0AE09E480078C0EBC000A3498A
:103AF000421800231A215820FDF7B0FD287802282B
:103B000001D1012000E0002006461EB1FF209649A9
:103B1000486003E04FF05010934948609248406875
:103B20004223C0222E2100905820FDF788F98C48AE
:103B300090F8D80058B18A484078C0EBC00090494E
:103B40004218002330215820FDF788FD0AE0844800
:103B50004078C0EBC0008B49421800233021582028
:103B6000FDF77CFD2878032801D1012000E000202A
:103B700006461EB1FF207C49486003E04FF050101C
:103B800079494860784840686E23C02244210090FB
:103B90005820FDF754F9724890F8D80060B1704889
:103BA00090F8B500C0EBC0007749421800234621C9
:103BB0005820FDF753FD0BE0694890F8B500C0EBC5
:103BC000C00072494218002346215820FDF746FDE7
:103BD0002878042801D1012000E0002006461EB10B
:103BE000FF206149486002E069485F4948605E48DB
:103BF00040686E23C0225A2100905820FDF71FF91B
:103C0000574890F8D80058B155488078C0EBC000AC
:103C10006049421800235C215820FDF71FFD0AE08F
:103C20004F488078C0EBC0005B49421800235C21FC
:103C30005820FDF713FD2878052801D1012000E068
:103C4000002006461EB1FF204749486002E0504868
:103C500045494860424A117B002390680522FDF7E0
:103C6000C3FD414840688423C02270210090582041
:103C7000FDF7E5F800233D4A72215820FDF7EEFCE0
:103C80003748006938B10023AFF2343272219220F4
:103C9000FDF7E4FC06E00023AFF2403272219220EF
:103CA000FDF7DCFC2878062801D1012000E0002087
:103CB00006461EB1FF202C49486003E04FF050102B
:103CC0002949486028484068B023C0229C210090C0
:103CD0005820FDF7B4F8224890F8D80060B1204889
:103CE00090F82000C0EBC0002A49421800239E2112
:103CF0005820FDF7B3FC0BE0194890F82000C0EB0A
:103D0000C0002549421800239E215820FDF7A6FC3B
:103D10002878072801D1012000E0002006461EB1C6
:103D2000FF201149486003E04FF050100E494860F1
:103D30000B4A92F82C100023906A0422FDF754FDE0
:103D400009484068C623C022B22100905820FDF7E0
:103D500076F80023054AB4215820FDF77FFC1DE0CA
:103D6000680E001088CE010014000010B852001038
:103D7000205600003800310021C6010013C60100A2
:103D80003DC601002FC601007CC6010067C60100C8
:103D90003434650059C601004BC601000023AFF260
:103DA0003002B4218820FDF759FC2878082801D179
:103DB000012000E0002006461EB1FF20F7494860C0
:103DC00003E04FF05010F5494860F44840682C2358
:103DD0004FF4DD72182100904FF4A970FDF72FF811
:103DE000EF4890F8D80058B1ED4890F8400038B945
:103DF0000023EC4A1A214FF4A970FDF72FFC0EE0C6
:103E0000E74890F8400000EB400101EBC000E649B4
:103E1000421800231A214FF4A970FDF71FFC2878DF
:103E2000092801D1012000E0002006461EB1FF2034
:103E3000DA49486003E04FF05010D8494860D7484D
:103E4000406842234FF4DD722E2100904FF4A97098
:103E5000FCF7F5FFD24890F8D80070B1D04890F840
:103E6000410000EB4000D14901EB800200233021EA
:103E70004FF4A970FDF7F2FB0CE0C94890F841003F
:103E8000C0EBC000CA494218002330214FF4A9708A
:103E9000FDF7E4FB28780A2801D1012000E000208A
:103EA00006461EB1FF20BD49486002E0C148BB493B
:103EB0004860BB4A92F84C100023906C0522FDF735
:103EC00093FCB64840686E234FF4DD725A2100908F
:103ED0004FF4A970FCF7B3FF0023B74A5C214FF4FD
:103EE000A970FDF7BBFBAE48006D40B10023AFF2F7
:103EF00098525C214FF4C670FDF7B0FB07E0002339
:103F0000AFF2A8525C214FF4C670FDF7A7FB2878EA
:103F10000B2801D1012000E0002006461EB1FF2041
:103F20009E49486002E0A3489C4948609C4A92F838
:103F300068100023506E0522FDF756FC9748406834
:103F400084234FF4DD72702100904FF4A970FCF7C8
:103F500076FF0023984A72214FF4A970FDF77EFB8B
:103F60008F48C06E40B10023AFF2146272214FF44B
:103F7000C670FDF773FB07E00023AFF220627221E9
:103F80004FF4C670FDF76AFB28780C2801D1012098
:103F900000E0002006461EB1FF208049486003E093
:103FA0004FF050107D4948607D4A92F884100023FC
:103FB000D2F880000422FDF717FC78484068B0234F
:103FC0004FF4DD729C2100904FF4A970FCF737FF8D
:103FD0000023794A9E214FF4A970FDF73FFB00238F
:103FE000AFF274229E214FF4C170FDF737FB2878A1
:103FF0000D2801D1012000E0002006461EB1FF205F
:104000006649486003E04FF0501064494860644AD4
:1040100092F8A0100023D2F89C000422FDF7E4FBE4
:104020005E484068C6234FF4DD72B22100904FF421
:10403000A970FCF704FF00235F4AB4214FF4A97074
:10404000FDF70CFB0023AFF2D822B4214FF4C1706E
:10405000FDF704FBFDF766FC28780E287ED2DFE82A
:1040600000F0070B386594E0E1EFEEEDECEBEAE9E8
:104070000020FDF7BEFF8EE16FF07F4047490860EA
:104080004E484860002421E0454890F8D80070B1BF
:10409000C4EBC4014A4BCA1804EB8401542303EB5C
:1040A000011188B20023F121FDF7D8FA0DE0C4EB2D
:1040B000C401444BCA1804EB8401542303EB0111DF
:1040C00088B20023F121FDF7C9FA641C022CDBD36E
:1040D00061E16FF07F403149086038484860002452
:1040E00021E02F4890F8D80070B1C4EBC401364BE2
:1040F000CA1804EB8401542303EB011188B2002396
:10410000F121FDF7ABFA0DE0C4EBC4012F4BCA1847
:1041100004EB8401542303EB011188B20023F12145
:10412000FDF79CFA641C022CDBD334E16FF07F4076
:104130001A49086021484860002423E0184890F894
:10414000D80080B1C4EBC401214BCA1804EB840130
:10415000542303EB011188B2002300E01AE1F1219E
:10416000FDF77CFA0DE0C4EBC4011A4BCA1804EB4E
:104170008401542303EB011188B20023F121FDF7E0
:104180006DFA641C032CD9D305E16FF07F4003491D
:1041900008600A484860002440E000001400001055
:1041A000680E00107C22000088CE010097CD01002F
:1041B0007BCD010034346500B85200103800310066
:1041C00021C6010013C601003DC601002FC6010033
:1041D0007CC6010067C60100FA4890F8D80070B1AB
:1041E000C4EBC401F84BCA1804EB8401542303EB5D
:1041F000011188B20023F121FDF730FA0DE0C4EB84
:10420000C401F24BCA1804EB8401542303EB0111DF
:1042100088B20023F121FDF721FA641C022CDBD3C4
:10422000B9E0B8E06FF07F40E9490860E9484860CC
:10423000002428E0ADE0ABE0A9E0A7E051E026E0F3
:1042400024E0E04890F8D80070B1C4EBC401DE4B24
:10425000CA1804EB8401542303EB011188B2002334
:10426000F121FDF7FBF90DE0C4EBC401D74BCA18EF
:1042700004EB8401542303EB011188B20023F121E4
:10428000FDF7ECF9641C022CDBD384E083E06FF0D3
:104290007F40CF490860CF48486000241EE0C948ED
:1042A00090F8D80060B15CB904EB8401542202EBB1
:1042B000011188B20023C84AF121FDF7CFF90CE0C3
:1042C000C64901EBC40204EB8401542303EB011142
:1042D00088B20023F121FDF7C1F9641C032CDED361
:1042E00059E06FF07F40BA490860BA48486000243E
:1042F00049E0B44890F8B400012822D1B14890F8C0
:10430000D80078B104EB4401B54B03EB810204EB18
:104310008401542303EB011188B20023F121FDF73E
:104320009DF92FE0C4EBC401AE4BCA1804EB840125
:10433000542303EB011188B20023F121FDF78EF91C
:1043400020E0A04890F8D80078B104EB4401A64BD7
:1043500003EB810204EB8401542303EB011188B2C7
:104360000023F121FDF77AF90CE0A04901EBC4022A
:1043700004EB8401542303EB011188B20023F121E3
:10438000FDF76CF9641C042CB3D304E003E002E0F5
:1043900001E000E000BF00BFF8BD2DE9F041044698
:1043A0000D46164604EB4403914FDA19B1B2A8B298
:1043B0000123FDF7B6F9BDE8F081F8B505464FF0E9
:1043C0005010834948608B48D0F8200178B989495A
:1043D0004122D1F8B8034FF4B471FFF7DEFF8549ED
:1043E0004122D1F8B803C821FFF7D7FF0CE0002322
:1043F00081A241214FF4B470FDF793F900237EA20E
:104400004121C820FDF78DF92878012800D100E06E
:10441000002006461EB1FF206D49486003E04FF0C2
:1044200050106B4948606A4840682C23702218215C
:1044300000904620FCF703FD6E48D0F8B80300EB6F
:10444000C0006E49421801231A214620FDF706F9E3
:104450002878022801D1012000E0002006461EB184
:10446000FF205B49486003E04FF050105849486016
:10447000604A92F80C110023D2F808010522FDF7DA
:10448000B3F9534840682A234FF492721A210090DE
:10449000E220FCF7D4FC0123594A1A21E220FDF75F
:1044A000DDF85448D0F8100100EB4000554942189F
:1044B00001231A214FF48E70FDF7D0F828780328D5
:1044C00001D1012000E0002006461EB1FF20404936
:1044D000486003E04FF050103D4948603C48406858
:1044E0002C234FF4E272182100900801FCF7A7FC7E
:1044F0004048D0F82001444901EB800201231A21F1
:104500004FF4C070FDF7AAF82878042801D10120E3
:1045100000E0002006461EB1FF202D49486003E060
:104520004FF050102A4948602948406842237022C1
:104530002E2100904620FCF782FC2E48D0F8000186
:1045400000EB800031494218002330214620FDF75E
:1045500085F82878052801D1012000E000200646D2
:104560001EB1FF201A49486003E04FF0501018496F
:1045700048601748406842234FF4AB722E210090E8
:10458000FA20FCF75CFC1B48D0F8280100EB800007
:104590001E49421801233021FA20FDF75FF8062456
:1045A000A0E02878A04203D1FF200949486035E007
:1045B000A01F02282ED907282CD21548044948608C
:1045C0002CE00000680E001059C601004BC6010027
:1045D00014000010380031007C22000038CF0100A8
:1045E00097CD01007BCD0100E7CD0100C7CD0100D3
:1045F00043DC01006C0F00102500000072C90100AF
:10460000B852001016DC010084DA010011D001005C
:10461000343465004FF05010F9494860F84840685C
:104620000090A01FC0EB00105B3083B2A01FC0EB56
:1046300000104C3081B2DC229820FCF700FCA01F57
:10464000C0EBC001EF4800EBC1004068F0B3A21F0F
:10465000C2EBC203EB4A02EBC302117AA21FC2EB08
:10466000C203E84A02EBC302002350680522FDF7AB
:10467000BBF8A01FC0EB00104C3081B20123E2A2B6
:104680009820FDF74EF8A01FC0EB00104C3081B20F
:104690000123DE4AA020FDF744F8DD48D0F82001D0
:1046A000F8B9A01FC0EBC003D64800EBC300C06838
:1046B00000EB4000D74BC218A01FC0EB00104C30DD
:1046C00081B20123D020FDF72CF80AE0FFE7A01FFC
:1046D000C0EB00104C3081B20123CF4AA020FDF77F
:1046E00020F8641C102CFFF45CAF10247DE02878C7
:1046F000A04203D1FF20C24948600DE0A4F11000A0
:10470000022805D9072803D2C448BD49486003E000
:104710004FF05010BA494860B94840680090A4F181
:104720001000C0EB00105F3083B2A4F11000C0EBAA
:1047300000104C3081B24FF4BE724FF4A070FCF701
:104740007EFBA4F11000C0EBC001AE4800EBC1003D
:10475000006AE0B3A4F11002C2EBC203A94A02EB63
:10476000C30292F82410A4F11002C2EBC203A54ABE
:1047700002EBC3020023106A0522FDF735F8A4F10D
:104780001000C0EB00104C3081B200239F4A4FF460
:10479000A070FCF7C6FF9E48D0F8200120BBA4F112
:1047A0001000C0EBC003974800EBC300806A00EB29
:1047B0004000984BC218A4F11000C0EB00104C3020
:1047C00081B201234FF4B870FCF7ABFF0CE0FFE7B8
:1047D000A4F11000C0EB00104C3081B201238E4ACE
:1047E0004FF4A070FCF79DFF641C1A2CFFF47FAF00
:1047F000FDF798F82878062857D2DFE800F003077D
:104800000809223C6878FDF7F4FB7EE07DE07CE05F
:104810006FF07F407A4908608148486000240DE0CD
:10482000804901EB840204EB8401542303EB011162
:1048300088B20023F121FCF711FF641C022CEFD396
:1048400063E06FF07F406E4908607548486000245F
:104850000EE004EB8401744BCA1804EB840154236A
:1048600003EB011188B20023F121FCF7F7FE641C71
:10487000022CEED349E06FF07F4061490860684840
:10488000486000240EE004EB8401674BCA1804EB77
:104890008401542303EB011188B20023F121FCF7BA
:1048A000DDFE641C022CEED32FE0604890F8D800A7
:1048B000A0B100235E4AF1215420FCF7CFFE002373
:1048C0005CA2E7214FF4CA70FCF7C8FE00235A4AE5
:1048D000FB214FF4CA70FCF7C1FE15E0002357A27C
:1048E000F1215420FCF7BAFE0023514A2C3AE7216B
:1048F0004FF4CA70FCF7B2FE00234D4A243AFB2164
:104900004FF4CA70FCF7AAFE00BF00BFF8BD2DE946
:10491000F04104460D461646207828B32078052835
:1049200011DD284610F000FB074607F09FF92078BC
:104930001622504300F11A010123344A4FF4A070AB
:10494000FCF78CFE10E0304610F0EEFA074602F05D
:10495000FAFF20781622504300F11A0101232B4A56
:104960004FF4A070FCF77AFEBDE8F08138B505463B
:10497000002430E02978601C814203D1FF202049C7
:10498000486003E04FF050101D4948601C484068E3
:104990000090A01C16225043163083B2601C504376
:1049A000183081B2E822A020FCF749FA254A115DAF
:1049B0001E4AB83232F8240000230422FCF714FF08
:1049C000601C162250431A3081B201230F4AA020E6
:1049D000FCF744FE641C072CCCD34FF05010084960
:1049E000486038BDF8B505462878012800D100E0B8
:1049F000002006461EB1FF200149486028E023E060
:104A000014000010981000102D000000B852001083
:104A10006C0F001016DC0100182C00003434650007
:104A20003800310084DA010011D00100680E001056
:104A30006822000044656C00281E0000C7E5B3FD35
:104A4000D0D0000048DD01004FF05010FA49486016
:104A5000F94840682C23C0221A2100905A20FCF704
:104A6000EEF9F64890F8D80060B1F44890F8D40018
:104A7000C0EBC000F249421800231C215A20FCF769
:104A8000EDFD0BE0ED4890F8D400C0EBC000ED491F
:104A9000421800231C215A20FCF7E0FD2878022848
:104AA00001D1012000E0002006461EB1FF20E249AE
:104AB000486003E04FF05010DF494860DE4840682E
:104AC0004223C022302100905A20FCF7B8F9DB487D
:104AD00090F8D500C0EBC000DB494218002332211A
:104AE0005A20FCF7BBFD2878032801D1012000E003
:104AF000002006461EB1FF20CF49486003E04FF07A
:104B00005010CD494860CC4840685823C022462107
:104B100000905A20FCF793F9C84890F8D80060B18B
:104B2000C64890F8D600C0EBC000C5494218002323
:104B300048215A20FCF792FD0BE0C04890F8D600BF
:104B4000C0EBC000BF494218002348215A20FCF79F
:104B500085FD2878042801D1012000E000200646C8
:104B60001EB1FF20B449486003E04FF05010B24935
:104B70004860B14840686E23C0225C2100905A20F2
:104B8000FCF75DF9AD4890F8D80060B1AB4890F8FB
:104B9000D700C0EBC000AA49421800235E215A206A
:104BA000FCF75CFD0BE0A54890F8D700C0EBC00017
:104BB000A449421800235E215A20FCF74FFD2878B3
:104BC000052801D1012000E0002006461EB1FF208B
:104BD0009949486003E04FF0501097494860964863
:104BE00040688423C022722100905A20FCF727F9E4
:104BF000924890F8D800954901EBC0020023742137
:104C00005A20FCF72BFD2878062801D1012000E06E
:104C1000002006461EB1FF208749486003E04FF0A0
:104C2000501085494860844840689A236C22882146
:104C300000905A20FCF703F9854901230222C86934
:104C40000021FCF7D1FD0023824A8A215A20FCF77B
:104C500005FD4FF05010784948600023AFF258220C
:104C60008A216E20FCF7FAFC2878072801D1012060
:104C700000E0002006461EB1FF206F49486003E0B7
:104C80004FF050106C4948606B4840689A238A2264
:104C9000882100907820FCF7D2F86D490123022288
:104CA00088690021FCF7A0FD00236A4A8A21782048
:104CB000FCF7D4FC4FF050105F4948600023AFF27E
:104CC000B8228A218C20FCF7C9FC2878082801D159
:104CD000012000E0002006461EB1FF205649486032
:104CE00003E04FF0501054494860534840689A23FD
:104CF000AA22882100909820FCF7A1F854490123AA
:104D00000222C8680021FCF76FFD0020514988701D
:104D100000230A468A219820FCF7A0FC287809285D
:104D200001D1012000E0002006461EB1FF204249CB
:104D3000486003E04FF050103F4948603E484068EB
:104D4000B0236C229E2100905A20FCF778F840494D
:104D50000123022288680021FCF746FD00233D4A1A
:104D6000A0215A20FCF77AFC4FF0501032494860DD
:104D7000002339A2A0216E20FCF770FC28780A28B5
:104D800001D1012000E0002006461EB1FF202A4983
:104D9000486003E04FF050102749486026484068BB
:104DA000B0238A229E2100907820FCF748F82849F9
:104DB0000123022248680021FCF716FD0023254A42
:104DC000A0217820FCF74AFC4FF050101A494860A7
:104DD000002321A2A0218C20FCF740FC28780B287E
:104DE00001D1012000E0002006461EB1FF2012493B
:104DF000486003E04FF050100F4948600E4840688B
:104E0000B023AA229E2100909820FCF718F81049A0
:104E10000123022208680021FCF7E6FC00200D496E
:104E2000887000230A46A0219820FCF717FC2878F8
:104E30000C2813D1012012E014000010680E00109D
:104E400059C601004BC60100A2DB010092DB010044
:104E500068520010B85200103A00000000200646C8
:104E60001EB1FF20FE49486003E04FF05010FC499E
:104E70004860FB484068C623C022B42100905A20F5
:104E8000FBF7DDFF0023F74AB6215A20FCF7E6FBCB
:104E9000FCF748FD6FF07F40F1490860F248486038
:104EA00028780C2870D2DFE800F0060931456D96AD
:104EB000A9AAABACADAEFDF78EF9B8E0002422E0B4
:104EC000E848D93890F8D80070B1C4EBC401E74B7A
:104ED000CA1804EB8401542303EB011188B20023A8
:104EE000F121FCF7BBFB0DE0C4EBC401E04BCA1899
:104EF00004EB8401542303EB011188B20023F12158
:104F0000FCF7ACFB641C022CDAD390E000240EE02A
:104F1000C4EBC401D74BCA1804EB8401542303EB40
:104F2000011188B20023F121FCF798FB641C052CC9
:104F3000EED37CE0002422E0CA48D93890F8D800AB
:104F400070B1C4EBC401C94BCA1804EB84015423EB
:104F500003EB011188B20023F121FCF77FFB0DE088
:104F6000C4EBC401C24BCA1804EB8401542303EB05
:104F7000011188B20023F121FCF770FB641C022CA4
:104F8000DAD354E0002423E050E0B648D93890F852
:104F9000D80070B1C4EBC401B44BCA1804EB84014F
:104FA000542303EB011188B20023F121FCF756FBD7
:104FB0000DE0C4EBC401AE4BCA1804EB84015423CA
:104FC00003EB011188B20023F121FCF747FB641CBD
:104FD000022CDAD32BE000240DE0A74901EBC40238
:104FE00004EB8401542303EB011188B20023F12167
:104FF000FCF734FB641C022CEFD318E000BF00BFA9
:1050000000BF00BF00BF00240DE09C4901EBC402BB
:1050100004EB8401542303EB011188B20023F12136
:10502000FCF71CFB641C022CEFD300E000BF00BFA8
:10503000F8BD10B5FDF7ADF9FCF774FC10BD10B567
:10504000FFF7F7FF6FF07F40854908608C484860A4
:105050008448D93890F8D80030B10023894A042117
:105060001846FCF7FBFA05E00023874A042118469E
:10507000FCF7F4FA6FF07F40794908604FF0501068
:105080004860002422E07748D93890F8D80070B101
:1050900004EB840101EBC4017C4BCA1804EB8401CE
:1050A0004905080C00231A21FCF7D8FA0DE004EB9F
:1050B000840101EBC401764BCA1804EB8401490555
:1050C000080C00231A21FCF7C9FA641C032CDAD35C
:1050D00000240FE004EB840000EBC4006D4BC21809
:1050E000601C162358431A3081B200231846FCF77F
:1050F000B5FA641C072CEDD310BD08B56648B6237D
:1051000040F2DF127A2100900020FBF798FE08BDE4
:1051100010B5FDF73EF9FCF705FCFFF7EEFF10BDFB
:1051200010B5FFF7F5FF6FF07F404D490860544818
:1051300048604C48D93890F8D80038B10023514A1B
:10514000163204211846FCF789FA06E000234E4A7D
:10515000163204211846FCF781FA6FF07F4040496F
:1051600008604FF050104860002441E0032C1ED22C
:105170003C48D93890F8D80060B1484901EBC402E6
:1051800004EB8401002303EB411188B21A21FCF7E0
:1051900065FA2CE0424901EBC40204EB84010023D0
:1051A00003EB411188B21A21FCF758FA1FE02D4891
:1051B000D93890F8D80068B1394901EBC402E11E32
:1051C00001EB8101002303EB411188B23021FCF790
:1051D00045FA0CE0314901EBC402E11E01EB81010B
:1051E000002303EB411188B23021FCF737FA641C2D
:1051F000062CBBD3002417E0032C05D9082C03D2BE
:1052000025481749486003E04FF0501014494860A2
:10521000244800EB8402C4EB0410413081B2002327
:105220001846FCF77EFA641C0B2CE5D300231EA263
:105230004121A020FCF775FA00231CA241214FF464
:10524000A070FCF76EFA1B491A22D1F8B8034FF48C
:105250009371FDF716FA0020FCF7CBFE10BD00009D
:1052600014000010410F00103800310059C6010031
:105270004BC60100A2DB010092DB01005BCF010005
:10528000F352030013D8010021D70100E8D8010030
:10529000C1D801000FD90100343465008CDA010057
:1052A00054DA0100BCDA01004C4F57004849474826
:1052B000000000006C0F001008B5FB48B62340F258
:1052C000DF127A2100900020FBF7B9FD08BD10B570
:1052D000FDF75FF8FCF726FB10BD10B5FFF7F7FFF1
:1052E0006FF07F40F1490860F1484860F14890F85C
:1052F000D80030B10023F04A04211846FCF7AEF97B
:1053000005E00023ED4A04211846FCF7A7F96FF0E9
:105310007F40E64908604FF0501048600023E84A9B
:105320001A211846FCF79AF901241FE0E14890F889
:10533000D80068B104EBC401E24BCA18611E4D23CA
:1053400059431E3188B200233021FCF787F90CE065
:1053500004EBC401DA4BCA18611E4D2359431E31B8
:1053600088B200233021FCF779F9641C072CDDD3C7
:105370000020FCF73EFE10BD38B500241BE06FF0A6
:105380007F400090601C00EB400202EBC0001A223C
:1053900002EB4000801E83B2601C00EB400202EB77
:1053A000C0001A2202EB4000801E81B2BE225A20A9
:1053B000FBF789FD641C072CE1D338BD10B5FCF761
:1053C000E8FFFCF7AFFA10BD10B5FFF7F7FF6FF07D
:1053D0007F40B6490860B6484860B64890F8D800A3
:1053E00038B10023B44A423204211846FCF736F99A
:1053F00006E00023B14A423204211846FCF72EF998
:105400006FF07F40A94908604FF050104860A948EC
:1054100090F80301012828D1002423E0A54890F842
:10542000D80078B1C4EBC40000EB4000A64BC21812
:10543000162304FB03F01A3081B200231846FCF750
:105440000DF90EE0C4EBC40000EB40009F4BC21806
:10545000162304FB03F01A3081B200231846FCF730
:10546000FDF8641C042CD9D327E0002423E09148E4
:1054700090F8D80078B1C4EBC40000EB4000944B26
:10548000C218162304FB03F01A3081B20023184619
:10549000FCF7E4F80EE0C4EBC40000EB40008D4BD9
:1054A000C218162304FB03F01A3081B200231846F9
:1054B000FCF7D4F8641C042CD9D300237D4AF932BC
:1054C0005C215A20FCF7CAF8FCF785FE10BD10B528
:1054D000FFF774FF6FF07F407449086074484860BC
:1054E000744890F8D80038B10023734A163204216A
:1054F0001846FCF7B3F806E00023704A1632042180
:105500001846FCF7ABF86FF07F40684908604FF031
:1055100050104860002423E0664890F8D80078B125
:1055200004EB440000EBC4006B4BC218162304FBD1
:1055300003F01A3081B200231846FCF78FF80EE012
:1055400004EB440000EBC400644BC218162304FBB8
:1055500003F01A3081B200231846FCF77FF8641C70
:10556000082CD9D3FFF708FFFCF735FE10BD2DE955
:10557000F34F83B00C4642F20F716068884206D93F
:105580000A216068B0FBF1F060600420A060A068B0
:10559000C0F10400A06060680FF002FD8146E06881
:1055A00028B94F4948460FF043FD81460EE0E068B8
:1055B00001280BD148460FF05BFB07460022494B00
:1055C0000FF046F805460EF069FD8146A0680EF022
:1055D000EFFF07463A460B46002043490EF020F8FD
:1055E00005460E4648460FF043FB2A463346CDE9B2
:1055F00000010EF041FE82460EF050FD8146484605
:105600000FF036FB05460022384B0FF01FF909D288
:10561000DFF8DC9040F6B83060600220A060012026
:10562000E0609FE048460FF023FB05460022314B27
:105630000FF00CF90CD8304948460FF0B3FB054683
:105640000FF08EFC60600220A0600120E06089E025
:1056500048460FF00DFB05460022224B0FF0F6F8EE
:105660000CD81F4948460FF09DFB05460FF078FC0B
:1056700060600320A0600120E06073E048460FF006
:10568000F7FA054600221D4B0FF0E0F83AD81C4906
:1056900048460FF087FB05460FF062FC6060012072
:1056A000A0600020E0605DE034346500140000106C
:1056B000F3520300680E00103FD801004DD70100DF
:1056C00014DB010053DB010007D50100B3D4010056
:1056D000AFD501005BD501005BD6010003D6010008
:1056E00000007A4480842E4100002440389C7C4194
:1056F000C0E1E44BD012634100401C46006AF84010
:105700000000C84248460FF0B3FA05460022FE4B9F
:105710000FF09CF80CD8FD4948460FF043FB0546B6
:105720000FF01EFC60600220A0600020E06019E025
:1057300048460FF09DFA05460022F54B0FF086F81B
:1057400008D848460FF00CFC60600320A0600020E1
:10575000E06007E048460FF003FC60600320A060B3
:105760000020E06048460FF0FBFBA0611C222146B0
:1057700003980CF0DCFC05B0BDE8F08F014688888A
:1057800000B270472DE9F04105460C46E06870BB59
:10579000A068052829D2DFE800F00314151C2200B8
:1057A00060680EF005FF06460022DA4B0FF04EF857
:1057B00004D2D94860600020206101E0012020610E
:1057C00014E013E04FF47A716068B0FBF1F06060B0
:1057D0000CE064216068B0FBF1F0606006E00A2133
:1057E0006068B0FBF1F0606000E000BF46E0FFE7FA
:1057F000A06806283ED2DFE800F003101819263210
:10580000C5496068884202D90846606004E04FF4E8
:105810007A716068484360602FE0606820B10A21B7
:105820006068B0FBF1F0606027E026E042F21071A2
:105830006068884201D908466060606800EB8000BB
:105840004000606019E06068B0F57A7F02D94FF4DB
:105850007A70606064216068484360600DE0606851
:10586000642801D9642060604FF47A71606848430D
:10587000606002E0A948606000BF00BF1C222146B2
:1058800028460CF054FCBDE8F0812DE9F34F83B0BD
:105890008A4642F20F71DAF80400884209D90A21D7
:1058A000DAF80400B0FBF1F0CAF804000420CAF8EA
:1058B00008004FF47A71DAF8040000FB01FBDAF813
:1058C0000810C1F104000EF073FE02460B46CDE94C
:1058D0000001002092490DF0A3FE04460D465846F3
:1058E0000EF066FE064622462B460EF0C5FC8046AC
:1058F0000EF01AFE83464EF66020834500D983469B
:1059000042F21070834508D30220CAF808000A202A
:10591000BBFBF0F0CAF8040004E00320CAF808005A
:10592000CAF804B0CAF818B01C22514603980CF00B
:10593000FEFB05B0BDE8F08F2DE9F05F82460C4616
:105940000020E060A0680FF02BFB83460FF090F979
:1059500007463A460B46002071490DF061FE0546A8
:105960000EF0E2FD81466068B0FBF9F9B9F1640F11
:1059700001D90220A0601C22214650460CF0D7FB22
:10598000BDE8F09F08B56748372328225C210090C6
:105990003C20FBF77BFC6448372328225C210090E5
:1059A0006420FBF773FC6148372328229321009081
:1059B0003C20FBF76BFC5E483723282293210090A4
:1059C0006420FBF763FC08BD08B55648372328223E
:1059D0005C2100903C20FBF759FC534837232822D8
:1059E0005C2100906420FBF751FC524837232822A9
:1059F000932100903C20FBF749FC4D483723282297
:105A0000932100906420FBF741FC08BD08B5454890
:105A1000372328225C2100903C20FBF737FC4248CA
:105A2000372328225C2100906420FBF72FFC42489A
:105A300037232822932100903C20FBF727FC3C4889
:105A400037232822932100906420FBF71FFC08BD18
:105A500008B53448372328225C2100903C20FBF70E
:105A600015FC3148372328225C2100906420FBF785
:105A70000DFC324837232822932100903C20FBF76D
:105A800005FC294837232822932100906420FBF746
:105A9000FDFB08BD08B52348372328225C21009070
:105AA0003C20FBF7F3FB2648372328225C2100909B
:105AB0006420FBF7EBFB2148372328229321009039
:105AC0003C20FBF7E3FB1E4837232822932100905C
:105AD0006420FBF7DBFB08BD08B5124837232822FA
