:020000040001F9
:10800000E8650010FD48020005490200074902002A
:10801000094902000B4902000D490200000000005E
:108020000000000000000000000000000F490200F6
:108030001149020000000000134902007DF6010012
:1080400017490200598601006B8601007B860100FA
:108050008B860100E15C020017490200174902000B
:10806000AB5D0200174902001749020017490200E0
:108070001749020017490200174902001749020078
:1080800017490200317F0200174902001749020018
:108090001749020017490200174902001749020058
:1080A0009376020017490200E545020017490200D5
:1080B0001749020017490200174902001749020038
:1080C0001749020017490200174902001749020028
:1080D0001749020017490200DD820100174902001A
:1080E00017490200DFF80CD012F064F9004800478D
:1080F00027830100E8650010724840F20121016009
:1081000041608160C160016141618161C161016261
:1081100041628162C162016341638163C163016441
:1081200041648164C164016541658165C165016621
:1081300041668166C166016741678167C167C0F8B2
:108140008010C0F88410C0F88810C0F88C10C0F8F7
:108150009010C0F89410C0F89810C0F89C10C0F8A7
:10816000A010C0F8A410C0F8A810C0F8AC10C0F857
:10817000B010C0F8B410C0F8B810C0F8BC10C0F807
:10818000C010C0F8C410C0F8C810C0F8CC10C0F8B7
:10819000D010C0F8D410C0F8D810C0F8DC10C0F867
:1081A000E41040F8401C40F83C1C40F8381C40F8F3
:1081B000301C40F8201C40F8101C40F80C1C40F803
:1081C000081C40F8041C70472DE9F0413E4E306811
:1081D00040F40060306041F61F70C6F818013B4C57
:1081E000012222600027A760FFF786FF384839493F
:1081F0000068B0FBF1F5F06BC43E00B16D084FF4C0
:108200007A78B8FBF5F000F11303B3FBF0F12163CA
:108210004FF00F0CC4F834C0A763E263B3FBF0F176
:10822000891C2164626400F13E01B1FBF0F3A36498
:10823000B1FBF0F3E364C4F850C0B1FBF0F060654B
:10824000A265A26240F20330C4F804014FF4D0608A
:10825000C4F800016421002000F0AAF940F2831064
:108260002062C821002000F0A3F940F20310206230
:10827000022060620020401C8028FCD340F2E710FE
:108280004543B5FBF8F080B260628320206212485B
:1082900000882762D4F8000140F40020C4F80001EF
:1082A0000121002000F084F90121002000F080F974
:1082B000D6F8DC0120F01F0040F01100C6F8DC0108
:1082C000BDE8F08180C10240C4C00F4000C0092059
:1082D0007401001040420F00003003A010B50122CD
:1082E000132100200CF0F2FC00281BD0A24901222F
:1082F000402008606FF07F40401E0028FCD19F485E
:108300009F49036823B1002202600F20086002E049
:10831000026002200860BDE810404FF400210020F8
:108320000CF0FFBC10BD1FB500200CF0EBFD0446A7
:108330001D2000F006F962B60025904E3560C82079
:10834000B4FBF0F0401EB0F1807F0CD220F07F40F3
:108350004FF0E024401E60611F21601700F0FCF820
:10836000A561072020610122D10400200CF08FFCC0
:108370000121262000F0F0F8262000F0E2F807F0B6
:1083800046FB07F09CFA0DF0CAFB0CF0B0F9356023
:108390000DF0F8FE0FF0E1FD07F039FB07F08FFA62
:1083A000282007F053FAFFF70FFF002000F02CFA07
:1083B00074480021406900F056FA012000F024FAC8
:1083C0000CF0F2F8002007F0FDFA05F0A4FC07F02D
:1083D000EDFD6B4F0F2038606B4E07F0ADFB044690
:1083E000FF2C06D03068401C30603068022802D074
:1083F00013E03560F9E735604FF0501000F0F1FA06
:10840000224662A101A812F063F86FF07F4301AA2F
:1084100028217820009500F009FC38680A2818D037
:1084200008DC02280FD0052810D00628D5D108F086
:108430006BF9D2E70C280FD00F2810D01028CCD120
:108440000AF04BFFC9E707F062FEC6E709F00BF838
:10845000C3E70BF087FDC0E70AF0CDFFBDE70AF0E8
:10846000A3FFBAE770B5012149A00EF0BEFD054695
:10847000002D0EDD494C4FF47A66324628462168BD
:108480000EF060FE0028F8D12846BDE870400EF0DE
:10849000FDBF70BD2DE9F04701213DA00EF0A5FD07
:1084A0000646002E21DD3D4F4FF47A694A4630469C
:1084B00039680EF047FE022139A00EF096FD054600
:1084C000002D12DD0024DFF8E4804A462846396892
:1084D0000EF050FF04444445F7D328460EF0D6FF73
:1084E0003046BDE8F0470EF0D1BFBDE8F0872DE97A
:1084F000F041012126A00EF078FD0646002E1EDD7B
:10850000022127A00EF071FD0746002F17DD234C36
:108510004FF47A684246304621680EF013FE054655
:108520002A46384621680EF025FF002DF2D1384644
:108530000EF0ACFF3046BDE8F0410EF0A7BFBDE83D
:10854000F08100F01F02012191404009800000F1FC
:10855000E020C0F800117047C906090E002806DAAD
:1085600000F00F0000F1E02080F8141D704700F1CA
:10857000E02080F80014704784E100E064010010FE
:108580006C0100101C0000106C000010253264000B
:108590004D53524541442E54585400001C020010C3
:1085A0004A4B32353230422E54585400809698004F
:1085B000F0B58F4A0023FF250426012712684FF0EB
:1085C000020C4FF47A74002815D0012824D0022818
:1085D00032D003280ED18748C0F804C0C360B2FB74
:1085E000F4F2521E4A438261056046614760416869
:1085F000C907FCD1F0BD4FF04020C0F804C0C360F3
:10860000B2FBF4F2521E4A43826105604661476044
:108610004168C907FCD1F0BD7748C0F804C0C36009
:10862000B2FBF4F2521E4A43826105604661476024
:108630004168C907FCD1F0BD7048C0F804C0C360F0
:10864000B2FBF4F2521E4A43826105604661476004
:108650004168C907FCD1F0BD4FF0402101200860FE
:1086600067480168491C0160704763490120086040
:1086700063484168491C41607047604901200860B7
:108680005F488168491C816070475A490120086031
:108690005B48C168491CC16070470121002808D0AF
:1086A00001280AD002280BD0032801D1514841608B
:1086B00070474FF04020416070474F48416070471D
:1086C0004E48416070470021002808D001280AD098
:1086D0004A4A02280AD0032800D1516070474FF05F
:1086E0004020416070474448416070475160704786
:1086F00000280BD0012810D0022814D0032804D160
:108700003C49486840F00200486070474FF0402103
:10871000486840F00200486070473749486840F0B8
:108720000200486070473549486840F002004860E0
:10873000704770B50025324C324A03234EF65F264F
:10874000002807D0012819D002282AD0032836D0C3
:10875000002070BD256052F8C40F40F00200106088
:108760004FF04020426842F002024260C6608161E0
:108770004361012000F031F8012070BD656052F8BE
:10878000C40F40F0040010601B48426842F004022D
:108790004260C66081614361022000F01EF8012042
:1087A00070BDA56052F8C40F40F4800010601348FB
:1087B00081614361032000F010F8012070BDE56085
:1087C00052F8C40F40F4000010600A488161436110
:1087D000042000F002F8012070BD00F01F0201210A
:1087E00091404009800000F1E020C0F8001170477E
:1087F000780100100040094000800040000009405E
:108800000000001000C00F4008B5FD4942F2107290
:1088100000280FD0886940F00100886100928869C3
:1088200040F4006088610098401E00900098002885
:10883000F5D108BD886920F400608861009202E0EB
:108840000098401E009000980028F9D1886920F017
:108850000100886108BDEB4A002108C808C2491C14
:108860008029FAD3704770B50846E74CE74B2722BA
:1088700043F8A82C43F8A42CC3F8B821C3F8BC21B2
:108880001A665A669A66DA6643F8A02C43F89C2C5E
:108890009A61DA611A625A629A62DA6243F8982C33
:1088A00043F8942C9A67DA671A635A639A63DA6317
:1088B0001A65DA655A659A659A64D54A116C41F071
:1088C00002011164916D41F00A019165D14B196863
:1088D00041F001011960D0490A6822F001020A60E2
:1088E000C74A00259561916921F00E019161916956
:1088F00041F00A019161916941F020019161916912
:1089000021F080019161916921F4807191619169F7
:1089100021F400719161916921F480619161916903
:1089200021F400619161BD49BD4E0968B1FBF6F1CA
:10893000C3F8F410916841F080619160916821F072
:1089400020019160916841F400619160916841F467
:1089500080519160916821F400519160916821F4F7
:10896000804191609168AF4B194091609168AE4B26
:10897000194391601560116841F01C511160116834
:1089800041F480211160116841F480711160116817
:1089900041F0740111605560516841F0006151600F
:1089A000516841F400215160516841F48061516087
:1089B000516840F20F13194351601461546100284B
:1089C00001D0FFF748FF00204FF47F01CA1102C415
:1089D000401C9042FBD342F21070401E0028FCD194
:1089E00070BD894A00214FF4FF3301C2491C9942EE
:1089F000FBD37047F0B5059EA1F20F1CACEB0C1435
:108A0000E501A0F2DF14A5EB84047F4D2C44002582
:108A1000121AC2F5F077591A09E0002002E044F872
:108A20000469401C8242FAD8A4EB87046D1CA94259
:108A3000F3D8F0BD744BB0F5F07F0ED2B1F5887F5E
:108A40000BD2A1F20F11C0F5F070A1EB011100EBF8
:108A50004110401E03EB8000026070476A4AA1F299
:108A60000F11A1EB011102EBC111A0F2DF10A1EB7C
:108A70008000006870472DE9F0470446DDF820A02B
:108A80000D4690469946444502D94046A04684B2D8
:108A90004D4502D94846A94685B2A8EB040000B26C
:108AA000A9EB05010EB250B1A6B1B04236DDC0EB64
:108AB00046010FB27100404201EB400926E05246E8
:108AC00029462046FFF7B6FF6D1CADB2A945F6D288
:108AD000BDE8F087524629462046FFF7ABFF641CED
:108AE000A4B2A045F6D2F3E7524629462046FFF746
:108AF000A1FF641CA4B2002F05DD6D1CADB209EB13
:108B0000070007B202E007EB460007B24445EBD18D
:108B1000524629462046BDE8F0478BE7C6EB4001A8
:108B20000FB27100404201EB400811E05246294665
:108B30002046FFF77FFF6D1CADB2002F05DD641CE2
:108B4000A4B208EB070007B202E007EB460007B249
:108B50004D45EBD1524629462046BDE8F04769E72E
:108B60002DE9FF5F8946074611469B46684600F09F
:108B7000FBFB0025EA461AF80580002409EB0506F0
:108B8000C4F1070028FA00F0C00706D03819B1B2C6
:108B900080B25A46FFF74EFF05E03819B1B280B2F5
:108BA0000E9AFFF747FF641C082CE9D36D1C102DAB
:108BB000E1D3BDE8FF9F2DE9FE4F8946804611466F
:108BC0009B46684600F0D7FB0025EA461AF8056088
:108BD000002409EB0507C4F1070026FA00F0C007DE
:108BE00006D008EB0400B9B280B25A46FFF722FF64
:108BF000641C082CEFD36D1C0C2DE7D3BDE8FE8F51
:108C00000080082000820820000001A0B8C00240B7
:108C100000800920C4C00F40008C0820780100109B
:108C2000B0475D00FFFF00FC0000DF012DE9F843C5
:108C30000446089F0D46164699464FF4EC7816F800
:108C4000012B4B46294620460097FFF789FF4445F4
:108C500002D20834A4B207E0FF2D03D80024103557
:108C6000ADB201E00024002530780028E7D1BDE84E
:108C7000F8832DE9FF4F82B005460C4617462E4675
:108C8000A0464FF0000AA6F1140080B23A462146F1
:108C9000FFF7D0FE761CB6B2A8F1140081B23A46B6
:108CA0002846FFF7C7FE08F101081FFA88F80AF105
:108CB000010A1FFA8AFABAF1280FE4D3A946274617
:108CC0000026A5F1140001902830A4F1140804F145
:108CD000140A0090A9F1140083461FFA88F180B2AB
:108CE000059AFFF7A7FE1FFA8AF11FFA8BF0059A83
:108CF000FFF7A0FE09F101091FFA89F9A7F1140095
:108D0000834681B20198059A80B2FFF793FE0098DE
:108D10001FFA8BF180B2059AFFF78CFE7F1CBFB261
:108D2000761CB6B20A2ED5D30026A4F1140704F19E
:108D30001408A5F1140905F1140A05F10A00834687
:108D4000B9B280B2059AFFF775FE1FFA88F11FFAD3
:108D50008BF0059AFFF76EFE6D1CADB204F10A00B0
:108D6000834681B21FFA89F0059AFFF763FE1FFA66
:108D70008BF11FFA8AF0059AFFF75CFE641CA4B21F
:108D8000761CB6B20A2ED8D306B0BDE8F08F30B547
:108D9000024600201478FE4B00EB80115D5CA5427A
:108DA00004D11944557849788D4204D0401C80B2D2
:108DB0007728F1D3002030BD30B50246002014786A
:108DC000F44B00EB001113F81150A54205D103EB51
:108DD0004101557849788D4204D0401C80B2AF28BB
:108DE000EFD3002030BD2DE9F84F04468B46924664
:108DF000A04600270AFB03F0C11700EB5170DFF813
:108E00009893009025E00A98C65D0025300606D5A7
:108E100059462046D9F80020FFF70CFE05E05946D8
:108E20002046D9F80420FFF705FE7006060E641CE4
:108E3000A4B2A4EB0800504505D144460BF1010B48
:108E40001FFA8BFB03E06D1CEDB2082DDED37F1CF7
:108E5000BFB20098B7EBE00FD5DBBDE8F88F2DE986
:108E6000F04F044688462546CA4902EB0210DFF857
:108E700028A301EB4009002B0FD0002709EB0700C6
:108E800090F802B000265FEA0B6034D541462046D8
:108E9000DAF80420FFF7CEFD33E04FF0000B09EBCA
:108EA0000B0087780026380606D541462046DAF8BA
:108EB0000020FFF7BFFD05E041462046DAF8042018
:108EC000FFF7B8FD7806070E641CA4B2601B1028DB
:108ED0000BD0761CF6B2082EE5D30BF1010B0BF08C
:108EE000FF0BBBF1200FDAD34FE72C4608F1010846
:108EF0001FFA88F8F1E741462046DAF80020FFF72C
:108F000099FD4FEA4B604FEA106B641CA4B2601BE2
:108F1000102808D0761CF6B2082EB4D37F1CFFB2FE
:108F2000202FABD331E72C4608F101081FFA88F84F
:108F3000F4E72DE9F04F044688462546944902EBB4
:108F40008210DFF854A200EB0109002B0FD000279C
:108F500009EB070090F802B000265FEA0B6034D5F9
:108F600041462046DAF80420FFF764FD33E04FF075
:108F7000000B09EB0B0087780026380606D5414622
:108F80002046DAF80020FFF755FD05E0414620466F
:108F9000DAF80420FFF74EFD7806070E641CA4B231
:108FA000601B18280BD0761CF6B2082EE5D30BF107
:108FB000010B0BF0FF0BBBF13F0FDAD3E5E62C46BC
:108FC00008F101081FFA88F8F1E741462046DAF86F
:108FD0000020FFF72FFD4FEA4B604FEA106B641C37
:108FE000A4B2601B182808D0761CF6B2082EB4D3A1
:108FF0007F1CFFB23F2FABD3C7E62C4608F1010818
:109000001FFA88F8F4E710B50446084611462246D0
:10901000FFF78FFF182010BD10B504460846114613
:109020002246FFF71CFF122010BD2DE9F84F06461F
:109030000C4615469A4600274FF4F0794FF488788D
:109040002A78002A3DD0F01986B2802A15D906F177
:109050001800484505D900261634A4B2444500D965
:1090600000242846FFF793FE80B25346224631463D
:10907000FFF7C9FF0746AD1CE2E70D2A15D00A2A03
:109080001BD006F10C00484505D900260C34A4B2CB
:10909000444500D9002440484168009103682146B6
:1090A0003046FFF75DFD6D1CCAE71634A4B2444597
:1090B00000D900246D1C0027C2E700266D1C002784
:1090C000BEE7CAE6F8B506460F46154600242B78DB
:1090D000002B21D0A3F13002092A01D893B204E079
:1090E0002E2B15D02D2B15D00C2303EBC300C0EB7A
:1090F00083102A49372301EB80000090301980B299
:1091000020223946FFF76FFE6D1C2034A4B2DEE743
:109110000A23EAE70B23E8E7F8BD2DE9F843064602
:109120000C461546994600204FF4F0784FF48877A6
:109130002A78002A46D0304486B2802A14D906F113
:109140001000404505D900261034A4B2BC4200D915
:1091500000242846FFF730FE80B24B4622463146B7
:10916000FFF75AFFAD1CE3E70D2A1FD00A2A25D0CE
:1091700006F10800404505D900260834A4B2BC42D7
:1091800000D900240448416800912146036807E0A3
:1091900088BC0200BFDA0200140000104004030083
:1091A0003046FFF7DDFC6D1C0A20C1E71034A4B285
:1091B000BC4200D900246D1C0020B9E700266D1CBC
:1091C0000020B5E753E52DE9F84306460C46154661
:1091D000994600204FF4F0784FF488772A78002AD7
:1091E0003DD0304486B2802A14D906F110004045A3
:1091F00005D900261034A4B2BC4200D90024284668
:10920000FFF7DAFD80B24B4622463146FFF704FFF6
:10921000AD1CE3E70D2A16D00A2A1CD006F108007F
:10922000404505D900260834A4B2BC4200D9002428
:109230004A4841680091036821463046FFF7BBFC6D
:109240006D1C0820CAE71034A4B2BC4200D9002427
:109250006D1C0020C2E700266D1C0020BEE706E55D
:109260002DE9F041072A00D9072202B90122052978
:1092700000D90521914200D911460024384E2027FB
:109280003755641CE4B20C2CFAD314460A250DE0C1
:10929000B0FBF5FC05FB1C0C06EB04080CF1300CD4
:1092A00008F801CCB0FBF5F0641EE4B2002CEFD15D
:1092B00069B1104605E0341814F8014C3454401ECE
:1092C000C0B2491EC9B2F6D22E21315400E0B754C3
:1092D00073B90020511E09E0335C302B08D13318DC
:1092E0005B782E2B04D03754401CC0B28842F3DB8D
:1092F000521CD0B2002102E03154401CC0B20C28F4
:10930000FAD3BDE8F08130B5164A00214FF4FF349E
:10931000037845781B0443EA052385782B4308C26C
:10932000C01C491CA142F3D330BD70B50D490023C8
:109330004FF4B575002204784678240444EA0624E4
:109340008678344310C1C01C521CAA42F3D301F5E5
:10935000EC715B1CB3F5887FECD370BD140000107A
:10936000685E0010000001A0094A203902EB0111DB
:10937000102210F0A1BB2039064A01EB410102EB9B
:1093800081010A6802604A684260896881607047AA
:10939000A0F7020090FD02002DE9F041069F092B85
:1093A00000D9092303B90123052A00D905229A42CD
:1093B00000D91A46002420260655641CE4B2042C69
:1093C000FAD31C460A250DE0B1FBF5FC05FB1C1C7D
:1093D00000EB04080CF1300C08F801CCB1FBF5F1FE
:1093E000641EE4B2002CEFD16AB1194605E04418BE
:1093F00014F8014C4454491EC9B2521ED2B2F6D2DE
:109400002E22425400E0C65477B900215A1E09E0CA
:10941000445C302C08D1441864782E2C04D0465477
:10942000491CC9B29142F3DB5B1CD9B2002202E0B5
:109430004254491CC9B20429FAD3BDE8F0812DE990
:10944000F84F0024DFF8EC834FF04C0940F20F177F
:109450004FF04D0A4FF04E0BF748009004EB4401DB
:10946000A00001EB041100EB810004EB840509EB83
:10947000051680B2B2B23B46E421FFF7BBFA0120E9
:1094800000EB0510E323B2B280B21946CDF800809C
:10949000FFF7F1FAB2B2B0B23B46E321CDF800805B
:1094A000FFF7E9FA0AEB0510002682B280B23B46CC
:1094B000E3210096FFF7DFFA0BEB051082B280B2D2
:1094C0003B46E3210096FFF7D6FA4F2000EB05104C
:1094D00082B280B23B46E3210096FFF7CCFA641CCF
:1094E000062CB9D3BDE8F88F10B5FFF7A8FFD34815
:1094F000D14941606FF07F4101600023D0A2F1218A
:109500005420FFF70AFE0023F121BDE81040CEA24F
:10951000A420FFF702BE70B50446FFF790FFC749CD
:10952000C54A4A606FF07F420A60C94D542694B123
:109530000024601D00EB400005EB400204EB8400BA
:1095400006EB00100023F121FFF7E7FD641CE4B2F5
:10955000052CEED370BD002404EB440005EB400263
:1095600004EB840006EB00100023F121FFF7D5FD8A
:10957000641CE4B2052CEFD370BD10B5FFF75FFF9C
:10958000AE48AD4941606FF07F410160B14890F84D
:10959000D80038B10023F121BDE81040AEA254201C
:1095A000FFF7BBBD0023F121BDE81040ADA2542060
:1095B000FFF7B3BD10B5FFF742FFA0489E494160D9
:1095C0006FF07F4101600023F121BDE81040A7A2A8
:1095D0005420FFF7A2BD70B50546FFF730FF97494D
:1095E000954B9C4C6FF07F42ADB1012D7ED00A604F
:1095F0004B6094F8D800002879D000239CA2F22177
:109600005320FFF78AFDBDE870400023F2219AA2A3
:10961000A320FFF782BD0A604B6094F8D8104FF486
:10962000A274002931D0002395A2E7215420FFF72E
:1096300074FD002394A2FB215420FFF76EFD00234C
:109640008FA2E721A420FFF768FD002390A2FB2151
:10965000A420FFF762FD00238FA2E721F420FFF78B
:109660005CFD00238AA2FB21F420FFF756FD0023B6
:1096700089A2E7212046FFF750FD2046BDE8704053
:10968000002386A2FB21FFF748BD002385A2E72126
:109690005420FFF742FD002384A2FB215420FFF752
:1096A0003CFD00237FA2E721A420FFF736FD002325
:1096B00080A2FB21A420FFF730FD00237FA2E72139
:1096C000F420FFF72AFD00237AA2FB21F420FFF704
:1096D00024FD002379A2E7212046FFF71EFD204646
:1096E000BDE87040002377A2FB2101E002E04DE0DD
:1096F000FFF713BD0A604B6094F8D8104FF4CA749A
:10970000F1B1002371A2E7215420FFF706FD0023E9
:1097100070A2FB215420FFF700FD00236FA2E72178
:10972000A420FFF7FAFC00236EA2FB21A420FFF780
:10973000F4FC00236DA2E7212046FFF7EEFC1DE0BC
:1097400000236CA2E7215420FFF7E7FC00236BA263
:10975000FB215420FFF7E1FC00236AA2E721A420AB
:10976000FFF7DBFC002369A2FB21A420FFF7D5FC57
:10977000002368A2E7212046FFF7CFFC2046BDE882
:109780007040002365A2FB21FFF7C7BC002365A240
:10979000F2215320FFF7C1FCBDE870400023F22105
:1097A00062A2A320FFF7B9BC70B5FFF748FE2348BB
:1097B0006FF07F4101602049416026484FF4A27458
:1097C0004FF4CA7590F8D810C9B1002359A2E72107
:1097D0005420FFF7A2FC002358A2FB215420FFF7DE
:1097E0009CFC002357A2F1212046FFF796FC284657
:1097F000BDE87040002355A2F121FFF78EBC002385
:1098000054A2E7215420FFF788FC002353A2FB2138
:109810005420FFF782FC002352A2F1212046FFF7DB
:109820007CFC2846BDE87040002350A2F121FFF7E0
:1098300074BC000068436900380031001400001057
:10984000206DA6B82020000020A6B820000000004F
:10985000A84203005018001020436F6E6669726DB5
:109860002000000020C8B7C8CF2000002A31000027
:1098700043616E63656C0000436F6E6669726D00D4
:109880004D45415300000000444953500000000082
:10989000534554555000000053595300494E464F0C
:1098A00000000000B2E2C1BF00000000CFD4CABE79
:1098B00000000000C9E8D6C300000000CFB5CDB35A
:1098C00000000000D0C5CFA20000000046696C6512
:1098D000730000004D616E6167650000536176653D
:1098E0000000000044617461000000004D6F72656B
:1098F00000000000CEC4BCFE00000000B9DCC0EDDA
:1099000000000000B1A3B4E600000000CAFDBEDD07
:1099100000000000B8FCB6E00000000020322F324A
:10992000000000002020C8A1CFFB20002020C8B7E5
:10993000C8CF200044656C65746500005461626C9A
:109940006500000050524556000000004E45585436
:1099500000000000C7E5B3FD00000000B1EDB8F164
:1099600000000000C9CFD2BBD2B30000CFC2D2BB2F
:10997000D2B3000070B50446FFF761FDFE48FF4A10
:10998000FF4B6FF07F414FF4A2754FF4CA764CB392
:10999000012C27D00160426093F8D80000287CD0C9
:1099A0000023F8A2F1215420FFF7B7FB0023F8A20F
:1099B000E721A420FFF7B1FB0023F7A2FB21A4209D
:1099C000FFF7ABFB0023AFF28402F1212846FFF73B
:1099D000A4FB0023AFF28C023046BDE87040F121B9
:1099E000FFF79BBB0160426093F8D80000282DD0A0
:1099F0000023E4A2F1215420FFF78FFB0023E8A20B
:109A0000E721A420FFF789FB0023E1A2FB21A4208A
:109A1000FFF783FB0023E4A2E721F420FFF77DFB9F
:109A20000023E4A2FB21F420FFF777FB0023AFF231
:109A3000EC02F1212846FFF770FB0023AFF2F4029D
:109A40003046BDE87040F121FFF767BB0023DBA281
:109A5000F1215420FFF761FB0023DAA2E721A420C3
:109A6000FFF75BFB0023D9A2FB21A420FFF755FBE6
:109A70000023D8A2E721F420FFF74FFB0023D3A255
:109A8000FB21F420FFF749FB0023AFF22812F1215C
:109A90002846FFF742FB002300E007E0AFF2341254
:109AA0003046BDE87040F121FFF737BB0023C3A269
:109AB000F1215420FFF731FB0023C4A2E721A420A9
:109AC000FFF72BFB0023C5A2FB21A420FFF725FBFA
:109AD0000023AFF27012F1212846FFF71EFB00238E
:109AE000AFF278123046BDE87040F121FFF715BBA8
:109AF00010B50446FFF7A3FC9F48A04AA04B6FF0A7
:109B00007F41002C32D0012C7ED10160426093F85D
:109B1000D8104FF4CA74002977D00023AFF2542232
:109B2000E7215420FFF7F9FA0023AFF25822FB2176
:109B30005420FFF7F2FA0023AFF2A422E721A42079
:109B4000FFF7EBFA0023A7A2FB21A420FFF7E5FA19
:109B50000023A6A2F121F420FFF7DFFA0023AFF2E1
:109B60007422E7212046FFF7D8FAA7E0016042609F
:109B700093F8D8104FF4A274002939D00023AFF223
:109B80000032E7215420FFF7C8FA0023AFF2083271
:109B9000FB215420FFF7C1FA0023AFF21C32E7216A
:109BA000A420FFF7BAFA0023AFF21C32FB21A42055
:109BB000FFF7B3FA0023AFF22032E721F420FFF7DA
:109BC000ACFA0023AFF23832FB21F420FFF7A5FAFC
:109BD0000023AFF23C32E7212046FFF79EFA002334
:109BE000AFF248322046BDE81040FB21FFF795BA9E
:109BF0000023AFF25032E7215420FFF78EFA002302
:109C0000AFF25832FB2101E061E02EE05420FFF773
:109C100084FA0023AFF27432E721A420FFF77DFA23
:109C20000023AFF27032FB21A420FFF776FA002365
:109C3000AFF27832E721F420FFF76FFA0023AFF29A
:109C40008C32FB21F420FFF768FA0023AFF2943244
:109C5000E7212046FFF761FA0023AFF29832204651
:109C6000BDE81040FB21FFF758BA0023AFF27C3269
:109C7000E7215420FFF751FA0023AFF28032FB2195
:109C80005420FFF74AFA0023AFF2D032E721A42094
:109C9000FFF743FA0023AFF2E432FB21A420FFF7E1
:109CA0003CFA002353A2F121F420FFF736FA0023F7
:109CB000AFF2A032E7212046FFF72FFA0023AFF2E0
:109CC000A4322046BDE81040FB21FFF726BA10BDA4
:109CD00010B529486FF07F4101602849416028484C
:109CE0004FF4A27490F8D810002939D00023AFF2B5
:109CF0007042E7215420FFF710FA0023AFF27842B8
:109D0000FB215420FFF709FA0023AFF28C42E72130
:109D1000A420FFF702FA0023AFF28C42FB21A4201B
:109D2000FFF7FBF90023AFF29042E721F420FFF7A1
:109D3000F4F90023AFF2A842FB21F420FFF7EDF97C
:109D40000023AFF2AC42E7212046FFF7E6F90023FB
:109D5000AFF2B8422046BDE81040FB21FFF7DDB965
:109D60000023AFF2C042E7215420FFF7D6F90023C9
:109D7000AFF2C842FB2141E014000010380031006E
:109D80005018001044656C2D4C696E650000000091
:109D90004175746F00000000436F7079000000008F
:109DA0004C696E65617200004C6F6761726974681E
:109DB0006D0000004179746F00000000C9BEB3FD62
:109DC000D0D00000CFDFD0D400000000D7D4B6AF91
:109DD00000000000B6D4CAFD00000000B8B4D6C62A
:109DE000000000005365745570000000546F6F6CE4
:109DF00073000000B9A4BEDF000000005420FFF78C
:109E00008CF90023AFF26452E721A420FFF785F913
:109E10000023AFF26052FB21A420FFF77EF900235C
:109E2000AFF26852E721F420FFF777F90023AFF291
:109E30007C52FB21F420FFF770F90023AFF284522B
:109E4000E7212046FFF769F90023AFF28852204648
:109E5000BDE81040FB21FFF760B908B5FE480021BE
:109E600000901623F0220846FEF7C4FD08BD08B591
:109E7000FA480090CA2340F2DF125C210020FEF76E
:109E8000B9FD08BD10B5FFF7E8FFFFF7D8FABDE848
:109E90001040ECE72DE9F041FFF7F4FFF04C6FF0D4
:109EA0007F452560EC486060EE4E96F8D80030B1F2
:109EB0000023ED4A04211846FFF72FF906E0EA4A8D
:109EC0000023F23A04211846FFF727F925604FF0E6
:109ED000501060600024E54F1A25A7F13C08032CC0
:109EE00022D296F8D80078B104EB840007EB400248
:109EF00004EB440000EBC40005EB400081B20023FA
:109F00001846FFF70AF933E004EB840008EB40023F
:109F100004EB440000EBC40005EB400081B20023D9
:109F20001846FFF7FAF823E096F8D80080B104EB62
:109F3000840007EB4002E01E00EB400101EBC00093
:109F400005EB400081B20023FA20FFF7E6F80FE0AE
:109F500004EB840008EB4002E01E00EB400101EB43
:109F6000C00005EB400081B20023FA20FFF7D5F8CE
:109F7000641C062CB3D3BDE8F0410020FFF72BBBD7
:109F800008B5B6480090BE2340F2DF1270210020D1
:109F9000FEF730FD08BD10B5FFF75FFFFFF74FFA82
:109FA000BDE81040ECE738B50446AD4D4FF0501019
:109FB0006860AF48012300EB8402C8211420FFF73A
:109FC000ACF8AB4801235C3000EB8402C8214FF4AD
:109FD0008C70FFF7A2F8A1486860A648009037236C
:109FE00028227A215020FEF7FEFEA3480090372356
:109FF00028227A217820FEF7F6FEA0480090372329
:10A0000028227A218C20FEF7EEFE38BD2DE9F041A2
:10A01000FFF7C1FF924C6FF07F4525608E4860606E
:10A02000904E96F8D80038B18F4A0023163204219A
:10A030001846FFF772F806E08B4A0023DC3A042149
:10A040001846FFF76AF825604FF050106060002452
:10A050008B4F1A25A7F13808032C1ED296F8D8008A
:10A0600068B104EB440000EBC40005EB400081B292
:10A07000002307EBC4021846FFF74FF82DE004EB6E
:10A08000440000EBC40005EB400081B2002308EB64
:10A09000C4021846FFF741F81FE096F8D80070B1E7
:10A0A000E01E00EB400101EBC00005EB400081B277
:10A0B00007EBC4020023FA20FFF72FF80DE0E01EA3
:10A0C00000EB400101EBC00005EB400081B208EB62
:10A0D000C4020023FA20FFF720F8641C072CBBD32E
:10A0E000684890F8B803FFF75EFFBDE8F041002034
:10A0F000FFF771BA38B5594C40F2DF15A0232A4654
:10A10000562100200094FEF775FCE3232A46C12166
:10A1100000200094FEF76EFC38BD10B5FFF79DFEE1
:10A12000FFF78DF9BDE81040E4E70B461146564AAB
:10A1300089B2105C183200EB4000024498B2002350
:10A14000FEF7EBBF2DE9F047FFF7E7FF444E6FF056
:10A150007F44346040487060DFF8088198F8D80088
:10A1600038B1414A00232C3204211846FEF7D5FFAE
:10A1700006E03D4A0023C63A04211846FEF7CDFF0B
:10A1800034604FF05015756000244FF6FF7798F853
:10A19000D80068B13449C4EBC400F231421804EB72
:10A1A000840007EA401000231A21FEF7B6FF0BE0F7
:10A1B0003649C4EBC400421804EB840007EA40109F
:10A1C00000231A21FEF7A9FF641C032CDFD3DFF85C
:10A1D000B4800123D8F8C00300EB400101EBC001BB
:10A1E0002348D4300A181A213C20FEF796FF98F82D
:10A1F0000C1100230622D8F80801FFF731F80123DB
:10A20000234A1A21DC20FEF788FFD8F810011E49E6
:10A2100000EB40001539421801231A214FF49170C8
:10A22000FEF77BFF1A224FF49671D8F8B803FFF7B8
:10A230007CFF002317A22E211846FEF7C4FF00233F
:10A2400015A22E217820FEF7BEFF002314A22E2196
:10A25000F020FEF7B8FF27E0F35203003434650026
:10A260001400001050180010EC3F0300152F0300DD
:10A27000EF30030045170300882903009B2A0300E1
:10A28000FC350300001B0010F9420300F3400300FB
:10A29000685E001042494E004C4F57205B465D00FF
:10A2A000484947485B465D000023FEA22E214FF43B
:10A2B000C870FEF788FF0624FC4FA4F108000528AB
:10A2C00002D3A01F082801D9776000E07560A01FA5
:10A2D0008146C0EBC00008EBC001D1F8300178B175
:10A2E00091F8341101230622FEF7BAFFC9EB0910D9
:10A2F0003A3081B20123EE4A7820FEF764FF08E08D
:10A30000C9EB09103A3081B20123EAA27820FEF7A6
:10A310005AFF641C0F2CD0D37760D8F8440360B187
:10A3200098F8481301230622FEF79AFF0123E04A1A
:10A33000C4217820FEF747FF05E00123DDA2C421F8
:10A340007820FEF740FF1024A4F11200052802D364
:10A35000801C082801D9776000E07560A4F1100026
:10A360008146C0EBC00008EBC001D1F84C0178B1C8
:10A3700091F8501101230622FEF772FFC9EB091074
:10A380003A3081B20123CA4AFA20FEF71CFF08E0E6
:10A39000C9EB09103A3081B20123C6A2FA20FEF7B8
:10A3A00012FF641C192CCFD37760D8F8440370B126
:10A3B00098F82C1301230622D8F82803FEF750FF43
:10A3C0000123BB4AC421FA20FEF7FDFE05E001236C
:10A3D000B8A2C421FA20FEF7F6FE0124DFF8DC82E1
:10A3E000E01E052801D2776000E07560601E00EB7A
:10A3F000C00000EB0802C4EB04102B3081B2002334
:10A400000820FEF7E0FE641C0A2CE9D377600023E5
:10A41000ABA2C4211846FEF7D6FE0023A9A2D42180
:10A420001846FEF7D0FE0023A8A2D421F020FEF7A4
:10A43000CAFEBDE8F0470020FFF7CDB808B59B483D
:10A440000090A02340F2DF1260210020FEF7D2FA34
:10A4500008BD10B5FFF701FDFEF7F1FFBDE81040A4
:10A46000ECE770B5FFF7F5FF9A4C6FF07F4525607C
:10A4700099486060994E96F8D80030B10023984A08
:10A4800004211846FEF749FE06E0954A0023F23AF9
:10A4900004211846FEF741FE25604FF05010606021
:10A4A00096F8D80090B100238EA21A211846FEF724
:10A4B00034FE00238DA230212820FEF72EFE00233B
:10A4C0008DA230218C20FEF728FE11E000238CA203
:10A4D0001A211846FEF721FE00238BA230212820E6
:10A4E000FEF71BFE00238BA230218C20FEF715FE09
:10A4F00000238AA23021F020FEF70FFE002389A25C
:10A5000030214FF4AA70FEF708FE002387A2302105
:10A510004FF4DC70FEF701FEBDE870400020FFF74D
:10A520005AB808B5614800909A2340F2DF125A21C8
:10A530000020FEF75FFA08BD10B5FFF78EFCFEF7AE
:10A540007EFFBDE81040ECE72DE9F05FFFF7F4FF78
:10A55000604D6FF07F442C605F486860DFF87C815D
:10A5600098F8D80038B15E4A002316320421184604
:10A57000FEF7D3FD06E05A4A0023DC3A04211846D0
:10A58000FEF7CBFD2C604FF050176F600024DFF812
:10A59000A0A1DFF818911A26AAF1B40B092C29D230
:10A5A000E01E032802D2C5F8049000E06F6098F81E
:10A5B000D80078B104EB84000AEB400204EB4400BD
:10A5C00000EBC40006EB400081B200231846FEF702
:10A5D000A4FD3DE004EB84000BEB400204EB4400DF
:10A5E00000EBC40006EB400081B200231846FEF7E2
:10A5F00094FD2DE0A4F10C00032802D2C5F80490CC
:10A6000000E06F6098F8D80088B104EB84000AEB92
:10A610004002A4F1090000EB400101EBC00006EB91
:10A62000400081B20023FA20FEF777FD10E004EB32
:10A6300084000BEB4002A4F1090000EB400101EBA8
:10A64000C00006EB400081B20023FA20FEF765FD52
:10A65000641C122CA2D3BDE8F05F0020FFF748BABB
:10A660002DE9F84306461B4C4FF05018C4F80480FF
:10A67000304F31490123D7F8B80300EBC00042182E
:10A680001A215820FEF749FDD7F8C003012300EB3B
:10A69000400101EBC0002949421830215820FEF743
:10A6A0003CFD4DE0434F554E5400000034346500EE
:10A6B000685E00102D2D2D2D2D2D0000882E0300FD
:10A6C000326E64004155583A000000004F55543A2C
:10A6D0000000000014000010F35203005018001096
:10A6E0002E4003004D6F64653A00000046726571AC
:10A6F0005B487A5D000000004C45565B565D0000EB
:10A70000B7BDCABD203A0000C6B5C2CA5B487A5D73
:10A7100000000000B5E7C6BD5B565D0043705B46B8
:10A720005D000000445B205D00000000434D5000D0
:10A73000E8360300001B001017300300C33103008C
:10A74000D7F8C413012301EB410000EBC100F64927
:10A75000421846215820FEF7E0FCF4484FF4A9794E
:10A7600090F8D80010B1D7F8180480B3D7F81804BF
:10A77000002300EB400101EBC000EB4921314218FE
:10A780001A214846FEF7C9FCD7F82014012301EB33
:10A79000410000EBC100E649421846214846FEF759
:10A7A000BCFCD7F81C14E24D01EB410000EBC100EA
:10A7B00021354219012330214846FEF7AEFC30789E
:10A7C00001280DD0002068B1FF2060600CE0FFE799
:10A7D0000023AFF644221A214846FEF79EFCD3E739
:10A7E0000120F0E7C4F80480606800906E234FF405
:10A7F000DD725A214846FEF7FDF8D7F828010123FB
:10A8000000EB400101EBC00042195C214846FEF715
:10A8100084FCFEF714FE3078012804D0BDE8F8432C
:10A820000020FEF7D8BE6FF07F402060C148606016
:10A830000024542604EB440000EBC400421904EB4E
:10A84000840006EB001080B20023F121FEF765FCC6
:10A85000641C022CEED3BDE8F883F8B50646B64C6E
:10A860004FF0501060603078012827D0002109B1E6
:10A87000FF20606060684FF4BE7700902A234FF499
:10A88000D7721A213846FEF7B5F8AC48A84D012317
:10A89000D0F85C13213501EB410000EBC1004219F7
:10A8A0001A213846FEF739FCFEF7C9FD3078012839
:10A8B00006D0BDE8F8400020FEF78DBE0121D6E7A6
:10A8C0006FF07F4020609B4860600024542604EBBA
:10A8D000440000EBC400421904EB840006EB0010B6
:10A8E00080B20023F121FEF718FC641C022CEED389
:10A8F000F8BD2DE9F05F0124DFF844928E4EDFF8B9
:10A900003C824FF4AD7B4FF0501A3325E71E042FE5
:10A9100002D2C6F8049001E0C6F804A098F87D04BD
:10A9200000EB800004EB4000401E00EB800008EBD1
:10A930008001D1F82C06421C41D091F83016012339
:10A940000522FEF78DFC05EB041100237D4AF6205D
:10A95000FEF739FC98F87D0400EB800004EB400022
:10A96000401E00EB800008EB800101F58051D1F81A
:10A970009406421C2BD091F8981601230522FEF76D
:10A980006FFC05EB041100236E4A5846FEF71BFCD2
:10A9900098F87D0400EB800004EB4000404400F593
:10A9A000005090F8F306FF2819D008B305EB041106
:10A9B000002365A24FF4DF70FEF705FC20E005EBF5
:10A9C0000411002361A2F620FEF7FDFBC2E705EBB0
:10A9D000041100235DA25846FEF7F5FBD8E705EB0E
:10A9E000041100235BA24FF4DF70FEF7ECFB07E0DD
:10A9F00005EB0411002358A24FF4DF70FEF7E3FBD0
:10AA0000042F02D2C6F8049001E0C6F804A098F81A
:10AA10007D0400EB800004EB4000404490F87D048E
:10AA20001E2807D905EB0411002348A22620FEF7B3
:10AA3000CAFB0BE000EB400101EBC00047490023DB
:10AA4000421805EB04112620FEF7BDFB98F87D04A3
:10AA500000EB800004EB4000404490F84F050228D2
:10AA600007D905EB0411002338A29220FEF7ABFBB7
:10AA70000BE000EB400101EBC0002B490023421822
:10AA800005EB04119220FEF79EFB98F87D0401234C
:10AA900000EB800004EB400003220021FEF7E0FB06
:10AAA00005EB04110023274A0820FEF78CFB641CE9
:10AAB000E4B20B2CFFF42AAFBDE8F09F2DE9F84F6C
:10AAC0000446207802280DD002D9A078FEF752FF64
:10AAD0002078DFF864A04FF0FF094FF050180128EC
:10AAE00003D004E0FEF760FEF2E7A078D8B1CAF820
:10AAF0000480DAF8040000902A235E221A2136200E
:10AB0000FDF778FFDFF834B015490023DBF8840344
:10AB100000EBC00042181A213620FEF7FEFA20781A
:10AB2000022822D024E01DE0223403005018001037
:10AB30005D3503003800310014000010001B0010C8
:10AB400034346500685E0010500000002D2D2D2D5E
:10AB5000000000002D00000046000000C33103008B
:10AB600017300300CAF80490C3E7A07800287DD00E
:10AB7000CAF80480DAF80400009042231E22322131
:10AB80000020FDF737FF0023F8A232211846FEF718
:10AB9000C4FA03262078B04202D1A078022866D0F9
:10ABA000CAF80480DAF804000090B01E432101EBDB
:10ABB0000017332101EB0015BBB2A9B24FF4997213
:10ABC000FA20FDF717FFE07800EB800006EB40006D
:10ABD000C01E00EB80000BEB8001D1F82C06421C5C
:10ABE0007ED091F8301601230522FEF739FBA9B279
:10ABF0000023DF4AFA20FEF7E6FA2078B04202D1BD
:10AC0000A07803286DD0CAF80480DAF80400009018
:10AC1000BBB2A9B24FF4C1724FF4A570FDF7EAFEC2
:10AC2000E07800EB800006EB4000C01E00EB8000E7
:10AC30000BEB800101F58051D1F89406421C6ED0D7
:10AC400091F8981601230522FEF70AFBA9B200230A
:10AC5000C74A4FF4A570FEF7B6FA2078B04202D189
:10AC6000A078042864D0CAF8048001E044E046E0FB
:10AC7000DAF804000090BBB2A9B240F2DF124FF440
:10AC8000D270FDF7B7FEE07800EB800006EB4000E5
:10AC9000584400F5005090F8F106FF284BD0A9B2B7
:10ACA0000023AFF25C124FF4D270FEF78CFA2078DA
:10ACB000B04201D1A07880B3CAF80480DAF8040069
:10ACC0000090BBB2A9B27E222820FDF793FEE07867
:10ACD00000EB800006EB4000584490F87B0401E054
:10ACE00010E017E0302832D9A9B20023AFF2A41245
:10ACF0002820FEF768FA35E0CAF804903AE7CAF867
:10AD000004904FE7A9B20023AFF2C012FA20FEF779
:10AD10005AFA72E7CAF8049077E715E0FFE7A9B29C
:10AD20000023AFF2D8124FF4A570FEF74CFA94E767
:10AD3000CAF8049099E7A9B20023AFF2F0124FF4D9
:10AD4000D270FEF740FAB2E7CAF80490B6E700EB1B
:10AD5000400101EBC000874900234218A9B2282016
:10AD6000FEF731FA2078B04202D1A07801281CD039
:10AD7000CAF80480DAF804000090BBB2A9B2C42279
:10AD80007E20FDF737FEE07800EB800006EB400008
:10AD9000584490F84D0502280AD9A9B20023AFF211
:10ADA00054227E20FEF70FFA0DE0CAF80490E1E786
:10ADB00000EB400101EBC0006F4900234218A9B22B
:10ADC0007E20FEF700FACAF80480E078012300EB49
:10ADD000800006EB4000801E03220021FEF740FAAF
:10ADE000A9B20023624A0820FEF7EDF9761CF6B2FC
:10ADF0000D2EFFF4CFAEBDE8F88F2DE9F8430446E1
:10AE00005E4F4FF050157D602078012821D0002042
:10AE10004FF0FF0808B1C7F80480786800902A2333
:10AE200058221A213020FDF7E5FD5548554E0123E3
:10AE300090F87C041A2100EB800082193020FEF784
:10AE40006CF92078022806D0002030B1C7F80480C1
:10AE500004E00120DCE70120F7E77D6078680090DE
:10AE600040231E2230210820FDF7C4FD01233FA20C
:10AE700030210820FEF751F9FEF7E1FA2078424A26
:10AE800054256FF07F41012806D0022815D0607844
:10AE9000BDE8F843FEF79FBB39607A60002404EBFD
:10AEA0008400821905EB001080B20023F121FEF727
:10AEB00034F9641C022CF2D3CDE439607A600024AA
:10AEC000324E96F8D80078B12E49C4EBC400183140
:10AED0004218E01C00EB800005EB001080B200235C
:10AEE000F121FEF71AF90EE02649C4EBC4000A313D
:10AEF0004218E01C00EB800005EB001080B200233C
:10AF0000F121FEF70AF9641C022CDAD3A3E42DE93F
:10AF1000F84F0446207801280AD00020DFF85C8032
:10AF20004FF0FF094FF0501B20B1C8F8049003E028
:10AF30000120F3E7C8F804B0D8F8040000902C23EF
:10AF4000C02218215820FDF755FD104F104D97F8DD
:10AF5000D800A5F10E06E8B138780023C0EBC00098
:10AF600042191A215820FEF7D8F81CE04E6F2E0027
:10AF7000685E0010C3310300223403001400001087
:10AF8000001B0010943503003800310050180010E9
:10AF90007D2F030038780023C0EBC00082191A21EE
:10AFA0005820FEF7BAF82078022804D0002020B1FB
:10AFB000C8F8049003E00120F9E7C8F804B097F856
:10AFC000681000230522786EFEF74AF90023F74A3D
:10AFD00030215820FEF7A1F8F86E30B10023F4A21A
:10AFE00030219220FEF799F805E00023F1A23021EC
:10AFF0009220FEF792F82078032804D0002020B198
:10B00000C8F8049003E00120F9E7C8F804B0397BE0
:10B0100000230522B868FEF723F90023E34A4621FE
:10B020005820FEF77AF8386930B10023E0A24621B3
:10B030009220FEF772F805E00023DEA2462192205E
:10B04000FEF76BF82078042804D0002020B1C8F85F
:10B05000049003E00120F9E7C8F804B0D8F8040030
:10B060004FF4A97A00902C234FF4DD72182150463A
:10B07000FDF7C0FC97F8D80010B197F84000A0B1D8
:10B0800097F84000002300EB400101EBC000CA49E3
:10B0900042181A215046FEF740F8207805280BD0B8
:10B0A000002058B1C8F804900AE00023C34A1A21CE
:10B0B0005046FEF732F8F0E70120F2E7C8F804B096
:10B0C00097F8A01000230622D7F89C00FEF7C8F8D6
:10B0D0000023B64A30215046FEF71FF80023B8A2DD
:10B0E00030214FF4CD70FEF718F82078062804D0F0
:10B0F000002020B1C8F8049003E00120F9E7C8F867
:10B1000004B097F82C1000230622B86AFEF7A8F8BE
:10B110000023A64A46215046FDF7FFFF0023A8A2C0
:10B1200046214FF4CD70FDF7F8FFFEF788F920783F
:10B13000D8B101282DD16FF07F40C8F80000A14898
:10B14000C8F8040000244FF0540897F8D80088B1DC
:10B15000C4EBC400421904EB840008EB001080B279
:10B160000023F121FDF7D9FF10E0BDE8F84F0020E2
:10B17000FEF731BAC4EBC400821904EB840008EB7B
:10B18000001080B20023F121FDF7C7FF641C022CE0
:10B19000DBD330E62DE9F84F04462078012809D0AA
:10B1A0000020DFF82492FF254FF0501620B1C9F897
:10B1B000045003E00120F4E7C9F80460D9F8040062
:10B1C00000902C23C02218215820FDF713FCDFF833
:10B1D000FCB19BF8D80058B19BF800000023C0EBED
:10B1E000C0017B480A181A215820FDF796FF0BE092
:10B1F0009BF800000023C0EBC00175480E380A1808
:10B200001A215820FDF789FF2078022804D0002059
:10B2100020B1C9F8045003E00120F9E7C9F804603F
:10B22000D9F8040000904223C0222E215820FDF7B7
:10B23000E1FB9BF8D80060B19BF801000023C0EB54
:10B24000C001634823300A1830215820FDF765FFFC
:10B250000BE09BF801000023C0EBC0015C480E30FE
:10B260000A1830215820FDF758FF2078032804D011
:10B27000002020B1C9F8045003E00120F9E7C9F823
:10B280000460D9F8040000906E23C02244215820A5
:10B29000FDF7B0FB9BF8D80060B19BF8B500002328
:10B2A000C0EBC0014A4885300A1846215820FDF7F6
:10B2B00034FF0BE09BF8B5000023C0EBC00144480D
:10B2C00070300A1846215820FDF727FF20780428FF
:10B2D00006D00020DFF8FCA020B1C9F8045003E03C
:10B2E0000120F7E7C9F804A0D9F8040000906E2304
:10B2F000C0225A215820FDF77DFB354F9BF8D8001E
:10B300006237A7F12A0850B19BF802000023C0EB76
:10B31000C000C2195C215820FDF7FFFE0AE09BF82F
:10B3200002000023C0EBC00000EB08025C215820A3
:10B33000FDF7F3FE2078052804D0002020B1C9F8DD
:10B34000045003E00120F9E7C9F804A09BF80C10B1
:10B3500000230522DBF80800FDF782FFD9F804007E
:10B3600000908423C02270215820FDF743FB002366
:10B370000E4A72215820FDF7D0FEDBF8100030B1E4
:10B3800000230BA272219220FDF7C7FE05E00023E7
:10B3900008A272219220FDF7C0FE207806281BD05B
:10B3A0000020D8B1C9F804501AE00000685E00100F
:10B3B00020A6B8006DA6B80043340300909D01009C
:10B3C0002056000038003100140000105018001002
:10B3D0007D2F0300343465000120E2E7C9F80460E2
:10B3E000D9F804000090B023C0229C215820FDF71A
:10B3F00001FB9BF8D80050B19BF820000023C0EB64
:10B40000C000C2199E215820FDF787FE0AE09BF874
:10B4100020000023C0EBC00000EB08029E21582052
:10B42000FDF77BFE2078072804D0002020B1C9F862
:10B43000045003E00120F9E7C9F804609BF82C10E0
:10B4400000230622DBF82800FDF70AFFD9F80400E4
:10B450000090C623C022B2215820FDF7CBFA00236A
:10B46000FA4AB4215820FDF758FE0023AFF2B0028B
:10B47000B421A020FDF751FE2078082804D0002038
:10B4800020B1C9F8045003E00120F9E7C9F80460CD
:10B49000D9F8040000902C234FF4DD7218214FF4EA
:10B4A000A970FDF7A7FA9BF8D80010B19BF84000EF
:10B4B000A8B19BF84000002300EB400101EBC00065
:10B4C000E34942181A214FF4A970FDF726FE2078AF
:10B4D00009280CD0002060B1C9F804500BE000230B
:10B4E000DC4A1A214FF4A970FDF717FEEFE701209F
:10B4F000F1E7C9F80460D9F80400009042234FF442
:10B50000DD722E214FF4A970FDF774FA9BF8D80074
:10B5100070B19BF84100002300EB4001CC48A138FA
:10B5200000EB810230214FF4A970FDF7F6FD0CE02D
:10B530009BF841000023C0EBC001C548BD380A1884
:10B5400030214FF4A970FDF7E8FD20780A2804D0D7
:10B55000002020B1C9F8045003E00120F9E7C9F840
:10B5600004A09BF84C1000230522DBF84800FDF7EF
:10B5700077FED9F8040000906E234FF4DD725A2153
:10B580004FF4A970FDF736FA0023B04A5C214FF45E
:10B59000A970FDF7C2FDDBF8500040B10023AFF207
:10B5A000F0125C214FF4C670FDF7B7FD07E00023F1
:10B5B000AFF200225C214FF4C670FDF7AEFD20789B
:10B5C0000B2804D0002020B1C9F8045003E001206A
:10B5D000F9E7C9F804A09BF8681000230522DBF8FE
:10B5E0006400FDF73DFED9F804004FF4A97A0090FD
:10B5F00084234FF4DD7270215046FDF7FBF90023E0
:10B60000924A72215046FDF788FDDBF86C0040B18C
:10B610000023AFF2642272214FF4C670FDF77DFD66
:10B6200007E00023AFF2742272214FF4C670FDF7D9
:10B6300074FD20780C2804D0002020B1C9F80450F3
:10B6400003E00120F9E7C9F804609BF884100023A7
:10B650000622DBF88000FDF703FED9F80400009015
:10B66000B0234FF4DD729C215046FDF7C3F900234F
:10B67000764A9E215046FDF750FD0023AFF2C022CE
:10B680009E214FF4CD70FDF748FD20780D2804D0A1
:10B69000002020B1C9F8045003E00120F9E7C9F8FF
:10B6A00004609BF8A01000230622DBF89C00FDF745
:10B6B000D7FDD9F804000090C6234FF4DD72B22103
:10B6C0005046FDF797F90023604AB4215046FDF734
:10B6D00024FD0023AFF21832B4214FF4CD70FDF7F2
:10B6E0001CFDFDF7ACFE22785B4954256FF07F40CE
:10B6F0000A2A32D2DFE802F0050A325B8431B43123
:10B70000DAFBBDE8F84F0020FEF7F2B9C9F80000F7
:10B71000C9F8041000249BF8D80068B14F48C4EB66
:10B72000C4010A1804EB840005EB001080B200236A
:10B73000F121FDF7F2FC0DE04848C4EBC4010E38DE
:10B740000A1804EB840005EB001080B20023F121FD
:10B75000FDF7E3FC641C022CDDD31AE5C9F80000F8
:10B76000C9F8041000249BF8D80070B13B48C4EB22
:10B77000C40123300A1804EB840005EB001080B2EA
:10B780000023F121FDF7C9FC0DE03448C4EBC401EE
:10B790000E300A1804EB840005EB001080B2002381
:10B7A000F121FDF7BAFC641C032CDCD3F1E4C9F8E9
:10B7B0000000C9F8041000249BF8D80070B1274895
:10B7C000C4EBC40185300A1804EB840005EB0010BB
:10B7D00080B20023F121FDF7A0FC0DE01F48C4EB6F
:10B7E000C40170300A1804EB840005EB001080B22D
:10B7F0000023F121FDF791FC641C032CDCD3C8E489
:10B80000C9F80000C9F8041000249BF8D80060B102
:10B81000C4EBC400C21904EB840005EB001080B235
:10B820000023F121FDF779FC0CE0C4EBC40000EB30
:10B83000080204EB840005EB001080B20023F12124
:10B84000FDF76BFC641C022CDFD3A2E4685E0010E1
:10B8500043340300909D0100380031007D2F030028
:10B86000C9F80000C9F8041000249BF8D80060B1A2
:10B87000C4EBC400C21904EB840005EB001080B2D5
:10B880000023F121FDF749FC0CE0C4EBC40000EB00
:10B89000080204EB840005EB001080B20023F121C4
:10B8A000FDF73BFC641C022CDFD372E4C9F80000F6
:10B8B000C9F804100024F94E9BF8D80000B17CB1FF
:10B8C00004EB840005EB001006EBC40280B20023F9
:10B8D000F121FDF722FC641C032CEDD359E406E0B2
:10B8E00028460023EE4AF121FDF717FCF3E7C9F8DB
:10B8F0000000C9F8041000249BF8B400012811D0FE
:10B900009BF8D80080B3E74904EB440001EB8002C8
:10B9100004EB840005EB001080B20023F121FDF759
:10B92000FCFB2FE09BF8D80078B1DE4804EB440123
:10B93000503800EB810204EB840005EB001080B26C
:10B940000023F121FDF7E9FB1CE0D648C4EBC4015C
:10B950006C380A1804EB840005EB001080B2002359
:10B96000F121FDF7DAFB0DE0FFE7CE480023203898
:10B9700000EBC40204EB840005EB001080B2F1215F
:10B98000FDF7CBFB641C042CB6D3E6E60B46114650
:10B99000C54A00EB4000024498B289B20123FDF78A
:10B9A00012BC2DE9F84F0546DFF800A34FF0501800
:10B9B000CAF80480DFF8F8B24FF4B474DBF8200161
:10B9C000002815D00023BBA241212046FDF7FBFB38
:10B9D0000023B8A24121C820FDF7F5FB28780128F3
:10B9E00013D000204FF0FF0988B1CAF8049010E08E
:10B9F00041222146DBF8B803FFF7C8FF4122C821E6
:10BA0000DBF8B803FFF7C2FFE8E70120EAE7CAF86E
:10BA10000480DAF8040000902C23702218214620BC
:10BA2000FCF7E8FFDBF8B803A34900EBC0004218BD
:10BA300001231A214620FDF770FB2878022804D044
:10BA4000002020B1CAF8049003E00120F9E7CAF809
:10BA500004809BF80C1100230522DBF80801FDF798
:10BA6000FFFBDAF8040000902A234FF492721A21A7
:10BA7000E220FCF7BFFF0123904A1A21E220FDF7E4
:10BA80004CFBDBF81001012300EB400186482D3808
:10BA90000A181A214FF48E70FDF73FFB287803280F
:10BAA00004D0002020B1CAF8049003E00120F9E797
:10BAB000CAF80480DAF8040018210C0100902C2345
:10BAC0004FF4E2722046FCF795FF7D48DBF8201129
:10BAD000012300EB81021A212046FDF71EFB287886
:10BAE000042804D0002020B1CAF8049003E001200B
:10BAF000F9E7CAF80480DAF80400009042237022C3
:10BB00002E214620FCF776FFDBF80001634C00EBAA
:10BB1000800085340219002330214620FDF7FDFA0C
:10BB20002878052804D0002020B1CAF8049003E04A
:10BB30000120F9E7CAF80480DAF8040000904223F3
:10BB40004FF4AB722E21FA20FCF754FFDBF82801EA
:10BB5000012300EB8001514885300A183021FA207A
:10BB6000FDF7DBFA06242878A04202D1CAF8049037
:10BB700009E0A4F10900042803D25248CAF80400DD
:10BB800001E0CAF80480DAF80400A71FC7EB071623
:10BB9000009006F15B0083B24C36B1B2DC229820F3
:10BBA000FCF728FFC7EBC7000BEBC007D7F8300145
:10BBB00008B397F8341100230522FDF751FBB1B209
:10BBC000012341A29820FDF7FEFAB1B201233B4ABE
:10BBD000A020FDF7F8FADBF8200190B9D7F838017A
:10BBE000012300EB400130482D380A18B1B2D020B3
:10BBF000FDF7E9FA05E0B1B20123344AA020FDF7D0
:10BC0000E2FA641C102CAED310242878A04202D192
:10BC1000CAF8049009E0A4F11300042803D22948CB
:10BC2000CAF8040001E0CAF80480DAF804000090C1
:10BC3000A4F110000746C0EB001606F15F0083B2C6
:10BC40004C36B1B24FF4BE724FF4A070FCF7D2FE86
:10BC5000C7EBC7000BEBC007D7F84C01E8B197F86A
:10BC6000501100230522FDF7FBFAB1B20023134A5D
:10BC70004FF4A070FDF7A7FADBF8200140BBD7F81E
:10BC80005401012300EB400107482D380A18B1B2D6
:10BC90004FF4B870FDF797FA22E01AE0353503004B
:10BCA000909D0100F23303001143030014000010C3
:10BCB000001B00102500000017300300685E001014
:10BCC000802E0300343465002D000000B4A601006E
:10BCD00006E0B1B20123FE4A4FF4A070FDF773FAFB
:10BCE000641C1A2C91D3FDF7AAFB2A78F949542633
:10BCF0006FF07F40062A46D2DFE802F0031C1C08E2
:10BD00001D316878BDE8F84FFDF7F2BECAF80000B3
:10BD1000CAF804100024F04D04EB840006EB001078
:10BD200005EB840280B20023F121FDF7F6F9641CD3
:10BD3000022CF1D311E5CAF80000CAF8041000245F
:10BD4000E64D04EB8400421906EB001080B200239C
:10BD5000F121FDF7E2F9641C022CF2D3FDE4CAF8EC
:10BD60000000CAF804100024DC4D04EB84004219E2
:10BD700006EB001080B20023F121FDF7CEF9641C20
:10BD8000022CF2D3E9E4D6484FF4CA7490F8D810E4
:10BD9000A1B10023D34AF1215420FDF7BEF90023BD
:10BDA000D1A2E7212046FDF7B8F901B02046BDE851
:10BDB000F04F0023CD4AFB21FDF7AFB90023CCA201
:10BDC000F1215420FDF7A9F9C84A00231832E721D0
:10BDD0002046FDF7A2F901B02046BDE8F04FC34A66
:10BDE00000232032FB21FDF798B970B50446207876
:10BDF00000282AD01A264FF4A075052812D9084623
:10BE00000EF014F908F065FB2078012300EB4001E7
:10BE100001EBC00006EB40012846BDE87040B64A81
:10BE2000FDF77BB910460EF001F904F09CFA20787A
:10BE3000012300EB400101EBC00006EB4001284666
:10BE4000BDE87040AC4AFDF768B970BD2DE9F84F08
:10BE50000546DFF8A8824FF05017C8F804706878DC
:10BE6000DFF87CA21A214FF0FF094FF0160B0028D3
:10BE700002D0012839D072E000242978601C814268
:10BE800002D1C8F8049001E0C8F80470D8F8041092
:10BE9000009100EB400101EBC0000BEB400083B2CE
:10BEA00004EB440000EBC406182000EB460081B20E
:10BEB000A6225820FCF79EFDC4EBC4000AEB8000CC
:10BEC000002390F80C11D0F808010622FDF7C8F9FC
:10BED0001A2000EB460081B20023874A5820FDF764
:10BEE0001CF9641C072CC8D339E000248B46297840
:10BEF000601C814202D1C8F8049001E0C8F80470C7
:10BF0000D8F80410009100EB400101EBC0011620AD
:10BF100000EB410083B204EB440000EBC4061820A0
:10BF200000EB460081B29E225820FCF763FDE01D25
:10BF3000C0EBC0000AEB8000002390F80C11D0F891
:10BF400008010622FDF78CF90BEB460081B20023B5
:10BF5000694A5820FDF7E1F8641C062CC7D3C8F8DD
:10BF600004706FF07F40C8F800009AF8A00264499E
:10BF700000EB400001EB4002002304214FF49670D7
:10BF8000FDF7CBF800235FA2F1215420FDF7C5F89F
:10BF900000235EA2F121A420FDF7BFF8534A00233D
:10BFA000383AF121F420FDF7B8F8002359A2F12125
:10BFB0004FF4A270FDF7B1F801B00023BDE8F04FD7
:10BFC00056A2F1214FF4CA70FDF7A7B82DE9F84F3A
:10BFD00004462078012809D00020DFF82091FF25B1
:10BFE0004FF0501620B1C9F8045003E00120F4E7E7
:10BFF000C9F80460D9F8040000902C23C0221A214B
:10C000005A20FCF7F7FCDFF8D8A0DFF818B19AF84F
:10C01000D80058B19AF8D4000023C0EBC00000EB60
:10C020000B021C215A20FDF778F80BE09AF8D40097
:10C030000023C0EBC0013B480E380A181C215A20CF
:10C04000FDF76BF82078022804D0002020B1C9F851
:10C05000045003E00120F9E7C9F80460D9F80400AE
:10C0600000904223C02230215A20FCF7C3FC9AF8EA
:10C07000D5000023C0EBC0012B480A1832215A20FA
:10C08000FDF74BF82078032804D0002020B1C9F830
:10C09000045003E00120F9E7C9F80460D9F804006E
:10C0A00000905823C02246215A20FCF7A3FC1D4FC4
:10C0B0009AF8D8000E37A7F12A0840B19AF8D600AE
:10C0C0000023C0EBC000C21948215A202EE030E006
:10C0D000B4A6010038003100802E0300BA350300F9
:10C0E00050180010849D010044656C003C990100CB
:10C0F000C7E5B3FDD0D00000685E0010140000104A
:10C100009C370300B5E7D7E800000000B5E7D1B9D8
:10C1100000000000B0E6B1BE00000000D0A3D5FDD5
:10C1200000000000D12F030070420300FCF7F5FF70
:10C130000AE09AF8D6000023C0EBC00000EB08022A
:10C1400048215A20FCF7E9FF2078042804D0002079
:10C1500020B1C9F8045003E00120F9E7C9F80460F0
:10C16000D9F8040000906E23C0225C215A20FCF70D
:10C1700041FC9AF8D80050B19AF8A8020023C0EB0D
:10C18000C000C2195E215A20FCF7C7FF0AE09AF8E6
:10C19000A8020023C0EBC00000EB08025E215A2079
:10C1A000FCF7BBFF2078052804D0002020B1C9F897
:10C1B000045003E00120F9E7C9F80460D9F804004D
:10C1C00000908423C02272215A20FCF713FC9AF8B5
:10C1D000D810FE48002300EBC10274215A20FCF75E
:10C1E0009CFF2078062804D0002020B1C9F8045014
:10C1F00003E00120F9E7C9F80460D9F804000090D1
:10C200009A236C2288215A20FCF7F4FBF048012382
:10C210000222C0690021FDF723F80023ED4A8A219C
:10C220005A20FCF77AFFC9F804600023AFF2685285
:10C230008A216E20FCF771FF2078072804D00020A7
:10C2400020B1C9F8045003E00120F9E7C9F80460FF
:10C25000D9F8040000909A238A2288217820FCF7DC
:10C26000C9FBDB480123022280690021FCF7F8FFAB
:10C270000023D84A8A217820FCF74FFFC9F80460D0
:10C280000023AFF2BC528A218C20FCF746FF2078B5
:10C29000082804D0002020B1C9F8045003E0012090
:10C2A000F9E7C9F80460D9F8040000909A23AA229B
:10C2B00088219820FCF79EFBC54801230222C06814
:10C2C0000021FCF7CDFFC349002088700A460023F7
:10C2D0008A219820FCF721FF2078092804D000202B
:10C2E00020B1C9F8045003E00120F9E7C9F804605F
:10C2F000D9F804000090B0236C229E215A20FCF74C
:10C3000079FBB3480123022280680021FCF7A8FFD3
:10C310000023B04AA0215A20FCF7FFFEC9F80460B0
:10C320000023ADA2A0216E20FCF7F7FE20780A289A
:10C3300004D0002020B1C9F8045003E00120F9E73F
:10C34000C9F80460D9F804000090B0238A229E2125
:10C350007820FCF74FFB9E48012302224068002111
:10C36000FCF77EFF00239B4AA0217820FCF7D5FE36
:10C37000C9F80460002398A2A0218C20FCF7CDFE10
:10C3800020780B2804D0002020B1C9F8045003E025
:10C390000120F9E7C9F80460D9F804000090B0233F
:10C3A000AA229E219820FCF725FB8948012302221E
:10C3B00000680021FCF754FF8649002088700A4677
:10C3C0000023A0219820FCF7A8FE20780C2804D098
:10C3D000002020B1C9F8045003E00120F9E7C9F8B2
:10C3E0000460D9F804000090C623C022B4215A206A
:10C3F000FCF700FB0023794AB6215A20FCF78DFE9A
:10C40000FDF71DF86FF07F40C9F800007448C9F8C7
:10C410000400207854250C282DD2DFE800F0060A0D
:10C420002D406284959595959595BDE8F84FFDF75B
:10C430004FBC00249AF8D80068B1C4EBC40000EBEC
:10C440000B0204EB840005EB001080B20023F12105
:10C45000FCF763FE0CE06348C4EBC4010A1804EB6C
:10C46000840005EB001080B20023F121FCF755FE9B
:10C47000641C022CDED35DE40024544E1036C4EB61
:10C48000C400821904EB840005EB001080B2002385
:10C49000F121FCF742FE641C052CF0D34AE4002491
:10C4A0009AF8D80060B1C4EBC400C21904EB840050
:10C4B00005EB001080B20023F121FCF72EFE0CE00A
:10C4C000C4EBC40000EB080204EB840005EB001091
:10C4D00080B20023F121FCF720FE641C022CDFD384
:10C4E00028E400249AF8D80060B1C4EBC400C21953
:10C4F00004EB840005EB001080B20023F121FCF76F
:10C500000CFE0CE0C4EBC40000EB080204EB84005A
:10C5100005EB001080B20023F121FCF7FEFD641C46
:10C52000022CDFD306E40024284E04EB840005EB44
:10C53000001006EBC40280B20023F121FCF7EDFDF0
:10C54000641C022CF1D309E40024274E04EB840080
:10C5500005EB001006EBC40280B20023F121FCF7CA
:10C56000DCFD641C022CF1D30CE4FDF776BCF8B5BD
:10C570000646FFF7FAFF1D4C6FF07F4727601C4807
:10C580006060164DD93D95F8D80030B10023194AA6
:10C5900004211846FCF7C1FD06E0164A0023F23AD2
:10C5A00004211846FCF7B9FD27604FF05010606079
:10C5B0000090B423B0221A210020FCF71BFA0124BA
:10C5C00095F8D80040B304EB840015E06042030006
:10C5D000185E0010685E00103A0000002919001073
:10C5E00038003100C32F03004D3503001400001044
:10C5F000F35203005A400300FE4900EBC400421806
:10C60000611E01EB8100C82101EB401080B20023C4
:10C610001A21FCF782FD11E0F64904EB840000EBDF
:10C62000C40027394218611E01EB8100B02101EBE3
:10C63000401080B200231A21FCF76FFD641C032C0C
:10C64000BED370781A2598B1012810D10024EA4E83
:10C6500004EB440000EBC400821905EB400081B2FA
:10C6600000231846FCF759FD641C062CF0D3F8BDD6
:10C670000124E14E583E04EB440000EBC400821953
:10C68000601E00EB400101EBC00005EB400081B2F1
:10C6900000231846FCF741FD641C082CEBD3F8BDC1
:10C6A00008B5D6480090B62340F2DF127A21002068
:10C6B000FCF7A0F908BD10B5FDF7CFFBFCF7BFFEF6
:10C6C000BDE81040ECE72DE9F047FFF7F4FFDFF895
:10C6D00030836FF07F44C8F80040CA48C8F80400AF
:10C6E000C94E96F8D80038B1C24A0023BF3A042197
:10C6F0001846FCF712FD05E00023C44A0421184641
:10C70000FCF70BFDC8F800404FF05019C8F8049032
:10C710000024B84F4FF6FF75273707F1300A032C76
:10C7200018D296F8D80050B104EB84000AEBC4028A
:10C7300005EA401000231A21FCF7EFFC24E004EB8B
:10C74000840007EBC40205EA401000231A21FCF71D
:10C75000E4FC19E096F8D80058B1E01E00EB800028
:10C7600007EBC40205EA401000233021FCF7D5FC9A
:10C770000AE0E01E00EB80000AEBC40205EA40106C
:10C7800000233021FCF7C9FC641C062CC7D300240D
:10C79000984E9A4D8736201F042802D2C8F80450BC
:10C7A00001E0C8F80490C4EB0410413081B20023CA
:10C7B00006EB84021846FCF706FD641C0B2CEAD33A
:10C7C000002393A24121A020FCF7FDFC002391A2AD
:10C7D00041214FF4A070FCF7F6FC90481A224FF468
:10C7E0009371D0F8B803FDF7A0FCBDE8F047002036
:10C7F000FDF77EB908B581480090B62340F2DF12FC
:10C800007A210020FCF7F6F808BD10B5FDF725FBEE
:10C81000BDE81040FCF713BE70B5FFF7F6FF784C8B
:10C820006FF07F46266077486060774D95F8D800B6
:10C8300038B1704A0023A93A04211846FCF76DFC70
:10C8400006E0724A0023163204211846FCF765FC04
:10C8500026604FF050106060664A0023B3321A2100
:10C860001846FCF75AFC012495F8D80070B16149CC
:10C8700004EBC400F2314218601E4D2148431E30C3
:10C8800080B200233021FCF748FC0DE0594904EB4D
:10C89000C400B3314218601E4D2148431E3080B29F
:10C8A00000233021FCF739FC641C072CDCD3BDE8E5
:10C8B00070400020FDF71CB9F8B500246FF07F46EA
:10C8C0001825601C00EB400101EBC00005EB4000A7
:10C8D00083B281B2BE225A200096FCF7CCF8641CC9
:10C8E000072CEED3F8BD10B5FDF7B7FABDE8104040
:10C8F000FCF7A5BD70B5FFF7F6FF414C6FF07F4523
:10C90000256040486060404E96F8D80038B1394AFA
:10C910000023673A04211846FCF7FFFB06E03B4A78
:10C920000023583204211846FCF7F7FB25604FF02E
:10C930005010606096F803011A2501281DD00024CC
:10C9400096F8D800B8B396F8A0023549C0EBC000FD
:10C9500000EB400001EB8001C4EBC40000EB4000A1
:10C960000A1804EB440000EBC40005EB400081B260
:10C9700000231846FCF7D1FB71E0002496F8D8009C
:10C98000D0B196F8A0022749C0EBC00000EB4000F0
:10C9900001EB8001C4EBC40000EB40000A1804EB7B
:10C9A000440000EBC40005EB400081B200231846B0
:10C9B000FCF7B3FB19E039E096F8A0021A49C0EB86
:10C9C000C00000EB400001EB8001C4EBC40000EBB1
:10C9D00040000A1804EB440000EBC40005EB4000E3
:10C9E00081B200231846FCF798FB641C042CC5D3C5
:10C9F00039E000002F4103009B340300343465000C
:10CA000014000010F3520300501800107E3F030082
:10CA10004C4F57004849474800000000001B0010D9
:10CA2000A63C03005E390300BA37030096F8A00263
:10CA3000C0EBC00000EB4000FE49002301EB800189
:10CA4000C4EBC40000EB40000A1804EB440000EB08
:10CA5000C40005EB400081B21846FCF75EFB641C85
:10CA6000042CFFF46DAF0023F34A5C215A20FCF73D
:10CA700054FBBDE87040FDF72BB970B5FFF733FFED
:10CA8000EE4C6FF07F452560ED486060EA4EF93E60
:10CA900096F8D80030B10023EA4A04211846FCF782
:10CAA0003CFB06E0E74A0023F23A04211846FCF773
:10CAB00034FB25604FF05010606000241A2596F872
:10CAC000D80068B104EB4400DF4900EBC400421811
:10CAD00005EB400081B200231846FCF71EFB0DE079
:10CAE000D94904EB440000EBC4005839421805EB67
:10CAF000400081B200231846FCF70FFB641C082C91
:10CB0000DDD3FFF7D9FEBDE87040FDF7E1B82DE9B0
:10CB1000F05F80460C4642F20F716068884205D98A
:10CB20000A21B0FBF1F060600420A060A068C0F1B1
:10CB30000405A56060680DF056FA8146C34FE068B1
:10CB400010B1012806D00FE0394648460DF053F8E1
:10CB5000814609E048460DF0AFFA0022BC4B0DF0CB
:10CB600061F90DF0EDFA814628460DF052FA0246C1
:10CB70000B460020B7490EF075FB05460E464846A9
:10CB80000DF09AFA2A4633460DF0BEF90DF0D8FAA8
:10CB90000546B14801264FF0020A854207DD0546E9
:10CBA00040F6B8306060C4F808A0E6604EE0AB48DC
:10CBB000AB49854209DB28460DF04FF80DF04FFADE
:10CBC0006060C4F808A0E66040E0A6484FF0030BA0
:10CBD00085420ADB394628460DF03FF80DF03FFA52
:10CBE0006060C4F808B0E66030E09F484FF000098C
:10CBF00085420ADB9D4928460DF02FF80DF02FFAEB
:10CC00006060A660C4F80C9020E08D420BDB984970
:10CC100028460DF022F80DF022FA6060C4F808A052
:10CC2000C4F80C9012E0BD4208DB28460DF017FA5C
:10CC30006060C4F808B0C4F80C9007E028460DF016
:10CC40000EFA6060C4F808B0C4F80C9028460DF0E5
:10CC500006FAA06121464046BDE8F05F1C220CF0B8
:10CC60002BBF808800B27047F0B4D1E90227642658
:10CC70000A25804B4FF47A74002F06D0062A53D22F
:10CC8000DFE802F0232D54333F48052A4ED2DFE877
:10CC900002F0034D0D1217004A689A4203D94B6007
:10CCA00000220A6142E001220A613FE04A68B2FBC9
:10CCB000F4F24A603AE04A68B2FBF6F24A6035E0C4
:10CCC0004A68B2FBF5F24A6030E04A689A4201D9FC
:10CCD0004B602BE04FF47A735A434A6026E04A686F
:10CCE0000AB3B2FBF5F24A6020E04B6842F21072E0
:10CCF000934200D94A604A6802EB820252004A60BD
:10CD000014E04A68A24200D94C604A6864235A433E
:10CD10004A600BE04A68642A00D94E604A684FF4C2
:10CD20007A735A434A6001E0534A4A60F0BC1C22BD
:10CD30000CF0C2BE2DE9F04780460C4642F20F715E
:10CD400060680A27884204D9B0FBF7F060600420CD
:10CD5000A060D4F804904FF47A7009FB00F9A06841
:10CD6000C0F104000DF055F902460B460020394988
:10CD70000EF078FA05460E4648460DF04AF92A4666
:10CD800033460DF0C1F80DF07EF94EF66021884271
:10CD900000D9084642F21071884205D30221A160F1
:10CDA000B0FBF7F1616002E00321A1606060A06167
:10CDB00021464046BDE8F0471C220CF07DBE70B510
:10CDC00005460C460020E060A0680DF00CF90DF05F
:10CDD00073F902460B4600201E490EF043FA0DF08F
:10CDE00052F96168B1FBF0F0642801D90220A0601B
:10CDF00021462846BDE870401C220CF05DBE08B5F7
:10CE00001E480090372328225C213C20FBF7EBFFD3
:10CE10001B480090372328225C216420FBF7E3FFA6
:10CE2000184800903723282293213C20FBF7DBFF92
:10CE300015482BE0023B03004919001014000010B4
:10CE4000F35203009C400300A23E030000007A441A
:10CE500080842E4100002440C0E1E44B8096184BB2
:10CE600000401C46002474490050C3470000C842DB
:10CE700000002041A086010040420F001002030084
:10CE8000280303005818030062270300009037238B
:10CE9000282293216420FBF7A6FF08BD08B5FC48B3
:10CEA0000090372328225C213C20FBF79CFFF948A7
:10CEB0000090372328225C216420FBF794FFF6487A
:10CEC00000903723282293213C20FBF78CFFF34866
:10CED00000903723282293216420FBF784FF08BDAC
:10CEE00008B5EB480090372328225C213C20FBF753
:10CEF0007AFFE8480090372328225C216420FBF762
:10CF000072FFE74800903723282293213C20FBF74B
:10CF10006AFFE24800903723282293216420FBF720
:10CF200062FF08BD38B5DA480090372328225C211B
:10CF30003C20FBF758FFD74C372328225C21642084
:10CF40000094FBF750FFD748009037232822932105
:10CF50003C20FBF748FF37232822932164200094CC
:10CF6000FBF741FF38BD38B5C94800903723282268
:10CF70005C213C20FBF737FFCB4C372328225C2178
:10CF800064200094FBF72FFFC64800903723282227
:10CF900093213C20FBF727FF37232822932164208D
:10CFA0000094FBF720FF38BD08B5B948009037233F
:10CFB00028225C213C20FBF716FFBB48009037235A
:10CFC00028225C216420FBF70EFFB848009037232D
:10CFD000282293213C20FBF706FFB048009037231E
:10CFE000282293216420FBF7FEFE08BD08B5A8485F
:10CFF0000090372328225C213C20FBF7F4FEAA484E
:10D000000090372328225C216420FBF7ECFEA24825
:10D0100000903723282293213C20FBF7E4FE9F4811
:10D0200000903723282293216420FBF7DCFE08BD03
:10D0300008B59F480090372328225C213C20FBF74D
:10D04000D2FE94480090372328225C216420FBF70D
:10D05000CAFE914800903723282293213C20FBF7F9
:10D06000C2FE8E4800903723282293216420FBF7CC
:10D07000BAFE08BD38B58E480090372328225C21BF
:10D080003C20FBF7B0FE834C372328225C21642030
:10D090000094FBF7A8FE83480090372328229321B1
:10D0A0003C20FBF7A0FE3723282293216420009424
:10D0B000FBF799FE38BD08B57D480090372328223C
:10D0C0005C213C20FBF78FFE72480090372328221A
:10D0D0005C216420FBF787FE7248009037232822EA
:10D0E00093213C20FBF77FFE7248009037232822D3
:10D0F00093216420FBF777FE08BD08B56C480090CB
:10D10000372328225C213C20FBF76DFE614800900C
:10D11000372328225C216420FBF765FE63480090DA
:10D120003723282293213C20FBF75DFE5B480090CB
:10D130003723282293216420FBF755FE08BD08B54C
:10D140005B480090372328225C213C20FBF74BFEF4
:10D1500050480090372328225C216420FBF743FECF
:10D160004F4800903723282293213C20FBF73BFEB9
:10D170004A4800903723282293216420FBF733FE8E
:10D1800008BD08B54A480090372328225C213C207E
:10D19000FBF729FE44480090372328225C216420B5
:10D1A000FBF721FE414800903723282293213C20A1
:10D1B000FBF719FE39480090372328229321642079
:10D1C000FBF711FE08BD08B5394800903723282227
:10D1D0005C213C20FBF707FE3348009037232822D0
:10D1E0005C216420FBF7FFFD2B48009037232822A9
:10D1F00093213C20FBF7F7FD284800903723282295
:10D2000093216420FBF7EFFD08BD38B52848009056
:10D21000372328225C213C20FBF7E5FD224C3723F5
:10D2200028225C2164200094FBF7DDFD1D4800905E
:10D230003723282293213C20FBF7D5FD37232822D2
:10D24000932164200094FBF7CEFD38BD08B5184843
:10D250000090372328225C213C20FBF7C4FD1248B4
:10D260000090372328225C216420FBF7BCFD0D4889
:10D2700000903723282293213C20FBF7B4FD0D4872
:10D2800000903723282293216420FBF7ACFD08BDD2
:10D2900010020300280303006B1903006227030038
:10D2A000321603001F150300E6110300581803008F
:10D2B000D31003007E1A030038B5F84800903723D6
:10D2C00028225C213C20FBF78EFDF54C37232822D9
:10D2D0005C2164200094FBF786FDA4F6E4400090F6
:10D2E0003723282293213C20FBF77DFD372328227A
:10D2F000932164200094FBF776FD38BD38B5E748EC
:10D300000090372328225C213C20FBF76CFDE44C85
:10D31000372328225C2164200094FBF764FDA4F6E7
:10D32000D13000903723282293213C20FBF75BFD6E
:10D3300037232822932164200094FBF754FD38BD45
:10D3400038B5D8480090372328225C213C20FBF7D1
:10D350004AFDD34C372328225C2164200094FBF73C
:10D3600042FDA4F6E44000903723282293213C207C
:10D37000FBF739FD37232822932164200094FBF723
:10D3800032FD38BD38B5C7480090372328225C21CC
:10D390003C20FBF728FDC24C372328225C21642067
:10D3A0000094FBF720FDA4F6D1300090372328220B
:10D3B00093213C20FBF717FD37232822932164207B
:10D3C0000094FBF710FD38BDF8B5B74C4FF4C275AB
:10D3D00094F8B510002901D0022926D1B34828229B
:10D3E000009037235C211046FBF7FDFCB04800900D
:10D3F000372328225C212846FBF7F5FCAD484FF483
:10D40000AE7690F89D0040B1A548009037232822C1
:10D410005C213046FBF7E7FC07E0A7480090372384
:10D4200028225C213046FBF7DEFC94F8B51009B1E8
:10D4300001290ED1A14C28223723932110460094B4
:10D44000FBF7D1FC37232822932128460094FBF7D1
:10D45000CAFCF8BD08B59A480090372328229321CA
:10D460003C20FBF7C0FC91480090372328225C2128
:10D470003C20FBF7B8FC93480090372328225C211E
:10D480006420FBF7B0FC86480090372328229321C4
:10D490006420FBF7A8FCFAE608B58448009037231F
:10D4A00028225C213C20FBF79EFC87480090372314
:10D4B00028225C216420FBF796FC814800903723EA
:10D4C000282293213C20FBF78EFC754800903723DF
:10D4D000282293216420FBF786FCD8E608B57B4818
:10D4E0000090372328225C213C20FBF77CFC784805
:10D4F00000903723282293213C20FBF774FCC6E6DA
:10D500002DE9FF4F83B01C460125A9460020A070DD
:10D5100002F012FBFF28FBD1DFF8B8B19BF8B8038B
:10D52000A0706D480290C01DC71D4FF0FF0A01900A
:10D53000E7E0B9F1000F30D04FF00009674E6FF00F
:10D540007F40306066487060FBF779FFC6F804A042
:10D550002C23C02218215820CDF800A0FBF74AFA4E
:10D56000A078604900EBC000421801231A2158201E
:10D57000FBF7D3FD5A4870600026059806EB86013C
:10D5800000EBC602542000EB01100023F121FBF751
:10D59000C4FD761CF6B2052EEFD302F0CDFA064696
:10D5A000FF2E05D008F10108B8F1030F31D102E0D8
:10D5B0004FF00008F8E74FF0010902F0D9FA0B2EFE
:10D5C00061D00CDC032E67D004DC012E44D0022E87
:10D5D0001FD18FE0092E0FD00A2E1AD14CE0132E46
:10D5E0004CD004DC112E15D0122E12D186E0192E4B
:10D5F00021D01B2E0DD14BE03748E178C01F405C95
:10D60000FF2801D0A0700025A078CBF8B80384F8DB
:10D6100002A076E0E1780298085CFF2801D0A070B3
:10D620000025A078CBF8B803E078C05DFF2868D06B
:10D6300084F802A065E0E1780198085CFF2801D039
:10D64000A0700025A078CBF8B803E078C05DFF2873
:10D6500057D084F802A054E0E078C05DFF2801D0E4
:10D66000A0700025A078CBF8B803E078C05DFF2853
:10D6700047D084F802A044E0002542E01A48062181
:10D68000016000253DE0184805210160002538E0D3
:10D6900000250020207034E028E00000F91203008B
:10D6A000622703000C140300501800101F1503001C
:10D6B0003C250300685C001003220300C12C03001A
:10D6C0006B190300E6110300280303003216030060
:10D6D00045170300001B0010AE31030014000010BA
:10D6E00038003100173003006C01001000250A20BB
:10D6F000207006E000250220207002E000250020B6
:10D700002070002D7FF415AF07B0BDE8F08F2DE934
:10D71000F05F0446FF4D4FF0501AC5F804A0FE4ECE
:10D72000DFF8F89396F8400000280DD199F87000C2
:10D73000002300EB400101EBC000F94942181A2117
:10D740004FF4B970FBF7E9FCF648686096F8B5004D
:10D75000DFF8D4B3FF276FF07F4808B102281AD151
:10D76000EE4A9BF800008532012802D196F8B400F9
:10D7700028B1012C0AD04CB1042C07D007E0C5F821
:10D7800000805C218420FBF79DFC04E02F605C217D
:10D790008420FBF797FC96F8B50008B101281DD14D
:10D7A0009BF8000018B196F8B400012805D1022CAE
:10D7B00020D0032C1ED0042C1CD0C5F8008099F872
:10D7C000D000C8B101F0CDFF99F8DD00012827D0C5
:10D7D000D24A93218F326420FBF774FCC5F8008095
:10D7E000C5F804A0BDE8F05F0023D221CFA21E201F
:10D7F000FBF793BC2F60E2E7CE48CF4C807848B16E
:10D80000CEA293216420FBF75DFC01F0AAFF00206B
:10D810002070D9E72F600120207001F095FFD3E739
:10D82000C7A293216420FBF74DFCD7E710B5B94997
:10D830004FF050104860B948002390F8700000EB9A
:10D84000400101EBC000B64942181A214FF4C970DB
:10D85000FBF763FCB14A002371325C21B820FBF76F
:10D860005CFCAE4A00237B327221B820FBF755FCEA
:10D87000AA4A4FF4A074002385325C212046FBF7AE
:10D880004CFCA64A204600238F32BDE8104072218E
:10D89000FBF743BC30B585B00D46ACA206CACDE956
:10D8A0000312ACA206CACDE9011203A9AB4C085C75
:10D8B00040F21311484320440090372328225C2172
:10D8C0004FF4BE70FBF78FFA01A840F21311405DD0
:10D8D000372300FB0140009028225C214FF4D270D6
:10D8E000FBF781FA05B030BD30B585B00D4697A283
:10D8F00006CACDE9031297A206CACDE9011203A90F
:10D90000964C085C40F213114843204400903723A2
:10D91000282293214FF4BE70FBF765FA01A840F26C
:10D920001311405D372300FB014000902822932112
:10D930004FF4D270FBF757FAD4E710B50346002036
:10D94000002204E09C5C2044C0B2521CD2B28A4245
:10D95000F8D310BD10B5824CAB20E070522020717E
:10D960006D4890F840006071BF20A07106F042FF42
:10D97000012084F8550010BD0EB57A48D0E90B128D
:10D98000406BCDE9001202906946774807F082FEAD
:10D990000EBD00B587B0142102A80CF0A6F873489C
:10D9A0000068019060208DF808007148714A016894
:10D9B00001EB4101535C8DF8093070238DF80A307A
:10D9C00011444A788DF80B2071228DF80C2089784B
:10D9D0008DF80D1080228DF80E2090218DF81010FA
:10D9E000017B8DF81110A0218DF8121090F86810AD
:10D9F0008DF81310B0218DF8141090F860108DF888
:10DA00001510C0218DF8161090F86C108DF81710B5
:10DA1000E0218DF81810007E8DF80F008DF8192088
:10DA2000BF208DF81A0000208DF81B0001A94E4878
:10DA300007F030FE07B000BD10B5494CAB20E070D8
:10DA400020202071344890F8400060710321E01CD0
:10DA5000FFF773FFA07106F0E7FE012084F8550080
:10DA600010BD10B53E4CAB20E07020202071072087
:10DA700060710321E01CFFF760FFA07106F0D4FE87
:10DA8000012084F8550010BD10B5354CAB20E07076
:10DA900020202071002060710321E01CFFF74DFF62
:10DAA000A07106F0C1FE012084F8550010BD10B52C
:10DAB0002B4CAB20E07010202071002060710321FE
:10DAC000E01CFFF73AFFA07106F094FE012084F8F5
:10DAD000550010BD0146284807F0DCBD00B585B0F3
