:020000040001F9
:10800000B86600103950020041500200435002008F
:108010004550020047500200495002000000000095
:108020000000000000000000000000004B500200B3
:108030004D500200000000004F500200B5F7010053
:1080400053500200598601006B8601007B860100B7
:108050008B8601001D640200535002005350020041
:10806000E7640200535002005350020053500200D4
:10807000535002005350020053500200535002006C
:10808000535002006D86020053500200535002000C
:10809000535002005350020053500200535002004C
:1080A000CF7D020053500200214D020053500200C8
:1080B000535002005350020053500200535002002C
:1080C000535002005350020053500200535002001C
:1080D0005350020053500200DD8201005350020051
:1080E00053500200DFF80CD012F002FD00480047A8
:1080F00027830100B8660010724840F20121016038
:1081000041608160C160016141618161C161016261
:1081100041628162C162016341638163C163016441
:1081200041648164C164016541658165C165016621
:1081300041668166C166016741678167C167C0F8B2
:108140008010C0F88410C0F88810C0F88C10C0F8F7
:108150009010C0F89410C0F89810C0F89C10C0F8A7
:10816000A010C0F8A410C0F8A810C0F8AC10C0F857
:10817000B010C0F8B410C0F8B810C0F8BC10C0F807
:10818000C010C0F8C410C0F8C810C0F8CC10C0F8B7
:10819000D010C0F8D410C0F8D810C0F8DC10C0F867
:1081A000E41040F8401C40F83C1C40F8381C40F8F3
:1081B000301C40F8201C40F8101C40F80C1C40F803
:1081C000081C40F8041C70472DE9F0413E4E306811
:1081D00040F40060306041F61F70C6F818013B4C57
:1081E000012222600027A760FFF786FF384839493F
:1081F0000068B0FBF1F5F06BC43E00B16D084FF4C0
:108200007A78B8FBF5F000F11303B3FBF0F12163CA
:108210004FF00F0CC4F834C0A763E263B3FBF0F176
:10822000891C2164626400F13E01B1FBF0F3A36498
:10823000B1FBF0F3E364C4F850C0B1FBF0F060654B
:10824000A265A26240F20330C4F804014FF4D0608A
:10825000C4F800016421002000F0AAF940F2831064
:108260002062C821002000F0A3F940F20310206230
:10827000022060620020401C8028FCD340F2E710FE
:108280004543B5FBF8F080B260628320206212485B
:1082900000882762D4F8000140F40020C4F80001EF
:1082A0000121002000F084F90121002000F080F974
:1082B000D6F8DC0120F01F0040F01100C6F8DC0108
:1082C000BDE8F08180C10240C4C00F4000C0092059
:1082D0008401001040420F00003003A010B50122BD
:1082E000132100200DF090F800281BD0A249012294
:1082F000402008606FF07F40401E0028FCD19F485E
:108300009F49036823B1002202600F20086002E049
:10831000026002200860BDE810404FF400210020F8
:108320000DF09DB810BD1FB500200DF089F9044671
:108330001D2000F006F962B60025904E3560C82079
:10834000B4FBF0F0401EB0F1807F0CD220F07F40F3
:108350004FF0E024401E60611F21601700F0FCF820
:10836000A561072020610122D10400200DF02DF825
:108370000121262000F0F0F8262000F0E2F807F0B6
:10838000E2FB07F038FB0DF068FF0CF04EFD3560A6
:108390000EF096FA10F07FF907F0D5FB07F02BFBF3
:1083A000282007F0EFFAFFF70FFF002000F02CFA6B
:1083B00074480021406900F056FA012000F024FAC8
:1083C0000CF090FC002007F099FB05F03AFD07F057
:1083D00089FE6B4F0F2038606B4E07F049FC044656
:1083E000FF2C06D03068401C30603068022802D074
:1083F00013E03560F9E735604FF0501000F0F1FA06
:10840000224662A101A812F001FC6FF07F4301AA8D
:1084100028217820009500F009FC38680A2818D037
:1084200008DC02280FD0052810D00628D5D108F086
:1084300006FAD2E70C280FD00F2810D01028CCD184
:108440000BF067F8C9E707F0FEFEC6E709F0CDF8C4
:10845000C3E70CF03BF9C0E70BF063F9BDE70BF0A5
:10846000BFF8BAE770B5012149A00FF05CF90546E5
:10847000002D0EDD494C4FF47A66324628462168BD
:108480000FF0FEF90028F8D12846BDE870400FF043
:108490009BBB70BD2DE9F04701213DA00FF043F9D2
:1084A0000646002E21DD3D4F4FF47A694A4630469C
:1084B00039680FF0E5F9022139A00FF034F90546CB
:1084C000002D12DD0024DFF8E4804A462846396892
:1084D0000FF0EEFA04444445F7D328460FF074FB3E
:1084E0003046BDE8F0470FF06FBBBDE8F0872DE9DF
:1084F000F041012126A00FF016F90646002E1EDDE0
:10850000022127A00FF00FF90746002F17DD234C9B
:108510004FF47A684246304621680FF0B1F90546BB
:108520002A46384621680FF0C3FA002DF2D13846AA
:108530000FF04AFB3046BDE8F0410FF045BBBDE807
:10854000F08100F01F02012191404009800000F1FC
:10855000E020C0F800117047C906090E002806DAAD
:1085600000F00F0000F1E02080F8141D704700F1CA
:10857000E02080F80014704784E100E074010010EE
:108580007C0100101C0000107000001025326400F7
:108590004D53524541442E54585400002C020010B3
:1085A0004A4B32353230422E54585400809698004F
:1085B000F0B58F4A0023FF250426012712684FF0EB
:1085C000020C4FF47A74002815D0012824D0022818
:1085D00032D003280ED18748C0F804C0C360B2FB74
:1085E000F4F2521E4A438261056046614760416869
:1085F000C907FCD1F0BD4FF04020C0F804C0C360F3
:10860000B2FBF4F2521E4A43826105604661476044
:108610004168C907FCD1F0BD7748C0F804C0C36009
:10862000B2FBF4F2521E4A43826105604661476024
:108630004168C907FCD1F0BD7048C0F804C0C360F0
:10864000B2FBF4F2521E4A43826105604661476004
:108650004168C907FCD1F0BD4FF0402101200860FE
:1086600067480168491C0160704763490120086040
:1086700063484168491C41607047604901200860B7
:108680005F488168491C816070475A490120086031
:108690005B48C168491CC16070470121002808D0AF
:1086A00001280AD002280BD0032801D1514841608B
:1086B00070474FF04020416070474F48416070471D
:1086C0004E48416070470021002808D001280AD098
:1086D0004A4A02280AD0032800D1516070474FF05F
:1086E0004020416070474448416070475160704786
:1086F00000280BD0012810D0022814D0032804D160
:108700003C49486840F00200486070474FF0402103
:10871000486840F00200486070473749486840F0B8
:108720000200486070473549486840F002004860E0
:10873000704770B50025324C324A03234EF65F264F
:10874000002807D0012819D002282AD0032836D0C3
:10875000002070BD256052F8C40F40F00200106088
:108760004FF04020426842F002024260C6608161E0
:108770004361012000F031F8012070BD656052F8BE
:10878000C40F40F0040010601B48426842F004022D
:108790004260C66081614361022000F01EF8012042
:1087A00070BDA56052F8C40F40F4800010601348FB
:1087B00081614361032000F010F8012070BDE56085
:1087C00052F8C40F40F4000010600A488161436110
:1087D000042000F002F8012070BD00F01F0201210A
:1087E00091404009800000F1E020C0F8001170477E
:1087F000880100100040094000800040000009404E
:108800000000001000C00F4008B5FD4942F2107290
:1088100000280FD0886940F00100886100928869C3
:1088200040F4006088610098401E00900098002885
:10883000F5D108BD886920F400608861009202E0EB
:108840000098401E009000980028F9D1886920F017
:108850000100886108BDEB4A002108C808C2491C14
:108860008029FAD3704770B50846E74CE74B2722BA
:1088700043F8A82C43F8A42CC3F8B821C3F8BC21B2
:108880001A665A669A66DA6643F8A02C43F89C2C5E
:108890009A61DA611A625A629A62DA6243F8982C33
:1088A00043F8942C9A67DA671A635A639A63DA6317
:1088B0001A65DA655A659A659A64D54A116C41F071
:1088C00002011164916D41F00A019165D14B196863
:1088D00041F001011960D0490A6822F001020A60E2
:1088E000C74A00259561916921F00E019161916956
:1088F00041F00A019161916941F020019161916912
:1089000021F080019161916921F4807191619169F7
:1089100021F400719161916921F480619161916903
:1089200021F400619161BD49BD4E0968B1FBF6F1CA
:10893000C3F8F410916841F080619160916821F072
:1089400020019160916841F400619160916841F467
:1089500080519160916821F400519160916821F4F7
:10896000804191609168AF4B194091609168AE4B26
:10897000194391601560116841F01C511160116834
:1089800041F480211160116841F480711160116817
:1089900041F0740111605560516841F0006151600F
:1089A000516841F400215160516841F48061516087
:1089B000516840F20F13194351601461546100284B
:1089C00001D0FFF748FF00204FF47F01CA1102C415
:1089D000401C9042FBD342F21070401E0028FCD194
:1089E00070BD894A00214FF4FF3301C2491C9942EE
:1089F000FBD37047F0B5059EA1F20F1CACEB0C1435
:108A0000E501A0F2DF14A5EB84047F4D2C44002582
:108A1000121AC2F5F077591A09E0002002E044F872
:108A20000469401C8242FAD8A4EB87046D1CA94259
:108A3000F3D8F0BD744BB0F5F07F0ED2B1F5887F5E
:108A40000BD2A1F20F11C0F5F070A1EB011100EBF8
:108A50004110401E03EB8000026070476A4AA1F299
:108A60000F11A1EB011102EBC111A0F2DF10A1EB7C
:108A70008000006870472DE9F0470446DDF820A02B
:108A80000D4690469946444502D94046A04684B2D8
:108A90004D4502D94846A94685B2A8EB040000B26C
:108AA000A9EB05010EB250B1A6B1B04236DDC0EB64
:108AB00046010FB27100404201EB400926E05246E8
:108AC00029462046FFF7B6FF6D1CADB2A945F6D288
:108AD000BDE8F087524629462046FFF7ABFF641CED
:108AE000A4B2A045F6D2F3E7524629462046FFF746
:108AF000A1FF641CA4B2002F05DD6D1CADB209EB13
:108B0000070007B202E007EB460007B24445EBD18D
:108B1000524629462046BDE8F0478BE7C6EB4001A8
:108B20000FB27100404201EB400811E05246294665
:108B30002046FFF77FFF6D1CADB2002F05DD641CE2
:108B4000A4B208EB070007B202E007EB460007B249
:108B50004D45EBD1524629462046BDE8F04769E72E
:108B60002DE9FF5F8946074611469B46684600F09F
:108B7000FBFB0025EA461AF80580002409EB0506F0
:108B8000C4F1070028FA00F0C00706D03819B1B2C6
:108B900080B25A46FFF74EFF05E03819B1B280B2F5
:108BA0000E9AFFF747FF641C082CE9D36D1C102DAB
:108BB000E1D3BDE8FF9F2DE9FE4F8946804611466F
:108BC0009B46684600F0D7FB0025EA461AF8056088
:108BD000002409EB0507C4F1070026FA00F0C007DE
:108BE00006D008EB0400B9B280B25A46FFF722FF64
:108BF000641C082CEFD36D1C0C2DE7D3BDE8FE8F51
:108C00000080082000820820000001A0B8C00240B7
:108C100000800920C4C00F40008C0820880100108B
:108C2000B0475D00FFFF00FC0000DF012DE9F843C5
:108C30000446089F0D46164699464FF4EC7816F800
:108C4000012B4B46294620460097FFF789FF4445F4
:108C500002D20834A4B207E0FF2D03D80024103557
:108C6000ADB201E00024002530780028E7D1BDE84E
:108C7000F8832DE9FF4F82B005460C4617462E4675
:108C8000A0464FF0000AA6F1140080B23A462146F1
:108C9000FFF7D0FE761CB6B2A8F1140081B23A46B6
:108CA0002846FFF7C7FE08F101081FFA88F80AF105
:108CB000010A1FFA8AFABAF1280FE4D3A946274617
:108CC0000026A5F1140001902830A4F1140804F145
:108CD000140A0090A9F1140083461FFA88F180B2AB
:108CE000059AFFF7A7FE1FFA8AF11FFA8BF0059A83
:108CF000FFF7A0FE09F101091FFA89F9A7F1140095
:108D0000834681B20198059A80B2FFF793FE0098DE
:108D10001FFA8BF180B2059AFFF78CFE7F1CBFB261
:108D2000761CB6B20A2ED5D30026A4F1140704F19E
:108D30001408A5F1140905F1140A05F10A00834687
:108D4000B9B280B2059AFFF775FE1FFA88F11FFAD3
:108D50008BF0059AFFF76EFE6D1CADB204F10A00B0
:108D6000834681B21FFA89F0059AFFF763FE1FFA66
:108D70008BF11FFA8AF0059AFFF75CFE641CA4B21F
:108D8000761CB6B20A2ED8D306B0BDE8F08F30B547
:108D9000024600201478FE4B00EB80115D5CA5427A
:108DA00004D11944557849788D4204D0401C80B2D2
:108DB0007728F1D3002030BD30B50246002014786A
:108DC000F44B00EB001113F81150A54205D103EB51
:108DD0004101557849788D4204D0401C80B2B228B8
:108DE000EFD3002030BD2DE9F84F04468B46924664
:108DF000A04600270AFB03F0C11700EB5170DFF813
:108E00009893009025E00A98C65D0025300606D5A7
:108E100059462046D9F80020FFF70CFE05E05946D8
:108E20002046D9F80420FFF705FE7006060E641CE4
:108E3000A4B2A4EB0800504505D144460BF1010B48
:108E40001FFA8BFB03E06D1CEDB2082DDED37F1CF7
:108E5000BFB20098B7EBE00FD5DBBDE8F88F2DE986
:108E6000F04F044688462546CA4902EB0210DFF857
:108E700028A301EB4009002B0FD0002709EB0700C6
:108E800090F802B000265FEA0B6034D541462046D8
:108E9000DAF80420FFF7CEFD33E04FF0000B09EBCA
:108EA0000B0087780026380606D541462046DAF8BA
:108EB0000020FFF7BFFD05E041462046DAF8042018
:108EC000FFF7B8FD7806070E641CA4B2601B1028DB
:108ED0000BD0761CF6B2082EE5D30BF1010B0BF08C
:108EE000FF0BBBF1200FDAD34FE72C4608F1010846
:108EF0001FFA88F8F1E741462046DAF80020FFF72C
:108F000099FD4FEA4B604FEA106B641CA4B2601BE2
:108F1000102808D0761CF6B2082EB4D37F1CFFB2FE
:108F2000202FABD331E72C4608F101081FFA88F84F
:108F3000F4E72DE9F04F044688462546944902EBB4
:108F40008210DFF854A200EB0109002B0FD000279C
:108F500009EB070090F802B000265FEA0B6034D5F9
:108F600041462046DAF80420FFF764FD33E04FF075
:108F7000000B09EB0B0087780026380606D5414622
:108F80002046DAF80020FFF755FD05E0414620466F
:108F9000DAF80420FFF74EFD7806070E641CA4B231
:108FA000601B18280BD0761CF6B2082EE5D30BF107
:108FB000010B0BF0FF0BBBF13F0FDAD3E5E62C46BC
:108FC00008F101081FFA88F8F1E741462046DAF86F
:108FD0000020FFF72FFD4FEA4B604FEA106B641C37
:108FE000A4B2601B182808D0761CF6B2082EB4D3A1
:108FF0007F1CFFB23F2FABD3C7E62C4608F1010818
:109000001FFA88F8F4E710B50446084611462246D0
:10901000FFF78FFF182010BD10B504460846114613
:109020002246FFF71CFF122010BD2DE9F84F06461F
:109030000C4615469A4600274FF4F0794FF488788D
:109040002A78002A3DD0F01986B2802A15D906F177
:109050001800484505D900261634A4B2444500D965
:1090600000242846FFF793FE80B25346224631463D
:10907000FFF7C9FF0746AD1CE2E70D2A15D00A2A03
:109080001BD006F10C00484505D900260C34A4B2CB
:10909000444500D9002440484168009103682146B6
:1090A0003046FFF75DFD6D1CCAE71634A4B2444597
:1090B00000D900246D1C0027C2E700266D1C002784
:1090C000BEE7CAE6F8B506460F46154600242B78DB
:1090D000002B21D0A3F13002092A01D893B204E079
:1090E0002E2B15D02D2B15D00C2303EBC300C0EB7A
:1090F00083102A49372301EB80000090301980B299
:1091000020223946FFF76FFE6D1C2034A4B2DEE743
:109110000A23EAE70B23E8E7F8BD2DE9F843064602
:109120000C461546994600204FF4F0784FF48877A6
:109130002A78002A46D0304486B2802A14D906F113
:109140001000404505D900261034A4B2BC4200D915
:1091500000242846FFF730FE80B24B4622463146B7
:10916000FFF75AFFAD1CE3E70D2A1FD00A2A25D0CE
:1091700006F10800404505D900260834A4B2BC42D7
:1091800000D900240448416800912146036807E0A3
:10919000C4C30200FBE1020014000010E00B030056
:1091A0003046FFF7DDFC6D1C0A20C1E71034A4B285
:1091B000BC4200D900246D1C0020B9E700266D1CBC
:1091C0000020B5E753E52DE9F84306460C46154661
:1091D000994600204FF4F0784FF488772A78002AD7
:1091E0003DD0304486B2802A14D906F110004045A3
:1091F00005D900261034A4B2BC4200D90024284668
:10920000FFF7DAFD80B24B4622463146FFF704FFF6
:10921000AD1CE3E70D2A16D00A2A1CD006F108007F
:10922000404505D900260834A4B2BC4200D9002428
:109230004A4841680091036821463046FFF7BBFC6D
:109240006D1C0820CAE71034A4B2BC4200D9002427
:109250006D1C0020C2E700266D1C0020BEE706E55D
:109260002DE9F041072A00D9072202B90122052978
:1092700000D90521914200D911460024384E2027FB
:109280003755641CE4B20C2CFAD314460A250DE0C1
:10929000B0FBF5FC05FB1C0C06EB04080CF1300CD4
:1092A00008F801CCB0FBF5F0641EE4B2002CEFD15D
:1092B00069B1104605E0341814F8014C3454401ECE
:1092C000C0B2491EC9B2F6D22E21315400E0B754C3
:1092D00073B90020511E09E0335C302B08D13318DC
:1092E0005B782E2B04D03754401CC0B28842F3DB8D
:1092F000521CD0B2002102E03154401CC0B20C28F4
:10930000FAD3BDE8F08130B5164A00214FF4FF349E
:10931000037845781B0443EA052385782B4308C26C
:10932000C01C491CA142F3D330BD70B50D490023C8
:109330004FF4B575002204784678240444EA0624E4
:109340008678344310C1C01C521CAA42F3D301F5E5
:10935000EC715B1CB3F5887FECD370BD140000107A
:10936000385F0010000001A0094A203902EB01110A
:10937000102210F03FBF2039064A01EB410102EBF9
:1093800081010A6802604A684260896881607047AA
:1093900040FF0200300503002DE9F041069F092B34
:1093A00000D9092303B90123052A00D905229A42CD
:1093B00000D91A46002420260655641CE4B2042C69
:1093C000FAD31C460A250DE0B1FBF5FC05FB1C1C7D
:1093D00000EB04080CF1300C08F801CCB1FBF5F1FE
:1093E000641EE4B2002CEFD16AB1194605E04418BE
:1093F00014F8014C4454491EC9B2521ED2B2F6D2DE
:109400002E22425400E0C65477B900215A1E09E0CA
:10941000445C302C08D1441864782E2C04D0465477
:10942000491CC9B29142F3DB5B1CD9B2002202E0B5
:109430004254491CC9B20429FAD3BDE8F0812DE990
:10944000F84F0024DFF808844FF04C0940F20F1762
:109450004FF04D0A4FF04E0BFE48009004EB4401D4
:10946000A00001EB041100EB810004EB840509EB83
:10947000051680B2B2B23B46E421FFF7BBFA0120E9
:1094800000EB0510E323B2B280B21946CDF800809C
:10949000FFF7F1FAB2B2B0B23B46E321CDF800805B
:1094A000FFF7E9FA0AEB0510002682B280B23B46CC
:1094B000E3210096FFF7DFFA0BEB051082B280B2D2
:1094C0003B46E3210096FFF7D6FA4F2000EB05104C
:1094D00082B280B23B46E3210096FFF7CCFA641CCF
:1094E000062CB9D3BDE8F88F10B5FFF7A8FFDA480E
:1094F000D84941606FF07F410160D84800680C286E
:109500000DD00023D6A2F1215420FFF706FE002340
:10951000F121BDE81040D4A2A420FFF7FEBD002336
:10952000D3A2F1215420FFF7F8FD0023F121BDE87B
:109530001040D1A2A420FFF7F0BD70B50446FFF79C
:109540007EFFC549C34A4A606FF07F420A60CB4D37
:10955000542694B10024601D00EB400005EB40024E
:1095600004EB840006EB00100023F121FFF7D5FD8A
:10957000641CE4B2052CEED370BD002404EB44005F
:1095800005EB400204EB840006EB00100023F12100
:10959000FFF7C3FD641CE4B2052CEFD370BD10B51A
:1095A000FFF74DFFAC48AB4941606FF07F41016070
:1095B000B34890F8D80038B10023F121BDE810403D
:1095C000B0A25420FFF7A9BD0023F121BDE810404F
:1095D000AFA25420FFF7A1BD10B5FFF730FF9E48A2
:1095E0009C4941606FF07F4101600023F121BDE89B
:1095F0001040A9A25420FFF790BD70B50546FFF7B3
:109600001EFF9549934B9E4C6FF07F42ADB1012DEB
:109610007ED00A604B6094F8D800002879D00023EF
:109620009EA2F2215320FFF778FDBDE87040002391
:10963000F2219CA2A320FFF770BD0A604B6094F852
:10964000D8104FF4A274002931D0002397A2E7214B
:109650005420FFF762FD002396A2FB215420FFF760
:109660005CFD002391A2E721A420FFF756FD002313
:1096700092A2FB21A420FFF750FD002391A2E72135
:10968000F420FFF74AFD00238CA2FB21F420FFF712
:1096900044FD00238BA2E7212046FFF73EFD204634
:1096A000BDE87040002388A2FB21FFF736BD0023F0
:1096B00087A2E7215420FFF730FD002386A2FB217B
:1096C0005420FFF72AFD002381A2E721A420FFF701
:1096D00024FD002382A2FB21A420FFF71EFD00230E
:1096E00081A2E721F420FFF718FD00237CA2FB21D3
:1096F000F420FFF712FD00237BA2E7212046FFF7AD
:109700000CFD2046BDE87040002379A2FB2101E05A
:1097100002E04DE0FFF701BD0A604B6094F8D810FD
:109720004FF4CA74F1B1002373A2E7215420FFF76C
:10973000F4FC002372A2FB215420FFF7EEFC00236F
:1097400071A2E721A420FFF7E8FC002370A2FB210F
:10975000A420FFF7E2FC00236FA2E7212046FFF7D9
:10976000DCFC1DE000236EA2E7215420FFF7D5FCAE
:1097700000236DA2FB215420FFF7CFFC00236CA235
:10978000E721A420FFF7C9FC00236BA2FB21A42042
:10979000FFF7C3FC00236AA2E7212046FFF7BDFCC8
:1097A0002046BDE87040002367A2FB21FFF7B5BC4F
:1097B000002367A2F2215320FFF7AFFCBDE8704001
:1097C0000023F22164A2A320FFF7A7BC70B5FFF726
:1097D00036FE21486FF07F4101601E4941602848F4
:1097E0004FF4A2744FF4CA7590F8D810C9B1002391
:1097F0005BA2E7215420FFF790FC00235AA2FB2133
:109800005420FFF78AFC002359A2F1212046FFF7DC
:1098100084FC2846BDE87040002357A2F121FFF7E1
:109820007CBC002356A2E7215420FFF776FC0023DE
:1098300055A2FB215420FFF770FC002354A2F12114
:109840002046FFF76AFC002353A2F1212846A7E037
:109850006843690038003100140000107C010010DA
:10986000206DA6B82020000020A6B820000000002F
:10987000202B202000000000202D2000414A030062
:109880006018001020436F6E6669726D2000000042
:1098900020C8B7C8CF2000002A31000043616E63A2
:1098A000656C0000436F6E6669726D004D454153F3
:1098B0000000000044495350000000005345545537
:1098C0005000000053595300494E464F000000001D
:1098D000B2E2C1BF00000000CFD4CABE0000000049
:1098E000C9E8D6C300000000CFB5CDB3000000002A
:1098F000D0C5CFA20000000046696C65730000006F
:109900004D616E616765000053617665000000007F
:1099100044617461000000004D6F7265000000003A
:10992000CEC4BCFE00000000B9DCC0ED00000000A9
:10993000B1A3B4E600000000CAFDBEDD00000000D7
:10994000B8FCB6E00000000020322F32000000001A
:109950002020C8A1CFFB20002020C8B7C8CF2000FE
:1099600044656C65746500005461626C65000000BC
:1099700050524556000000004E455854000000006B
:10998000C7E5B3FD00000000B1EDB8F10000000034
:10999000C9CFD2BBD2B30000CFC2D2BBD2B300007A
:1099A000BDE87040FFF7B9BB70B50446FFF747FD4F
:1099B000FE48FF4AFF4B6FF07F414FF4A2754FF412
:1099C000CA764CB3012C27D00160426093F8D800CE
:1099D00000287CD00023F8A2F1215420FFF79DFB42
:1099E0000023F8A2E721A420FFF797FB0023F7A2AA
:1099F000FB21A420FFF791FB0023AFF28C02F121A1
:109A00002846FFF78AFB0023AFF294023046BDE8F8
:109A10007040F121FFF781BB0160426093F8D800EC
:109A200000282DD00023E4A2F1215420FFF775FB7C
:109A30000023E8A2E721A420FFF76FFB0023E1A2A7
:109A4000FB21A420FFF769FB0023E4A2E721F42017
:109A5000FFF763FB0023E4A2FB21F420FFF75DFB8B
:109A60000023AFF2F402F1212846FFF756FB002352
:109A7000AFF2FC023046BDE87040F121FFF74DBB6C
:109A80000023DBA2F1215420FFF747FB0023DAA2D9
:109A9000E721A420FFF741FB0023D9A2FB21A4204A
:109AA000FFF73BFB0023D8A2E721F420FFF735FBAB
:109AB0000023D3A2FB21F420FFF72FFB0023AFF2FA
:109AC0003012F1212846FFF728FB002300E007E0D1
:109AD000AFF23C123046BDE87040F121FFF71DBBEC
:109AE0000023C3A2F1215420FFF717FB0023C4A2D7
:109AF000E721A420FFF711FB0023C5A2FB21A4202E
:109B0000FFF70BFB0023AFF27812F1212846FFF795
:109B100004FB0023AFF280123046BDE87040F12113
:109B2000FFF7FBBA10B50446FFF789FC9F48A04A2F
:109B3000A04B6FF07F41002C32D0012C7ED1016010
:109B4000426093F8D8104FF4CA74002977D00023EC
:109B5000AFF25C22E7215420FFF7DFFA0023AFF2D7
:109B60006022FB215420FFF7D8FA0023AFF2AC2289
:109B7000E721A420FFF7D1FA0023A7A2FB21A4200C
:109B8000FFF7CBFA0023A6A2F121F420FFF7C5FAD4
:109B90000023AFF27C22E7212046FFF7BEFAA7E0C0
:109BA0000160426093F8D8104FF4A274002939D0B4
:109BB0000023AFF20832E7215420FFF7AEFA00236A
:109BC000AFF21032FB215420FFF7A7FA0023AFF2C7
:109BD0002432E721A420FFF7A0FA0023AFF22432B9
:109BE000FB21A420FFF799FA0023AFF22832E721E6
:109BF000F420FFF792FA0023AFF24032FB21F42069
:109C0000FFF78BFA0023AFF24432E7212046FFF73B
:109C100084FA0023AFF250322046BDE81040FB2109
:109C2000FFF77BBA0023AFF25832E7215420FFF749
:109C300074FA0023AFF26032FB2101E061E02EE014
:109C40005420FFF76AFA0023AFF27C32E721A42008
:109C5000FFF763FA0023AFF27832FB21A420FFF76D
:109C60005CFA0023AFF28032E721F420FFF755FAC7
:109C70000023AFF29432FB21F420FFF74EFA0023C9
:109C8000AFF29C32E7212046FFF747FA0023AFF2FC
:109C9000A0322046BDE81040FB21FFF73EBA00236A
:109CA000AFF28432E7215420FFF737FA0023AFF2F6
:109CB0008832FB215420FFF730FA0023AFF2D8326C
:109CC000E721A420FFF729FA0023AFF2EC32FB21B1
:109CD000A420FFF722FA002353A2F121F420FFF77A
:109CE0001CFA0023AFF2A832E7212046FFF715FA4D
:109CF0000023AFF2AC322046BDE81040FB21FFF755
:109D00000CBA10BD10B529486FF07F410160284999
:109D1000416028484FF4A27490F8D810002939D037
:109D20000023AFF27842E7215420FFF7F6F9002331
:109D3000AFF28042FB215420FFF7EFF90023AFF28E
:109D40009442E721A420FFF7E8F90023AFF2944200
:109D5000FB21A420FFF7E1F90023AFF29842E721AD
:109D6000F420FFF7DAF90023AFF2B042FB21F42030
:109D7000FFF7D3F90023AFF2B442E7212046FFF703
:109D8000CCF90023AFF2C0422046BDE81040FB21D1
:109D9000FFF7C3B90023AFF2C842E7215420FFF711
:109DA000BCF90023AFF2D042FB2141E014000010C7
:109DB000380031006018001044656C2D4C696E65E8
:109DC000000000004175746F00000000436F70795F
:109DD000000000004C696E65617200004C6F6761A5
:109DE000726974686D0000004179746F00000000B2
:109DF000C9BEB3FDD0D00000CFDFD0D4000000003A
:109E0000D7D4B6AF00000000B6D4CAFD00000000F1
:109E1000B8B4D6C600000000536574557000000049
:109E2000546F6F6C73000000B9A4BEDF0000000027
:109E30005420FFF772F90023AFF26C52E721A420FF
:109E4000FFF76BF90023AFF26852FB21A420FFF764
:109E500064F90023AFF27052E721F420FFF75DF9B7
:109E60000023AFF28452FB21F420FFF756F90023C0
:109E7000AFF28C52E7212046FFF74FF90023AFF2F3
:109E800090522046BDE81040FB21FFF746B908B5C7
:109E9000FE48002100901623F0220846FEF7AAFD96
:109EA00008BD08B5FA480090CA2340F2DF125C21D1
:109EB0000020FEF79FFD08BD10B5FFF7E8FFFFF794
:109EC000BEFABDE81040ECE72DE9F041FFF7F4FFE2
:109ED000F04C6FF07F452560EC486060EE4E96F8E0
:109EE000D80030B10023ED4A04211846FFF715F9D8
:109EF00006E0EA4A0023F23A04211846FFF70DF97A
:109F000025604FF0501060600024E54F1A25A7F13E
:109F10003C08032C22D296F8D80078B104EB8400D8
:109F200007EB400204EB440000EBC40005EB4000EB
:109F300081B200231846FFF7F0F833E004EB840009
:109F400008EB400204EB440000EBC40005EB4000CA
:109F500081B200231846FFF7E0F823E096F8D80016
:109F600080B104EB840007EB4002E01E00EB4001EF
:109F700001EBC00005EB400081B20023FA20FFF79F
:109F8000CCF80FE004EB840008EB4002E01E00EB8D
:109F9000400101EBC00005EB400081B20023FA2034
:109FA000FFF7BBF8641C062CB3D3BDE8F0410020DA
:109FB000FFF723BB08B5B6480090BE2340F2DF127E
:109FC00070210020FEF716FD08BD10B5FFF75FFFFA
:109FD000FFF735FABDE81040ECE738B50446AD4D63
:109FE0004FF050106860AF48012300EB8402C82195
:109FF0001420FFF792F8AB4801235C3000EB840299
:10A00000C8214FF48C70FFF788F8A1486860A64813
:10A010000090372328227A215020FEF7E4FEA3483F
:10A020000090372328227A217820FEF7DCFEA04812
:10A030000090372328227A218C20FEF7D4FE38BDE9
:10A040002DE9F041FFF7C1FF924C6FF07F4525608D
:10A050008E486060904E96F8D80038B18F4A002341
:10A06000163204211846FFF758F806E08B4A002301
:10A07000DC3A04211846FFF750F825604FF05010E5
:10A08000606000248B4F1A25A7F13808032C1ED2DC
:10A0900096F8D80068B104EB440000EBC40005EB6F
:10A0A000400081B2002307EBC4021846FFF735F8E1
:10A0B0002DE004EB440000EBC40005EB400081B24E
:10A0C000002308EBC4021846FFF727F81FE096F8B4
:10A0D000D80070B1E01E00EB400101EBC00005EBC1
:10A0E000400081B207EBC4020023FA20FFF715F805
:10A0F0000DE0E01E00EB400101EBC00005EB40006D
:10A1000081B208EBC4020023FA20FFF706F8641CB2
:10A11000072CBBD3684890F8B803FFF75EFFBDE893
:10A12000F0410020FFF769BA38B5594C40F2DF150D
:10A13000A0232A46562100200094FEF75BFCE3236F
:10A140002A46C12100200094FEF754FC38BD10B50A
:10A15000FFF79DFEFFF773F9BDE81040E4E70B46FB
:10A160001146564A89B2105C183200EB4000024496
:10A1700098B20023FEF7D1BF2DE9F047FFF7E7FFC4
:10A18000444E6FF07F44346040487060DFF80881CF
:10A1900098F8D80038B1414A00232C3204211846DF
:10A1A000FEF7BBFF06E03D4A0023C63A04211846ED
:10A1B000FEF7B3FF34604FF05015756000244FF682
:10A1C000FF7798F8D80068B13449C4EBC400F23185
:10A1D000421804EB840007EA401000231A21FEF71E
:10A1E0009CFF0BE03649C4EBC400421804EB84002A
:10A1F00007EA401000231A21FEF78FFF641C032C8E
:10A20000DFD3DFF8B4800123D8F8C00300EB4001AE
:10A2100001EBC0012348D4300A181A213C20FEF774
:10A220007CFF98F80C1100230622D8F80801FFF7EC
:10A2300017F80123234A1A21DC20FEF76EFFD8F815
:10A2400010011E4900EB40001539421801231A2164
:10A250004FF49170FEF761FF1A224FF49671D8F80F
:10A26000B803FFF77CFF002317A22E211846FEF744
:10A27000AAFF002315A22E217820FEF7A4FF0023B9
:10A2800014A22E21F020FEF79EFF27E0F3520300D8
:10A290003434650014000010601800109A47030061
:10A2A000B53603009D380300E51E03002831030086
:10A2B0003B320300AA3D0300D01B0010924A03006A
:10A2C000A1480300385F001042494E004C4F572010
:10A2D0005B465D00484947485B465D000023FEA29F
:10A2E0002E214FF4C870FEF76EFF0624FC4FA4F138
:10A2F0000800052802D3A01F082801D9776000E0D4
:10A300007560A01F8146C0EBC00008EBC001D1F80A
:10A31000300178B191F8341101230622FEF7A0FF35
:10A32000C9EB09103A3081B20123EE4A7820FEF7DA
:10A330004AFF08E0C9EB09103A3081B20123EAA2D2
:10A340007820FEF740FF641C0F2CD0D37760D8F83C
:10A35000440360B198F8481301230622FEF780FFFA
:10A360000123E04AC4217820FEF72DFF05E00123F8
:10A37000DDA2C4217820FEF726FF1024A4F11200EC
:10A38000052802D3801C082801D9776000E0756099
:10A39000A4F110008146C0EBC00008EBC001D1F869
:10A3A0004C0178B191F8501101230622FEF758FFB5
:10A3B000C9EB09103A3081B20123CA4AFA20FEF7EC
:10A3C00002FF08E0C9EB09103A3081B20123C6A2AE
:10A3D000FA20FEF7F8FE641C192CCFD37760D8F86A
:10A3E000440370B198F82C1301230622D8F82803EF
:10A3F000FEF736FF0123BB4AC421FA20FEF7E3FE35
:10A4000005E00123B8A2C421FA20FEF7DCFE0124F6
:10A41000DFF8DC82E01E052801D2776000E075607D
:10A42000601E00EBC00000EB0802C4EB04102B30F0
:10A4300081B200230820FEF7C6FE641C0A2CE9D373
:10A4400077600023ABA2C4211846FEF7BCFE0023B0
:10A45000A9A2D4211846FEF7B6FE0023A8A2D42153
:10A46000F020FEF7B0FEBDE8F0470020FFF7C5B8CA
:10A4700008B59B480090A02340F2DF126021002025
:10A48000FEF7B8FA08BD10B5FFF701FDFEF7D7FFDC
:10A49000BDE81040ECE770B5FFF7F5FF9A4C6FF0A0
:10A4A0007F45256099486060994E96F8D80030B194
:10A4B0000023984A04211846FEF72FFE06E0954A2D
:10A4C0000023F23A04211846FEF727FE25604FF0DC
:10A4D0005010606096F8D80090B100238EA21A2127
:10A4E0001846FEF71AFE00238DA230212820FEF721
:10A4F00014FE00238DA230218C20FEF70EFE11E009
:10A5000000238CA21A211846FEF707FE00238BA217
:10A5100030212820FEF701FE00238BA230218C2061
:10A52000FEF7FBFD00238AA23021F020FEF7F5FDA7
:10A53000002389A230214FF4AA70FEF7EEFD00231C
:10A5400087A230214FF4DC70FEF7E7FDBDE87040D4
:10A550000020FFF752B808B5614800909A2340F2F6
:10A56000DF125A210020FEF745FA08BD10B5FFF7AB
:10A570008EFCFEF764FFBDE81040ECE72DE9F05FCC
:10A58000FFF7F4FF604D6FF07F442C605F48686018
:10A59000DFF87C8198F8D80038B15E4A0023163283
:10A5A00004211846FEF7B9FD06E05A4A0023DC3ABA
:10A5B00004211846FEF7B1FD2C604FF050176F6074
:10A5C0000024DFF8A0A1DFF818911A26AAF1B40B35
:10A5D000092C29D2E01E032802D2C5F8049000E01D
:10A5E0006F6098F8D80078B104EB84000AEB400261
:10A5F00004EB440000EBC40006EB400081B20023F2
:10A600001846FEF78AFD3DE004EB84000BEB4002A8
:10A6100004EB440000EBC40006EB400081B20023D1
:10A620001846FEF77AFD2DE0A4F10C00032802D2B3
:10A63000C5F8049000E06F6098F8D80088B104EB8A
:10A6400084000AEB4002A4F1090000EB400101EB99
:10A65000C00006EB400081B20023FA20FEF75DFD4A
:10A6600010E004EB84000BEB4002A4F1090000EBC6
:10A67000400101EBC00006EB400081B20023FA204C
:10A68000FEF74BFD641C122CA2D3BDE8F05F002046
:10A69000FFF748BA2DE9F84306461B4C4FF0501817
:10A6A000C4F80480304F31490123D7F8B80300EBD8
:10A6B000C00042181A215820FEF72FFDD7F8C0031A
:10A6C000012300EB400101EBC00029494218302171
:10A6D0005820FEF722FD4DE0434F554E5400000038
:10A6E00034346500385F00102D2D2D2D2D2D0000E8
:10A6F00028360300326E64004155583A00000000CD
:10A700004F55543A0000000014000010F3520300AB
:10A7100060180010DC4703004D6F64653A000000CC
:10A72000467265715B487A5D000000004C45565BDF
:10A73000565D0000B7BDCABD203A0000C6B5C2CA0A
:10A740005B487A5D00000000B5E7C6BD5B565D0062
:10A7500043705B465D000000445B205D000000002C
:10A76000434D5000963E0300D01B0010C537030038
:10A7700071390300D7F8C413012301EB410000EB4A
:10A78000C100F649421846215820FEF7C6FCF4489D
:10A790004FF4A97990F8D80010B1D7F8180480B315
:10A7A000D7F81804002300EB400101EBC000EB498F
:10A7B000213142181A214846FEF7AFFCD7F8201481
:10A7C000012301EB410000EBC100E649421846219C
:10A7D0004846FEF7A2FCD7F81C14E24D01EB4100FD
:10A7E00000EBC10021354219012330214846FEF714
:10A7F00094FC307801280DD0002068B1FF20606003
:10A800000CE0FFE70023AFF644221A214846FEF78A
:10A8100084FCD3E70120F0E7C4F80480606800906E
:10A820006E234FF4DD725A214846FEF7E3F8D7F85D
:10A830002801012300EB400101EBC00042195C211B
:10A840004846FEF76AFCFEF7FAFD3078012804D08E
:10A85000BDE8F8430020FEF7D0BE6FF07F402060D7
:10A86000C14860600024542604EB440000EBC4009F
:10A87000421904EB840006EB001080B20023F121A2
:10A88000FEF74BFC641C022CEED3BDE8F883F8B550
:10A890000646B64C4FF0501060603078012827D043
:10A8A000002109B1FF20606060684FF4BE7700901E
:10A8B0002A234FF4D7721A213846FEF79BF8AC488A
:10A8C000A84D0123D0F85C13213501EB410000EBCA
:10A8D000C10042191A213846FEF71FFCFEF7AFFDF2
:10A8E0003078012806D0BDE8F8400020FEF785BE8C
:10A8F0000121D6E76FF07F4020609B486060002414
:10A90000542604EB440000EBC400421904EB84001D
:10A9100006EB001080B20023F121FEF7FEFB641C61
:10A92000022CEED3F8BD2DE9F05F0124DFF844924C
:10A930008E4EDFF83C824FF4AD7B4FF0501A33253A
:10A94000E71E042F02D2C6F8049001E0C6F804A066
:10A9500098F87D0400EB800004EB4000401E00EB03
:10A96000800008EB8001D1F82C06421C41D091F800
:10A97000301601230522FEF773FC05EB04110023BA
:10A980007D4AF620FEF71FFC98F87D0400EB80005E
:10A9900004EB4000401E00EB800008EB800101F555
:10A9A0008051D1F89406421C2BD091F898160123BF
:10A9B0000522FEF755FC05EB041100236E4A5846AC
:10A9C000FEF701FC98F87D0400EB800004EB4000EA
:10A9D000404400F5005090F8F306FF2819D008B362
:10A9E00005EB0411002365A24FF4DF70FEF7EBFBCB
:10A9F00020E005EB0411002361A2F620FEF7E3FB43
:10AA0000C2E705EB041100235DA25846FEF7DBFB0D
:10AA1000D8E705EB041100235BA24FF4DF70FEF7CB
:10AA2000D2FB07E005EB0411002358A24FF4DF70BE
:10AA3000FEF7C9FB042F02D2C6F8049001E0C6F865
:10AA400004A098F87D0400EB800004EB4000404433
:10AA500090F87D041E2807D905EB0411002348A2B5
:10AA60002620FEF7B0FB0BE000EB400101EBC0003D
:10AA700047490023421805EB04112620FEF7A3FBEB
:10AA800098F87D0400EB800004EB4000404490F80F
:10AA90004F05022807D905EB0411002338A29220A4
:10AAA000FEF791FB0BE000EB400101EBC0002B49EE
:10AAB0000023421805EB04119220FEF784FB98F85E
:10AAC0007D04012300EB800004EB40000322002101
:10AAD000FEF7C6FB05EB04110023274A0820FEF70A
:10AAE00072FB641CE4B20B2CFFF42AAFBDE8F09FAC
:10AAF0002DE9F84F0446207802280DD002D9A0781D
:10AB0000FEF752FF2078DFF864A04FF0FF094FF006
:10AB10005018012803D004E0FEF758FEF2E7A078B1
:10AB2000D8B1CAF80480DAF8040000902A235E2223
:10AB30001A213620FDF75EFFDFF834B015490023F7
:10AB4000DBF8840300EBC00042181A213620FEF720
:10AB5000E4FA2078022822D024E01DE0D03B030054
:10AB6000601800100B3D0300380031001400001085
:10AB7000D01B001034346500385F00105000000016
:10AB80002D2D2D2D000000002D000000460000009E
:10AB900071390300C5370300CAF80490C3E7A078F1
:10ABA00000287DD0CAF80480DAF80400009042231F
:10ABB0001E2232210020FDF71DFF0023F8A23221C2
:10ABC0001846FEF7AAFA03262078B04202D1A078F0
:10ABD000022866D0CAF80480DAF804000090B01E9B
:10ABE000432101EB0017332101EB0015BBB2A9B2E1
:10ABF0004FF49972FA20FDF7FDFEE07800EB80003B
:10AC000006EB4000C01E00EB80000BEB8001D1F88A
:10AC10002C06421C7ED091F8301601230522FEF747
:10AC20001FFBA9B20023DF4AFA20FEF7CCFA2078F6
:10AC3000B04202D1A07803286DD0CAF80480DAF8B7
:10AC400004000090BBB2A9B24FF4C1724FF4A570DA
:10AC5000FDF7D0FEE07800EB800006EB4000C01E60
:10AC600000EB80000BEB800101F58051D1F89406D8
:10AC7000421C6ED091F8981601230522FEF7F0FAD7
:10AC8000A9B20023C74A4FF4A570FEF79CFA2078BA
:10AC9000B04202D1A078042864D0CAF8048001E050
:10ACA00044E046E0DAF804000090BBB2A9B240F2FA
:10ACB000DF124FF4D270FDF79DFEE07800EB8000CC
:10ACC00006EB4000584400F5005090F8F106FF28CC
:10ACD0004BD0A9B20023AFF25C124FF4D270FEF752
:10ACE00072FA2078B04201D1A07880B3CAF804800B
:10ACF000DAF804000090BBB2A9B27E222820FDF74A
:10AD000079FEE07800EB800006EB4000584490F8B4
:10AD10007B0401E010E017E0302832D9A9B200230B
:10AD2000AFF2A4122820FEF74EFA35E0CAF80490DC
:10AD30003AE7CAF804904FE7A9B20023AFF2C01275
:10AD4000FA20FEF740FA72E7CAF8049077E715E0B8
:10AD5000FFE7A9B20023AFF2D8124FF4A570FEF7B7
:10AD600032FA94E7CAF8049099E7A9B20023AFF247
:10AD7000F0124FF4D270FEF726FAB2E7CAF8049048
:10AD8000B6E700EB400101EBC00087490023421801
:10AD9000A9B22820FEF717FA2078B04202D1A07895
:10ADA00001281CD0CAF80480DAF804000090BBB275
:10ADB000A9B2C4227E20FDF71DFEE07800EB8000E2
:10ADC00006EB4000584490F84D0502280AD9A9B274
:10ADD0000023AFF254227E20FEF7F5F90DE0CAF809
:10ADE0000490E1E700EB400101EBC0006F49002354
:10ADF0004218A9B27E20FEF7E6F9CAF80480E0788E
:10AE0000012300EB800006EB4000801E032200219E
:10AE1000FEF726FAA9B20023624A0820FEF7D3F90A
:10AE2000761CF6B20D2EFFF4CFAEBDE8F88F2DE9FB
:10AE3000F84304465E4F4FF050157D60207801289E
:10AE400021D000204FF0FF0808B1C7F804807868CF
:10AE500000902A2358221A213020FDF7CBFD5548B7
:10AE6000554E012390F87C041A2100EB80008219D2
:10AE70003020FEF752F92078022806D0002030B1A9
:10AE8000C7F8048004E00120DCE70120F7E77D60DB
:10AE90007868009040231E2230210820FDF7AAFD8B
:10AEA00001233FA230210820FEF737F9FEF7C7FA49
:10AEB0002078424A54256FF07F41012806D00228AD
:10AEC00015D06078BDE8F843FEF797BB39607A602B
:10AED000002404EB8400821905EB001080B20023EB
:10AEE000F121FEF71AF9641C022CF2D3CDE439608B
:10AEF0007A600024324E96F8D80078B12E49C4EB1F
:10AF0000C40018314218E01C00EB800005EB001073
:10AF100080B20023F121FEF700F90EE02649C4EBD0
:10AF2000C4000A314218E01C00EB800005EB001061
:10AF300080B20023F121FEF7F0F8641C022CDAD372
:10AF4000A3E42DE9F84F0446207801280AD0002018
:10AF5000DFF85C804FF0FF094FF0501B20B1C8F8BC
:10AF6000049003E00120F3E7C8F804B0D8F8040027
:10AF700000902C23C02218215820FDF73BFD104FD4
:10AF8000104D97F8D800A5F10E06E8B138780023E7
:10AF9000C0EBC00042191A215820FEF7BEF81CE091
:10AFA0004E6F2E00385F001071390300D03B030054
:10AFB00014000010D01B0010423D03003800310087
:10AFC000601800101D37030038780023C0EBC00064
:10AFD00082191A215820FEF7A0F82078022804D000
:10AFE000002020B1C8F8049003E00120F9E7C8F878
:10AFF00004B097F8681000230522786EFEF730F948
:10B000000023F74A30215820FEF787F8F86E30B158
:10B010000023F4A230219220FEF77FF805E0002300
:10B02000F1A230219220FEF778F82078032804D08E
:10B03000002020B1C8F8049003E00120F9E7C8F827
:10B0400004B0397B00230522B868FEF709F9002314
:10B05000E34A46215820FEF760F8386930B10023F2
:10B06000E0A246219220FEF758F805E00023DEA278
:10B0700046219220FEF751F82078042804D00020C1
:10B0800020B1C8F8049003E00120F9E7C8F804B043
:10B09000D8F804004FF4A97A00902C234FF4DD7205
:10B0A00018215046FDF7A6FC97F8D80010B197F884
:10B0B0004000A0B197F84000002300EB400101EBF5
:10B0C000C000CA4942181A215046FEF726F82078D7
:10B0D00005280BD0002058B1C8F804900AE00023DE
:10B0E000C34A1A215046FEF718F8F0E70120F2E7AC
:10B0F000C8F804B097F8A01000230622D7F89C00E7
:10B10000FEF7AEF80023B64A30215046FEF705F8A8
:10B110000023B8A230214FF4CD70FDF7FEFF207858
:10B12000062804D0002020B1C8F8049003E00120D4
:10B13000F9E7C8F804B097F82C1000230622B86A83
:10B14000FEF78EF80023A64A46215046FDF7E5FF9C
:10B150000023A8A246214FF4CD70FDF7DEFFFEF7D5
:10B160006EF92078D8B101282DD16FF07F40C8F852
:10B170000000A148C8F8040000244FF0540897F8D4
:10B18000D80088B1C4EBC400421904EB840008EB7A
:10B19000001080B20023F121FDF7BFFF10E0BDE8F1
:10B1A000F84F0020FEF729BAC4EBC400821904EB63
:10B1B000840008EB001080B20023F121FDF7ADFF01
:10B1C000641C022CDBD330E62DE9F84F04462078CE
:10B1D000012809D00020DFF82492FF254FF05016F7
:10B1E00020B1C9F8045003E00120F4E7C9F8046075
:10B1F000D9F8040000902C23C02218215820FDF714
:10B20000F9FBDFF8FCB19BF8D80058B19BF80000BF
:10B210000023C0EBC0017B480A181A215820FDF713
:10B220007CFF0BE09BF800000023C0EBC0017548D9
:10B230000E380A181A215820FDF76FFF20780228CF
:10B2400004D0002020B1C9F8045003E00120F9E740
:10B25000C9F80460D9F8040000904223C0222E21CE
:10B260005820FDF7C7FB9BF8D80060B19BF80100A0
:10B270000023C0EBC001634831300A183021582048
:10B28000FDF74BFF0BE09BF801000023C0EBC00172
:10B290005C481C300A1830215820FDF73EFF20780A
:10B2A000032804D0002020B1C9F8045003E0012095
:10B2B000F9E7C9F80460D9F8040000906E23C022B1
:10B2C00044215820FDF796FB9BF8D80060B19BF80D
:10B2D000B5000023C0EBC0014A4893300A1846214C
:10B2E0005820FDF71AFF0BE09BF8B5000023C0EBD8
:10B2F000C00144487E300A1846215820FDF70DFF52
:10B300002078042806D00020DFF8FCA020B1C9F87E
:10B31000045003E00120F7E7C9F804A0D9F80400BD
:10B3200000906E23C0225A215820FDF763FB354F51
:10B330009BF8D8007037A7F12A0850B19BF802009B
:10B340000023C0EBC000C2195C215820FDF7E5FEC8
:10B350000AE09BF802000023C0EBC00000EB0802EB
:10B360005C215820FDF7D9FE2078052804D0002064
:10B3700020B1C9F8045003E00120F9E7C9F804A09E
:10B380009BF80C1000230522DBF80800FDF768FF8E
:10B39000D9F8040000908423C02270215820FDF7C2
:10B3A00029FB00230E4A72215820FDF7B6FEDBF878
:10B3B000100030B100230BA272219220FDF7ADFEE8
:10B3C00005E0002308A272219220FDF7A6FE207856
:10B3D00006281BD00020D8B1C9F804501AE000009C
:10B3E000385F001020A6B8006DA6B800F13B03003E
:10B3F000C49D0100205600003800310014000010E8
:10B40000601800101D370300343465000120E2E7A6
:10B41000C9F80460D9F804000090B023C0229C2130
:10B420005820FDF7E7FA9BF8D80050B19BF82000B0
:10B430000023C0EBC000C2199E215820FDF76DFE0D
:10B440000AE09BF820000023C0EBC00000EB0802DC
:10B450009E215820FDF761FE2078072804D00020A7
:10B4600020B1C9F8045003E00120F9E7C9F80460ED
:10B470009BF82C1000230622DBF82800FDF7F0FED5
:10B48000D9F804000090C623C022B2215820FDF74D
:10B49000B1FA0023FA4AB4215820FDF73EFE0023FA
:10B4A000AFF2B002B421A020FDF737FE20780828C3
:10B4B00004D0002020B1C9F8045003E00120F9E7CE
:10B4C000C9F80460D9F8040000902C234FF4DD7211
:10B4D00018214FF4A970FDF78DFA9BF8D80010B130
:10B4E0009BF84000A8B19BF84000002300EB40010E
:10B4F00001EBC000E34942181A214FF4A970FDF78F
:10B500000CFE207809280CD0002060B1C9F8045046
:10B510000BE00023DC4A1A214FF4A970FDF7FDFD72
:10B52000EFE70120F1E7C9F80460D9F804000090C2
:10B5300042234FF4DD722E214FF4A970FDF75AFA21
:10B540009BF8D80070B19BF84100002300EB40014C
:10B55000CC48A13800EB810230214FF4A970FDF7EF
:10B56000DCFD0CE09BF841000023C0EBC001C548A6
:10B57000BD380A1830214FF4A970FDF7CEFD2078B0
:10B580000A2804D0002020B1C9F8045003E00120AB
:10B59000F9E7C9F804A09BF84C1000230522DBF85A
:10B5A0004800FDF75DFED9F8040000906E234FF4CB
:10B5B000DD725A214FF4A970FDF71CFA0023B04A3E
:10B5C0005C214FF4A970FDF7A8FDDBF8500040B1F5
:10B5D0000023AFF2F0125C214FF4C670FDF79DFD21
:10B5E00007E00023AFF200225C214FF4C670FDF7A4
:10B5F00094FD20780B2804D0002020B1C9F8045015
:10B6000003E00120F9E7C9F804A09BF868100023C3
:10B610000522DBF86400FDF723FED9F804004FF49F
:10B62000A97A009084234FF4DD7270215046FDF713
:10B63000E1F90023924A72215046FDF76EFDDBF8D6
:10B640006C0040B10023AFF2642272214FF4C67047
:10B65000FDF763FD07E00023AFF2742272214FF47F
:10B66000C670FDF75AFD20780C2804D0002020B1C8
:10B67000C9F8045003E00120F9E7C9F804609BF819
:10B68000841000230622DBF88000FDF7E9FDD9F8DD
:10B6900004000090B0234FF4DD729C215046FDF76A
:10B6A000A9F90023764A9E215046FDF736FD002376
:10B6B000AFF2C0229E214FF4CD70FDF72EFD207811
:10B6C0000D2804D0002020B1C9F8045003E0012067
:10B6D000F9E7C9F804609BF8A01000230622DBF804
:10B6E0009C00FDF7BDFDD9F804000090C6234FF47F
:10B6F000DD72B2215046FDF77DF90023604AB42186
:10B700005046FDF70AFD0023AFF21832B4214FF482
:10B71000CD70FDF702FDFDF792FE22785B495425BE
:10B720006FF07F400A2A32D2DFE802F0050A325B6E
:10B730008431B431DAFBBDE8F84F0020FEF7F2B9EE
:10B74000C9F80000C9F8041000249BF8D80068B1BB
:10B750004F48C4EBC4010A1804EB840005EB001049
:10B7600080B20023F121FDF7D8FC0DE04848C4EB7E
:10B77000C4010E380A1804EB840005EB001080B2F7
:10B780000023F121FDF7C9FC641C022CDDD31AE56E
:10B79000C9F80000C9F8041000249BF8D80070B163
:10B7A0003B48C4EBC40131300A1804EB840005EBBC
:10B7B000001080B20023F121FDF7AFFC0DE034480A
:10B7C000C4EBC4011C300A1804EB840005EB001024
:10B7D00080B20023F121FDF7A0FC641C032CDCD314
:10B7E000F1E4C9F80000C9F8041000249BF8D8005F
:10B7F00070B12748C4EBC40193300A1804EB8400ED
:10B8000005EB001080B20023F121FDF786FC0DE06E
:10B810001F48C4EBC4017E300A1804EB840005EB1A
:10B82000001080B20023F121FDF777FC641C032C8B
:10B83000DCD3C8E4C9F80000C9F8041000249BF860
:10B84000D80060B1C4EBC400C21904EB840005EB5E
:10B85000001080B20023F121FDF75FFC0CE0C4EB87
:10B86000C40000EB080204EB840005EB001080B27A
:10B870000023F121FDF751FC641C022CDFD3A2E46C
:10B88000385F0010F13B0300C49D01003800310017
:10B890001D370300C9F80000C9F8041000249BF804
:10B8A000D80060B1C4EBC400C21904EB840005EBFE
:10B8B000001080B20023F121FDF72FFC0CE0C4EB57
:10B8C000C40000EB080204EB840005EB001080B21A
:10B8D0000023F121FDF721FC641C022CDFD372E46C
:10B8E000C9F80000C9F804100024F94E9BF8D800EC
:10B8F00000B17CB104EB840005EB001006EBC40240
:10B9000080B20023F121FDF708FC641C032CEDD369
:10B9100059E406E028460023EE4AF121FDF7FDFB3D
:10B92000F3E7C9F80000C9F8041000249BF8B4003C
:10B93000012811D09BF8D80080B3E74904EB4400FC
:10B9400001EB800204EB840005EB001080B20023C1
:10B95000F121FDF7E2FB2FE09BF8D80078B1DE483B
:10B9600004EB4401503800EB810204EB840005EB4A
:10B97000001080B20023F121FDF7CFFB1CE0D64878
:10B98000C4EBC4016C380A1804EB840005EB00100A
:10B9900080B20023F121FDF7C0FB0DE0FFE7CE48A8
:10B9A0000023203800EBC40204EB840005EB0010F8
:10B9B00080B2F121FDF7B1FB641C042CB6D3E6E69E
:10B9C0000B461146C54A00EB4000024498B289B2CA
:10B9D0000123FDF7F8BB2DE9F84F0546DFF800A37A
:10B9E0004FF05018CAF80480DFF8F8B24FF4B4747E
:10B9F000DBF82001002815D00023BBA241212046FE
:10BA0000FDF7E1FB0023B8A24121C820FDF7DBFBD5
:10BA10002878012813D000204FF0FF0988B1CAF818
:10BA2000049010E041222146DBF8B803FFF7C8FF7D
:10BA30004122C821DBF8B803FFF7C2FFE8E7012085
:10BA4000EAE7CAF80480DAF8040000902C23702298
:10BA500018214620FCF7CEFFDBF8B803A34900EB22
:10BA6000C000421801231A214620FDF756FB287812
:10BA7000022804D0002020B1CAF8049003E001207D
:10BA8000F9E7CAF804809BF80C1100230522DBF8C3
:10BA90000801FDF7E5FBDAF8040000902A234FF4D3
:10BAA00092721A21E220FCF7A5FF0123904A1A2185
:10BAB000E220FDF732FBDBF81001012300EB40012F
:10BAC00086482D380A181A214FF48E70FDF725FB91
:10BAD0002878032804D0002020B1CAF8049003E09D
:10BAE0000120F9E7CAF80480DAF8040018210C01F3
:10BAF00000902C234FF4E2722046FCF77BFF7D4838
:10BB0000DBF82011012300EB81021A212046FDF70A
:10BB100004FB2878042804D0002020B1CAF804903F
:10BB200003E00120F9E7CAF80480DAF80400009085
:10BB3000422370222E214620FCF75CFFDBF8000137
:10BB4000634C00EB8000853402190023302146202D
:10BB5000FDF7E3FA2878052804D0002020B1CAF8C0
:10BB6000049003E00120F9E7CAF80480DAF8040041
:10BB7000009042234FF4AB722E21FA20FCF73AFFDB
:10BB8000DBF82801012300EB8001514885300A18B9
:10BB90003021FA20FDF7C1FA06242878A04202D10C
:10BBA000CAF8049009E0A4F10900042803D252481D
:10BBB000CAF8040001E0CAF80480DAF80400A71FFC
:10BBC000C7EB0716009006F15B0083B24C36B1B2AA
:10BBD000DC229820FCF70EFFC7EBC7000BEBC00779
:10BBE000D7F8300108B397F8341100230522FDF788
:10BBF00037FBB1B2012341A29820FDF7E4FAB1B2BC
:10BC000001233B4AA020FDF7DEFADBF8200190B9C2
:10BC1000D7F83801012300EB400130482D380A18CD
:10BC2000B1B2D020FDF7CFFA05E0B1B20123344A1A
:10BC3000A020FDF7C8FA641C102CAED3102428787D
:10BC4000A04202D1CAF8049009E0A4F1130004282C
:10BC500003D22948CAF8040001E0CAF80480DAF8DF
:10BC600004000090A4F110000746C0EB001606F196
:10BC70005F0083B24C36B1B24FF4BE724FF4A07085
:10BC8000FCF7B8FEC7EBC7000BEBC007D7F84C01B9
:10BC9000E8B197F8501100230522FDF7E1FAB1B29F
:10BCA0000023134A4FF4A070FDF78DFADBF8200152
:10BCB00040BBD7F85401012300EB400107482D3861
:10BCC0000A18B1B24FF4B870FDF77DFA22E01AE01D
:10BCD000E33C0300C49D0100A03B0300AA4A03000B
:10BCE00014000010D01B001025000000C537030011
:10BCF000385F001020360300343465002D0000004A
:10BD0000E8A6010006E0B1B20123FD4A4FF4A0709D
:10BD1000FDF759FA641C1A2C91D3FDF790FB2A7891
:10BD2000F84954266FF07F40062A46D2DFE802F039
:10BD3000031C1C081D316878BDE8F84FFDF7F2BE02
:10BD4000CAF80000CAF804100024EF4D04EB840088
:10BD500006EB001005EB840280B20023F121FDF711
:10BD6000DCF9641C022CF1D311E5CAF80000CAF812
:10BD700004100024E54D04EB8400421906EB00108A
:10BD800080B20023F121FDF7C8F9641C022CF2D324
:10BD9000FDE4CAF80000CAF804100024DB4D04EBEF
:10BDA0008400421906EB001080B20023F121FDF758
:10BDB000B4F9641C022CF2D3E9E4D5484FF4CA74F8
:10BDC00090F8D810A1B10023D24AF1215420FDF7F8
:10BDD000A4F90023D0A2E7212046FDF79EF901B087
:10BDE0002046BDE8F04F0023CC4AFB21FDF795B972
:10BDF0000023CBA2F1215420FDF78FF9C74A00237D
:10BE00001832E7212046FDF788F901B02046BDE849
:10BE1000F04FC24A00232032FB21FDF77EB970B5F6
:10BE20000446207800282AD01A264FF4A075052849
:10BE300012D908460EF098FC08F0F0FE2078012395
:10BE400000EB400101EBC00006EB40012846BDE8D5
:10BE50007040B54AFDF761B910460EF085FC04F05C
:10BE60001DFB2078012300EB400101EBC00006EB35
:10BE700040012846BDE87040AB4AFDF74EB970BDA1
:10BE80002DE9F84F0546DFF8A4824FF05017C8F8A7
:10BE900004706878DFF878A21A214FF0FF094FF09C
:10BEA000160B002802D0012839D072E0002429782E
:10BEB000601C814202D1C8F8049001E0C8F8047007
:10BEC000D8F80410009100EB400101EBC0000BEB2F
:10BED000400083B204EB440000EBC406182000EBE2
:10BEE000460081B2A6225820FCF784FDC4EBC400B2
:10BEF0000AEB8000002390F80C11D0F8080106220C
:10BF0000FDF7AEF91A2000EB460081B20023864A05
:10BF10005820FDF702F9641C072CC8D339E000242F
:10BF20008B462978601C814202D1C8F8049001E058
:10BF3000C8F80470D8F80410009100EB400101EB40
:10BF4000C001162000EB410083B204EB440000EB7B
:10BF5000C406182000EB460081B29E225820FCF750
:10BF600049FDE01DC0EBC0000AEB8000002390F803
:10BF70000C11D0F808010622FDF772F90BEB460010
:10BF800081B20023684A5820FDF7C7F8641C062CCC
:10BF9000C7D3C8F804706FF07F40C8F800009AF863
:10BFA000A002634900EB400001EB400200230421A2
:10BFB0004FF49670FDF7B1F800235EA2F1215420F2
:10BFC000FDF7ABF800235DA2F121A420FDF7A5F851
:10BFD000524A0023383AF121F420FDF79EF800235D
:10BFE00058A2F1214FF4A270FDF797F801B0002399
:10BFF000BDE8F04F55A2F1214FF4CA70FDF78DB89E
:10C000002DE9F84F04462078012809D00020DFF8F8
:10C010001C91FF254FF0501620B1C9F8045003E0E1
:10C020000120F4E7C9F80460D9F8040000902C233B
:10C03000C0221A215A20FCF7DDFCDFF8D4A0DFF87B
:10C0400014B19AF8D80058B19AF8D4000023C0EB84
:10C05000C00000EB0B021C215A20FDF75EF80BE03C
:10C060009AF8D4000023C0EBC0013A480E380A18F1
:10C070001C215A20FDF751F82078022804D0002016
:10C0800020B1C9F8045003E00120F9E7C9F80460C1
:10C09000D9F8040000904223C02230215A20FCF736
:10C0A000A9FC2C499AF840002B4F543938B3401E54
:10C0B000C0EBC0000AEB8000002390F8AC02C0EB9C
:10C0C000C000421830215A20FDF727F89AF84000A6
:10C0D0000023401EC0EBC0000AEB8000052290F850
:10C0E000B412D0F8B002FDF7BBF89AF8400004286B
:10C0F0006AD20023AFF610523021A2202EE030E0A9
:10C10000E8A601003800310020360300683D030036
:10C1100060180010B89D010044656C00689901002A
:10C12000C7E5B3FDD0D00000385F00101400001048
:10C130004A3F0300B5E7D7E800000000B5E7D1B9F2
:10C1400000000000B0E6B1BE00000000D0A3D5FDA5
:10C15000000000007F370300385D0010FCF7DDFFB2
:10C1600039E017F8700F0023401EC0EBC0000AEB47
:10C17000800090F8AC02C0EBC000421830215A2079
:10C18000FCF7CBFF38780023401EC0EBC0000AEB61
:10C190008000052290F8B412D0F8B002FDF760F8E4
:10C1A00017F87009042807D20023AFF6C4523021D3
:10C1B000A220FCF7B2FF0EE00023AFF6D8523021E8
:10C1C000A220FCF7AAFF06E00023AFF6E8523021D8
:10C1D000A220FCF7A2FF0023FE4A30216220FCF7D8
:10C1E0009CFFC9F804609AF84000FB4988B100EB55
:10C1F000400202EBC000421800233021CA20FCF7A5
:10C200008CFF2078032811D0002088B1C9F8045091
:10C2100010E097F87000002300EB400202EBC00032
:10C2200042183021CA20FCF778FFEAE70120ECE74A
:10C23000C9F80460D9F8040000905823C0224621B0
:10C240005A20FCF7D7FBE54F9AF8D800A7F12A0847
:10C2500050B19AF8D6000023C0EBC000C2194821A3
:10C260005A20FCF75AFF0AE09AF8D6000023C0EBE8
:10C27000C00000EB080248215A20FCF74EFF20784E
:10C28000042804D0002020B1C9F8045003E00120A4
:10C29000F9E7C9F80460D9F8040000906E23C022C1
:10C2A0005C215A20FCF7A6FB9AF8D80050B19AF806
:10C2B000A8020023C0EBC000C2195E215A20FCF77F
:10C2C0002CFF0AE09AF8A8020023C0EBC00000EBA4
:10C2D00008025E215A20FCF720FF2078052804D0B0
:10C2E000002020B1C9F8045003E00120F9E7C9F8A3
:10C2F0000460D9F8040000908423C02272215A20DF
:10C30000FCF778FB9AF8D810B548002300EBC1027F
:10C3100074215A20FCF701FF2078062804D0002061
:10C3200020B1C9F8045003E00120F9E7C9F804601E
:10C33000D9F8040000909A236C2288215A20FCF737
:10C3400059FBA84801230222C0690021FCF788FF9D
:10C350000023A04A8A215A20FCF7DFFEC9F80460B6
:10C360000023AFF268628A216E20FCF7D6FE2078A7
:10C37000072804D0002020B1C9F8045003E00120B0
:10C38000F9E7C9F80460D9F8040000909A238A22DA
:10C3900088217820FCF72EFB924801230222806935
:10C3A0000021FCF75DFF00238A4A8A217820FCF7F0
:10C3B000B4FEC9F804600023AFF2C0628A218C2069
:10C3C000FCF7ABFE2078082804D0002020B1C9F883
:10C3D000045003E00120F9E7C9F80460D9F804002B
:10C3E00000909A23AA2288219820FCF703FB7D481D
:10C3F00001230222C0680021FCF732FF75490020AA
:10C4000088700A4600238A219820FCF786FE20784F
:10C41000092804D0002020B1C9F8045003E001200D
:10C42000F9E7C9F80460D9F804000090B0236C2241
:10C430009E215A20FCF7DEFA6A4801230222806816
:10C440000021FCF70DFF0023624AA0215A20FCF7CF
:10C4500064FEC9F80460002363A2A0216E20FCF7EB
:10C460005CFE20780A2804D0002020B1C9F80450CE
:10C4700003E00120F9E7C9F80460D9F8040000904E
:10C48000B0238A229E217820FCF7B4FA5548012374
:10C49000022240680021FCF7E3FE00234D4AA02160
:10C4A0007820FCF73AFEC9F8046000234EA2A021D0
:10C4B0008C20FCF732FE20780B2804D0002020B11D
:10C4C000C9F8045003E00120F9E7C9F80460D9F87D
:10C4D00004000090B023AA229E219820FCF78AFA3B
:10C4E00040480123022200680021FCF7B9FE3949C7
:10C4F000002088700A460023A0219820FCF70DFE3A
:10C5000020780C2804D0002020B1C9F8045003E0A2
:10C510000120F9E7C9F80460D9F804000090C623A7
:10C52000C022B4215A20FCF765FA00232F4AB62115
:10C530005A20FCF7F2FDFCF782FF6FF07F40C9F84C
:10C5400000002B48C9F80400207854250C282ED26E
:10C55000DFE800F0060A2E527496A7A7A7A7A7A7A0
:10C56000BDE8F84FFDF7CEBB00249AF8D80068B1BB
:10C57000C4EBC40000EB0B0204EB840005EB0010DD
:10C5800080B20023F121FCF7C8FD0DE01348C4EB95
:10C59000C4011C380A1804EB840005EB001080B2BB
:10C5A0000023F121FCF7B9FD641C022CDDD303E468
:10C5B00000240B4E1036C4EBC400821904EB840037
:10C5C00005EB001080B20023F121FCF7A6FD641CEE
:10C5D000052C0FE0385F00108B3C03008D37030003
:10C5E0000E4A0300E85E00103A00000039190010FE
:10C5F00038003100DFD3DAE700249AF8D80060B1C0
:10C60000C4EBC400C21904EB840005EB001080B237
:10C610000023F121FCF781FD0CE0C4EBC40000EB2A
:10C62000080204EB840005EB001080B20023F12126
:10C63000FCF773FD641C022CDFD3B8E700249AF8E2
:10C64000D80060B1C4EBC400C21904EB840005EB50
:10C65000001080B20023F121FCF75FFD0CE0C4EB79
:10C66000C40000EB080204EB840005EB001080B26C
:10C670000023F121FCF751FD641C022CDFD396E767
:10C680000024FE4E04EB840005EB001006EBC40210
:10C6900080B20023F121FCF740FD641C022CF1D391
:10C6A00085E70024F64E04EB840005EB001006EB52
:10C6B000C40280B20023F121FCF72FFD641C022C80
:10C6C000F1D374E7FDF7E3BBF8B50646FFF7FAFFD1
:10C6D000EC4C6FF07F472760EB486060EB4D95F8BE
:10C6E000D80030B10023EA4A04211846FCF715FDB2
:10C6F00006E0E74A0023F23A04211846FCF70DFD54
:10C7000027604FF0501060600090B423B0221A21CF
:10C710000020FCF76FF9012495F8D80090B1DC49AE
:10C7200004EB840000EBC400D5314218611E01EB1C
:10C730008100C82101EB401080B200231A21FCF7D0
:10C74000ECFC11E0D24904EB840000EBC400AE31F4
:10C750004218611E01EB8100B02101EB401080B254
:10C7600000231A21FCF7D9FC641C032CD4D3707865
:10C770001A25A0B1012811D10024C14EB23E04EB0C
:10C78000440000EBC400821905EB400081B2002395
:10C790001846FCF7C2FC641C062CF0D3F8BD01243B
:10C7A000BC4E04EB440000EBC4008219601E00EB99
:10C7B000400101EBC00005EB400081B200231846A8
:10C7C000FCF7ABFC641C082CEBD3F8BD08B5B248F1
:10C7D0000090B62340F2DF127A210020FCF70AF91C
:10C7E00008BD10B5FDF753FBFCF729FEBDE810406E
:10C7F000ECE72DE9F047FFF7F4FFDFF888826FF0F0
:10C800007F44C8F80040A048C8F804009F4E96F83E
:10C81000D80038B19E4A0023163204211846FCF78E
:10C820007CFC06E09A4A0023DC3A04211846FCF717
:10C8300074FCC8F800404FF05019C8F80490002468
:10C84000934F4FF6FF75FC3707F1300A032C18D2CF
:10C8500096F8D80050B104EB84000AEBC40205EA54
:10C86000401000231A21FCF758FC24E004EB84005C
:10C8700007EBC40205EA401000231A21FCF74DFC27
:10C8800019E096F8D80058B1E01E00EB800007EBE5
:10C89000C40205EA401000233021FCF73EFC0AE008
:10C8A000E01E00EB80000AEBC40205EA4010002302
:10C8B0003021FCF732FC641C062CC7D300246F4ED9
:10C8C000754DAA3E201F042802D2C8F8045001E08A
:10C8D000C8F80490C4EB0410413081B2002306EB89
:10C8E00084021846FCF76FFC641C0B2CEAD300236F
:10C8F0006AA24121A020FCF766FC002368A2412126
:10C900004FF4A070FCF75FFC67481A224FF4937154
:10C91000D0F8B803FDF723FCBDE8F0470020FDF791
:10C9200001B908B55C480090B62340F2DF127A21C5
:10C930000020FCF75FF808BD10B5FDF7A8FABDE8C8
:10C940001040FCF77CBD70B5FFF7F6FF4D4C6FF063
:10C950007F4626604C4860604C4D95F8D80038B151
:10C960004B4A00232C3204211846FCF7D6FB06E084
:10C97000474A0023C63A04211846FCF7CEFB26603E
:10C980004FF0501060603D4A00237E3A1A2118464D
:10C99000FCF7C3FB012495F8D80070B1374904EBCC
:10C9A000C4003F394218601E4D2148431E3080B2FA
:10C9B00000233021FCF7B1FB0DE0304904EBC4004B
:10C9C0007E394218601E4D2148431E3080B200233C
:10C9D0003021FCF7A2FB641C072CDCD3BDE87040BF
:10C9E0000020FDF79FB8F8B500246FF07F461825AA
:10C9F000601C00EB400101EBC00005EB400083B27E
:10CA000081B2BE225A200096FCF735F8641C072C30
:10CA1000EED3F8BD10B5FDF73AFABDE81040FCF7CB
:10CA20000EBD70B5FFF7F6FF164C6FF07F45256021
:10CA300015486060154E96F8D80038B1144A0023A6
:10CA40006E3204211846FCF768FB06E0104A00230A
:10CA5000843A04211846FCF760FB25604FF0501023
:10CA6000606096F803011A25012838D0002496F852
:10CA7000D80098B396F8A00218E000000E4A030010
:10CA8000FB3C030014000010F35203006018001078
:10CA900008480300F13B0300343465004C4F570055
:10CAA0004849474800000000D01B0010C0EBC00000
:10CAB000FF4900EB400001EB8001C4EBC40000EB38
:10CAC00040000A1804EB440000EBC40005EB4000F2
:10CAD00081B200231846FCF720FB54E03AE0002422
:10CAE00096F8D800C8B196F8A002F249C0EBC00091
:10CAF00000EB400001EB8001C4EBC40000EB400000
:10CB00000A1804EB440000EBC40005EB400081B2BE
:10CB100000231846FCF701FB18E096F8A002E6494E
:10CB2000C0EBC00000EB400001EB8001C4EBC4008F
:10CB300000EB40000A1804EB440000EBC40005EBD6
:10CB4000400081B200231846FCF7E7FA641C042C6D
:10CB5000C6D31CE096F8A002D849C0EBC00000EB99
:10CB6000400001EB8001C4EBC40000EB40000A1858
:10CB700004EB440000EBC40005EB400081B200234D
:10CB80001846FCF7CAFA641C042CFFF470AF0023AB
:10CB9000CB4A5C215A20FCF7C0FABDE87040FDF793
:10CBA000B1B870B5FFF736FFC64C6FF07F45256012
:10CBB000C5486060C24EF93E96F8D80030B10023F7
:10CBC000C24A04211846FCF7A8FA06E0BF4A00232F
:10CBD000F23A04211846FCF7A0FA25604FF05010F5
:10CBE000606000241A2596F8D80068B104EB440070
:10CBF000B74900EBC400421805EB400081B20023A6
:10CC00001846FCF78AFA0DE0B14904EB440000EB4A
:10CC1000C4005839421805EB400081B20023184681
:10CC2000FCF77BFA641C082CDDD3FFF7DCFEBDE8C3
:10CC30007040FDF767B82DE9F05F80460C4642F280
:10CC40000F716068884205D90A21B0FBF1F060607D
:10CC50000420A060A068C0F10405A56060680DF024
:10CC600060FD81469B4FE06810B1012806D00FE0BF
:10CC7000394648460DF05DFB814609E048460DF017
:10CC8000B9FD0022944B0DF06BFC0DF0F7FD8146D1
:10CC900028460DF05CFD02460B4600208F490EF041
:10CCA0007FFE05460E4648460DF0A4FD2A46334653
:10CCB0000DF0C8FC0DF0E2FD0546894801264FF055
:10CCC000020A854207DD054640F6B8306060C4F8C8
:10CCD00008A0E6604EE083488349854209DB284688
:10CCE0000DF059FB0DF059FD6060C4F808A0E66036
:10CCF00040E07E484FF0030B85420ADB3946284668
:10CD00000DF049FB0DF049FD6060C4F808B0E66025
:10CD100030E077484FF0000985420ADB7549284624
:10CD20000DF039FB0DF039FD6060A660C4F80C9081
:10CD300020E08D420BDB704928460DF02CFB0DF0F6
:10CD40002CFD6060C4F808A0C4F80C9012E0BD424D
:10CD500008DB28460DF021FD6060C4F808B0C4F877
:10CD60000C9007E028460DF018FD6060C4F808B08C
:10CD7000C4F80C9028460DF010FDA06121464046F5
:10CD8000BDE8F05F1C220DF035BA808800B2704714
:10CD9000F0B4D1E9022764260A25584B4FF47A747F
:10CDA000002F06D0062A53D2DFE802F0232D543399
:10CDB0003F48052A4ED2DFE802F0034D0D1217005E
:10CDC0004A689A4203D94B6000220A6142E001227C
:10CDD0000A613FE04A68B2FBF4F24A603AE04A680E
:10CDE000B2FBF6F24A6035E04A68B2FBF5F24A60FF
:10CDF00030E04A689A4201D94B602BE04FF47A73D5
:10CE00005A434A6026E04A680AB3B2FBF5F24A6028
:10CE100020E04B6842F21072934200D94A604A689F
:10CE200002EB820252004A6014E04A68A24200D932
:10CE30004C604A6864235A434A600BE04A68642A9B
:10CE400000D94E604A684FF47A735A434A6001E051
:10CE50002B4A4A60F0BC1C220DF0CCB92DE9F047FA
:10CE600080460C4642F20F7160680A27884204D956
:10CE7000B0FBF7F060600420A060D4F804904FF499
:10CE80007A7009FB00F9A068C0F104000DF05FFCA6
:10CE900002460B46002011490EF082FD05460E4663
:10CEA00048460DF054FC2A4633460DF0CBFB29E0F2
:10CEB000544403000C410300683F0300B0420300E8
:10CEC0005919001014000010F35203004A480300DF
:10CED0005046030000007A4480842E410000244024
:10CEE000C0E1E44B8096184B00401C460024744976
:10CEF0000050C3470000C84200002041A086010046
:10CF000040420F000DF05DFC4EF66021884200D9D2
:10CF1000084642F21071884205D30221A160B0FB9D
:10CF2000F7F1616002E00321A1606060A061214629
:10CF30004046BDE8F0471C220DF05CB970B50546CF
:10CF40000C460020E060A0680DF0EBFB0DF052FCF9
:10CF500002460B460020FE490EF022FD0DF031FC8A
:10CF60006168B1FBF0F0642801D90220A06021467D
:10CF70002846BDE870401C220DF03CB908B5F548C4
:10CF80000090372328225C213C20FBF72CFFF2483D
:10CF90000090372328225C216420FBF724FFEF4810
:10CFA00000903723282293213C20FBF71CFFEC48FC
:10CFB00000903723282293216420FBF714FF08BD3B
:10CFC00008B5E4480090372328225C213C20FBF779
:10CFD0000AFFE1480090372328225C216420FBF7F8
:10CFE00002FFE04800903723282293213C20FBF7E2
:10CFF000FAFEDB4800903723282293216420FBF7B8
:10D00000F2FE08BD08B5D3480090372328225C21E2
:10D010003C20FBF7E8FED0480090372328225C2113
:10D020006420FBF7E0FED0480090372328229321AC
:10D030003C20FBF7D8FECA480090372328229321D2
:10D040006420FBF7D0FE08BD38B5C24800903723F6
:10D0500028225C213C20FBF7C6FEBF4C3723282248
:10D060005C2164200094FBF7BEFEC048009037238B
:10D07000282293213C20FBF7B6FE37232822932158
:10D0800064200094FBF7AFFE38BD38B5B14800907E
:10D09000372328225C213C20FBF7A5FEB44C372324
:10D0A00028225C2164200094FBF79DFEAF4800908D
:10D0B0003723282293213C20FBF795FE3723282293
:10D0C000932164200094FBF78EFE38BD08B5A1487B
:10D0D0000090372328225C213C20FBF784FEA448E3
:10D0E0000090372328225C216420FBF77CFE9B48BC
:10D0F00000903723282293213C20FBF774FE9848A8
:10D1000000903723282293216420FBF76CFE08BD92
:10D1100008B590480090372328225C213C20FBF77B
:10D1200062FE93480090372328225C216420FBF79D
:10D130005AFE8C4800903723282293213C20FBF78D
:10D1400052FE874800903723282293216420FBF762
:10D150004AFE08BD08B587480090372328225C2185
:10D160003C20FBF740FE7C480090372328225C21BE
:10D170006420FBF738FE7B48009037232822932158
:10D180003C20FBF730FE764800903723282293217D
:10D190006420FBF728FE08BD38B576480090372399
:10D1A00028225C213C20FBF71EFE6B4C37232822F3
:10D1B0005C2164200094FBF716FE6C480090372336
:10D1C000282293213C20FBF70EFE372328229321AF
:10D1D00064200094FBF707FE38BD08B56548009051
:10D1E000372328225C213C20FBF7FDFD5A480090A4
:10D1F000372328225C216420FBF7F5FD5B48009073
:10D200003723282293213C20FBF7EDFD5A4800905C
:10D210003723282293216420FBF7E5FD08BD08B5DC
:10D2200054480090372328225C213C20FBF7DBFD8B
:10D2300049480090372328225C216420FBF7D3FD66
:10D24000464800903723282293213C20FBF7CBFD52
:10D25000434800903723282293216420FBF7C3FD25
:10D2600008BD08B543480090372328225C213C20A4
:10D27000FBF7B9FD38480090372328225C21642051
:10D28000FBF7B1FD384800903723282293213C203A
:10D29000FBF7A9FD32480090372328229321642010
:10D2A000FBF7A1FD08BD08B53248009037232822BE
:10D2B0005C213C20FBF797FD2D4800903723282266
:10D2C0005C216420FBF78FFD24480090372328223F
:10D2D00093213C20FBF787FD21480090372328222B
:10D2E00093216420FBF77FFD08BD08B5214800901D
:10D2F000372328225C213C20FBF775FD1C48009059
:10D30000372328225C216420FBF76DFD154800902F
:10D310003723282293213C20FBF765FD104800901D
:10D320003723282293216420FBF75DFD08BD38B523
:10D3300010480090372328225C213C20FBF753FD46
:10D340000B4C372328225C216420009416E0000057
:10D3500000002440B0090300C80A0300F81F0300BE
:10D36000022F03000B210300D21D0300BF1C03008A
:10D3700086190300731803001E220300FBF733FD18
:10D3800004F2393000903723282293213C20FBF708
:10D390002AFD37232822932164200094FBF723FDE4
:10D3A00038BD08B5F7480090372328225C213C207F
:10D3B000FBF719FDF4480090372328225C216420F4
:10D3C000FBF711FDF14800903723282293213C20E0
:10D3D000FBF709FDEE4800903723282293216420B3
:10D3E000FBF701FD08BD38B5EA4800903723282235
:10D3F0005C213C20FBF7F7FCE74C372328225C211B
:10D4000064200094FBF7EFFCE148009037232822CA
:10D4100093213C20FBF7E7FC37232822932164204B
:10D420000094FBF7E0FC38BD38B5DA4800903723AC
:10D4300028225C213C20FBF7D6FCD74C372328223E
:10D440005C2164200094FBF7CEFCA4F6D130009060
:10D450003723282293213C20FBF7C5FC37232822C1
:10D46000932164200094FBF7BEFC38BD38B5CB484F
:10D470000090372328225C213C20FBF7B4FCC64CEB
:10D48000372328225C2164200094FBF7ACFCC048C1
:10D4900000903723282293213C20FBF7A4FC37235C
:10D4A0002822932164200094FBF79DFC38BD38B5F9
:10D4B000BA480090372328225C213C20FBF793FCDC
:10D4C000B54C372328225C2164200094FBF78BFCA9
:10D4D000A4F6D13000903723282293213C20FBF77B
:10D4E00082FC37232822932164200094FBF77BFCE5
:10D4F00038BDF8B5AA4C4FF4C27594F8B5100029A0
:10D5000001D0022926D1A1482822009037235C218E
:10D510001046FBF768FCA3480090372328225C21C3
:10D520002846FBF760FCA0484FF4AE7690F89D00CB
:10D5300040B199480090372328225C213046FBF700
:10D5400052FC07E099480090372328225C2130469E
:10D55000FBF749FC94F8B51009B101290ED1944CA0
:10D5600028223723932110460094FBF73CFC3723F5
:10D570002822932128460094FBF735FCF8BD08B516
:10D580008C4800903723282293213C20FBF72BFC6A
:10D590007E480090372328225C213C20FBF723FCA7
:10D5A00079480090372328225C216420FBF71BFC7C
:10D5B000794800903723282293216420FBF713FC3D
:10D5C00008BD08B571480090372328225C213C2013
:10D5D000FBF709FC78480090372328225C2164205F
:10D5E000FBF701FC734800903723282293213C204D
:10D5F000FBF7F9FB68480090372328229321642029
:10D60000FBF7F1FB08BD08B56C48009037232822D2
:10D610005C213C20FBF7E7FB694800903723282278
:10D6200093213C20FBF7DFFB08BD2DE9FF4F83B0C2
:10D630001C460125A9460020A07002F019FBFF2816
:10D64000FBD1DFF880B19BF8B803A0705E48029070
:10D65000C01DC71D4FF0FF0A0190EBE0B9F1000FAC
:10D6600030D04FF00009594E6FF07F40306058487D
:10D670007060FBF7E4FEC6F804A02C23C02218213A
:10D680005820CDF800A0FBF7B5F9A078514900EB80
:10D69000C000421801231A215820FBF73EFD4C48D8
:10D6A00070600026059806EB860100EBC602542048
:10D6B00000EB01100023F121FBF72FFD761CF6B2E1
:10D6C000052EEFD302F0D4FA0646FF2E05D008F15E
:10D6D0000108B8F1030F31D102E04FF00008F8E77C
:10D6E0004FF0010902F0E0FA0B2E4AD00CDC032EB9
:10D6F00072D004DC012E72D0022E1FD193E0092ECD
:10D700000FD00A2E1AD17AE0132E7AD004DC112E13
:10D7100015D0122E12D18AE0192E21D01B2E0DD138
:10D7200079E02948E178C01F405CFF2801D0A07053
:10D730000025A078CBF8B80384F802A07AE0E1785D
:10D740000298085CFF2801D0A0700025A078CBF8D3
:10D75000B803E078C05DFF286CD084F802A069E0CF
:10D76000E1780198085CFF2801D0A0700025A0781E
:10D77000CBF8B803E078C05DFF285BD084F802A046
:10D7800058E043E07318030086190300BF1C030030
:10D790001E220300991A0300022F0300AC1B030092
:10D7A00060180010DC2C0300385D0010A329030072
:10D7B000613403000B210300C80A0300D21D0300DB
:10D7C000E51E0300D01B00105C390300140000109C
:10D7D00038003100C537030021E000E011E0E078B7
:10D7E000C05DFF2801D0A0700025A078CBF8B80359
:10D7F000E078C05DFF281DD084F802A01AE0002563
:10D8000018E0F74806210160002513E0F4480521DF
:10D81000016000250EE00025002020700AE00025B0
:10D820000A20207006E000250220207002E000257A
:10D8300000202070002D7FF411AF07B0BDE8F08FFD
:10D840002DE9F05F0446E74D4FF0501AC5F804A0EB
:10D85000E54EDFF8989396F8400000280DD199F82E
:10D860007000002300EB400101EBC000E0494218CA
:10D870001A214FF4B970FBF750FCDE48686096F847
:10D88000B500DFF874B3FF276FF07F4808B10228B6
:10D890001AD1D64A9BF800008532012802D196F8A9
:10D8A000B40028B1012C0AD04CB1042C07D007E0F9
:10D8B000C5F800805C218420FBF704FC04E02F60A5
:10D8C0005C218420FBF7FEFB96F8B50008B1012827
:10D8D0001DD19BF8000018B196F8B400012805D1BD
:10D8E000022C20D0032C1ED0042C1CD0C5F80080A4
:10D8F00099F8D000C8B101F0D0FF99F8DD000128F7
:10D9000027D0BA4A93218F326420FBF7DBFBC5F89E
:10D910000080C5F804A0BDE8F05F0023D221B7A2C3
:10D920001E20FBF7FABB2F60E2E7B648B64C8078C2
:10D9300048B1B6A293216420FBF7C4FB01F0ADFF10
:10D9400000202070D9E72F600120207001F098FF9F
:10D95000D3E7AFA293216420FBF7B4FBD7E710B560
:10D96000A0494FF050104860A048002390F8700084
:10D9700000EB400101EBC0009D4942181A214FF411
:10D98000C970FBF7CAFB994A002371325C21B820A9
:10D99000FBF7C3FB954A00237B327221B820FBF7CB
:10D9A000BCFB924A4FF4A074002385325C212046D0
:10D9B000FBF7B3FB8D4A204600238F32BDE81040B1
:10D9C0007221FBF7AABB30B585B00D4693A206CAFB
:10D9D000CDE9031293A206CACDE9011203A9934C23
:10D9E000085C40F21311484320440090372328225A
:10D9F0005C214FF4BE70FBF7F6F901A840F2131159
:10DA0000405D372300FB0140009028225C214FF449
:10DA1000D270FBF7E8F905B030BD30B585B00D46E2
:10DA20007EA206CACDE903127EA206CACDE9011282
:10DA300003A97E4C085C40F2131148432044009037
:10DA40003723282293214FF4BE70FBF7CCF901A8AD
:10DA500040F21311405D372300FB01400090282263
:10DA600093214FF4D270FBF7BEF9D4E710B503460B
:10DA70000020002204E09C5C2044C0B2521CD2B2C0
:10DA80008A42F8D310BD10B5694CAB20E07052202B
:10DA90002071554890F840006071BF20A07107F0D8
:10DAA00047FA012084F8550010BD0EB56148D0E951
:10DAB0000912C06ACDE90012029069465E4808F07A
:10DAC00087F90EBD00B587B0142102A80CF0ABFB9E
:10DAD0005A480068019060208DF808005848594A5B
