:020000040001F9
:10800000B8660010CD520200D5520200D7520200CD
:10801000D9520200DB520200DD52020000000000D3
:10802000000000000000000000000000DF5202001D
:10803000E152020000000000E3520200EDF80100EE
:10804000E7520200598601006B8601007B86010021
:108050008B860100D3660200E7520200E75202005D
:10806000A3670200E7520200E7520200E752020053
:10807000E7520200E7520200E7520200E752020014
:10808000E75202005D890200E7520200E752020057
:10809000E7520200E7520200E7520200E7520200F4
:1080A000BF800200E7520200554F0200E752020073
:1080B000E7520200E7520200E7520200E7520200D4
:1080C000E7520200E7520200E7520200E7520200C4
:1080D000E7520200E7520200DD820100E75202008F
:1080E000E7520200DFF80CD012F07AFE0048004799
:1080F00027830100B8660010724840F20121016038
:1081000041608160C160016141618161C161016261
:1081100041628162C162016341638163C163016441
:1081200041648164C164016541658165C165016621
:1081300041668166C166016741678167C167C0F8B2
:108140008010C0F88410C0F88810C0F88C10C0F8F7
:108150009010C0F89410C0F89810C0F89C10C0F8A7
:10816000A010C0F8A410C0F8A810C0F8AC10C0F857
:10817000B010C0F8B410C0F8B810C0F8BC10C0F807
:10818000C010C0F8C410C0F8C810C0F8CC10C0F8B7
:10819000D010C0F8D410C0F8D810C0F8DC10C0F867
:1081A000E41040F8401C40F83C1C40F8381C40F8F3
:1081B000301C40F8201C40F8101C40F80C1C40F803
:1081C000081C40F8041C70472DE9F0413E4E306811
:1081D00040F40060306041F61F70C6F818013B4C57
:1081E000012222600027A760FFF786FF384839493F
:1081F0000068B0FBF1F5F06BC43E00B16D084FF4C0
:108200007A78B8FBF5F000F11303B3FBF0F12163CA
:108210004FF00F0CC4F834C0A763E263B3FBF0F176
:10822000891C2164626400F13E01B1FBF0F3A36498
:10823000B1FBF0F3E364C4F850C0B1FBF0F060654B
:10824000A265A26240F20330C4F804014FF4D0608A
:10825000C4F800016421002000F0AAF940F2831064
:108260002062C821002000F0A3F940F20310206230
:10827000022060620020401C8028FCD340F2E710FE
:108280004543B5FBF8F080B260628320206212485B
:1082900000882762D4F8000140F40020C4F80001EF
:1082A0000121002000F084F90121002000F080F974
:1082B000D6F8DC0120F01F0040F01100C6F8DC0108
:1082C000BDE8F08180C10240C4C00F4000C0092059
:1082D0008401001040420F00003003A010B50122BD
:1082E000132100200DF0DAF900281BD0A249012249
:1082F000402008606FF07F40401E0028FCD19F485E
:108300009F49036823B1002202600F20086002E049
:10831000026002200860BDE810404FF400210020F8
:108320000DF0E7B910BD1FB500200DF0D3FA0446DB
:108330001D2000F006F962B60025904E3560C82079
:10834000B4FBF0F0401EB0F1807F0CD220F07F40F3
:108350004FF0E024401E60611F21601700F0FCF820
:10836000A561072020610122D10400200DF077F9DA
:108370000121262000F0F0F8262000F0E2F807F0B6
:108380007EFC07F0D4FB0EF0C4F80CF098FE3560CC
:108390000EF00EFC10F0F7FA07F071FC07F0C7FBC7
:1083A000282007F08BFBFFF70FFF002000F02CFACE
:1083B00074480021406900F056FA012000F024FAC8
:1083C0000CF0AAFD002007F035FC05F005FE07F0D3
:1083D00025FF6B4F0F2038606B4E07F0E5FC04461D
:1083E000FF2C06D03068401C30603068022802D074
:1083F00013E03560F9E735604FF0501000F0F1FA06
:10840000224662A101A812F079FD6FF07F4301AA14
:1084100028217820009500F009FC38680A2818D037
:1084200008DC02280FD0052810D00628D5D108F086
:10843000A4FAD2E70C280FD00F2810D01028CCD1E6
:108440000AF0AFFDC9E707F09AFFC6E709F05FF948
:10845000C3E70BF085FEC0E70AF0ABFEBDE70AF00C
:1084600007FEBAE770B5012149A00FF0D4FA05461E
:10847000002D0EDD494C4FF47A66324628462168BD
:108480000FF076FB0028F8D12846BDE870400FF0C9
:1084900013BD70BD2DE9F04701213DA00FF0BBFADF
:1084A0000646002E21DD3D4F4FF47A694A4630469C
:1084B00039680FF05DFB022139A00FF0ACFA0546D8
:1084C000002D12DD0024DFF8E4804A462846396892
:1084D0000FF066FC04444445F7D328460FF0ECFC4B
:1084E0003046BDE8F0470FF0E7BCBDE8F0872DE966
:1084F000F041012126A00FF08EFA0646002E1EDD67
:10850000022127A00FF087FA0746002F17DD234C22
:108510004FF47A684246304621680FF029FB054641
:108520002A46384621680FF03BFC002DF2D1384630
:108530000FF0C2FC3046BDE8F0410FF0BDBCBDE815
:10854000F08100F01F02012191404009800000F1FC
:10855000E020C0F800117047C906090E002806DAAD
:1085600000F00F0000F1E02080F8141D704700F1CA
:10857000E02080F80014704784E100E074010010EE
:108580007C0100101C0000107000001025326400F7
:108590004D53524541442E54585400002C020010B3
:1085A0004A4B32353230422E54585400809698004F
:1085B000F0B58F4A0023FF250426012712684FF0EB
:1085C000020C4FF47A74002815D0012824D0022818
:1085D00032D003280ED18748C0F804C0C360B2FB74
:1085E000F4F2521E4A438261056046614760416869
:1085F000C907FCD1F0BD4FF04020C0F804C0C360F3
:10860000B2FBF4F2521E4A43826105604661476044
:108610004168C907FCD1F0BD7748C0F804C0C36009
:10862000B2FBF4F2521E4A43826105604661476024
:108630004168C907FCD1F0BD7048C0F804C0C360F0
:10864000B2FBF4F2521E4A43826105604661476004
:108650004168C907FCD1F0BD4FF0402101200860FE
:1086600067480168491C0160704763490120086040
:1086700063484168491C41607047604901200860B7
:108680005F488168491C816070475A490120086031
:108690005B48C168491CC16070470121002808D0AF
:1086A00001280AD002280BD0032801D1514841608B
:1086B00070474FF04020416070474F48416070471D
:1086C0004E48416070470021002808D001280AD098
:1086D0004A4A02280AD0032800D1516070474FF05F
:1086E0004020416070474448416070475160704786
:1086F00000280BD0012810D0022814D0032804D160
:108700003C49486840F00200486070474FF0402103
:10871000486840F00200486070473749486840F0B8
:108720000200486070473549486840F002004860E0
:10873000704770B50025324C324A03234EF65F264F
:10874000002807D0012819D002282AD0032836D0C3
:10875000002070BD256052F8C40F40F00200106088
:108760004FF04020426842F002024260C6608161E0
:108770004361012000F031F8012070BD656052F8BE
:10878000C40F40F0040010601B48426842F004022D
:108790004260C66081614361022000F01EF8012042
:1087A00070BDA56052F8C40F40F4800010601348FB
:1087B00081614361032000F010F8012070BDE56085
:1087C00052F8C40F40F4000010600A488161436110
:1087D000042000F002F8012070BD00F01F0201210A
:1087E00091404009800000F1E020C0F8001170477E
:1087F000880100100040094000800040000009404E
:108800000000001000C00F4008B5FD4942F2107290
:1088100000280FD0886940F00100886100928869C3
:1088200040F4006088610098401E00900098002885
:10883000F5D108BD886920F400608861009202E0EB
:108840000098401E009000980028F9D1886920F017
:108850000100886108BDEB4A002108C808C2491C14
:108860008029FAD3704770B50846E74CE74B2722BA
:1088700043F8A82C43F8A42CC3F8B821C3F8BC21B2
:108880001A665A669A66DA6643F8A02C43F89C2C5E
:108890009A61DA611A625A629A62DA6243F8982C33
:1088A00043F8942C9A67DA671A635A639A63DA6317
:1088B0001A65DA655A659A659A64D54A116C41F071
:1088C00002011164916D41F00A019165D14B196863
:1088D00041F001011960D0490A6822F001020A60E2
:1088E000C74A00259561916921F00E019161916956
:1088F00041F00A019161916941F020019161916912
:1089000021F080019161916921F4807191619169F7
:1089100021F400719161916921F480619161916903
:1089200021F400619161BD49BD4E0968B1FBF6F1CA
:10893000C3F8F410916841F080619160916821F072
:1089400020019160916841F400619160916841F467
:1089500080519160916821F400519160916821F4F7
:10896000804191609168AF4B194091609168AE4B26
:10897000194391601560116841F01C511160116834
:1089800041F480211160116841F480711160116817
:1089900041F0740111605560516841F0006151600F
:1089A000516841F400215160516841F48061516087
:1089B000516840F20F13194351601461546100284B
:1089C00001D0FFF748FF00204FF47F01CA1102C415
:1089D000401C9042FBD342F21070401E0028FCD194
:1089E00070BD894A00214FF4FF3301C2491C9942EE
:1089F000FBD37047F0B5059EA1F20F1CACEB0C1435
:108A0000E501A0F2DF14A5EB84047F4D2C44002582
:108A1000121AC2F5F077591A09E0002002E044F872
:108A20000469401C8242FAD8A4EB87046D1CA94259
:108A3000F3D8F0BD744BB0F5F07F0ED2B1F5887F5E
:108A40000BD2A1F20F11C0F5F070A1EB011100EBF8
:108A50004110401E03EB8000026070476A4AA1F299
:108A60000F11A1EB011102EBC111A0F2DF10A1EB7C
:108A70008000006870472DE9F0470446DDF820A02B
:108A80000D4690469946444502D94046A04684B2D8
:108A90004D4502D94846A94685B2A8EB040000B26C
:108AA000A9EB05010EB250B1A6B1B04236DDC0EB64
:108AB00046010FB27100404201EB400926E05246E8
:108AC00029462046FFF7B6FF6D1CADB2A945F6D288
:108AD000BDE8F087524629462046FFF7ABFF641CED
:108AE000A4B2A045F6D2F3E7524629462046FFF746
:108AF000A1FF641CA4B2002F05DD6D1CADB209EB13
:108B0000070007B202E007EB460007B24445EBD18D
:108B1000524629462046BDE8F0478BE7C6EB4001A8
:108B20000FB27100404201EB400811E05246294665
:108B30002046FFF77FFF6D1CADB2002F05DD641CE2
:108B4000A4B208EB070007B202E007EB460007B249
:108B50004D45EBD1524629462046BDE8F04769E72E
:108B60002DE9FF5F8946074611469B46684600F09F
:108B7000FBFB0025EA461AF80580002409EB0506F0
:108B8000C4F1070028FA00F0C00706D03819B1B2C6
:108B900080B25A46FFF74EFF05E03819B1B280B2F5
:108BA0000E9AFFF747FF641C082CE9D36D1C102DAB
:108BB000E1D3BDE8FF9F2DE9FE4F8946804611466F
:108BC0009B46684600F0D7FB0025EA461AF8056088
:108BD000002409EB0507C4F1070026FA00F0C007DE
:108BE00006D008EB0400B9B280B25A46FFF722FF64
:108BF000641C082CEFD36D1C0C2DE7D3BDE8FE8F51
:108C00000080082000820820000001A0B8C00240B7
:108C100000800920C4C00F40008C0820880100108B
:108C2000B0475D00FFFF00FC0000DF012DE9F843C5
:108C30000446089F0D46164699464FF4EC7816F800
:108C4000012B4B46294620460097FFF789FF4445F4
:108C500002D20834A4B207E0FF2D03D80024103557
:108C6000ADB201E00024002530780028E7D1BDE84E
:108C7000F8832DE9FF4F82B005460C4617462E4675
:108C8000A0464FF0000AA6F1140080B23A462146F1
:108C9000FFF7D0FE761CB6B2A8F1140081B23A46B6
:108CA0002846FFF7C7FE08F101081FFA88F80AF105
:108CB000010A1FFA8AFABAF1280FE4D3A946274617
:108CC0000026A5F1140001902830A4F1140804F145
:108CD000140A0090A9F1140083461FFA88F180B2AB
:108CE000059AFFF7A7FE1FFA8AF11FFA8BF0059A83
:108CF000FFF7A0FE09F101091FFA89F9A7F1140095
:108D0000834681B20198059A80B2FFF793FE0098DE
:108D10001FFA8BF180B2059AFFF78CFE7F1CBFB261
:108D2000761CB6B20A2ED5D30026A4F1140704F19E
:108D30001408A5F1140905F1140A05F10A00834687
:108D4000B9B280B2059AFFF775FE1FFA88F11FFAD3
:108D50008BF0059AFFF76EFE6D1CADB204F10A00B0
:108D6000834681B21FFA89F0059AFFF763FE1FFA66
:108D70008BF11FFA8AF0059AFFF75CFE641CA4B21F
:108D8000761CB6B20A2ED8D306B0BDE8F08F30B547
:108D9000024600201478FE4B00EB80115D5CA5427A
:108DA00004D11944557849788D4204D0401C80B2D2
:108DB0007728F1D3002030BD30B50246002014786A
:108DC000F44B00EB001113F81150A54205D103EB51
:108DD0004101557849788D4204D0401C80B2B228B8
:108DE000EFD3002030BD2DE9F84F04468B46924664
:108DF000A04600270AFB03F0C11700EB5170DFF813
:108E00009893009025E00A98C65D0025300606D5A7
:108E100059462046D9F80020FFF70CFE05E05946D8
:108E20002046D9F80420FFF705FE7006060E641CE4
:108E3000A4B2A4EB0800504505D144460BF1010B48
:108E40001FFA8BFB03E06D1CEDB2082DDED37F1CF7
:108E5000BFB20098B7EBE00FD5DBBDE8F88F2DE986
:108E6000F04F044688462546CA4902EB0210DFF857
:108E700028A301EB4009002B0FD0002709EB0700C6
:108E800090F802B000265FEA0B6034D541462046D8
:108E9000DAF80420FFF7CEFD33E04FF0000B09EBCA
:108EA0000B0087780026380606D541462046DAF8BA
:108EB0000020FFF7BFFD05E041462046DAF8042018
:108EC000FFF7B8FD7806070E641CA4B2601B1028DB
:108ED0000BD0761CF6B2082EE5D30BF1010B0BF08C
:108EE000FF0BBBF1200FDAD34FE72C4608F1010846
:108EF0001FFA88F8F1E741462046DAF80020FFF72C
:108F000099FD4FEA4B604FEA106B641CA4B2601BE2
:108F1000102808D0761CF6B2082EB4D37F1CFFB2FE
:108F2000202FABD331E72C4608F101081FFA88F84F
:108F3000F4E72DE9F04F044688462546944902EBB4
:108F40008210DFF854A200EB0109002B0FD000279C
:108F500009EB070090F802B000265FEA0B6034D5F9
:108F600041462046DAF80420FFF764FD33E04FF075
:108F7000000B09EB0B0087780026380606D5414622
:108F80002046DAF80020FFF755FD05E0414620466F
:108F9000DAF80420FFF74EFD7806070E641CA4B231
:108FA000601B18280BD0761CF6B2082EE5D30BF107
:108FB000010B0BF0FF0BBBF13F0FDAD3E5E62C46BC
:108FC00008F101081FFA88F8F1E741462046DAF86F
:108FD0000020FFF72FFD4FEA4B604FEA106B641C37
:108FE000A4B2601B182808D0761CF6B2082EB4D3A1
:108FF0007F1CFFB23F2FABD3C7E62C4608F1010818
:109000001FFA88F8F4E710B50446084611462246D0
:10901000FFF78FFF182010BD10B504460846114613
:109020002246FFF71CFF122010BD2DE9F84F06461F
:109030000C4615469A4600274FF4F0794FF488788D
:109040002A78002A3DD0F01986B2802A15D906F177
:109050001800484505D900261634A4B2444500D965
:1090600000242846FFF793FE80B25346224631463D
:10907000FFF7C9FF0746AD1CE2E70D2A15D00A2A03
:109080001BD006F10C00484505D900260C34A4B2CB
:10909000444500D9002440484168009103682146B6
:1090A0003046FFF75DFD6D1CCAE71634A4B2444597
:1090B00000D900246D1C0027C2E700266D1C002784
:1090C000BEE7CAE6F8B506460F46154600242B78DB
:1090D000002B21D0A3F13002092A01D893B204E079
:1090E0002E2B15D02D2B15D00C2303EBC300C0EB7A
:1090F00083102A49372301EB80000090301980B299
:1091000020223946FFF76FFE6D1C2034A4B2DEE743
:109110000A23EAE70B23E8E7F8BD2DE9F843064602
:109120000C461546994600204FF4F0784FF48877A6
:109130002A78002A46D0304486B2802A14D906F113
:109140001000404505D900261034A4B2BC4200D915
:1091500000242846FFF730FE80B24B4622463146B7
:10916000FFF75AFFAD1CE3E70D2A1FD00A2A25D0CE
:1091700006F10800404505D900260834A4B2BC42D7
:1091800000D900240448416800912146036807E0A3
:10919000B4C60200EBE4020014000010D00E03007D
:1091A0003046FFF7DDFC6D1C0A20C1E71034A4B285
:1091B000BC4200D900246D1C0020B9E700266D1CBC
:1091C0000020B5E753E52DE9F84306460C46154661
:1091D000994600204FF4F0784FF488772A78002AD7
:1091E0003DD0304486B2802A14D906F110004045A3
:1091F00005D900261034A4B2BC4200D90024284668
:10920000FFF7DAFD80B24B4622463146FFF704FFF6
:10921000AD1CE3E70D2A16D00A2A1CD006F108007F
:10922000404505D900260834A4B2BC4200D9002428
:109230004A4841680091036821463046FFF7BBFC6D
:109240006D1C0820CAE71034A4B2BC4200D9002427
:109250006D1C0020C2E700266D1C0020BEE706E55D
:109260002DE9F041072A00D9072202B90122052978
:1092700000D90521914200D911460024384E2027FB
:109280003755641CE4B20C2CFAD314460A250DE0C1
:10929000B0FBF5FC05FB1C0C06EB04080CF1300CD4
:1092A00008F801CCB0FBF5F0641EE4B2002CEFD15D
:1092B00069B1104605E0341814F8014C3454401ECE
:1092C000C0B2491EC9B2F6D22E21315400E0B754C3
:1092D00073B90020511E09E0335C302B08D13318DC
:1092E0005B782E2B04D03754401CC0B28842F3DB8D
:1092F000521CD0B2002102E03154401CC0B20C28F4
:10930000FAD3BDE8F08130B5164A00214FF4FF349E
:10931000037845781B0443EA052385782B4308C26C
:10932000C01C491CA142F3D330BD70B50D490023C8
:109330004FF4B575002204784678240444EA0624E4
:109340008678344310C1C01C521CAA42F3D301F5E5
:10935000EC715B1CB3F5887FECD370BD140000107A
:10936000385F0010000001A0094A203902EB01110A
:10937000102211F0B7B82039064A01EB410102EB87
:1093800081010A6802604A684260896881607047AA
:1093900030020300200803002DE9F041069F092B4D
:1093A00000D9092303B90123052A00D905229A42CD
:1093B00000D91A46002420260655641CE4B2042C69
:1093C000FAD31C460A250DE0B1FBF5FC05FB1C1C7D
:1093D00000EB04080CF1300C08F801CCB1FBF5F1FE
:1093E000641EE4B2002CEFD16AB1194605E04418BE
:1093F00014F8014C4454491EC9B2521ED2B2F6D2DE
:109400002E22425400E0C65477B900215A1E09E0CA
:10941000445C302C08D1441864782E2C04D0465477
:10942000491CC9B29142F3DB5B1CD9B2002202E0B5
:109430004254491CC9B20429FAD3BDE8F0812DE990
:10944000F84F0024DFF808844FF04C0940F20F1762
:109450004FF04D0A4FF04E0BFE48009004EB4401D4
:10946000A00001EB041100EB810004EB840509EB83
:10947000051680B2B2B23B46E421FFF7BBFA0120E9
:1094800000EB0510E323B2B280B21946CDF800809C
:10949000FFF7F1FAB2B2B0B23B46E321CDF800805B
:1094A000FFF7E9FA0AEB0510002682B280B23B46CC
:1094B000E3210096FFF7DFFA0BEB051082B280B2D2
:1094C0003B46E3210096FFF7D6FA4F2000EB05104C
:1094D00082B280B23B46E3210096FFF7CCFA641CCF
:1094E000062CB9D3BDE8F88F10B5FFF7A8FFDA480E
:1094F000D84941606FF07F410160D84800680C286E
:109500000DD00023D6A2F1215420FFF706FE002340
:10951000F121BDE81040D4A2A420FFF7FEBD002336
:10952000D3A2F1215420FFF7F8FD0023F121BDE87B
:109530001040D1A2A420FFF7F0BD70B50446FFF79C
:109540007EFFC549C34A4A606FF07F420A60CB4D37
:10955000542694B10024601D00EB400005EB40024E
:1095600004EB840006EB00100023F121FFF7D5FD8A
:10957000641CE4B2052CEED370BD002404EB44005F
:1095800005EB400204EB840006EB00100023F12100
:10959000FFF7C3FD641CE4B2052CEFD370BD10B51A
:1095A000FFF74DFFAC48AB4941606FF07F41016070
:1095B000B34890F8D80038B10023F121BDE810403D
:1095C000B0A25420FFF7A9BD0023F121BDE810404F
:1095D000AFA25420FFF7A1BD10B5FFF730FF9E48A2
:1095E0009C4941606FF07F4101600023F121BDE89B
:1095F0001040A9A25420FFF790BD70B50546FFF7B3
:109600001EFF9549934B9E4C6FF07F42ADB1012DEB
:109610007ED00A604B6094F8D800002879D00023EF
:109620009EA2F2215320FFF778FDBDE87040002391
:10963000F2219CA2A320FFF770BD0A604B6094F852
:10964000D8104FF4A274002931D0002397A2E7214B
:109650005420FFF762FD002396A2FB215420FFF760
:109660005CFD002391A2E721A420FFF756FD002313
:1096700092A2FB21A420FFF750FD002391A2E72135
:10968000F420FFF74AFD00238CA2FB21F420FFF712
:1096900044FD00238BA2E7212046FFF73EFD204634
:1096A000BDE87040002388A2FB21FFF736BD0023F0
:1096B00087A2E7215420FFF730FD002386A2FB217B
:1096C0005420FFF72AFD002381A2E721A420FFF701
:1096D00024FD002382A2FB21A420FFF71EFD00230E
:1096E00081A2E721F420FFF718FD00237CA2FB21D3
:1096F000F420FFF712FD00237BA2E7212046FFF7AD
:109700000CFD2046BDE87040002379A2FB2101E05A
:1097100002E04DE0FFF701BD0A604B6094F8D810FD
:109720004FF4CA74F1B1002373A2E7215420FFF76C
:10973000F4FC002372A2FB215420FFF7EEFC00236F
:1097400071A2E721A420FFF7E8FC002370A2FB210F
:10975000A420FFF7E2FC00236FA2E7212046FFF7D9
:10976000DCFC1DE000236EA2E7215420FFF7D5FCAE
:1097700000236DA2FB215420FFF7CFFC00236CA235
:10978000E721A420FFF7C9FC00236BA2FB21A42042
:10979000FFF7C3FC00236AA2E7212046FFF7BDFCC8
:1097A0002046BDE87040002367A2FB21FFF7B5BC4F
:1097B000002367A2F2215320FFF7AFFCBDE8704001
:1097C0000023F22164A2A320FFF7A7BC70B5FFF726
:1097D00036FE21486FF07F4101601E4941602848F4
:1097E0004FF4A2744FF4CA7590F8D810C9B1002391
:1097F0005BA2E7215420FFF790FC00235AA2FB2133
:109800005420FFF78AFC002359A2F1212046FFF7DC
:1098100084FC2846BDE87040002357A2F121FFF7E1
:109820007CBC002356A2E7215420FFF776FC0023DE
:1098300055A2FB215420FFF770FC002354A2F12114
:109840002046FFF76AFC002353A2F1212846A7E037
:109850006843690038003100140000107C010010DA
:10986000206DA6B82020000020A6B820000000002F
:10987000202B202000000000202D2000894D030017
:109880006018001020436F6E6669726D2000000042
:1098900020C8B7C8CF2000002A31000043616E63A2
:1098A000656C0000436F6E6669726D004D454153F3
:1098B0000000000044495350000000005345545537
:1098C0005000000053595300494E464F000000001D
:1098D000B2E2C1BF00000000CFD4CABE0000000049
:1098E000C9E8D6C300000000CFB5CDB3000000002A
:1098F000D0C5CFA20000000046696C65730000006F
:109900004D616E616765000053617665000000007F
:1099100044617461000000004D6F7265000000003A
:10992000CEC4BCFE00000000B9DCC0ED00000000A9
:10993000B1A3B4E600000000CAFDBEDD00000000D7
:10994000B8FCB6E00000000020322F32000000001A
:109950002020C8A1CFFB20002020C8B7C8CF2000FE
:1099600044656C65746500005461626C65000000BC
:1099700050524556000000004E455854000000006B
:10998000C7E5B3FD00000000B1EDB8F10000000034
:10999000C9CFD2BBD2B30000CFC2D2BBD2B300007A
:1099A000BDE87040FFF7B9BB70B50446FFF747FD4F
:1099B000FE48FF4AFF4B6FF07F414FF4A2754FF412
:1099C000CA764CB3012C27D00160426093F8D800CE
:1099D00000287CD00023F8A2F1215420FFF79DFB42
:1099E0000023F8A2E721A420FFF797FB0023F7A2AA
:1099F000FB21A420FFF791FB0023AFF28C02F121A1
:109A00002846FFF78AFB0023AFF294023046BDE8F8
:109A10007040F121FFF781BB0160426093F8D800EC
:109A200000282DD00023E4A2F1215420FFF775FB7C
:109A30000023E8A2E721A420FFF76FFB0023E1A2A7
:109A4000FB21A420FFF769FB0023E4A2E721F42017
:109A5000FFF763FB0023E4A2FB21F420FFF75DFB8B
:109A60000023AFF2F402F1212846FFF756FB002352
:109A7000AFF2FC023046BDE87040F121FFF74DBB6C
:109A80000023DBA2F1215420FFF747FB0023DAA2D9
:109A9000E721A420FFF741FB0023D9A2FB21A4204A
:109AA000FFF73BFB0023D8A2E721F420FFF735FBAB
:109AB0000023D3A2FB21F420FFF72FFB0023AFF2FA
:109AC0003012F1212846FFF728FB002300E007E0D1
:109AD000AFF23C123046BDE87040F121FFF71DBBEC
:109AE0000023C3A2F1215420FFF717FB0023C4A2D7
:109AF000E721A420FFF711FB0023C5A2FB21A4202E
:109B0000FFF70BFB0023AFF27812F1212846FFF795
:109B100004FB0023AFF280123046BDE87040F12113
:109B2000FFF7FBBA10B50446FFF789FC9F48A04A2F
:109B3000A04B6FF07F41002C32D0012C7ED1016010
:109B4000426093F8D8104FF4CA74002977D00023EC
:109B5000AFF25C22E7215420FFF7DFFA0023AFF2D7
:109B60006022FB215420FFF7D8FA0023AFF2AC2289
:109B7000E721A420FFF7D1FA0023A7A2FB21A4200C
:109B8000FFF7CBFA0023A6A2F121F420FFF7C5FAD4
:109B90000023AFF27C22E7212046FFF7BEFAA7E0C0
:109BA0000160426093F8D8104FF4A274002939D0B4
:109BB0000023AFF20832E7215420FFF7AEFA00236A
:109BC000AFF21032FB215420FFF7A7FA0023AFF2C7
:109BD0002432E721A420FFF7A0FA0023AFF22432B9
:109BE000FB21A420FFF799FA0023AFF22832E721E6
:109BF000F420FFF792FA0023AFF24032FB21F42069
:109C0000FFF78BFA0023AFF24432E7212046FFF73B
:109C100084FA0023AFF250322046BDE81040FB2109
:109C2000FFF77BBA0023AFF25832E7215420FFF749
:109C300074FA0023AFF26032FB2101E061E02EE014
:109C40005420FFF76AFA0023AFF27C32E721A42008
:109C5000FFF763FA0023AFF27832FB21A420FFF76D
:109C60005CFA0023AFF28032E721F420FFF755FAC7
:109C70000023AFF29432FB21F420FFF74EFA0023C9
:109C8000AFF29C32E7212046FFF747FA0023AFF2FC
:109C9000A0322046BDE81040FB21FFF73EBA00236A
:109CA000AFF28432E7215420FFF737FA0023AFF2F6
:109CB0008832FB215420FFF730FA0023AFF2D8326C
:109CC000E721A420FFF729FA0023AFF2EC32FB21B1
:109CD000A420FFF722FA002353A2F121F420FFF77A
:109CE0001CFA0023AFF2A832E7212046FFF715FA4D
:109CF0000023AFF2AC322046BDE81040FB21FFF755
:109D00000CBA10BD10B529486FF07F410160284999
:109D1000416028484FF4A27490F8D810002939D037
:109D20000023AFF27842E7215420FFF7F6F9002331
:109D3000AFF28042FB215420FFF7EFF90023AFF28E
:109D40009442E721A420FFF7E8F90023AFF2944200
:109D5000FB21A420FFF7E1F90023AFF29842E721AD
:109D6000F420FFF7DAF90023AFF2B042FB21F42030
:109D7000FFF7D3F90023AFF2B442E7212046FFF703
:109D8000CCF90023AFF2C0422046BDE81040FB21D1
:109D9000FFF7C3B90023AFF2C842E7215420FFF711
:109DA000BCF90023AFF2D042FB2141E014000010C7
:109DB000380031006018001044656C2D4C696E65E8
:109DC000000000004175746F00000000436F70795F
:109DD000000000004C696E65617200004C6F6761A5
:109DE000726974686D0000004179746F00000000B2
:109DF000C9BEB3FDD0D00000CFDFD0D4000000003A
:109E0000D7D4B6AF00000000B6D4CAFD00000000F1
:109E1000B8B4D6C600000000536574557000000049
:109E2000546F6F6C73000000B9A4BEDF0000000027
:109E30005420FFF772F90023AFF26C52E721A420FF
:109E4000FFF76BF90023AFF26852FB21A420FFF764
:109E500064F90023AFF27052E721F420FFF75DF9B7
:109E60000023AFF28452FB21F420FFF756F90023C0
:109E7000AFF28C52E7212046FFF74FF90023AFF2F3
:109E800090522046BDE81040FB21FFF746B908B5C7
:109E9000FE48002100901623F0220846FEF7AAFD96
:109EA00008BD08B5FA480090CA2340F2DF125C21D1
:109EB0000020FEF79FFD08BD10B5FFF7E8FFFFF794
:109EC000BEFABDE81040ECE72DE9F041FFF7F4FFE2
:109ED000F04C6FF07F452560EC486060EE4E96F8E0
:109EE000D80030B10023ED4A04211846FFF715F9D8
:109EF00006E0EA4A0023F23A04211846FFF70DF97A
:109F000025604FF0501060600024E54F1A25A7F13E
:109F10003C08032C22D296F8D80078B104EB8400D8
:109F200007EB400204EB440000EBC40005EB4000EB
:109F300081B200231846FFF7F0F833E004EB840009
:109F400008EB400204EB440000EBC40005EB4000CA
:109F500081B200231846FFF7E0F823E096F8D80016
:109F600080B104EB840007EB4002E01E00EB4001EF
:109F700001EBC00005EB400081B20023FA20FFF79F
:109F8000CCF80FE004EB840008EB4002E01E00EB8D
:109F9000400101EBC00005EB400081B20023FA2034
:109FA000FFF7BBF8641C062CB3D3BDE8F0410020DA
:109FB000FFF723BB08B5B6480090BE2340F2DF127E
:109FC00070210020FEF716FD08BD10B5FFF75FFFFA
:109FD000FFF735FABDE81040ECE738B50446AD4D63
:109FE0004FF050106860AF48012300EB8402C82195
:109FF0001420FFF792F8AB4801235C3000EB840299
:10A00000C8214FF48C70FFF788F8A1486860A64813
:10A010000090372328227A215020FEF7E4FEA3483F
:10A020000090372328227A217820FEF7DCFEA04812
:10A030000090372328227A218C20FEF7D4FE38BDE9
:10A040002DE9F041FFF7C1FF924C6FF07F4525608D
:10A050008E486060904E96F8D80038B18F4A002341
:10A06000163204211846FFF758F806E08B4A002301
:10A07000DC3A04211846FFF750F825604FF05010E5
:10A08000606000248B4F1A25A7F13808032C1ED2DC
:10A0900096F8D80068B104EB440000EBC40005EB6F
:10A0A000400081B2002307EBC4021846FFF735F8E1
:10A0B0002DE004EB440000EBC40005EB400081B24E
:10A0C000002308EBC4021846FFF727F81FE096F8B4
:10A0D000D80070B1E01E00EB400101EBC00005EBC1
:10A0E000400081B207EBC4020023FA20FFF715F805
:10A0F0000DE0E01E00EB400101EBC00005EB40006D
:10A1000081B208EBC4020023FA20FFF706F8641CB2
:10A11000072CBBD3684890F8B803FFF75EFFBDE893
:10A12000F0410020FFF769BA38B5594C40F2DF150D
:10A13000A0232A46562100200094FEF75BFCE3236F
:10A140002A46C12100200094FEF754FC38BD10B50A
:10A15000FFF79DFEFFF773F9BDE81040E4E70B46FB
:10A160001146564A89B2105C183200EB4000024496
:10A1700098B20023FEF7D1BF2DE9F047FFF7E7FFC4
:10A18000444E6FF07F44346040487060DFF80881CF
:10A1900098F8D80038B1414A00232C3204211846DF
:10A1A000FEF7BBFF06E03D4A0023C63A04211846ED
:10A1B000FEF7B3FF34604FF05015756000244FF682
:10A1C000FF7798F8D80068B13449C4EBC400F23185
:10A1D000421804EB840007EA401000231A21FEF71E
:10A1E0009CFF0BE03649C4EBC400421804EB84002A
:10A1F00007EA401000231A21FEF78FFF641C032C8E
:10A20000DFD3DFF8B4800123D8F8C00300EB4001AE
:10A2100001EBC0012348D4300A181A213C20FEF774
:10A220007CFF98F80C1100230622D8F80801FFF7EC
:10A2300017F80123234A1A21DC20FEF76EFFD8F815
:10A2400010011E4900EB40001539421801231A2164
:10A250004FF49170FEF761FF1A224FF49671D8F80F
:10A26000B803FFF77CFF002317A22E211846FEF744
:10A27000AAFF002315A22E217820FEF7A4FF0023B9
:10A2800014A22E21F020FEF79EFF27E0F3520300D8
:10A29000343465001400001060180010E24A030016
:10A2A000A53903008D3B0300D521030018340300BA
:10A2B0002B350300F2400300D01B0010DA4D0300E1
:10A2C000E94B0300385F001042494E004C4F5720C5
:10A2D0005B465D00484947485B465D000023FEA29F
:10A2E0002E214FF4C870FEF76EFF0624FC4FA4F138
:10A2F0000800052802D3A01F082801D9776000E0D4
:10A300007560A01F8146C0EBC00008EBC001D1F80A
:10A31000300178B191F8341101230622FEF7A0FF35
:10A32000C9EB09103A3081B20123EE4A7820FEF7DA
:10A330004AFF08E0C9EB09103A3081B20123EAA2D2
:10A340007820FEF740FF641C0F2CD0D37760D8F83C
:10A35000440360B198F8481301230622FEF780FFFA
:10A360000123E04AC4217820FEF72DFF05E00123F8
:10A37000DDA2C4217820FEF726FF1024A4F11200EC
:10A38000052802D3801C082801D9776000E0756099
:10A39000A4F110008146C0EBC00008EBC001D1F869
:10A3A0004C0178B191F8501101230622FEF758FFB5
:10A3B000C9EB09103A3081B20123CA4AFA20FEF7EC
:10A3C00002FF08E0C9EB09103A3081B20123C6A2AE
:10A3D000FA20FEF7F8FE641C192CCFD37760D8F86A
:10A3E000440370B198F82C1301230622D8F82803EF
:10A3F000FEF736FF0123BB4AC421FA20FEF7E3FE35
:10A4000005E00123B8A2C421FA20FEF7DCFE0124F6
:10A41000DFF8DC82E01E052801D2776000E075607D
:10A42000601E00EBC00000EB0802C4EB04102B30F0
:10A4300081B200230820FEF7C6FE641C0A2CE9D373
:10A4400077600023ABA2C4211846FEF7BCFE0023B0
:10A45000A9A2D4211846FEF7B6FE0023A8A2D42153
:10A46000F020FEF7B0FEBDE8F0470020FFF7C5B8CA
:10A4700008B59B480090A02340F2DF126021002025
:10A48000FEF7B8FA08BD10B5FFF701FDFEF7D7FFDC
:10A49000BDE81040ECE770B5FFF7F5FF9A4C6FF0A0
:10A4A0007F45256099486060994E96F8D80030B194
:10A4B0000023984A04211846FEF72FFE06E0954A2D
:10A4C0000023F23A04211846FEF727FE25604FF0DC
:10A4D0005010606096F8D80090B100238EA21A2127
:10A4E0001846FEF71AFE00238DA230212820FEF721
:10A4F00014FE00238DA230218C20FEF70EFE11E009
:10A5000000238CA21A211846FEF707FE00238BA217
:10A5100030212820FEF701FE00238BA230218C2061
:10A52000FEF7FBFD00238AA23021F020FEF7F5FDA7
:10A53000002389A230214FF4AA70FEF7EEFD00231C
:10A5400087A230214FF4DC70FEF7E7FDBDE87040D4
:10A550000020FFF752B808B5614800909A2340F2F6
:10A56000DF125A210020FEF745FA08BD10B5FFF7AB
:10A570008EFCFEF764FFBDE81040ECE72DE9F05FCC
:10A58000FFF7F4FF604D6FF07F442C605F48686018
:10A59000DFF87C8198F8D80038B15E4A0023163283
:10A5A00004211846FEF7B9FD06E05A4A0023DC3ABA
:10A5B00004211846FEF7B1FD2C604FF050176F6074
:10A5C0000024DFF8A0A1DFF818911A26AAF1B40B35
:10A5D000092C29D2E01E032802D2C5F8049000E01D
:10A5E0006F6098F8D80078B104EB84000AEB400261
:10A5F00004EB440000EBC40006EB400081B20023F2
:10A600001846FEF78AFD3DE004EB84000BEB4002A8
:10A6100004EB440000EBC40006EB400081B20023D1
:10A620001846FEF77AFD2DE0A4F10C00032802D2B3
:10A63000C5F8049000E06F6098F8D80088B104EB8A
:10A6400084000AEB4002A4F1090000EB400101EB99
:10A65000C00006EB400081B20023FA20FEF75DFD4A
:10A6600010E004EB84000BEB4002A4F1090000EBC6
:10A67000400101EBC00006EB400081B20023FA204C
:10A68000FEF74BFD641C122CA2D3BDE8F05F002046
:10A69000FFF748BA2DE9F84306461B4C4FF0501817
:10A6A000C4F80480304F31490123D7F8B80300EBD8
:10A6B000C00042181A215820FEF72FFDD7F8C0031A
:10A6C000012300EB400101EBC00029494218302171
:10A6D0005820FEF722FD4DE0434F554E5400000038
:10A6E00034346500385F00102D2D2D2D2D2D0000E8
:10A6F00018390300326E64004155583A00000000DA
:10A700004F55543A0000000014000010F3520300AB
:10A7100060180010244B03004D6F64653A00000080
:10A72000467265715B487A5D000000004C45565BDF
:10A73000565D0000B7BDCABD203A0000C6B5C2CA0A
:10A740005B487A5D00000000B5E7C6BD5B565D0062
:10A7500043705B465D000000445B205D000000002C
:10A76000434D5000DE410300D01B0010B53A0300FA
:10A77000613C0300D7F8C413012301EB410000EB57
:10A78000C100F649421846215820FEF7C6FCF4489D
:10A790004FF4A97990F8D80010B1D7F8180480B315
:10A7A000D7F81804002300EB400101EBC000EB498F
:10A7B000213142181A214846FEF7AFFCD7F8201481
:10A7C000012301EB410000EBC100E649421846219C
:10A7D0004846FEF7A2FCD7F81C14E24D01EB4100FD
:10A7E00000EBC10021354219012330214846FEF714
:10A7F00094FC307801280DD0002068B1FF20606003
:10A800000CE0FFE70023AFF644221A214846FEF78A
:10A8100084FCD3E70120F0E7C4F80480606800906E
:10A820006E234FF4DD725A214846FEF7E3F8D7F85D
:10A830002801012300EB400101EBC00042195C211B
:10A840004846FEF76AFCFEF7FAFD3078012804D08E
:10A85000BDE8F8430020FEF7D0BE6FF07F402060D7
:10A86000C14860600024542604EB440000EBC4009F
:10A87000421904EB840006EB001080B20023F121A2
:10A88000FEF74BFC641C022CEED3BDE8F883F8B550
:10A890000646B64C4FF0501060603078012827D043
:10A8A000002109B1FF20606060684FF4BE7700901E
:10A8B0002A234FF4D7721A213846FEF79BF8AC488A
:10A8C000A84D0123D0F85C13213501EB410000EBCA
:10A8D000C10042191A213846FEF71FFCFEF7AFFDF2
:10A8E0003078012806D0BDE8F8400020FEF785BE8C
:10A8F0000121D6E76FF07F4020609B486060002414
:10A90000542604EB440000EBC400421904EB84001D
:10A9100006EB001080B20023F121FEF7FEFB641C61
:10A92000022CEED3F8BD2DE9F05F0124DFF844924C
:10A930008E4EDFF83C824FF4AD7B4FF0501A33253A
:10A94000E71E042F02D2C6F8049001E0C6F804A066
:10A9500098F87D0400EB800004EB4000401E00EB03
:10A96000800008EB8001D1F82C06421C41D091F800
:10A97000301601230522FEF773FC05EB04110023BA
:10A980007D4AF620FEF71FFC98F87D0400EB80005E
:10A9900004EB4000401E00EB800008EB800101F555
:10A9A0008051D1F89406421C2BD091F898160123BF
:10A9B0000522FEF755FC05EB041100236E4A5846AC
:10A9C000FEF701FC98F87D0400EB800004EB4000EA
:10A9D000404400F5005090F8F306FF2819D008B362
:10A9E00005EB0411002365A24FF4DF70FEF7EBFBCB
:10A9F00020E005EB0411002361A2F620FEF7E3FB43
:10AA0000C2E705EB041100235DA25846FEF7DBFB0D
:10AA1000D8E705EB041100235BA24FF4DF70FEF7CB
:10AA2000D2FB07E005EB0411002358A24FF4DF70BE
:10AA3000FEF7C9FB042F02D2C6F8049001E0C6F865
:10AA400004A098F87D0400EB800004EB4000404433
:10AA500090F87D041E2807D905EB0411002348A2B5
:10AA60002620FEF7B0FB0BE000EB400101EBC0003D
:10AA700047490023421805EB04112620FEF7A3FBEB
:10AA800098F87D0400EB800004EB4000404490F80F
:10AA90004F05022807D905EB0411002338A29220A4
:10AAA000FEF791FB0BE000EB400101EBC0002B49EE
:10AAB0000023421805EB04119220FEF784FB98F85E
:10AAC0007D04012300EB800004EB40000322002101
:10AAD000FEF7C6FB05EB04110023274A0820FEF70A
:10AAE00072FB641CE4B20B2CFFF42AAFBDE8F09FAC
:10AAF0002DE9F84F0446207802280DD002D9A0781D
:10AB0000FEF752FF2078DFF864A04FF0FF094FF006
:10AB10005018012803D004E0FEF758FEF2E7A078B1
:10AB2000D8B1CAF80480DAF8040000902A235E2223
:10AB30001A213620FDF75EFFDFF834B015490023F7
:10AB4000DBF8840300EBC00042181A213620FEF720
:10AB5000E4FA2078022822D024E01DE0C03E030061
:10AB6000601800105340030038003100140000103A
:10AB7000D01B001034346500385F00105000000016
:10AB80002D2D2D2D000000002D000000460000009E
:10AB9000613C0300B53A0300CAF80490C3E7A0780B
:10ABA00000287DD0CAF80480DAF80400009042231F
:10ABB0001E2232210020FDF71DFF0023F8A23221C2
:10ABC0001846FEF7AAFA03262078B04202D1A078F0
:10ABD000022866D0CAF80480DAF804000090B01E9B
:10ABE000432101EB0017332101EB0015BBB2A9B2E1
:10ABF0004FF49972FA20FDF7FDFEE07800EB80003B
:10AC000006EB4000C01E00EB80000BEB8001D1F88A
:10AC10002C06421C7ED091F8301601230522FEF747
:10AC20001FFBA9B20023DF4AFA20FEF7CCFA2078F6
:10AC3000B04202D1A07803286DD0CAF80480DAF8B7
:10AC400004000090BBB2A9B24FF4C1724FF4A570DA
:10AC5000FDF7D0FEE07800EB800006EB4000C01E60
:10AC600000EB80000BEB800101F58051D1F89406D8
:10AC7000421C6ED091F8981601230522FEF7F0FAD7
:10AC8000A9B20023C74A4FF4A570FEF79CFA2078BA
:10AC9000B04202D1A078042864D0CAF8048001E050
:10ACA00044E046E0DAF804000090BBB2A9B240F2FA
:10ACB000DF124FF4D270FDF79DFEE07800EB8000CC
:10ACC00006EB4000584400F5005090F8F106FF28CC
:10ACD0004BD0A9B20023AFF25C124FF4D270FEF752
:10ACE00072FA2078B04201D1A07880B3CAF804800B
:10ACF000DAF804000090BBB2A9B27E222820FDF74A
:10AD000079FEE07800EB800006EB4000584490F8B4
:10AD10007B0401E010E017E0302832D9A9B200230B
:10AD2000AFF2A4122820FEF74EFA35E0CAF80490DC
:10AD30003AE7CAF804904FE7A9B20023AFF2C01275
:10AD4000FA20FEF740FA72E7CAF8049077E715E0B8
:10AD5000FFE7A9B20023AFF2D8124FF4A570FEF7B7
:10AD600032FA94E7CAF8049099E7A9B20023AFF247
:10AD7000F0124FF4D270FEF726FAB2E7CAF8049048
:10AD8000B6E700EB400101EBC00087490023421801
:10AD9000A9B22820FEF717FA2078B04202D1A07895
:10ADA00001281CD0CAF80480DAF804000090BBB275
:10ADB000A9B2C4227E20FDF71DFEE07800EB8000E2
:10ADC00006EB4000584490F84D0502280AD9A9B274
:10ADD0000023AFF254227E20FEF7F5F90DE0CAF809
:10ADE0000490E1E700EB400101EBC0006F49002354
:10ADF0004218A9B27E20FEF7E6F9CAF80480E0788E
:10AE0000012300EB800006EB4000801E032200219E
:10AE1000FEF726FAA9B20023624A0820FEF7D3F90A
:10AE2000761CF6B20D2EFFF4CFAEBDE8F88F2DE9FB
:10AE3000F84304465E4F4FF050157D60207801289E
:10AE400021D000204FF0FF0808B1C7F804807868CF
:10AE500000902A2358221A213020FDF7CBFD5548B7
:10AE6000554E012390F87C041A2100EB80008219D2
:10AE70003020FEF752F92078022806D0002030B1A9
:10AE8000C7F8048004E00120DCE70120F7E77D60DB
:10AE90007868009040231E2230210820FDF7AAFD8B
:10AEA00001233FA230210820FEF737F9FEF7C7FA49
:10AEB0002078424A54256FF07F41012806D00228AD
:10AEC00015D06078BDE8F843FEF797BB39607A602B
:10AED000002404EB8400821905EB001080B20023EB
:10AEE000F121FEF71AF9641C022CF2D3CDE439608B
:10AEF0007A600024324E96F8D80078B12E49C4EB1F
:10AF0000C40018314218E01C00EB800005EB001073
:10AF100080B20023F121FEF700F90EE02649C4EBD0
:10AF2000C4000A314218E01C00EB800005EB001061
:10AF300080B20023F121FEF7F0F8641C022CDAD372
:10AF4000A3E42DE9F84F0446207801280AD0002018
:10AF5000DFF85C804FF0FF094FF0501B20B1C8F8BC
:10AF6000049003E00120F3E7C8F804B0D8F8040027
:10AF700000902C23C02218215820FDF73BFD104FD4
:10AF8000104D97F8D800A5F10E06E8B138780023E7
:10AF9000C0EBC00042191A215820FEF7BEF81CE091
:10AFA0004E6F2E00385F0010613C0300C03E03006E
:10AFB00014000010D01B00108A400300380031003C
:10AFC000601800100D3A030038780023C0EBC00071
:10AFD00082191A215820FEF7A0F82078022804D000
:10AFE000002020B1C8F8049003E00120F9E7C8F878
:10AFF00004B097F8681000230522786EFEF730F948
:10B000000023F74A30215820FEF787F8F86E30B158
:10B010000023F4A230219220FEF77FF805E0002300
:10B02000F1A230219220FEF778F82078032804D08E
:10B03000002020B1C8F8049003E00120F9E7C8F827
:10B0400004B0397B00230522B868FEF709F9002314
:10B05000E34A46215820FEF760F8386930B10023F2
:10B06000E0A246219220FEF758F805E00023DEA278
:10B0700046219220FEF751F82078042804D00020C1
:10B0800020B1C8F8049003E00120F9E7C8F804B043
:10B09000D8F804004FF4A97A00902C234FF4DD7205
:10B0A00018215046FDF7A6FC97F8D80010B197F884
:10B0B0004000A0B197F84000002300EB400101EBF5
:10B0C000C000CA4942181A215046FEF726F82078D7
:10B0D00005280BD0002058B1C8F804900AE00023DE
:10B0E000C34A1A215046FEF718F8F0E70120F2E7AC
:10B0F000C8F804B097F8A01000230622D7F89C00E7
:10B10000FEF7AEF80023B64A30215046FEF705F8A8
:10B110000023B8A230214FF4CD70FDF7FEFF207858
:10B12000062804D0002020B1C8F8049003E00120D4
:10B13000F9E7C8F804B097F82C1000230622B86A83
:10B14000FEF78EF80023A64A46215046FDF7E5FF9C
:10B150000023A8A246214FF4CD70FDF7DEFFFEF7D5
:10B160006EF92078D8B101282DD16FF07F40C8F852
:10B170000000A148C8F8040000244FF0540897F8D4
:10B18000D80088B1C4EBC400421904EB840008EB7A
:10B19000001080B20023F121FDF7BFFF10E0BDE8F1
:10B1A000F84F0020FEF729BAC4EBC400821904EB63
:10B1B000840008EB001080B20023F121FDF7ADFF01
:10B1C000641C022CDBD330E62DE9F84F04462078CE
:10B1D000012809D00020DFF82492FF254FF05016F7
:10B1E00020B1C9F8045003E00120F4E7C9F8046075
:10B1F000D9F8040000902C23C02218215820FDF714
:10B20000F9FBDFF8FCB19BF8D80058B19BF80000BF
:10B210000023C0EBC0017B480A181A215820FDF713
:10B220007CFF0BE09BF800000023C0EBC0017548D9
:10B230000E380A181A215820FDF76FFF20780228CF
:10B2400004D0002020B1C9F8045003E00120F9E740
:10B25000C9F80460D9F8040000904223C0222E21CE
:10B260005820FDF7C7FB9BF8D80060B19BF80100A0
:10B270000023C0EBC001634831300A183021582048
:10B28000FDF74BFF0BE09BF801000023C0EBC00172
:10B290005C481C300A1830215820FDF73EFF20780A
:10B2A000032804D0002020B1C9F8045003E0012095
:10B2B000F9E7C9F80460D9F8040000906E23C022B1
:10B2C00044215820FDF796FB9BF8D80060B19BF80D
:10B2D000B5000023C0EBC0014A4893300A1846214C
:10B2E0005820FDF71AFF0BE09BF8B5000023C0EBD8
:10B2F000C00144487E300A1846215820FDF70DFF52
:10B300002078042806D00020DFF8FCA020B1C9F87E
:10B31000045003E00120F7E7C9F804A0D9F80400BD
:10B3200000906E23C0225A215820FDF763FB354F51
:10B330009BF8D8007037A7F12A0850B19BF802009B
:10B340000023C0EBC000C2195C215820FDF7E5FEC8
:10B350000AE09BF802000023C0EBC00000EB0802EB
:10B360005C215820FDF7D9FE2078052804D0002064
:10B3700020B1C9F8045003E00120F9E7C9F804A09E
:10B380009BF80C1000230522DBF80800FDF768FF8E
:10B39000D9F8040000908423C02270215820FDF7C2
:10B3A00029FB00230E4A72215820FDF7B6FEDBF878
:10B3B000100030B100230BA272219220FDF7ADFEE8
:10B3C00005E0002308A272219220FDF7A6FE207856
:10B3D00006281BD00020D8B1C9F804501AE000009C
:10B3E000385F001020A6B8006DA6B800E13E03004B
:10B3F000C49D0100205600003800310014000010E8
:10B40000601800100D3A0300343465000120E2E7B3
:10B41000C9F80460D9F804000090B023C0229C2130
:10B420005820FDF7E7FA9BF8D80050B19BF82000B0
:10B430000023C0EBC000C2199E215820FDF76DFE0D
:10B440000AE09BF820000023C0EBC00000EB0802DC
:10B450009E215820FDF761FE2078072804D00020A7
:10B4600020B1C9F8045003E00120F9E7C9F80460ED
:10B470009BF82C1000230622DBF82800FDF7F0FED5
:10B48000D9F804000090C623C022B2215820FDF74D
:10B49000B1FA0023F94AB4215820FDF73EFE0023FB
:10B4A000AFF2B002B421A020FDF737FE20780828C3
:10B4B00004D0002020B1C9F8045003E00120F9E7CE
:10B4C000C9F80460D9F8040000902C234FF4DD7211
:10B4D00018214FF4A970FDF78DFA9BF8D80010B130
:10B4E0009BF84000A8B19BF84000002300EB40010E
:10B4F00001EBC000E24942181A214FF4A970FDF790
:10B500000CFE207809280CD0002060B1C9F8045046
:10B510000BE00023DB4A1A214FF4A970FDF7FDFD73
:10B52000EFE70120F1E7C9F80460D9F804000090C2
:10B5300042234FF4DD722E214FF4A970FDF75AFA21
:10B540009BF8D80070B19BF84100002300EB40014C
:10B55000CB48A13800EB810230214FF4A970FDF7F0
:10B56000DCFD0CE09BF841000023C0EBC001C448A7
:10B57000BD380A1830214FF4A970FDF7CEFD2078B0
:10B580000A2804D0002020B1C9F8045003E00120AB
:10B59000F9E7C9F80460D9F80400009058234FF483
:10B5A000DD7244214FF4A970FDF724FA9BF8D8000E
:10B5B00010B19BF8B600B0B19BF8B600002300EBC9
:10B5C000400101EBC000AE495831421846214FF40A
:10B5D000A970FDF7A2FD20780B280CD0002060B1E7
:10B5E000C9F804500BE00023A64A46214FF4A97085
:10B5F000FDF793FDEFE70120F1E7C9F804A09BF800
:10B600004C1000230522DBF84800FDF729FED9F88D
:10B61000040000906E234FF4DD725A214FF4A9709C
:10B62000FDF7E8F90023954A5C214FF4A970FDF776
:10B6300074FDDBF8500040B10023AFF258225C21CA
:10B640004FF4C670FDF769FD07E00023AFF26822F2
:10B650005C214FF4C670FDF760FD20780C2804D003
:10B66000002020B1C9F8045003E00120F9E7C9F82F
:10B6700004A09BF8681000230522DBF86400FDF7A6
:10B68000EFFDD9F804004FF4A97A009084234FF419
:10B69000DD7270215046FDF7ADF90023774A722123
:10B6A0005046FDF73AFDDBF86C0040B10023AFF2E5
:10B6B000CC2272214FF4C670FDF72FFD07E0002366
:10B6C000AFF2DC2272214FF4C670FDF726FD207820
:10B6D0000D2804D0002020B1C9F8045003E0012057
:10B6E000F9E7C9F804609BF8841000230622DBF810
:10B6F0008000FDF7B5FDD9F804000090B0234FF4A9
:10B70000DD729C215046FDF775F900235B4A9E21AE
:10B710005046FDF702FD0023AFF228329E214FF480
:10B72000CD70FDF7FAFC20780E2804D0002020B15F
:10B73000C9F8045003E00120F9E7C9F804609BF858
:10B74000A01000230622DBF89C00FDF789FDD9F844
:10B7500004000090C6234FF4DD72B2215046FDF77D
:10B7600049F90023454AB4215046FDF7D6FC002391
:10B77000AFF28032B4214FF4CD70FDF7CEFCFDF76F
:10B780005EFE227840495425404E6FF07F400B2AE0
:10B7900033D2DFE802F0060B335C9032B632DCFDC8
:10B7A000F400BDE8F84F0020FEF7BCB9C9F800006E
:10B7B000C9F8041000249BF8D80068B13448C4EBE1
:10B7C000C4010A1804EB840005EB001080B20023CA
:10B7D000F121FDF7A2FC0DE02D48C4EBC4010E38A9
:10B7E0000A1804EB840005EB001080B20023F1215D
:10B7F000FDF793FC641C022CDDD3E4E4C9F80000DF
:10B80000C9F8041000249BF8D80070B12048C4EB9C
:10B81000C40131300A1804EB840005EB001080B23B
:10B820000023F121FDF779FC0DE01948C4EBC401B8
:10B830001C300A1804EB840005EB001080B20023D2
:10B84000F121FDF76AFC641C032CDCD3BBE4C9F8CE
:10B850000000C9F8041000249BF8D800D0B10C48AF
:10B86000C4EBC40193300A1804EB840005EB00100C
:10B8700080B20023F121FDF750FC18E0385F001082
:10B88000E13E0300C49D0100380031002B4003005D
:10B890000D3A0300FF48C4EBC4010A1804EB84000E
:10B8A00005EB001080B20023F121FDF736FC641C8B
:10B8B000032CD1D387E4C9F80000C9F80410002490
:10B8C0009BF8D80060B1C4EBC400C21904EB84003B
:10B8D00005EB001080B20023F121FDF71EFC0CE007
:10B8E000C4EBC40000EB080204EB840005EB00107D
:10B8F00080B20023F121FDF710FC641C022CDFD381
:10B9000061E4C9F80000C9F8041000249BF8D800CD
:10B9100060B1C4EBC400C21904EB840005EB001055
:10B9200080B20023F121FDF7F8FB0CE0C4EBC4006A
:10B9300000EB080204EB840005EB001080B200234A
:10B94000F121FDF7EAFB641C022CDFD33BE4C9F8CC
:10B950000000C9F8041000249BF8D80000B184B19D
:10B9600004EB840005EB001006EBC40280B2002358
:10B97000F121FDF7D2FB641C032CEDD323E456E048
:10B9800006E028460023C44AF121FDF7C6FBF2E792
:10B99000C9F80000C9F8041000249BF8B40001287D
:10B9A00011D09BF8D80080B3BC4904EB440001EBF4
:10B9B000800204EB840005EB001080B20023F1212B
:10B9C000FDF7ABFB2FE09BF8D80078B1B34804EB50
:10B9D0004401503800EB810204EB840005EB0010B9
:10B9E00080B20023F121FDF798FB1CE0AB48C4EBCB
:10B9F000C4016C380A1804EB840005EB001080B217
:10BA00000023F121FDF789FB0DE0FFE7A3480023A8
:10BA1000203800EBC40204EB840005EB001080B278
:10BA2000F121FDF77AFB641C042CB6D3E5E6C9F8D6
:10BA30000000C9F8041000249BF8D80000B174B1CC
:10BA400004EB840005EB001006EBC40280B2002377
:10BA5000F121FDF762FB641C032CEDD3CDE62846F3
:10BA600000238D4AF121FDF758FBF4E70B46114600
:10BA70008B4A00EB4000024498B289B20123FDF7E3
:10BA8000A2BB2DE9F84F0546DFF818A24FF0501879
:10BA9000CAF80480DFF810B24FF4B474DBF8200168
:10BAA000002815D0002381A241212046FDF78BFB01
:10BAB00000237EA24121C820FDF785FB28780128BC
:10BAC00013D000204FF0FF0988B1CAF8049010E0AD
:10BAD00041222146DBF8B803FFF7C8FF4122C82105
:10BAE000DBF8B803FFF7C2FFE8E70120EAE7CAF88E
:10BAF0000480DAF8040000902C23702218214620DC
:10BB0000FCF778FFDBF8B803624900EBC0002A318C
:10BB1000421801231A214620FDF7FFFA287802284F
:10BB200004D0002020B1CAF8049003E00120F9E716
:10BB3000CAF804809BF80C1100230522DBF80801E9
:10BB4000FDF78EFBDAF8040000902A234FF492727E
:10BB50001A21E220FCF74EFF0123554A1A21E22068
:10BB6000FDF7DBFADBF81001012300EB40014C4844
:10BB70002D380A181A214FF48E70FDF7CEFA287866
:10BB8000032804D0002020B1CAF8049003E001206B
:10BB9000F9E7CAF80480DAF8040018210C010090D3
:10BBA0002C234FF4E2722046FCF724FF4148DBF8D7
:10BBB0002011012300EB81021A212046FDF7ADFA86
:10BBC0002878042804D0002020B1CAF8049003E0AB
:10BBD0000120F9E7CAF80480DAF804000090422353
:10BBE00070222E214620FCF705FFDBF80001324CC5
:10BBF00000EB80000219002330214620FDF78DFA6A
:10BC00002878052804D0002020B1CAF8049003E069
:10BC10000120F9E7CAF80480DAF804000090422312
:10BC20004FF4AB722E21FA20FCF7E4FEDBF828017A
:10BC3000012300EB800120480A183021FA20FDF78B
:10BC40006CFA06242878A04202D1CAF8049009E0D0
:10BC5000A4F10900042803D21848CAF8040001E03E
:10BC6000CAF80480DAF80400A71FC7EB0716009093
:10BC700006F15B0083B24C36B1B2DC229820FCF7AF
:10BC8000B9FEC7EBC7000BEBC007D7F83001C0B354
:10BC900016E000008B3A0300C49D0100903E0300B3
:10BCA000F24D030014000010D01B0010250000000E
:10BCB000385F001010390300B040030034346500D1
:10BCC00097F8341100230522FDF7CAFAB1B2012317
:10BCD000FBA29820FDF777FAB1B20123F94AA02020
:10BCE000FDF771FADBF8200190B9D7F8380101238C
:10BCF00000EB4001F4480A18B1B2D020FDF763FA16
:10BD000006E0FFE7B1B20123F04AA020FDF75BFA9D
:10BD1000641C102C96D310242878A04202D1CAF8B3
:10BD2000049009E0A4F11300042803D2E848CAF8FB
:10BD3000040001E0CAF80480DAF804000090A4F1DD
:10BD400010000746C0EB001606F15F0083B24C36C8
:10BD5000B1B24FF4BE724FF4A070FCF74BFEC7EBCC
:10BD6000C7000BEBC007D7F84C01E0B197F85011B2
:10BD700000230522FDF774FAB1B20023D14A4FF433
:10BD8000A070FDF720FADBF8200198B9D7F854012C
:10BD9000012300EB4001CC480A18B1B24FF4B8704F
:10BDA000FDF711FA06E0B1B20123C84A4FF4A070C2
:10BDB000FDF709FA641C1A2CAED3FDF740FB2A7874
:10BDC000C44954266FF07F40062A46D2DFE802F0CD
:10BDD000031C1C081D316878BDE8F84FFDF7A2BEB2
:10BDE000CAF80000CAF804100024BB4D04EB84001C
:10BDF00006EB001005EB840280B20023F121FDF771
:10BE00008CF9641C022CF1D3F7E4CAF80000CAF8DC
:10BE100004100024B14D04EB8400421906EB00101D
:10BE200080B20023F121FDF778F9641C022CF2D3D3
:10BE3000E3E4CAF80000CAF804100024A74D04EB9C
:10BE40008400421906EB001080B20023F121FDF7B7
:10BE500064F9641C022CF2D3CFE4A1484FF4CA74F5
:10BE600090F8D810A1B100239E4AF1215420FDF78B
:10BE700054F900239CA2E7212046FDF74EF901B0BA
:10BE80002046BDE8F04F0023984AFB21FDF745B955
:10BE9000002397A2F1215420FDF73FF9934A002394
:10BEA0001832E7212046FDF738F901B02046BDE8F9
:10BEB000F04F8E4A00232032FB21FDF72EB970B5DA
:10BEC0000446207800282AD01A264FF4A0750528A9
:10BED00012D908460EF0C0FD08F0B1FF207801230A
:10BEE00000EB400101EBC00006EB40012846BDE835
:10BEF0007040744AFDF711B910460EF0ADFD04F024
:10BF00006BFB2078012300EB400101EBC00006EB46
:10BF100040012846BDE870406A4AFDF7FEB870BD92
:10BF20002DE9F84F0546DFF8D0814FF05017C8F8DB
:10BF300004706878DFF8A8A11A214FF0FF094FF0CC
:10BF4000160B002802D0012839D072E0002429788D
:10BF5000601C814202D1C8F8049001E0C8F8047066
:10BF6000D8F80410009100EB400101EBC0000BEB8E
:10BF7000400083B204EB440000EBC406182000EB41
:10BF8000460081B2A6225820FCF734FDC4EBC40061
:10BF90000AEB8000002390F80C11D0F8080106226B
:10BFA000FDF75EF91A2000EB460081B20023454AF6
:10BFB0005820FDF7B2F8641C072CC8D339E00024E0
:10BFC0008B462978601C814202D1C8F8049001E0B8
:10BFD000C8F80470D8F80410009100EB400101EBA0
:10BFE000C001162000EB410083B204EB440000EBDB
:10BFF000C406182000EB460081B29E225820FCF7B0
:10C00000F9FCE01DC0EBC0000AEB8000002390F8B3
:10C010000C11D0F808010622FDF722F90BEB4600BF
:10C0200081B20023274A5820FDF777F8641C062CBC
:10C03000C7D3C8F804706FF07F40C8F800009AF8C2
:10C04000A0022E4900EB400001EB40020023042136
:10C050004FF49670FDF761F8002329A2F1215420D6
:10C06000FDF75BF8002328A2F121A420FDF755F885
:10C070001E4A0023383AF121F420FDF74EF8002340
:10C0800023A2F1214FF4A270FDF747F801B000237D
:10C09000BDE8F04F20A2F1214FF4CA70FDF73DB882
:10C0A0002DE9F84F0446207801283AD00020DFF827
:10C0B0004890FF254FF0501690B3C9F8045034E073
:10C0C0002D000000385F0010C54D0300E8A60100F8
:10C0D000343465003800310010390300B0400300EB
:10C0E00060180010B89D010044656C00689901005B
:10C0F000C7E5B3FDD0D00000140000109242030049
:10C10000B5E7D7E800000000B5E7D1B900000000AE
:10C11000B0E6B1BE00000000D0A3D5FD00000000D5
:10C1200001E00120C3E7C9F80460D9F804000090D9
:10C130002C23C0221A215A20FCF75CFCDFF820A433
:10C14000DFF820B49AF8D80058B19AF8D400002348
:10C15000C0EBC00000EB0B021C215A20FCF7DDFFF6
:10C160000BE09AF8D4000023C0EBC001FD480E3864
:10C170000A181C215A20FCF7D0FF2078022804D08E
:10C18000002020B1C9F8045003E00120F9E7C9F804
:10C190000460D9F8040000904223C02230215A20C4
:10C1A000FCF728FCEF499AF84000EF4F543948B3A8
:10C1B000401EC0EBC0000AEB8000002390F8AC02E8
:10C1C000C0EBC000421830215A20FCF7A6FF9AF8B5
:10C1D00040000023401EC0EBC0000AEB8000052297
:10C1E00090F8B412D0F8B002FDF73AF89AF840008F
:10C1F00004283AD20023AFF610623021A220FCF7C7
:10C200008CFF39E017F8700F0023401EC0EBC00010
:10C210000AEB800090F8AC02C0EBC000421830215D
:10C220005A20FCF77AFF38780023401EC0EBC0008C
:10C230000AEB8000052290F8B412D0F8B002FDF7A6
:10C240000FF817F87009042807D20023AFF66862C8
:10C250003021A220FCF761FF0EE00023AFF67C62E4
:10C260003021A220FCF759FF06E00023AFF68C62D4
:10C270003021A220FCF751FF0023BC4A302162206C
:10C28000FCF74BFFC9F804609AF84000B84988B140
:10C2900000EB400202EBC000421800233021CA200C
:10C2A000FCF73BFF2078032811D0002088B1C9F8A3
:10C2B000045010E097F87000002300EB400202EBFE
:10C2C000C00042183021CA20FCF727FFEAE701200E
:10C2D000ECE7C9F80460D9F8040000905823C022A4
:10C2E00046215A20FCF786FB9E4F9AF8D8000E375D
:10C2F000A7F12A0850B19AF8D6000023C0EBC0007D
:10C30000C21948215A20FCF708FF0AE09AF8D60023
:10C310000023C0EBC00000EB080248215A20FCF7C4
:10C32000FCFE2078042804D0002020B1C9F8045075
:10C3300003E00120F9E7C9F80460D9F8040000908F
:10C340006E23C0225C215A20FCF754FB9AF8D800D7
:10C3500050B19AF8A8020023C0EBC000C2195E21B8
:10C360005A20FCF7DAFE0AE09AF8A8020023C0EB94
:10C37000C00000EB08025E215A20FCF7CEFE2078B8
:10C38000052804D0002020B1C9F8045003E00120A2
:10C39000F9E7C9F80460D9F8040000908423C022AA
:10C3A00072215A20FCF726FB9AF8D8107148002316
:10C3B00000EBC10274215A20FCF7AFFE207806285A
:10C3C00004D0002020B1C9F8045003E00120F9E7AF
:10C3D000C9F80460D9F8040000909A236C228821DF
:10C3E0005A20FCF707FB644801230222C0690021A0
:10C3F000FCF736FF00235D4A8A215A20FCF78DFEA8
:10C40000C9F804600023AFF248328A216E20FCF79D
:10C4100084FE2078072804D0002020B1C9F80450F9
:10C4200003E00120F9E7C9F80460D9F8040000909E
:10C430009A238A2288217820FCF7DCFA4E480123CF
:10C44000022280690021FCF70BFF0023474A8A2162
:10C450007820FCF762FEC9F804600023AFF2A03236
:10C460008A218C20FCF759FE2078082804D000206F
:10C4700020B1C9F8045003E00120F9E7C9F80460CD
:10C48000D9F8040000909A23AA2288219820FCF76A
:10C49000B1FA394801230222C0680021FCF7E0FE0E
:10C4A0003249002088700A4600238A219820FCF730
:10C4B00034FE2078092804D0002020B1C9F80450A7
:10C4C00003E00120F9E7C9F80460D9F804000090FE
:10C4D000B0236C229E215A20FCF78CFA26480123B7
:10C4E000022280680021FCF7BBFE00231F4AA02126
:10C4F0005A20FCF712FEC9F8046000231FA2A021F5
:10C500006E20FCF70AFE20780A2804D0002020B113
:10C51000C9F8045003E00120F9E7C9F80460D9F82C
:10C5200004000090B0238A229E217820FCF762FA52
:10C5300011480123022240680021FCF791FE0023EC
:10C540000A4AA0217820FCF7E8FDC9F8046000231E
:10C550000AA2A0218C20FCF7E0FD20780B280FE038
:10C56000601800106F3A0300385D0010385F00104B
:10C57000A73F0300564D0300E85E00103A0000009C
:10C5800004D0002020B1C9F8045003E00120F9E7ED
:10C59000C9F80460D9F804000090B023AA229E21B3
:10C5A0009820FCF727FAFE480123022200680021A8
:10C5B000FCF756FEFB49002088700A460023A021A4
:10C5C0009820FCF7AAFD20780C2804D0002020B188
:10C5D000C9F8045003E00120F9E7C9F80460D9F86C
:10C5E00004000090C623C022B4215A20FCF702FAAE
:10C5F0000023ED4AB6215A20FCF78FFDFCF71FFF00
:10C600006FF07F40C9F80000E848C9F804002078BE
:10C6100054250C282DD2DFE800F0060A2E40628453
:10C62000969696969696BDE8F84FFDF76BBB00245C
:10C630009AF8D80068B1C4EBC40000EB0B0204EB1D
:10C64000840005EB001080B20023F121FCF765FDAA
:10C650000CE0D748C4EBC4010A1804EB840005EBD6
:10C66000001080B20023F121FCF757FD641C022C5E
:10C67000DED3BDE8F88F0024CE4EC4EBC40082198F
:10C6800004EB840005EB001080B20023F121FCF7DD
:10C6900044FD641C052CF0D3EBE700249AF8D80085
:10C6A00060B1C4EBC400C21904EB840005EB0010B8
:10C6B00080B20023F121FCF730FD0CE0C4EBC40094
:10C6C00000EB080204EB840005EB001080B20023AD
:10C6D000F121FCF722FD641C022CDFD3C9E7002402
:10C6E0009AF8D80060B1C4EBC400C21904EB84000E
:10C6F00005EB001080B20023F121FCF70EFD0CE0E9
:10C70000C4EBC40000EB080204EB840005EB00104E
:10C7100080B20023F121FCF700FD641C022CDFD362
:10C72000A7E70024A34E103E04EB840005EB0010A5
:10C7300006EBC40280B20023F121FCF7EEFC641C7E
:10C74000022CF1D395E700249B4E04EB840005EB0B
:10C75000001006EBC40280B20023F121FCF7DDFCDF
:10C76000641C022CF1D384E7FDF791BBF8B50646B3
:10C77000FFF7FAFF914C6FF07F47276090486060A9
:10C78000894DD93D95F8D80030B100238D4A042158
:10C790001846FCF7C2FC06E08A4A0023F23A04215C
:10C7A0001846FCF7BAFC27604FF05010606000900C
:10C7B000B423B0221A210020FCF71CF9012495F8BB
:10C7C000D80090B17F4904EB840000EBC400D53160
:10C7D0004218611E01EB8100C82101EB401080B2BC
:10C7E00000231A21FCF799FC11E0764904EB840040
:10C7F00000EBC400AE314218611E01EB8100B02194
:10C8000001EB401080B200231A21FCF786FC641C67
:10C81000032CD4D370781A25A0B1012811D100249B
:10C82000654EDE3E04EB440000EBC400821905EBCC
:10C83000400081B200231846FCF76FFC641C062CF4
:10C84000F0D3F8BD0124604E04EB440000EBC400BB
:10C850008219601E00EB400101EBC00005EB4000B7
:10C8600081B200231846FCF758FC641C082CEBD35B
:10C87000F8BD08B555480090B62340F2DF127A2182
:10C880000020FCF7B7F808BD10B5FDF700FBFCF77A
:10C89000D6FDBDE81040ECE72DE9F047FFF7F4FFC7
:10C8A000DFF818816FF07F44C8F800404448C8F8AA
:10C8B00004003D4ED93E96F8D80038B1414A0023D5
:10C8C000163204211846FCF728FC06E03D4A0023F6
:10C8D000DC3A04211846FCF720FCC8F800404FF071
:10C8E0005019C8F804900024364F4FF6FF75FC37F6
:10C8F00007F1300A032C18D296F8D80050B104EB97
:10C9000084000AEBC40205EA401000231A21FCF758
:10C9100004FC24E004EB840007EBC40205EA4010A9
:10C9200000231A21FCF7F9FB19E096F8D80058B15A
:10C93000E01E00EB800007EBC40205EA4010002374
:10C940003021FCF7EAFB0AE0E01E00EB80000AEB76
:10C95000C40205EA401000233021FCF7DEFB641C12
:10C96000062CC7D30024134E184DBA3E201F0428AE
:10C9700002D2C8F8045001E0C8F80490C4EB0410D7
:10C98000413081B2002306EB84021846FCF71BFC01
:10C99000641C0B2CEAD3002341210DA2A02019E036
:10C9A000E85E0010385F00103919001038003100BF
:10C9B000613A0300664D0300434003001400001079
:10C9C000F3520300504B0300E13E03003434650092
:10C9D0004C4F5700FCF7F7FB0023F7A241214FF41F
:10C9E000A070FCF7F0FBF6481A224FF49371D0F8D0
:10C9F000B803FDF7B4FBBDE8F0470020FDF792B89F
:10CA000008B5F0480090B62340F2DF127A210020EA
:10CA1000FBF7F0FF08BD10B5FDF739FABDE810408F
:10CA2000FCF70DBD70B5FFF7F6FFE74C6FF07F46E2
:10CA30002660E6486060E64D95F8D80030B10023E6
:10CA4000E44A04211846FCF768FB06E0E14A0023AB
:10CA5000F23A04211846FCF760FB26604FF05010B4
:10CA600060600023DC4A1A211846FCF756FB0124BB
:10CA700095F8D80070B1D84904EBC4003F31421892
:10CA8000601E4D2148431E3080B200233021FCF748
:10CA900044FB0CE0D04904EBC4004218601E4D2159
:10CAA00048431E3080B200233021FCF736FB641C63
:10CAB000072CDDD3BDE870400020FDF733B8F8B592
:10CAC00000246FF07F461825601C00EB400101EB4D
:10CAD000C00005EB400083B281B2BE225A2000960E
:10CAE000FBF7C9FF641C072CEED3F8BD10B5FDF7AA
:10CAF000CEF9BDE81040FCF7A2BC70B5FFF7F6FF19
:10CB0000B14C6FF07F452560B0486060B04E96F83C
:10CB1000D80038B1AF4A0023423204211846FCF74E
:10CB2000FCFA06E0AB4A0023B03A04211846FCF7B1
:10CB3000F4FA25604FF05010606096F803011A2552
:10CB400001281DD0002496F8D800B8B396F8A002AA
:10CB5000A249C0EBC00000EB400001EB8001C4EB38
:10CB6000C40000EB40000A1804EB440000EBC400D2
:10CB700005EB400081B200231846FCF7CEFA54E0E2
:10CB8000002496F8D800D0B196F8A0029449C0EBE2
:10CB9000C00000EB400001EB8001C4EBC40000EBDF
:10CBA00040000A1804EB440000EBC40005EB400011
:10CBB00081B200231846FCF7B0FA19E01CE096F8A1
:10CBC000A0028849C0EBC00000EB400001EB8001EF
:10CBD000C4EBC40000EB40000A1804EB440000EB77
:10CBE000C40005EB400081B200231846FCF795FA1B
:10CBF000641C042CC5D31BE096F8A0027A49C0EB54
:10CC0000C00000EB400001EB8001C4EBC40000EB6E
:10CC100040000A1804EB440000EBC40005EB4000A0
:10CC200081B200231846FCF778FA641C042C8AD3DE
:10CC3000674A0023F9325C215A20FCF76EFABDE8FE
:10CC40007040FDF75FB870B5FFF750FF5E4C6FF0B6
:10CC50007F4525605D4860605D4E96F8D80038B12C
:10CC60005C4A0023163204211846FCF756FA06E007
:10CC7000584A0023DC3A04211846FCF74EFA256096
:10CC80004FF05010606000241A2596F8D80068B163
:10CC900004EB4400554900EBC400421805EB40008A
:10CCA00081B200231846FCF738FA0DE04F4904EB37
:10CCB000440000EBC4005839421805EB400081B233
:10CCC00000231846FCF729FA641C082CDDD3FFF773
:10CCD000F6FEBDE87040FDF715B82DE9F05F80461F
:10CCE0000C4642F20F716068884205D90A21B0FBF8
:10CCF000F1F060600420A060A068C0F10405A560A8
:10CD000060680DF086FE8146394FE06810B1012859
:10CD100006D00FE0394648460DF083FC814609E015
:10CD200048460DF0DFFE0022324B0DF091FD0DF074
:10CD30001DFF814628460DF082FE02460B4600206C
:10CD40002D490EF0A5FF05460E4648460DF0CAFED9
:10CD50002A4633460DF0EEFD0DF008FF0546274844
:10CD600001264FF0020A854207DD054640F6B8303D
:10CD70006060C4F808A0E66079E021482149854256
:10CD800009DB28460DF07FFC0DF07FFE6060C4F8E3
:10CD900008A0E6606BE01C484FF0030B854235DBD2
:10CDA000394628460DF06FFC0DF06FFE6060C4F848
:10CDB00008B0E6605BE0000048494748000000001A
:10CDC000D01B00103434650014000010F35203002F
:10CDD000601800107C4B0300D84C03009C470300F4
:10CDE00054440300B0420300F8450300984903008F
:10CDF00000007A4480842E4100002440C0E1E44BCE
:10CE00008096184B00401C4600247449FA484FF0A5
:10CE1000000985420ADBF94928460DF034FC0DF083
:10CE200034FE6060A660C4F80C9020E08D420BDBFD
:10CE3000F34928460DF027FC0DF027FE6060C4F88A
:10CE400008A0C4F80C9012E0BD4208DB28460DF0A3
:10CE50001CFE6060C4F808B0C4F80C9007E02846D7
:10CE60000DF013FE6060C4F808B0C4F80C902846BA
:10CE70000DF00BFEA06121464046BDE8F05F1C228C
:10CE80000DF030BB808800B27047F0B4D1E90227C2
:10CE900064260A25DB4B4FF47A74002F06D0062A4D
:10CEA00053D2DFE802F0232D54333F48052A4ED2F7
:10CEB000DFE802F0034D0D1217004A689A4203D9C9
:10CEC0004B6000220A6142E001220A613FE04A68A9
:10CED000B2FBF4F24A603AE04A68B2FBF6F24A600A
:10CEE00035E04A68B2FBF5F24A6030E04A689A429F
:10CEF00001D94B602BE04FF47A735A434A6026E025
:10CF00004A680AB3B2FBF5F24A6020E04B6842F28D
:10CF10001072934200D94A604A6802EB82025200C2
:10CF20004A6014E04A68A24200D94C604A6864230F
:10CF30005A434A600BE04A68642A00D94E604A6846
:10CF40004FF47A735A434A6001E0AF4A4A60F0BC3A
:10CF50001C220DF0C7BA2DE9F04780460C4642F27C
:10CF60000F7160680A27884204D9B0FBF7F060604F
:10CF70000420A060D4F804904FF47A7009FB00F903
:10CF8000A068C0F104000DF05AFD02460B460020D7
:10CF90009E490EF07DFE05460E4648460DF04FFDBB
:10CFA0002A4633460DF0C6FC0DF083FD4EF6602197
:10CFB000884200D9084642F21071884205D3022106
:10CFC000A160B0FBF7F1616002E00321A160606045
:10CFD000A06121464046BDE8F0471C220DF082BA10
:10CFE00070B505460C460020E060A0680DF011FD0C
:10CFF0000DF078FD02460B46002084490EF048FEF5
:10D000000DF057FD6168B1FBF0F0642801D90220F2
:10D01000A06021462846BDE870401C220DF062BA8F
:10D0200008B57B480090372328225C213C20FBF781
:10D03000DAFE78480090372328225C216420FBF731
:10D04000D2FE754800903723282293213C20FBF71D
:10D05000CAFE724800903723282293216420FBF7F0
:10D06000C2FE08BD08B56A480090372328225C211B
:10D070003C20FBF7B8FE67480090372328225C214C
:10D080006420FBF7B0FE66480090372328229321E6
:10D090003C20FBF7A8FE614800903723282293210B
:10D0A0006420FBF7A0FE08BD08B55948009037235F
:10D0B00028225C213C20FBF796FE5648009037233F
:10D0C00028225C216420FBF78EFE5648009037230F
:10D0D000282293213C20FBF786FE504800903723FE
:10D0E000282293216420FBF77EFE08BD38B548480E
:10D0F0000090372328225C213C20FBF774FE454C2E
:10D10000372328225C2164200094FBF76CFE4648FC
:10D1100000903723282293213C20FBF764FE37231D
:10D120002822932164200094FBF75DFE38BD38B5BA
:10D1300037480090372328225C213C20FBF753FE20
:10D140003A4C372328225C2164200094FBF74BFEE5
:10D15000354800903723282293213C20FBF743FEDB
:10D1600037232822932164200094FBF73CFE38BD2E
:10D1700008B527480090372328225C213C20FBF784
:10D1800032FE2A480090372328225C216420FBF7D6
:10D190002AFE214800903723282293213C20FBF7C8
:10D1A00022FE1E4800903723282293216420FBF79B
:10D1B0001AFE08BD08B516480090372328225C21C6
:10D1C0003C20FBF710FE19480090372328225C21F1
:10D1D0006420FBF708FE1248009037232822932191
:10D1E0003C20FBF700FE0D480090372328229321B6
:10D1F0006420FBF7F8FD08BD0050C3470000C8429B
:10D2000000002041A086010040420F0000002440A1
:10D21000A00C0300B80D0300E8220300F231030064
:10D22000FB230300C2200300AF1F0300761C030092
:10D2300008B5FD480090372328225C213C20FBF7ED
:10D24000D2FDFA480090372328225C216420FBF7A6
:10D25000CAFDF74800903723282293213C20FBF792
:10D26000C2FDF44800903723282293216420FBF765
:10D27000BAFDC0E738B5EC480090372328225C217E
:10D280003C20FBF7B0FDE94C372328225C216420C9
:10D290000094FBF7A8FDE84800903723282293214B
:10D2A0003C20FBF7A0FD3723282293216420009423
:10D2B000FBF799FD38BD08B5DB48009037232822DD
:10D2C0005C213C20FBF78FFDD848009037232822B3
:10D2D0005C216420FBF787FDD74800903723282284
:10D2E00093213C20FBF77FFDD44800903723282270
:10D2F00093216420FBF777FD7DE708B5CA480090CD
:10D30000372328225C213C20FBF76DFDC7480090A5
:10D31000372328225C216420FBF765FDC848009074
:10D320003723282293213C20FBF75DFDC148009064
:10D330003723282293216420FBF755FD5BE708B5CE
:10D34000B9480090372328225C213C20FBF74BFD95
:10D35000B6480090372328225C216420FBF743FD68
:10D36000B84800903723282293213C20FBF73BFD4F
:10D37000B04800903723282293216420FBF733FD27
:10D3800039E708B5A8480090372328225C213C20C3
:10D39000FBF729FDAC480090372328225C2164204C
:10D3A000FBF721FDA64800903723282293213C203B
:10D3B000FBF719FD9F480090372328229321642012
:10D3C000FBF711FD17E708B597480090372328228F
:10D3D0005C213C20FBF707FD9B4800903723282267
:10D3E0005C216420FBF7FFFC914800903723282242
:10D3F00093213C20FBF7F7FC8E480090372328222E
:10D4000093216420FBF7EFFCF5E638B586480090E1
:10D41000372328225C213C20FBF7E5FC8A4C37238C
:10D4200028225C2164200094FBF7DDFC82480090F8
:10D430003723282293213C20FBF7D5FC37232822D1
:10D44000932164200094FBF7CEFC38BD08B57648E4
:10D450000090372328225C213C20FBF7C4FC7A484B
:10D460000090372328225C216420FBF7BCFC724823
:10D4700000903723282293213C20FBF7B4FC6F480F
:10D4800000903723282293216420FBF7ACFCB2E6FE
:10D4900038B56E480090372328225C213C20FBF7EA
:10D4A000A2FC644C372328225C2164200094FBF703
:10D4B0009AFC624800903723282293213C20FBF7F6
:10D4C00092FC37232822932164200094FBF78BFCE5
:10D4D00038BD38B55D480090372328225C213C20B8
:10D4E000FBF781FC534C372328225C2164200094F5
:10D4F000FBF779FCA4F6D130009037232822932142
:10D500003C20FBF770FC37232822932164200094F1
:10D51000FBF769FC38BD38B54D4800903723282209
:10D520005C213C20FBF75FFC424C372328225C2126
:10D5300064200094FBF757FC4048009037232822D2
:10D5400093213C20FBF74FFC3723282293216420B2
:10D550000094FBF748FC38BD38B53D4800903723B0
:10D5600028225C213C20FBF73EFC324C372328224A
:10D570005C2164200094FBF736FCA4F6D1300090C7
:10D580003723282293213C20FBF72DFC3723282228
:10D59000932164200094FBF726FC38BDF8B52D4C90
:10D5A0004FF4C27594F8B510002901D0022926D194
:10D5B00021482822009037235C211046FBF713FCFA
:10D5C00025480090372328225C212846FBF70BFCD6
:10D5D00022484FF4AE7690F89D0040B11548009077
:10D5E000372328225C213046FBF7FDFB07E01C486F
:10D5F0000090372328225C213046FBF7F4FB94F897
:10D60000B51009B101290ED1164C282237239321D8
:10D6100010460094FBF7E7FB372328229321284686
:10D620000094FBF7E0FBF8BD631B0300B80D03009B
:10D63000FB230300F2310300AF1F03000E2503009C
:10D64000E8220300C2200300761C0300891D0300AA
:10D650009C1E030060180010CC2F0300385D0010E2
:10D66000932C03005137030008B5FE480090372380
:10D67000282293213C20FBF7B6FBFB480090372380
:10D6800028225C213C20FBF7AEFBF84800903723B2
:10D6900028225C216420FBF7A6FBF5480090372385
:10D6A000282293216420FBF79EFBA4E508B5EE48F1
:10D6B0000090372328225C213C20FBF794FBED48A7
:10D6C0000090372328225C216420FBF78CFBE5487F
:10D6D00000903723282293213C20FBF784FBE44869
:10D6E00000903723282293216420FBF77CFB82E5FE
:10D6F00008B5E1480090372328225C213C20FBF745
:10D7000072FBDE4800903723282293213C20FBF750
:10D710006AFB70E52DE9FF4F83B01C460125A94641
:10D720000020A07002F040FBFF28FBD1DFF850B3CF
:10D730009BF8B803A070D3480290C01DC71D4FF0DE
:10D74000FF0A0190BDE0B9F1000F30D04FF00009A1
:10D75000CD4E6FF07F403060CC487060FBF76FFEBD
:10D76000C6F804A02C23C02218215820CDF800A010
:10D77000FBF740F9A078C64900EBC000421801232E
:10D780001A215820FBF7C9FCC04870600026059894
:10D7900006EB860100EBC602542000EB01100023CB
:10D7A000F121FBF7BAFC761CF6B2052EEFD302F09E
:10D7B000FBFA0646FF2E05D008F10108B8F1030F69
:10D7C0007FD102E04FF00008F8E74FF0010902F0C6
:10D7D00007FB0B2E61D00CDC032E67D004DC012E7E
:10D7E00044D0022E6DD165E0092E0FD00A2E68D1EB
:10D7F0004CE0132E4CD004DC112E15D0122E60D12B
:10D800005CE0192E21D01B2E5BD14BE09D48E178C6
:10D81000C01F405CFF2801D0A0700025A078CBF885
:10D82000B80384F802A04CE0E1780298085CFF2875
:10D8300001D0A0700025A078CBF8B803E078C05DD7
:10D84000FF283ED084F802A03BE0E1780198085C14
:10D85000FF2801D0A0700025A078CBF8B803E078AD
:10D86000C05DFF282DD084F802A02AE0E078C05DDA
:10D87000FF2801D0A0700025A078CBF8B803E0788D
:10D88000C05DFF281DD084F802A01AE0002518E032
:10D89000804806210160002513E07E4805210160D3
:10D8A00000250EE00025002020700AE000250A2057
:10D8B000207006E000250220207002E000250020F4
:10D8C0002070002D7FF43FAF07B0BDE8F08F2DE949
:10D8D000F05F04466C4D4FF0501AC5F804A06E4E30
:10D8E000DFF8B89196F8400000280DD199F8700043
:10D8F000002300EB400101EBC000694942181A21E6
:10D900004FF4B970FBF709FC6648686096F8B500FB
:10D91000DFF894B1FF276FF07F4808B102281AD1D1
:10D920005E4A9BF800008532012802D196F8B400C7
:10D9300028B1012C0AD04CB1042C07D007E0C5F85F
:10D9400000805C218420FBF7BDFB04E02F605C219C
:10D950008420FBF7B7FB96F8B50008B101281DD16C
:10D960009BF8000018B196F8B400012805D1022CEC
:10D9700020D0032C1ED0042C1CD0C5F8008099F8B0
:10D98000D000C8B102F025F899F8DD00012827D0B1
:10D99000424A93218F326420FBF794FBC5F8008044
:10D9A000C5F804A0BDE8F05F0023D2213FA21E20ED
:10D9B000FBF7B3BB2F60E2E73E483F4C807848B1AD
:10D9C0003EA293216420FBF77DFB02F002F80020C9
:10D9D0002070D9E72F600120207001F0EDFFD3E720
:10D9E00037A293216420FBF76DFBD7E710B52649DA
:10D9F0004FF050104860294A4FF4C97092F8DF1078
:10DA0000002902D001290DD01BE092F870100023EC
:10DA100001EB410202EBC101214A0A441A21FBF742
:10DA20007CFB0EE092F8D8100023C1F3411101EB0A
:10DA3000410202EBC1011A4A58320A441A21FBF78B
:10DA40006CFB164A002371325C21B820FBF765FBA2
:10DA5000124A00237B327221B820FBF75EFB0023C1
:10DA60000E4A33E0FB230300AF1F0300761C0300C4
:10DA7000F2310300B80D0300C2200300D5210300DA
:10DA8000D01B00104C3C0300140000103800310083
:10DA9000B53A03007C01001060180010385D0010DA
:10DAA000A73F0300343465004800001054657374C8
:10DAB0002E2E2E00690100103800001020000000FA
:10DAC0002D2D2D2D2D2D2D2D000000004FF4A07497
:10DAD00085325C212046FBF720FB20460023BDE871
