:020000040001F9
:10800000F8590010D1280200D9280200DB2802000C
:10801000DD280200DF280200E12802000000000045
:10802000000000000000000000000000E328020043
:10803000E528020000000000E7280200DDEC010056
:10804000EB28020093860100A5860100B586010099
:10805000C5860100B33A0200EB280200EB280200BB
:108060007F3B0200EB280200EB280200EB28020015
:10807000EB280200EB280200EB280200EB280200AC
:10808000EB280200395B0200EB280200EB2802001B
:10809000EB280200EB280200EB280200EB2802008C
:1080A000EB520200EB2802009F260200EB280200A0
:1080B000EB280200EB280200EB280200EB2802006C
:1080C000EB280200EB280200EB280200EB2802005C
:1080D000EB280200EB28020021830100EB280200BC
:1080E000EB280200DFF80CD00FF0D2FD004800476B
:1080F00069830100F8590010834840F20121C0F85B
:108100008011C0F88411C0F88811C0F88C11C0F833
:108110009011C0F89411C0F89811C0F89C11C0F8E3
:10812000A011C0F8A411C0F8A811C0F8AC11C0F893
:10813000B011C0F8B411C0F8B811C0F8BC11C0F843
:10814000C011C0F8C411C0F8C811C0F8CC11C0F8F3
:10815000D011C0F8D411C0F8D811C0F8DC11C0F8A3
:10816000E011C0F8E411C0F8E811C0F8EC11C0F853
:10817000F011C0F8F411C0F8F811C0F8FC11C0F803
:108180000012C0F80412C0F80812C0F80C12C0F8AF
:108190001012C0F81412C0F81812C0F81C12C0F85F
:1081A0002012C0F82412C0F82812C0F82C12C0F80F
:1081B0003012C0F83412C0F83812C0F83C12C0F8BF
:1081C0004012C0F84412C0F84812C0F84C12C0F86F
:1081D0005012C0F85412C0F85812C0F85C12C0F81F
:1081E0006412C0F84011C0F84411C0F84811C0F83A
:1081F0005011C0F86011C0F87011C0F87411C0F8C7
:108200007811C0F87C1170472DE9F041DFF8FC804F
:10821000434653F8C40F40F40060186041F61F70E5
:10822000C3F818013A4C012222600026A660FFF72D
:1082300063FF384838490068B0FBF1F5D86B00B1EE
:108240006D084FF47A77B7FBF5F000F11301B1FB3D
:10825000F0F323630F236363A663E263B1FBF0F1E2
:10826000891C2164626400F13E01B1FBF0FCC4F89A
:1082700048C0B1FBF0FCC4F84CC02365B1FBF0F082
:108280006065A265A26240F20330C4F804014FF4B5
:10829000D060C4F800016421002000F0A7F940F28A
:1082A00083102062C821002000F0A0F940F20310E2
:1082B0002062022060620020401C8028FCD340F233
:1082C000E7104543B5FBF7F080B26062832020627F
:1082D000124800882662D4F8000140F40020C4F857
:1082E00000010121002000F081F90121002000F0AF
:1082F0007DF9D8F8DC0120F01F0040F01100C8F82B
:10830000DC01BDE8F081000000C0024000C00F4069
:1083100000C00920C400001040420F00003003A03C
:1083200010B50122132100200AF050FC00281AD0B9
:10833000A04901224020C1F880016FF07F40401E1B
:10834000FDD19D489D4903681BB1002202600F20AA
:1083500001E0026002200860BDE810404FF40021F7
:1083600000200AF053BC10BD1FB500200AF035FDF7
:1083700006461D2000F003F962B600244FF4FA709F
:10838000B6FBF0F08C4D401EB0F1807F2C600CD21B
:1083900020F07F404FF0E026401E70611F21601EDC
:1083A00000F0F8F8B461072030610122D104002008
:1083B0000AF0EFFB0121262000F0ECF8262000F067
:1083C000DEF806F01CFE06F073FD0BF090FA0AF0E2
:1083D00027F92C600BF08AFD0DF0C3FB06F00FFEB1
:1083E00006F066FDC82006F02AFDFFF70DFF00200D
:1083F00000F008FA72480021406900F02CFA0120D0
:1084000000F000FA0AF0EEF8002006F0D4FD04F0C7
:10841000C2FF07F028F8694E0F206A4D4FF0501840
:108420006FF07F49306006F06BFE0746FF2805D0ED
:108430002868401C2860022802D011E02C600FE060
:1084400040462C6000F0D8FA3A465FA101A80FF030
:10845000ADFC4B4601AA28217820009400F0C0FB17
:1084600030680A2818D008DC02280FD0052810D060
:108470000628D8D107F01AFBD5E70C280FD00F2813
:1084800010D01028CFD109F07BFACCE707F098F88C
:10849000C9E708F0E7F8C6E709F04AFEC3E709F0C4
:1084A000EEFAC0E709F0C3FABDE770B5012147A0B5
:1084B0000CF0E4FB041E0EDD474D4FF47A663246A5
:1084C000204629680CF07DFC0028F8D12046BDE844
:1084D00070400CF005BE70BD2DE9F04701213BA0B6
:1084E0000CF0CCFB051E20DD3B4F4FF47A68424672
:1084F00039680CF066FC022138A00CF0BFFB061EA8
:1085000013DDC146DFF8E08000244A463046396872
:108510000CF067FD04444445F7D330460CF0E0FD11
:108520002846BDE8F0470CF0DBBDBDE8F0872DE93B
:10853000F041012125A00CF0A1FB071E1DDD022149
:1085400026A00CF09BFB061E17DD234C4FF47A6827
:108550004246384621680CF034FC05460246304657
:1085600021680CF03EFD002DF2D130460CF0B8FD34
:108570003846BDE8F0410CF0B3BDBDE8F08100F035
:108580001F02012191404009800000F1E020C0F865
:1085900000117047C906090E002806DA00F00F0026
:1085A00000F1E02080F8141D704700F1E02080F811
:1085B0000014704704E000E0B4000010BC0000109C
:1085C0001C00001074000010253264004D53524509
:1085D00041442E54585400006C0100104A4B32356F
:1085E0003230422E5458540080969800F0B57F4A9D
:1085F00000230224FF2612684FF47A7504274FF0F7
:10860000010CA8B1012824D0022832D003280ED1B1
:1086100077484460C360B2FBF5F2521E4A43826160
:1086200006604761C0F804C04168C907FCD1F0BDCD
:108630004FF040204460C360B2FBF5F2521E4A4343
:10864000826106604761C0F804C04168C907FCD177
:10865000F0BD68484460C360B2FBF5F2521E4A4365
:10866000826106604761C0F804C04168C907FCD157
:10867000F0BD61484460C360B2FBF5F2521E4A434C
:10868000826106604761C0F804C04168C907FCD137
:10869000F0BD4FF040210120086058480168491C96
:1086A0000160704753490120086054484168491CE3
:1086B0004160704750490120086050488168491C5A
:1086C000816070474A49012008604C48C168491CD4
:1086D000C1607047012138B1012808D0022809D0B3
:1086E000032806D1424803E04FF0402000E0414813
:1086F000416070474048FBE7002140B1012809D0A4
:108700003D4A022801D0032800D1516070474FF044
:10871000402000E037484160704738B1012808D058
:1087200002280CD0032809D1314903E04FF0402141
:1087300000E03049486840F00200486070472E4928
:10874000F8E770B500242D4D2D4A4EF65F26032321
:1087500038B1012816D0022824D003282DD00020BB
:1087600070BD2C6052F8C40F40F0020010604FF052
:108770004020426842F002024260C660816143616B
:10878000012024E06C6052F8C40F40F00400106037
:108790001848426842F004024260C6608161436149
:1087A000022014E0AC6052F8C40F40F48000106066
:1087B000114881614361032009E0EC6052F8C40F65
:1087C00040F4000010600A4881614361042000F019
:1087D00002F8012070BD00F01F0201219140400904
:1087E000800000F1E020C0F800117047C8000010C0
:1087F00000400940008000400000094000000010D7
:1088000000C00F40FF4908B50028886942F2107285
:108810000CD040F0010088610092886940F400604B
:1088200088610098401E0090F7D108BD20F40060D8
:10883000886110460092401E0090FCD1886920F0AB
:108840000100886108BDF049002208C8521C08C117
:10885000802AFAD3704770B5ED4BEC4C4FF02702ED
:1088600008001A615A61C3F87022C3F87422C3F871
:108870001821C3F81C21C3F82021C3F824219A61D0
:10888000DA61C3F8D020C3F8D420C3F8D820C3F8E5
:10889000DC20C3F8E020C3F8E4201A625A62C3F86F
:1088A0003021C3F83421C3F8E820C3F8EC20C3F822
:1088B000F020C3F8F420C3F80821C3F81421C3F84A
:1088C0000C21C3F81021C3F80021D24A116C41F0E9
:1088D00002011164916D41F00A019165CE4B53F88C
:1088E000C41F41F001011960CC490A6822F001025D
:1088F0000A60C44A4FF000059561916921F00E01AC
:108900009161916941F00A019161916941F0200101
:108910009161916921F080019161916921F48071E7
:108920009161916921F400719161916921F48061F3
:108930009161916921F400619161B949B94E096869
:10894000B1FBF6F1C3F8F410916841F080619160D9
:10895000916821F020019160916841F4006191607B
:10896000916841F480519160916821F400519160C7
:10897000916821F4804191609168AB4B01EA030159
:1089800091609168A94B41EA0301916015601168FB
:1089900041F01C511160116841F48021116011688F
:1089A00041F480711160116841F0740111605560EB
:1089B000516841F000615160516841F400215160FB
:1089C000516841F480615160516840F20F1341EAEF
:1089D000030151601461546101D0FFF734FF00209E
:1089E0004FF47F01CA1102C4401C9042FBD342F2F3
:1089F0001070401EFDD170BD844900224FF4FF333A
:108A000001C1521C9A42FBD37047F0B5A1EB01148F
:108A1000E401874DA4EB80042C44121A0025C2F512
:108A2000F077591A059E09E0002002E044F8046935
:108A3000401C8242FAD8A4EB87046D1CA942F3D8EB
:108A4000F0BD724BB0F5F07F0DD2B1F5887F0AD240
:108A5000A1F20F11C0F5F070A1EB011100EB411074
:108A6000401E43F8202070472DE9F0439446DDF87E
:108A70001C901F460C460546604501D9AC4695B290
:108A8000BC4201D90F469CB2ACEB0500391B00B2C9
:108A90000EB250B1A6B1B04230DDC0EB46010FB20C
:108AA0007100404201EB400825E04A462146284635
:108AB000FFF7C7FF641CA4B2A742F6D2BDE8F0835B
:108AC0004A4621462846FFF7BCFF6D1CADB2AC45B7
:108AD000F6D2F3E74A4621462846FFF7B2FF6D1C5F
:108AE000ADB2002F04DD641CA4B208EB070001E066
:108AF00007EB460007B26545ECD11DE0C6EB40012F
:108B00000FFA81FC7100404201EB400812E04A4636
:108B100021462846FFF795FF641CA4B2BCF1000F64
:108B200004DD6D1CADB208EB0C0001E00CEB46005F
:108B30000FFA80FCBC42EAD14A4621462846BDE8ED
:108B4000F0437EE72DE9FF5F884607469A461146C7
:108B50006846DDF838B000F0D5FB0025E946002472
:108B600019F805C008EB0506C4F107002CFA00F05F
:108B7000C00707EB0400B1B280B201D0524600E05A
:108B80005A46FFF75EFF641C082CEDD36D1C102DB8
:108B9000E5D3BDE8FF9F2DE9FE4F884607469A467C
:108BA0001146684600F0B6FB0025E946002419F896
:108BB000056008EB050CC4F1070026FA00F0C007B9
:108BC00006D038191FFA8CF180B25246FFF739FFF0
:108BD000641C082CEFD36D1C0C2DE7D3BDE8FE8F71
:108BE0002DE9F8439946089F16460D4604464FF472
:108BF000EC7816F8012B4B46294620460097FFF7E4
:108C0000A1FF17E00080082000820820000001A0DA
:108C100000C002400080092000C00F40008C0820E6
:108C2000C8000010B0475D00FFFF00FC0000DF013E
:108C3000FCF708A0444502D20834A4B207E0FF2D97
:108C40004FF0000402D81035ADB200E000253078B6
:108C50000028CED1BDE8F8832DE9FF4F81B09046C2
:108C60008C46074604460D460026A4F1140080B247
:108C700042466146FFF7E5FEA5F11400641C81B28F
:108C8000A4B242463846FFF7DCFE6D1C761CB6B235
:108C9000ADB2282EE9D3ACF114003C46654600265F
:108CA0000CF1140AA7F1140B07F1140900900098B5
:108CB000A4F1140881B21FFA88F0049AFFF7C1FEEC
:108CC0001FFA8AF11FFA88F0049AFFF7BAFE641CB3
:108CD000A5F11408A4B21FFA88F11FFA8BF0049AC8
:108CE000FFF7AFFE1FFA88F11FFA89F0049AFFF729
:108CF000A8FE6D1C761CB6B2ADB20A2ED7D30024E6
:108D0000ACF1140A0CF11409A7F1140807F11405C9
:108D100007F10A061FFA8AF1B0B2049AFFF791FE32
:108D20001FFA89F1B0B2049AFFF78BFE7F1C0CF199
:108D30000A06BFB2B1B21FFA88F0049AFFF781FEAB
:108D4000B1B2A8B2049AFFF77CFE641C0CF1010CCE
:108D5000A4B21FFA8CFC0A2CDAD305B0BDE8F08F60
:108D600030B50446F84A2378002000EB8011555CAA
:108D70009D4204D11144657849788D4204D0401C4D
:108D800080B27728F1D3002030BD30B50446EF4AD9
:108D90002378002000EB001112F811509D4205D1FC
:108DA00002EB4101657849788D4204D0401C80B2C5
:108DB000A928EFD3002030BD2DE9F04F04468446AA
:108DC0008A46002702FB03F0C1179146DFF8808333
:108DD00000EB517B21E009980025C65D300602D5E5
:108DE000D8F8002001E0D8F8042051462046FFF7CB
:108DF00028FE641C7006A4B2060EA4EB0C014945C3
:108E000005D10AF1010064461FFA80FA03E06D1CE7
:108E1000EDB2082DE2D37F1CBFB2B7EBEB0FDADB6C
:108E20009CE72DE9F047884604460546C74902EB12
:108E30000210DFF81CA301EB40094FF0000C43BB0C
:108E400009EB0C0000268778380602D5DAF80020F6
:108E500001E0DAF8042041462046FFF7F2FD7806EB
:108E6000641C070EA4B2601B10280CD0761CF6B24E
:108E7000082EE9D30CF1010C0CF0FF0CBCF1200F13
:108E8000DED3BDE8F08708F101002C461FFA80F818
:108E9000F0E709EB0C0000268778380602D5DAF8EF
:108EA000042001E0DAF8002041462046FFF7C9FD22
:108EB0007806641C070EA4B2601B10280BD0761C29
:108EC000F6B2082EE9D30CF1010C0CF0FF0CBCF14A
:108ED000200FDED3D5E708F101002C461FFA80F8F9
:108EE000F1E72DE9F047884604460546964902EB2E
:108EF0008210DFF85CA200EB01094FF0000C3BBBD5
:108F000009EB0C0000268778380602D5DAF8002035
:108F100001E0DAF8042041462046FFF792FD78068A
:108F2000641C070EA4B2601B18280BD0761CF6B286
:108F3000082EE9D30CF1010C0CF0FF0CBCF13F0F33
:108F4000DED39EE708F101002C461FFA80F8F1E716
:108F500009EB0C0000268778380602D5DAF80420E1
:108F600001E0DAF8002041462046FFF76AFD780666
:108F7000641C070EA4B2601B18280BD0761CF6B236
:108F8000082EE9D30CF1010C0CF0FF0CBCF13F0FE3
:108F9000DED376E708F101002C461FFA80F8F1E7EE
:108FA00030B514460D46024621462846FFF799FF84
:108FB000182030BD30B514460D46024621462846DD
:108FC000FFF72FFF122030BD2DE9F84F9A461546C6
:108FD0000C46064600274FF4F0794FF488782A783B
:108FE000002A3AD0F01986B2802A15D906F1180065
:108FF000484505D916340026A4B2444500D90024BA
:109000002846FFF7ADFE80B2534622463146FFF7B1
:10901000C7FF0746AD1CE2E70D2A15D00A2A1AD071
:1090200006F10C00484505D90C340026A4B244458D
:1090300000D9002446484168009103682146304623
:10904000FFF780FD6D1CCAE71634A4B2444500D971
:1090500000240027F6E70026FBE7BDE8F88FF8B507
:1090600015460F46064600242878002821D0A0F196
:109070003001092901D888B204E02E2815D02D2806
:1090800015D00C2000EBC001C1EB80103149372313
:1090900001EB80000090301980B220223946FFF7A2
:1090A0008BFE2034A4B26D1CDEE70A20EAE70B2019
:1090B000E8E7F8BD2DE9F8430646994615460C4603
:1090C00000204FF4F0784FF488772A78002A43D0B4
:1090D000304486B2802A14D906F11000404505D9E3
:1090E00010340026A4B2BC4200D900242846FFF761
:1090F0004CFE80B24B4622463146FFF75BFFAD1C6B
:10910000E3E70D2A16D00A2A1BD006F108004045D5
:1091100005D908340026A4B2BC4200D900240C486A
:1091200041680091036821463046FFF70BFD0A2095
:109130006D1CCAE71034A4B2BC4200D90024002040
:10914000F6E70026FBE70000649502009BB30200EF
:109150001400001050DC02007CE52DE9F8430646BF
:10916000994615460C4600204FF4F0784FF4887766
:109170002A78002A3AD0304486B2802A14D906F1DF
:109180001000404505D910340026A4B2BC4200D9D5
:1091900000242846FFF7F9FD80B24B4622463146AF
:1091A000FFF708FFAD1CE3E70D2A16D00A2A1BD0F3
:1091B00006F10800404505D908340026A4B2BC4297
:1091C00000D900244C48416800910368214630468C
:1091D000FFF7E1FC08206D1CCAE71034A4B2BC42C2
:1091E00000D900240020F6E70026FBE732E5F0B5C1
:1091F000062A01D90A2201E002B90122052900D973
:109200000521914200D911463C4D00244FF0200C1D
:1092100005F804C0641CE4B20C2CF9D314460A27E8
:109220000CE0B0FBF7F607FB1606B0FBF7F005EB1A
:10923000040E3036641E0EF8016CE4B2002CF0D13E
:1092400069B1104605E02C1814F8014C2C54401E4E
:10925000C0B2491EC9B2F6D22E21295401E005F848
:1092600002C07BB90020511E0AE02B5C302B09D1D3
:109270002B185B782E2B05D005F800C0401CC0B21F
:109280008842F2DB521CD0B2002102E02954401C7B
:10929000C0B20C28FAD3F0BD30B5194900224FF402
:1092A000FF3410F8013B521C10F8015B1B0443EA29
:1092B000052310F8015B2B4308C1A242F1D330BD56
:1092C000F0B50F4900234FF4B5754FF488760022AE
:1092D00010F8014B521C10F8017B240444EA0724C7
:1092E00010F8017B3C4310C1AA42F1D35B1C01F58D
:1092F000EC71B342EBD3F0BD14000010A852001083
:10930000000001A00A4A02EB01111022A1F5007130
:109310000EF040B8074A01EB410102EB8101A1F5D3
:10932000C0710A6802604A6842608968816070475B
:10933000B0CF0200A0D502002DE9F84F0024A246CC
:109340004FF04C0940F20F18FE4F4FF04E0BFE4805
:10935000009004EB4401A00001EB041100EB81003C
:1093600004EB840509EB051680B2B2B24346E42152
:10937000FFF74BFB012000EB0510E323B2B280B2F4
:1093800019460097FFF770FBB2B2B0B24346E32133
:109390000097FFF769FB4D2000EB051082B256469F
:1093A00080B24346E321CDF800A0FFF75DFB0BEB55
:1093B000051082B280B24346E3210096FFF754FBCA
:1093C0004F2000EB051082B280B24346E3210096A5
:1093D000FFF74AFB641C062CB9D3BDE8F88F10B523
:1093E000FFF7AAFFD948D849002341606FF07F41B9
:1093F0000160D7A2F1215420FFF75CFE0023F12188
:10940000BDE81040D4A2A420FFF754BE70B50446B6
:10941000FFF792FFCD49CC4A6FF07F40C1E90002CF
:10942000CF4D542694B1002404EB440005EB4002D8
:1094300004EB840006EB00100023F1211E32FFF73D
:1094400039FE641CE4B2052CEED370BD04EB44007D
:1094500005EB400204EB840006EB00100023F12131
:10946000FFF728FE641CE4B2052CEFD370BD10B5E5
:10947000FFF762FFB548B4494FF0000341606FF059
:109480007F410160B74890F8D80008B1B6A200E06B
:10949000B8A2F121BDE810405420FFF70BBE10B573
:1094A000FFF74AFFA948A849002341606FF07F41B8
:1094B0000160F121BDE81040B0A25420FFF7FABDD1
:1094C00010B50446FFF738FFA0499F4AA54B6FF03F
:1094D0007F408CB1C1E90002012C73D093F8D80011
:1094E0004FF0000300286CD0A5A2F2215320FFF713
:1094F000E1FD0023A4A2ADE0C1E9000293F8D81079
:109500004FF4A27400294FF000032BD0A0A2E72152
:109510005420FFF7CFFD00239FA2FB215420FFF72B
:10952000C9FD00239AA2E721A420FFF7C3FD002371
:109530009BA2FB21A420FFF7BDFD00239AA2E721F7
:10954000F420FFF7B7FD002395A2FB21F420FFF7DD
:10955000B1FD002394A2E7212046FFF7ABFD0023D5
:1095600092A22AE093A2E7215420FFF7A3FD002353
:1095700092A2FB215420FFF79DFD00238DA2E7213D
:10958000A420FFF797FD00238EA2FB21A420FFF764
:1095900091FD00238DA2E721F420FFF78BFD00232E
:1095A00088A2FB21F420FFF785FD002387A2E72195
:1095B0002046FFF77FFD002386A2FB2120464BE0DB
:1095C00000E040E093F8D8104FF4CA744FF0000365
:1095D000C9B182A2E7215420FFF76CFD002381A2CC
:1095E000FB215420FFF766FD002380A2E721A42081
:1095F000FFF760FD00237FA2FB21A420FFF75AFDA7
:1096000000237EA218E07FA2E7215420FFF752FD3D
:1096100000237EA2FB215420FFF74CFD00237DA2F6
:10962000E721A420FFF746FD00237CA2FB21A42014
:10963000FFF740FD00237BA2E7212046FFF73AFD1C
:1096400000237AA2B9E77BA2F2215320FFF732FD73
:1096500000237AA2F221A320BDE81040FFF72ABD23
:1096600070B5FFF769FE39486FF07F414FF4A2747F
:109670000160354941603B484FF4CA754FF0000323
:1096800090F8D81099B16FA2E7215420FFF712FD8E
:1096900000236EA2FB215420FFF70CFD00236DA2D6
:1096A000F1212046FFF706FD00236CA212E06DA217
:1096B000E7215420FFF7FEFC00236CA2FB2154207D
:1096C000FFF7F8FC00236BA2F1212046FFF7F2FC24
:1096D00000236AA22846BDE87040F121FFF7EABCEA
:1096E00070B50446FFF728FE1848174A1D4B6FF067
:1096F0007F414FF4A2754FF4CA760CB3012C1FD0F2
:10970000C0E9001293F8D8004FF00003002818D0E9
:109710005CA2F1215420FFF7CDFC00235CA2E721DD
:10972000A420FFF7C7FC00235BA2FB21A420FFF7C6
:10973000C1FC002347A2F1212846FFF7BBFCAFE0A4
:10974000B2E0F2E068436900380031001400001014
:10975000206DA6B82020000020A6B8200000000040
:1097600050150300540E001020436F6E6669726D31
:109770002000000020C8B7C8CF2000002A31000018
:1097800043616E63656C0000436F6E6669726D00C5
:109790004D45415300000000444953500000000073
:1097A000534554555000000053595300494E464FFD
:1097B00000000000B2E2C1BF00000000CFD4CABE6A
:1097C00000000000C9E8D6C300000000CFB5CDB34B
:1097D00000000000D0C5CFA20000000046696C6503
:1097E000730000004D616E6167650000536176652E
:1097F0000000000044617461000000004D6F72655C
:1098000000000000CEC4BCFE00000000B9DCC0EDCA
:1098100000000000B1A3B4E600000000CAFDBEDDF8
:1098200000000000B8FCB6E00000000020322F323B
:10983000000000002020C8A1CFFB20002020C8B7D6
:10984000C8CF200044656C65746500005461626C8B
:109850006500000050524556000000004E45585427
:1098600000000000C7E5B3FD00000000B1EDB8F155
:1098700000000000C9CFD2BBD2B30000CFC2D2BB20
:10988000D2B3000044656C2D4C696E650000000089
:109890004175746F00000000436F70790000000094
:1098A0000023AFF248025BE0C0E9001293F8D80051
:1098B0004FF00003E8B1AFF23402F1215420FFF77A
:1098C000F9FB0023FAA2E721A420FFF7F3FB002312
:1098D000AFF24402FB21A420FFF7ECFB0023F6A229
:1098E000E721F420FFF7E6FB0023FB21F5A2F4209B
:1098F0001DE7F6A2F1215420FFF7DCFB0023F5A2BF
:10990000E721A420FFF7D6FB0023F4A2FB21A4202B
:10991000FFF7D0FB0023F3A2E721F420FFF7CAFBF7
:109920000023FB21EDA2F4200EE0E8A2F121542057
:10993000FFF7C0FB0023E9A2E721A420FFF7BAFB51
:109940000023EAA2FB21A420FFF7B4FB0023AFF21F
:10995000DC02F1212846FFF7ADFB0023AFF2E40261
:109960003046BDE87040F121FFF7A4BB10B50446B6
:10997000FFF7E2FCDF48E04BE04A6FF07F417CB349
:10998000012C7DD1C0E9001392F8D8104FF4CA74AD
:1099900000294FF0000374D0AFF2C012E721542029
:1099A000FFF788FB0023AFF2C412FB215420FFF71E
:1099B00081FB0023AFF21022E721A420FFF77AFBFE
:1099C0000023CFA2FB21A420FFF774FB0023CEA22B
:1099D000F121F420FFF76EFB0023AFF2E01299E0D3
:1099E000FFE7C0E9001392F8D8104FF4A2740029E1
:1099F0004FF0000333D0AFF26822E7215420FFF785
:109A000059FB0023AFF27022FB215420FFF752FBD9
:109A10000023AFF28422E721A420FFF74BFB0023B1
:109A2000AFF28422FB21A420FFF744FB0023AFF216
:109A30008822E721F420FFF73DFB0023AFF2A022AC
:109A4000FB21F420FFF736FB0023AFF2A422E7212D
:109A50002046FFF72FFB0023AFF2B02261E0AFF208
:109A6000AC22E7215420FFF725FB0023AFF2B422FC
:109A7000FB215420FFF71EFB0023AFF2C82201E0B8
:109A800055E023E0E721A420FFF714FB0023AFF209
:109A9000CC22FB21A420FFF70DFB0023AFF2D42240
:109AA000E721F420FFF706FB0023AFF2E822FB21B9
:109AB000F420FFF7FFFA0023AFF2F022E72120465F
:109AC000FFF7F8FA0023AFF2F4222AE0AFF2CC223B
:109AD000E7215420FFF7EEFA0023AFF2D022FB215A
:109AE0005420FFF7E7FA0023AFF22032E721A42049
:109AF000FFF7E0FA0023AFF23432FB21A420FFF796
:109B0000D9FA002382A2F121F420FFF7D3FA00232F
:109B1000AFF2F022E7212046FFF7CCFA0023AFF2A4
:109B2000F4222046BDE81040FB21FFF7C3BA10BD68
:109B3000704810B56FF07F4101606F4941606F4818
:109B40004FF4A2744FF0000390F8D810002933D0DE
:109B5000AFF2C432E7215420FFF7ACFA0023AFF292
:109B6000C832FB215420FFF7A5FA0023AFF2E03200
:109B7000E721A420FFF79EFA0023AFF2DC32FB219D
:109B8000A420FFF797FA0023AFF2E432E721F42094
:109B9000FFF790FA0023AFF2F832FB21F420FFF731
:109BA00089FA0023AFF20042E7212046FFF782FA4C
:109BB0000023AFF2084232E0AFF20842E72154201E
:109BC000FFF778FA0023AFF20C42FB215420FFF795
:109BD00071FA0023AFF22442E721A420FFF76AFACA
:109BE0000023AFF22042FB21A420FFF763FA0023F9
:109BF000AFF22842E721F420FFF75CFA0023AFF22E
:109C00003C42FB21F420FFF755FA0023AFF2444217
:109C1000E7212046FFF74EFA0023AFF248422046E4
:109C2000BDE81040FB21FFF745BA08B53A480021CE
:109C300000901623F0220846FEF7E7FE08BD08B59F
:109C400036480090CA2340F2DF125C210020FEF764
:109C5000DCFE08BD10B5FFF7E8FFFFF76DFBBDE8C0
:109C60001040ECE72DE9F047FFF7F4FF214C2A48BC
:109C70006FF07F45214EC4E9005096F8D8004FF0B0
:109C8000000308B1264A01E0254AF23A04210020E7
:109C9000FFF710FA4FF05010C4E90050214F002494
:109CA0004FF01A09A7F13C086FF027053EE00000CD
:109CB0004C696E65617200004C6F6761726974680F
:109CC0006D0000004179746F00000000C9BEB3FD53
:109CD000D0D00000CFDFD0D400000000D7D4B6AF82
:109CE00000000000B6D4CAFD00000000B8B4D6C61B
:109CF000000000001400001038003100540E001065
:109D00005365745570000000546F6F6C7300000051
:109D1000B9A4BEDF00000000F35203003434650034
:109D2000391203002C070300032C1ED296F8D8002A
:109D300020B104EB840007EB400203E004EB840154
:109D400008EB410204EB440000EBC40109EB4100C5
:109D500081B200231846FFF7ADF9641C062CE3D34B
:109D6000BDE8F0470020FFF7ABBB96F8D80020B164
:109D700004EB840007EB400203E004EB840108EBF2
:109D8000410204EB440000EBC40005EB400081B24B
:109D90000023FA20DFE708B5FE480090BE2340F21A
:109DA000DF1270210020FEF730FE08BD10B5FFF76E
:109DB0003CFFFFF7C1FABDE81040ECE738B5F64DBF
:109DC00004464FF050106860F448012300EB840211
:109DD000C8211420FFF76EF9F04801235C3000EB36
:109DE0008402C8214FF48C70FFF764F9E948686079
:109DF000EB480090372328227A215020FEF7DCFF21
:109E0000E8480090372328227A217820FEF7D4FFF3
:109E1000E5480090372328227A218C20FEF7CCFFDA
:109E200038BD2DE9F047FFF7C1FFDB4CDF486FF08D
:109E30007F45DF4EC4E9005096F8D8004FF000038C
:109E400008B1DC4A01E0DB4AF23A04210020163274
:109E5000FFF730F94FF05010C4E90050D64F0024FE
:109E60004FF01A09A7F138086FF0270501E0032C1D
:109E70001FD296F8D80010B107EBC40201E008EB3E
:109E8000C40204EB440000EBC40109EB410081B2C1
:109E900000231846FFF70EF9641C072CE7D3C748C8
:109EA00090F8B803FFF78AFFBDE8F0470020FFF7FE
:109EB00007BB96F8D80010B107EBC40201E008EB2D
:109EC000C40204EB440000EBC40005EB400081B287
:109ED0000023FA20DEE738B5AE4C40F2DF15A023B0
:109EE0002A46562100200094FEF78FFDE3232A46E0
:109EF000C12100200094FEF788FD38BD10B5FFF7A2
:109F000094FEFFF719FABDE81040E4E70B4630B4C1
:109F1000AB491446085C183100EB40004218A1B26E
:109F200098B230BC0023FFF7C5B82DE9F047FFF722
:109F3000E5FF994E9D486FF07F449D4FC6E9004074
:109F400097F8D8004FF0000308B19A4A01E0994A07
:109F5000F23A042100202C32FFF7ACF8DFF85492DB
:109F60004FF05015C6E90045B84609F1F209002442
:109F70004FF6FF7709F1150A98F8D800C4EBC40131
:109F800010B101EB090201E001EB0A0204EB8400CD
:109F900007EA401000231A21FFF78CF8641C032CF9
:109FA000EAD3864F0123D7F8C00300EB400101EB51
:109FB000C0007A49D43142181A213C20FFF77AF8C0
:109FC00097F80C1100230622D7F80801FFF70FF9C4
:109FD00001237C4A1A21DC20FFF76CF8D7F8100126
:109FE000012300EB4001764815380A181A214FF476
:109FF0009170FFF75FF81A224FF49671D7F8B80303
:10A00000FFF784FF002370A22E211846FFF7A5F862
:10A0100000236EA22E217820FFF79FF800236DA267
:10A020002E21F020FFF799F800236CA22E214FF487
:10A03000C870FFF792F8DFF85C810624A4F10800ED
:10A04000052802D3A01F082802D9C6F8048000E022
:10A050007560C4EBC40007EBC00151F8200C60B17F
:10A0600011F81C1C01230622FFF7C1F8C4EB0410F1
:10A07000203881B20123534A05E0C4EB0410203894
:10A0800081B2012357A27820FFF767F8641C0F2CD8
:10A09000D4D3C6F80480D7F844034446B14640B14F
:10A0A00097F8481301230622FFF7A1F80123454A38
:10A0B00001E001234BA2C4217820FFF74EF8B846F7
:10A0C00010264F46A6F11200052802D3801C08284E
:10A0D00001D97C6000E07D60C6EBC60108EBC101E0
:10A0E000A1F58051D1F8CC0D60B191F8D01D0123BC
:10A0F0000622FFF77CF8C6EB0610B63881B20123C2
:10A10000304A05E0C6EB0610B63881B2012335A20D
:10A11000FA20FFF722F8761C192ED3D37C60D8F8EA
:10A120004413404651B190F82C1301230622D8F86D
:10A130002803FFF75CF80123224A01E0012329A24A
:10A14000C421FA20FFF709F8DFF8A0800126F01EED
:10A15000052801D27C6000E07D6006EBC60101EBC2
:10A160000802C6EB06102B3081B200230820093A02
:10A17000FEF7F3FF761C0A2EE9D300231CA2C421AC
:10A1800018467C60FEF7E9FF00231AA2D421184686
:10A1900034E000003434650014000010DC080300D3
:10A1A00055EF020098010300AB020300F3520300D5
:10A1B000540E001039120300A70D0300580F0010B1
:10A1C000A1150300A852001042494E004C4F5720E1
:10A1D0005B465D00484947485B465D00434F554E2E
:10A1E000540000002D2D2D2D2D2D00009F06030065
:10A1F000326E64004155583A00000000FEF7ADFF92
:10A200000023FBA2D421F020FEF7A7FFBDE8F04712
:10A210000020FFF755B908B5F7480090A02340F299
:10A22000DF1260210020FEF7F0FB08BD10B5FFF73C
:10A23000FCFCFFF781F8BDE81040ECE770B5FFF7D4
:10A24000F5FFEE4CEE486FF07F45EE4EC4E900504E
:10A2500096F8D8004FF0000308B1EB4A01E0EA4A53
:10A26000F23A042100204232FEF724FF4FF0501052
:10A27000C4E9005096F8D8004FF0000368B1E3A29B
:10A280001A210020FEF716FF0023E2A23021282029
:10A29000FEF710FF0023E2A20CE0E3A21A21002047
:10A2A000FEF708FF0023E2A230212820FEF702FF7C
:10A2B0000023E2A230218C20FEF7FCFE0023E1A265
:10A2C0003021F020FEF7F6FE0023E0A230214FF40B
:10A2D000AA70FEF7EFFE0023DEA230214FF4DC70FF
:10A2E000FEF7E8FEBDE870400020FFF7E9B808B5CA
:10A2F000C14800909A2340F2DF125A210020FEF755
:10A3000084FB08BD10B5FFF790FCFFF715F8BDE81A
:10A310001040ECE72DE9F05FFFF7F4FFB74DB848C8
:10A320006FF07F44B74EC5E9004096F8D8004FF073
:10A33000000308B1B44A01E0B34AF23A0421002014
:10A340005832FEF7B7FE4FF05017C5E90047DFF867
:10A3500008930024DFF8A0A2A9F1B40B6FF0AB08BA
:10A3600001E0092C24D2E01E032802D2C5F804A083
:10A3700000E06F6096F8D80004EB840110B109EB9F
:10A38000410201E00BEB410204EB440000EBC4018D
:10A390001A2000EB410081B200231846FEF78AFE26
:10A3A000641C122CDDD3BDE8F05F0020FFF7DEBA9D
:10A3B000A4F10C00032802D2C5F804A000E06F60ED
:10A3C00096F8D80004EB840110B109EB410201E0DA
:10A3D0000BEB410204EB440000EBC40108EB41002D
:10A3E00081B20023FA20D9E72DE9F843834E9B4F31
:10A3F0004FF050190446C6F80490D7F8B8039849AE
:10A4000000EBC000421801231A215820FEF752FE2B
:10A41000D7F8C003012300EB400101EBC0009149D4
:10A42000421830215820FEF745FED7F8C403012317
:10A4300000EB400101EBC0008B4942184621582037
:10A44000FEF738FE6F484FF4A97590F8D80010B1A8
:10A45000D7F8180480B3D7F8180400EB400101EBDB
:10A46000C00081492131421800231A212846FEF7F5
:10A4700021FED7F82004012300EB400101EBC000CE
:10A480007949A846F931421846212846FEF712FEBE
:10A49000D7F81C04754D00EB400101EBC0004219D8
:10A4A000012330214046FEF705FE2078012800D028
:10A4B000002030B1FF2005E0FFE70023AFF6304277
:10A4C000D3E74846706000906E234FF4DD725A2146
:10A4D0004046FEF79AFAD7F82801012300EB400125
:10A4E00001EBC00042195C214046FEF7E3FDFEF798
:10A4F00023FF2078012804D0BDE8F8430020FEF7B0
:10A50000DFBF6FF07F4030605948002470605426F0
:10A5100004EB440000EBC400421904EB840006EB9A
:10A52000001080B20023F121FEF7C4FD641C022C50
:10A53000EED3BDE8F883F8B5304E04464FF0501026
:10A5400070602078012800D0002018B3FF207060D0
:10A550004FF4BE7700902A234FF4D7721A21384661
:10A56000FEF753FA3D48414D0123D0F85C0300EB60
:10A57000400101EBC00042191A213846FEF79AFD4E
:10A58000FEF7DAFE2078012806D0BDE8F84000206A
:10A59000FEF796BF7068DBE76FF07F4030603448AD
:10A5A00000247060542604EB440000EBC400421900
:10A5B00004EB840006EB001080B20023F121FEF7CB
:10A5C00079FD641C022CEED3F8BD2DE9F05F012467
:10A5D000DFF82490094EDFF884804FF4AD7B4FF014
:10A5E000501A3325E71E042F44D2C6F8049043E0E6
:10A5F0004F55543A00000000343465001400001038
:10A60000F3520300540E0010391203004D6F6465BD
:10A610003A000000467265715B487A5D00000000F8
:10A620004C45565B565D0000B7BDCABD203A0000E0
:10A63000C6B5C2CA5B487A5D00000000B5E7C6BD7A
:10A640005B565D0043705B465D000000445B205D2F
:10A6500000000000434D5000930E0300580F0010FF
:10A6600004080300B00903000F0C0300290D0300C8
:10A6700038003100C6F804A098F87D0400EB800093
:10A6800004EB400000EB800008EB8001D1F81806D5
:10A69000421C3ED091F81C1601230522FEF7A7FDAF
:10A6A000FF4A05EB04110023F620FEF756FD98F84B
:10A6B0007D0400EB800004EB400000EB800008EB21
:10A6C000800101F58051D1F88006421C26D091F816
:10A6D000841601230522FEF78AFDF14A05EB0411D9
:10A6E00000235846FEF739FD98F87D0400EB800002
:10A6F00004EB4000404400F5005090F8F306FF28BA
:10A7000011D005EB04114FF0000388B1AFF66C7265
:10A710000FE005EB04110023E2A2C5E705EB0411ED
:10A720000023E0A2DDE705EB04110023DFA200E037
:10A73000DFA24FF4DF70FEF710FD042F02D2C6F83F
:10A74000049001E0C6F804A098F87D04474600EBA9
:10A75000800004EB4000384490F87D041E2804D9A2
:10A7600005EB04110023CFA208E000EB400101EB50
:10A77000C000D049421805EB041100232620FEF743
:10A78000ECFC97F87D0400EB800004EB40003844BB
:10A7900090F84F05022804D905EB04110023C1A24B
:10A7A00008E000EB400101EBC000C349421805EB93
:10A7B000041100239220FEF7D0FC97F87D040123BA
:10A7C00000EB800004EB400003220021FEF70FFDA8
:10A7D00005EB04110023B24A0820FEF7BEFC641CFE
:10A7E000E4B20B2CFFF4FEAEBDE8F09F2DE9F84F6C
:10A7F0000446007802280CD002D9A078FEF770FF3A
:10A800002078AE4E4FF0FF094FF05017012803D0CB
:10A8100004E0FEF725FFF3E7A078C8B1384677607B
:10A8200000902A235E221A213620FEF7EEF8DFF888
:10A830009082A4490023D8F8840300EBC00042189A
:10A840001A213620FEF736FC2078022804D006E0D4
:10A850004846C6F80490E3E7A07800287ED0384642
:10A860007760009042231E2232210020FEF7CDF8AF
:10A87000002395A232211846FEF71CFCC34603258F
:10A88000B246B8462078A84202D1A078022866D005
:10A89000CAF80480DAF804000090232000EB0517C2
:10A8A000132000EB05163B464FF499723146FA200F
:10A8B000FEF7ABF8E07800EB800005EB400000EB22
:10A8C00080010BEB8101D1F8F005421C7DD091F89D
:10A8D000F41501230522FEF78AFC714A3146002354
:10A8E000FA20FEF73AFC2078A84202D1A07803288B
:10A8F0006CD0CAF80480DAF8040000903B46314678
:10A900004FF4C1724FF4A570FEF77FF8E07800EBCA
:10A91000800005EB400000EB80010BEB810101F5AD
:10A920008051D1F85806421C67D091F85C1601237B
:10A930000522FEF75CFC5A4A314600234FF4A5700D
:10A94000FEF70BFC2078A84202D1A078042859D049
:10A95000CAF80480DAF804003B4601E03FE042E038
:10A960000090314640F2DF124FF4D270FEF74DF8FE
:10A97000E0784FF0000300EB800005EB400101EBB5
:10A980000B0000F50050314690F8F106FF283CD04E
:10A990004EA24FF4D270FEF7E0FB2078A84201D11E
:10A9A000A07870B3CAF80480DAF8040000903B463F
:10A9B00031467E222820FEF728F8E07800EB800060
:10A9C00005EB400101EB0B0001E00FE012E090F815
:10A9D0007B0430281ED93146002332A222E04846AB
:10A9E000C6F804903DE7CAF8049053E731460023C7
:10A9F0002CA275E7CAF804907DE73146002329A20E
:10AA00009CE704E0CAF80490A4E726A2C1E7CAF8CC
:10AA10000490C9E700EB400101EBC0002549421852
:10AA2000314600232820FEF798FB2078A84202D167
:10AA3000A078012819D0CAF80480DAF80400009040
:10AA40003B463146C4227E20FDF7DFFFE07800EB75
:10AA5000800005EB400101EB0B0090F84D0502284A
:10AA600006D9314600230FA20AE0CAF80490E4E7B1
:10AA700000EB400101EBC0000F49421831460023B2
:10AA80007E20FEF76AFBCAF80480E078012300EB21
:10AA9000800005EB400003220021801E18E000002A
:10AAA000A85200102D2D2D2D000000002D000000BB
:10AAB00046000000B00903000F0C03001400001052
:10AAC000580F0010040803004E6F2E0050000000C5
:10AAD000FEF78DFB31460023F84A0820FEF73DFBC8
:10AAE0006D1CEDB20D2DFFF4CDAEBDE8F88F2DE954
:10AAF000F843F34E4FF05017044677600078012872
:10AB000000D000204FF0FF08F0B14046C6F80480A6
:10AB100000902A2358221A213020FDF776FFE948B9
:10AB2000E94D012390F87C041A2100EB80004219C2
:10AB30003020FEF7BFFA2078022807D0002038B175
:10AB40004046C6F8048005E03846E1E70120F6E714
:10AB500038467760009040231E2230210820FDF700
:10AB600054FF0123AFF2A00230210820FEF7A2FA21
:10AB7000FEF7E2FB2078D5496FF07F42012806D02E
:10AB8000022816D06078BDE8F843FEF799BCC6E904
:10AB900000210024542604EB8400421906EB001027
:10ABA00080B20023F121FEF785FA641C022CF2D357
:10ABB000BFE4C6E90021C44F0024C54E18374FF446
:10ABC000A275A7F10E0896F8D80018B1C4EBC4001E
:10ABD000C21903E0C4EBC40101EB080204EB8400DA
:10ABE00005EB001080B20023F121FEF763FA641C2C
:10ABF000022CE8D39DE42DE9F84F044600780128A3
:10AC000000D00020AE4DFF264FF0501708B16E6007
:10AC100000E06F60686800902C23C0221821582043
:10AC2000FDF7F3FEDFF8A882DFF8A89298F8D800C5
:10AC3000A9F10E0A002898F80000C0EBC00102D06C
:10AC400001EB090201E001EB0A0200231A2158205E
:10AC5000FEF730FA2078022803D0002018B16E6089
:10AC600002E00120FAE76F6098F8681000230522DF
:10AC7000D8F86400FEF7BBFA0023904A3021582030
:10AC8000FEF718FAD8F86C004FF0000308B192A252
:10AC900000E092A230219220FEF70CFA20780328DF
:10ACA00003D0002018B16E6002E00120FAE76F6067
:10ACB00098F80C1000230522D8F80800FEF797FA40
:10ACC00000237E4A46215820FEF7F4F9D8F81000F8
:10ACD0004FF0000308B180A200E080A2462192203C
:10ACE000FEF7E8F92078042803D0002018B16E6040
:10ACF00002E00120FAE76F6068684FF4A97B0090DA
:10AD00002C234FF4DD7218215846FDF77EFE98F88B
:10AD1000D80010B198F8400098B198F8400000EBC6
:10AD2000400101EBC0006E49421800231A21584629
:10AD3000FEF7C0F92078052806D0002030B16E60FB
:10AD400005E00023674AF1E70120F7E76F6098F814
:10AD5000A01000230422D8F89C00FEF748FA002334
:10AD6000564A30215846FEF7A5F900235EA230214D
:10AD70004FF4C170FEF79EF92078062803D000201A
:10AD800018B16E6002E00120FAE76F60464698F85D
:10AD90002C1000230422D8F82800FEF728FA0023FC
:10ADA000464A46215846FEF785F900234EA2462121
:10ADB0004FF4C170FEF77EF9FEF7BEFA207898B125
:10ADC000012823D16FF07F40286040480024B0461E
:10ADD00068604E465746542598F8D8000028C4EBC2
:10ADE000C40006D0821905E0BDE8F84F0020FEF748
:10ADF00067BBC21904EB840005EB001080B200238E
:10AE0000F121FEF757F9641C022CE5D36DE62DE91C
:10AE1000F84F04460078012800D00020284FFF2575
:10AE20004FF0501608B17D6000E07E6078680090B9
:10AE30002C23C02218215820FDF7E7FDDFF8909061
:10AE400099F8D800002899F80000C0EBC00101D0A3
:10AE5000204801E01F480E380A1800231A21582004
:10AE6000FEF728F92078022803D0002018B17D6071
:10AE700002E00120FAE77E60786800904223C02259
:10AE80002E215820FDF7C1FD99F8D800002899F827
:10AE90000100C0EBC00102D00E481C3001E00D489B
:10AEA0000E300A18002330215820FEF703F92078CD
:10AEB00003281BD00020D8B17D601AE0A8520010F2
:10AEC00014000010580F00103F0D0300380031002F
:10AED000540E00109407030020A6B8006DA6B80019
:10AEE000300C030090980100205600000120E2E79A
:10AEF0007E6078680090B8466E23C02244215820B6
:10AF0000FDF783FD99F8D8004F46002899F8B50061
:10AF1000C0EBC00101D0FC4801E0FB4815380A181D
:10AF2000002346215820FEF7C5F82078042804D0D5
:10AF3000002020B1C8F8045004E00120F9E7F348EC
:10AF4000C8F80400D8F804000090C1466E23C0225F
:10AF50005A215820FDF759FD97F8D800DFF8A8A32B
:10AF60000028B878AAF1230AAAF10E08C0EBC001A4
:10AF700002D001EB0A0201E001EB080200235C2190
:10AF80005820FEF797F82078052804D0002020B13B
:10AF9000C9F8045004E00120F9E7DC48C9F80400CE
:10AFA000BB46397B00230522B868FEF720F9D9F8A3
:10AFB000040000904F468423C02270215820FDF7E2
:10AFC00024FD0023D24A72215820FEF773F8DBF8E3
:10AFD00010004FF0000310B1AFF2041201E0AFF225
:10AFE000041272219220FEF765F82078062803D01B
:10AFF000002018B17D6002E00120FAE77E607868E9
:10B000000090B946B023C0229C215820FDF7FDFCDA
:10B010009BF8D8005F4600289BF82000C0EBC001D9
:10B0200002D001EB0A0201E001EB080200239E219D
:10B030005820FEF73FF82078072804D0002020B1E0
:10B04000C9F8045003E00120F9E7C9F80460BB46E1
:10B0500097F82C1000230422B86AFEF7C8F8D9F834
:10B06000040000904F46C623C022B2215820FDF7AD
:10B07000CCFC0023A64AB4215820FEF71BF800237D
:10B08000AFF29C12B4218820FEF714F8207808282B
:10B0900003D0002018B17D6002E00120FAE77E6055
:10B0A000786800902C234FF4DD7218214FF4A970BA
:10B0B000FDF7ABFC9BF8D800D94610B199F84000D9
:10B0C000A0B199F8400000EB400101EBC0009149AC
:10B0D000421800231A214FF4A970FDF7EBFF2078E6
:10B0E000092806D0002030B17D6005E000238A4A9F
:10B0F000F0E70120F7E77E6078680090BB464223C6
:10B100004FF4DD722E214FF4A970FDF77EFC99F803
:10B11000D8004F46002899F8410006D000EB4001C6
:10B120007C48A13800EB810204E0C0EBC001794803
:10B13000BD380A18002330214FF4A970FDF7BAFF7B
:10B1400020780A2804D0002020B1CBF8045004E075
:10B150000120F9E76D48CBF80400B94697F84C1088
:10B1600000230522B86CFEF742F8DBF804005F46C6
:10B170004FF4A97B00906E234FF4DD725A2158469C
:10B18000FDF743FC0023624A5C215846FDF792FF1D
:10B19000D9F850004FF0000310B1AFF2C42201E023
:10B1A000AFF2C8225C214FF4C670FDF783FF207810
:10B1B0000B2803D0002018B17D6003E00120FAE7DE
:10B1C0005248786099F8681000230522D9F8640085
:10B1D000FEF70DF87868009084234FF4DD7270213B
:10B1E0005846FDF712FC0023494A72215846FDF7E4
:10B1F00061FFD9F86C004FF0000310B1AFF22832B4
:10B2000001E0AFF2283272214FF4C670FDF752FF11
:10B2100020780C2803D0002018B17D6002E00120C6
:10B22000FAE77E603D480023042290F88410D0F8AD
:10B230008000FDF7DCFF78680090B0234FF4DD72EA
:10B240009C21D9465846FDF7E0FB0023304A9E2159
:10B250004846FDF72FFF0023AFF274324FF4C17B55
:10B260009E215846FDF726FF20780D2803D00020A8
:10B2700018B17D6002E00120FAE77E60274D0023CF
:10B28000042295F8A010D5F89C00FDF7B0FF78686F
:10B290000090C6234FF4DD72B2214E464846FDF7BA
:10B2A000B4FB00231A4AB4213046FDF703FF002304
:10B2B000AFF2CC32B4215846FDF7FCFEFEF73CF865
:10B2C0002278174954266FF07F400A2A39D2DFE8E6
:10B2D00002F0050A395879389538B1CCBDE8F84FF5
:10B2E0000020FEF743BBDFF82080C7E90001A8F18A
:10B2F0005B080024A8F10E0795F8D80090B1C4EBC4
:10B30000C40101EB080210E0EF07030034346500CC
:10B31000A8520010300C030090980100540E001049
:10B3200038003100C4EBC400C21904EB840006EB02
:10B33000001080B20023F121FDF7BCFE641C022C3A
:10B34000DAD363E5DFF8E884C7E900010024A8F157
:10B350000E0795F8D80020B1C4EBC40101EB080238
:10B3600002E0C4EBC400C21904EB840006EB001039
:10B3700080B20023F121FDF79DFE641C022CE8D36E
:10B3800044E5DFF8AC84C7E9000108F13F08002478
:10B39000A8F1150795F8D80020B1C4EBC40101EB62
:10B3A000080202E0C4EBC400C21904EB840006EBFF
:10B3B000001080B20023F121FDF77CFE641C032CF9
:10B3C000E8D323E5C7E900010024474695F8D800F3
:10B3D00020B1C4EBC40101EB0A0202E0C4EBC400DB
:10B3E000C21904EB840006EB001080B20023F121A7
:10B3F000FDF760FE641C022CE8D307E5C7E90001F5
:10B400000024474695F8D80020B1C4EBC40101EBF5
:10B410000A0202E0C4EBC400C21904EB840006EB8C
:10B42000001080B20023F121FDF744FE641C022CC1
:10B43000E8D3EBE4C7E90001FE4F002495F8D800FB
:10B4400000B174B104EB840006EB001007EBC402FA
:10B4500080B20023F121FDF72DFE641C032CEDD3F7
:10B46000D4E430460023F44AF4E7C7E9000100249D
:10B4700095F8B400012895F8D80006D098B1EF49A6
:10B4800004EB440001EB800211E030B1EB4804EB27
:10B490004401503800EB810209E0E848C4EBC401E4
:10B4A0006C380A1803E0E548203800EBC40204EBCE
:10B4B000840006EB001080B20023F121FDF7FAFDB5
:10B4C000641C042CD4D3A1E430B40B46DC491446EC
:10B4D00000EB40004218A1B298B230BC0123FDF746
:10B4E0003CBE2DE9F84FD74ED74F4FF050190446C8
:10B4F000C6F80490D7F820014FF4B475A0B100232A
:10B50000D2A241212846FDF728FE0023CFA24121E7
:10B51000C820FDF722FE2078012800D000204FF03F
:10B52000FF0A70B150460DE041222946D7F8B80312
:10B53000FFF7CAFF4122C821D7F8B803FFF7C4FFBD
:10B54000E9E74846706000902C23702218214620BD
:10B55000FDF75BFAD7F8B803B54900EBC0005431EA
:10B56000421801231A214620FDF7A4FD2078022865
:10B5700004D0002020B1C6F804A003E00120F9E7C0
:10B58000C6F8049097F80C1100230522D7F808019B
:10B59000FDF72DFE706800902A234FF492721A2155
:10B5A000E220FDF732FA0123A94A1A21E220FDF731
:10B5B00081FDD7F81001012300EB4001A0482D3890
:10B5C0000A181A214FF48E70FDF774FD20780328B5
:10B5D00003D0002018B1504602E00120FAE74846A7
:10B5E000706018210D0100902C234FF4E272284660
:10B5F000FDF70BFA9748D7F82011012300EB8102E1
:10B600001A212846FDF756FD2078042803D0002093
:10B6100018B1504602E00120FAE7484670600090F9
:10B62000422370222E214620FDF7EFF9D7F80001C2
:10B63000804D00EB800185354A19002330214620DA
:10B64000FDF738FD2078052803D0002018B15046BA
:10B6500002E00120FAE748467060009042234FF470
:10B66000AB722E21FA20FDF7D0F9D7F8280101237B
:10B6700000EB80016F4885300A183021FA20FDF771
:10B6800019FD0625B046BB462078A84202D1C8F86D
:10B6900004A009E0A5F10900042803D26E48C8F807
:10B6A000040001E0C8F80490D8F80400C5EB0516C2
:10B6B0000090701C83B20E3EB1B2DC229820FDF7E0
:10B6C000A4F9C5EBC5010BEBC10757F8200C58B323
:10B6D00017F81C1C00230522FDF789FDB1B20123D8
:10B6E000AFF638429820FDF738FDB1B20123584A31
:10B6F000A020FDF732FDDBF8200158B957F8180CEF
:10B70000012300EB40014E482D380A18B1B2D02079
:10B71000FDF723FD6D1C102DB6D310252078A8420F
:10B7200007D1C8F804A00EE00123B1B24B4AA02013
:10B73000EEE7A5F11300042803D24748C8F8040037
:10B7400001E0C8F80490D8F80400C5EB0516009095
:10B75000A6F1910083B2A43EB1B24FF4BE724FF491
:10B76000A070FDF752F9C5EBC5000BEBC007A7F5BC
:10B770008057D7F8CC0D68B397F8D01D0023052269
:10B78000FDF735FDB1B20023314A4FF4A070FDF74B
:10B79000E4FCDBF8200160B9D7F8D40D012300EBFD
:10B7A000400127482D380A18B1B24FF4B870FDF7A0
:10B7B000D4FC6D1C1A2DB1D3FDF7BEFD22782848AC
:10B7C00054256FF07F41062A62D2DFE802F009209B
:10B7D000200E214FB1B20123204A4FF4A070E6E7BA
:10B7E0006078BDE8F84FFEF7C1B8C8E90010194EFF
:10B7F000002404EB840005EB001006EB840280B209
:10B800000023F121FDF756FC641C022CF1D398E5CE
:10B81000084EC8E900100024853604EB8400821924
:10B8200005EB001080B20023F121FDF743FC19E085
:10B83000B0070300E00C030090980100DF0B030049
:10B84000B915030014000010580F00102500000067
:10B85000A85200109706030034346500E4A10100EB
:10B8600038003100641C022CD7D36AE5C8E9001007
:10B87000FD4E002404EB8400821905EB001080B219
:10B880000023F121FDF716FC641C022CF2D358E5CD
:10B89000F6484FF4CA744FF0000390F8D81071B115
:10B8A000F34AF1215420FDF705FC0023F1A2E72122
:10B8B0002046FDF7FFFBEE4A0023383A0EE0EEA2E9
:10B8C000F1215420FDF7F6FBE94A0023203AE72155
:10B8D0002046FDF7EFFBE64A0023183A01B0204668
:10B8E000BDE8F04FFB21FDF7E5BB70B506460078DB
:10B8F00000281DD01A244FF4A075052805D9084644
:10B900000CF002F806F00CFE04E010460BF0FCFF11
:10B9100003F054FF3078012300EB400101EBC0003D
:10B9200004EB40012846BDE87040D54AFDF7C2BB94
:10B9300070BD2DE9F84FD34DDFF84CB3804600249D
:10B940004FF050164FF042094FF02E0A98F80010B1
:10B95000601C814202D1FF20686001E030466E60C9
:10B96000009004EB440000EBC40709EB470083B2EE
:10B970000AEB470081B2E822A020FDF746F8BB4859
:10B980001BF8041000EB84000023B0F8B800042278
:10B99000FDF72DFC302000EB470081B20123B84AAF
:10B9A000A020FDF787FB641C072CCFD36E60C8E492
:10B9B0002DE9F84F04460078012800D00020B14955
:10B9C000FF254FF0501708B14D6000E04F60486808
:10B9D000894600902C23C0221A215A20FDF715F821
:10B9E000DFF888A2A94E9AF8D800A6F10E08002820
:10B9F0009AF8D40003D0C0EBC000821903E0C0EB7A
:10BA0000C00101EB080200231C215A20FDF752FB64
:10BA10002078022804D0002020B1C9F8045003E0A7
:10BA20000120F9E7C9F80470D9F804000090422316
:10BA3000C02230215A20FCF7E8FF9AF8D500D346FF
:10BA4000C0EBC001924800230A1832215A20FDF7AA
:10BA500031FB2078032806D000200028484604D077
:10BA6000C9F8045003E00120F7E7C9F804708246E2
:10BA7000406800905823C02246215A20FCF7C5FF99
:10BA80009BF8D800D94600289BF8D60003D0C0EB1D
:10BA9000C000821903E0C0EBC00101EB08020023E3
:10BAA00048215A20FDF706FB2078042804D0002006
:10BAB00020B1CAF8045003E00120F9E7CAF8047085
:10BAC000DAF8040000906E23C0225C215A20FCF7B3
:10BAD0009CFF99F8D800002899F8D70003D0C0EB54
:10BAE000C000821903E0C0EBC00101EB0802002393
:10BAF0005E215A20FDF7DEFA2078052804D00020C8
:10BB000020B1CAF8045003E00120F9E7CAF8047034
:10BB1000DAF8040000908423C02272215A20FCF736
:10BB200074FF5B4899F8D810103800EBC102CB467F
:10BB3000002374215A20FDF7BDFA2078062804D08E
:10BB4000002020B1CAF8045003E00120F9E7CAF848
:10BB50000470DAF8040000909A236C2288215A209D
:10BB6000FCF753FF4B4801230222C0690021FDF777
:10BB70003EFB0023424A8A215A20FDF79BFAB94630
:10BB8000002345A28A216E20CAF80470FDF792FABC
:10BB90002078072804D0002020B1CAF8045003E020
:10BBA0000120F9E7CAF80490DAF80400009057463B
:10BBB0009A238A2288217820FCF727FFDFF8D4A077
:10BBC000012302220021DAF81800FDF710FB002300
:10BBD0002B4A8A217820FDF76DFA00232EA28A21B4
:10BBE0008C20C7F80490FDF765FA2078082804D067
:10BBF000002020B128467D6004E00120F9E7484696
:10BC0000C7F8049000909A23AA2288219820FCF774
:10BC1000FCFE012302220021DAF80C00FDF7E7FA0E
:10BC200017490020034688700A468A219820FDF7AC
:10BC300041FA2078092804D0002020B128467D60F0
:10BC400004E00120F9E74846C7F804900090B023CB
:10BC50006C229E215A20FCF7D8FE012302220021EB
:10BC6000DAF808001AE00000650D0300540E001019
:10BC70008498010044656C00C7E5B3FDD0D0000096
:10BC8000A85200101400001090060300CC07030017
:10BC900018150300585200102D000000FDF7A7FAF8
:10BCA0000023FE4AA0215A20FDF704FA0023FCA23B
:10BCB000A0216E20C7F80490FDF7FCF920780A282F
:10BCC00004D0002020B128467D6004E00120F9E77F
:10BCD0004846C7F804900090B0238A229E2178201D
:10BCE000FCF793FE012302220021DAF80400FDF79D
:10BCF0007EFA0023E94AA0217820FDF7DBF9002332
:10BD0000E7A2A0218C20C7F80490FDF7D3F9207892
:10BD10000B2804D0002020B128467D6004E00120DB
:10BD2000F9E74846C7F804900090B023AA229E2164
:10BD30009820FCF76AFE012302220021DAF80000B5
:10BD4000FDF755FAD5490020034688700A46A02120
:10BD50009820FDF7AFF920780C2804D0002020B1FE
:10BD600028467D6004E00120F9E74846C7F80490C2
:10BD70000090C623C022B4215A20FCF746FE0023BF
:10BD8000C84AB6215A20FDF795F9FDF7D5FA6FF0AC
:10BD90007F403860C4487860207854250C2822D22F
:10BDA000DFE800F0060A22344E66787878787878F2
:10BDB000BDE8F84FFDF7BCBE002447469BF8D8000D
:10BDC0000028C4EBC40001D0821900E0C21904EBC2
:10BDD000840005EB001080B20023F121FDF76AF921
:10BDE000641C022CEAD312E5B04E0024C4EBC4005C
:10BDF000821904EB840005EB001080B20023F121CE
:10BE0000FDF758F9641C052CF0D300E500245F46CB
:10BE100097F8D80018B1C4EBC400821903E0C4EB52
:10BE2000C40101EB080204EB840005EB001080B2B2
:10BE30000023F121FDF73EF9641C022CE8D3E6E46F
:10BE4000002447469BF8D8000028C4EBC40001D06A
:10BE5000821900E0C21904EB840005EB001080B2E7
:10BE60000023F121FDF726F9641C022CEAD3CEE46D
:10BE70008E4E0024103E04EB840005EB001006EB10
:10BE8000C40280B20023F121FDF714F9641C022CD6
:10BE9000F1D3BCE4864E002404EB840005EB0010D3
:10BEA00006EBC40280B20023F121FDF703F9641C04
:10BEB000022CF1D3ABE410B5FDF7B7FEBDE810409E
:10BEC000FDF73ABA2DE9F041FFF7F5FF794C7A48D2
:10BED0006FF07F45734EC4E90050D93E4FF0000328
:10BEE00096F8D80008B1754A01E0744AF23A042184
:10BEF00000206E32FDF7DEF84FF05010C4E900501C
:10BF00006F4F00244FF6FF75A7F1270896F8D80069
:10BF1000002804EB840003D000EBC400C21903E046
:10BF200000EBC40101EB080204EB840005EA4010B9
:10BF300000231A21FDF7BEF8641C032CE6D3604DE4
:10BF400000242735302604EB840000EBC40042199E
:10BF500004EB440000EBC40006EB400081B2002378
:10BF60001846FDF7A7F8641C072CECD3BDE8F08158
:10BF700008B554480090B62340F2DF127A21002021
:10BF8000FCF743FD08BD10B5FDF74FFEFDF7D4F9F2
:10BF9000BDE81040ECE72DE9F05FFFF7F4FF454CFA
:10BFA00045486FF07F453F4EC4E90050D93E4FF001
:10BFB000000396F8D80008B1404A01E03F4AF23A3F
:10BFC000042100208432FDF775F84FF0501BC4E9BE
:10BFD000005BA2463A4F002482374FF6FF7907F103
:10BFE0003008394D01E0032C1FD296F8D80010B16B
:10BFF00008EBC40201E007EBC40204EB840109EA88
:10C00000411000231A21FDF755F8641C062CEAD3D1
:10C01000264F0024DFF8AC8055465E46BA3F201F0D
:10C02000042812D2C5F8048010E096F8D80010B1A8
:10C0300007EBC40201E008EBC40204EB840005EB4B
:10C040004010002380B23021DDE76E60C4EB0410A5
:10C05000413081B2002307EB84021846FDF77DF8DA
:10C06000641C0B2CDBD3002318A24121A020FDF778
:10C0700074F8002316A241214FF4A070FDF76DF86B
:10C0800015481A224FF49371D0F8B803FDF73EFF1C
:10C09000BDE8F05F0020FDF769BC0000A852001069
:10C0A0003A0000002D0F0010380031001815030071
:10C0B000F80C030014000010F352030039120300BF
:10C0C0007C1303003434650020FEFFFF4C4F570003
:10C0D0004849474800000000580F001008B5F748CD
:10C0E0000090B62340F2DF127A210020FCF78DFC8D
:10C0F00008BD10B5FDF799FDBDE81040FDF71CB96E
:10C100002DE9F041FFF7F5FFED4CEE486FF07F466B
:10C11000ED4DC4E9006095F8D8004FF0000308B178
:10C12000EA4A01E0E94AF23A042100209A32FCF797
:10C13000C1FF4FF05010C4E900600023E44A1A2107
:10C140001846FCF7B7FFE24E0124E14F3F3695F861
:10C15000D800002804EBC40001D0821900E0C21905
:10C160004D2104FB01F02F3880B200233021FCF771
:10C17000A1FF641C072CEAD3BDE8F0410020FDF7C5
:10C18000F5BBF8B500246FF07F462E2504EB440084
:10C1900000EBC40005EB400083B281B2BE225A20FE
:10C1A0000096FCF761FC641C072CEFD3F8BD10B5BA
:10C1B000FDF73BFDBDE81040FDF7BEB82DE9F041AD
:10C1C000FFF7F5FFBE4CBF486FF07F45BE4EC4E998
:10C1D000005096F8D8004FF0000308B1BB4A01E0C8
:10C1E000BA4AF23A04210020DC32FCF763FF4FF038
:10C1F0005010C4E9005096F803011A2501284FF0A9
:10C2000000040ED0DFF8CC82A8F1540796F8D800CD
:10C210000028C4EBC40025D000EB400101EB08026C
:10C2200023E0AC4FA83FA7F1540896F8D8000028A7
:10C23000C4EBC40003D000EB4000C21903E000EBE4
:10C24000400101EB080204EB440000EBC40005EBE5
:10C25000400081B200231846FCF72CFF641C042C1C
:10C26000E3D310E000EB4000C21904EB440000EB04
:10C27000C40005EB400081B200231846FCF71AFF0A
:10C28000641C042CC2D3904A0023F9325C215A204A
:10C29000FCF710FFBDE8F041FDF74ABC2DE9F04185
:10C2A000FFF785FF864C87486FF07F45864EC4E9CF
:10C2B000005096F8D8004FF0000308B1834A01E01F
:10C2C000824AF23A04210020B032FCF7F3FE4FF02C
:10C2D0005010C4E900507F4F0024AC371A25A7F155
:10C2E000580896F8D800002804EB440000EBC4007E
:10C2F00001D0C21901E000EB080205EB400081B259
:10C3000000231846FCF7D6FE641C082CE9D3FFF77F
:10C3100038FFBDE8F041FDF70BBC2DE9F05F834627
:10C320000C46486842F20F71884201D8A06805E0C7
:10C330000A21B0FBF1F060600420A060C0F10406A7
:10C34000A66060680BF0BDFA0546DFF88CA1DFF847
:10C350008C91E06810B1012802D006E0514600E05F
:10C36000494628460BF0B5F8054630460BF0BFFAB3
:10C3700002460B4600205A490CF0E2FB06460F46E7
:10C3800028460BF007FB32463B460BF02BFA0BF02E
:10C3900045FB0546534801264FF00208854203DD60
:10C3A000054640F6B83008E04F485049854206DB64
:10C3B00028460BF0C0F80BF0C0FAE66023E04846D0
:10C3C0004FF00309854207DB514628460BF0B3F8CE
:10C3D0000BF0B3FAE6601DE045480027854209DB13
:10C3E000444928460BF0A7F80BF0A7FA211D81E875
:10C3F000C10011E08D4209DB3F4928460BF09BF854
:10C400000BF09BFAE760C4E9010805E028460BF051
:10C4100094FAE760C4E9010928460BF08EFAA0619E
:10C4200021465846BDE8F05F1C220AF0B3BF808861
:10C4300000B27047F0B4D1E9022764262F4B0A24DA
:10C440004FF47A7537B1062A6DD2DFE802F01D2568
:10C45000682A5961052A62D2DFE802F003610C10F4
:10C4600014004A689A4202D900224B6000E001227F
:10C470000A6154E04A68B2FBF5F24FE04A68B2FB49
:10C48000F6F24BE04A6809E04A689A4201D94B60EB
:10C4900045E04FF47A7339E04A6872B1B2FBF4F2C6
:10C4A0003CE04B6842F21072934201D81A4600E019
:10C4B0004A6002EB8202520030E030E03434650022
:10C4C00014000010F3520300540E00103912030040
:10C4D0008A1403004310030000007A4400247449C6
:10C4E00000002440C0E1E44B8096184B00401C46FD
:10C4F0000050C3470000C84200002041A086010050
:10C500004A68AA4200D94D604A6864235A4305E04C
:10C510004A68642A00D94E604A68BAE74A60F0BCAB
:10C520001C220AF037BFFE4AF8E72DE9F0478146A2
:10C530000C46486842F20F714FF00A08884204D94D
:10C54000B0FBF8F060600420A06067684FF47A7078
:10C550004743A068C0F104000BF0C9F902460B463E
:10C560000020F0490CF0ECFA05460E4638460BF078
:10C57000BEF92A4633460BF035F90BF0F2F94EF6C8
:10C580006021884201D9084603E042F210718842D6
:10C5900005D30221A160B0FBF8F1616002E0032144
:10C5A000C4E90101A06121464846BDE8F0471C22CC
:10C5B0000AF0F0BE70B505460020C8600C468868D9
:10C5C0000BF07FF90BF0E6F902460B460020D54947
:10C5D0000CF0B6FA0BF0C5F96168B1FBF0F0642815
:10C5E00001D90220A06021462846BDE870401C22E7
:10C5F0000AF0D0BE08B5CC480090372328225C2131
:10C600003C20FCF7D9FBC9480090372328225C2145
:10C610006420FCF7D1FBC6480090372328229321E1
:10C620003C20FCF7C9FBC348009037232822932104
:10C630006420FCF7C1FB08BD08B5BB480090372358
:10C6400028225C213C20FCF7B7FBB8480090372338
:10C6500028225C216420FCF7AFFBB7480090372309
:10C66000282293213C20FCF7A7FBB24800903723F7
:10C67000282293216420FCF79FFB08BD08B5AA4837
:10C680000090372328225C213C20FCF795FBA7482B
:10C690000090372328225C216420FCF78DFBA748FB
:10C6A00000903723282293213C20FCF785FBA148EA
:10C6B00000903723282293216420FCF77DFB08BDDE
:10C6C00038B599480090372328225C213C20FCF79C
:10C6D00073FB964C372328225C2164200094FCF7DE
:10C6E0006BFB974800903723282293213C20FCF7CE
:10C6F00063FB37232822932164200094FCF75CFB22
:10C7000038BD38B588480090372328225C213C206A
:10C71000FCF752FB8B4C372328225C2164200094C9
:10C72000FCF74AFB864800903723282293213C20BF
:10C73000FCF742FB37232822932164200094FCF766
:10C740003BFB38BD08B578480090372328225C2190
:10C750003C20FCF731FB7B480090372328225C21EA
:10C760006420FCF729FB724800903723282293218C
:10C770003C20FCF721FB6F480090372328229321AF
:10C780006420FCF719FB08BD08B567480090372303
:10C7900028225C213C20FCF70FFB6A4800903723DD
:10C7A00028225C216420FCF707FB634800903723B4
:10C7B000282293213C20FCF7FFFA5E4800903723A3
:10C7C000282293216420FCF7F7FA08BD08B55E48DB
:10C7D0000090372328225C213C20FCF7EDFA5348D7
:10C7E0000090372328225C216420FCF7E5FA5248A8
:10C7F00000903723282293213C20FCF7DDFA4D4896
:10C8000000903723282293216420FCF7D5FA08BD35
:10C8100038B54D480090372328225C213C20FCF796
:10C82000CBFA424C372328225C2164200094FCF789
:10C83000C3FA434800903723282293213C20FCF779
:10C84000BBFA37232822932164200094FCF7B4FA22
:10C8500038BD08B53C480090372328225C213C2095
:10C86000FCF7AAFA31480090372328225C21642083
:10C87000FCF7A2FA324800903723282293213C206B
:10C88000FCF79AFA3148009037232822932164203C
:10C89000FCF792FA08BD08B52B48009037232822F0
:10C8A0005C213C20FCF788FA20480090372328229E
:10C8B0005C216420FCF780FA1D4800903723282271
:10C8C00093213C20FCF778FA1A480090372328225D
:10C8D00093216420FCF770FA08BD08B51A4800904F
:10C8E000372328225C213C20FCF766FA0F48009091
:10C8F000372328225C216420FCF75EFA0F48009061
:10C900003723282293213C20FCF756FA094800904F
:10C910003723282293216420FCF74EFA08BD00003B
:10C9200040420F000000244020DA020038DB020001
:10C9300068F0020072FF02007BF1020042EE02008A
:10C940002FED0200F6E90200E3E802008EF2020099
:10C9500008B5FE480090372328225C213C20FCF7D4
:10C960002BFAFB480090372328225C216420FCF737
:10C9700023FAF84800903723282293213C20FCF723
:10C980001BFAF54800903723282293216420FCF7F6
:10C9900013FAC3E708B5ED480090372328225C213D
:10C9A0003C20FCF709FAEA480090372328225C2152
:10C9B0006420FCF701FAE9480090372328229321EC
:10C9C0003C20FCF7F9F9E448009037232822932112
:10C9D0006420FCF7F1F9A1E738B5DC480090372373
:10C9E00028225C213C20FCF7E7F9D94C3723282288
:10C9F0005C2164200094FCF7DFF904F239300090E8
:10CA00003723282293213C20FCF7D6F9372328220C
:10CA1000932164200094FCF7CFF938BD08B5CB48CA
:10CA20000090372328225C213C20FCF7C5F9C84838
:10CA30000090372328225C216420FCF7BDF9C84808
:10CA400000903723282293213C20FCF7B5F9C548F4
:10CA500000903723282293216420FCF7ADF95DE78D
:10CA600038B5C1480090372328225C213C20FCF7D0
:10CA7000A3F9B94C372328225C2164200094FCF7E9
:10CA80009BF9B84800903723282293213C20FCF7DB
:10CA900093F937232822932164200094FCF78CF922
:10CAA00038BD38B5B0480090372328225C213C209F
:10CAB000FCF782F9A84C372328225C2164200094DB
:10CAC000FCF77AF9A4F6D13000903723282293217D
:10CAD0003C20FCF771F9372328229321642000942D
:10CAE000FCF76AF938BD38B5A048009037232822F2
:10CAF0005C213C20FCF760F9974C372328225C210D
:10CB000064200094FCF758F99648009037232822B7
:10CB100093213C20FCF750F93723282293216420ED
:10CB20000094FCF749F938BD38B590480090372398
:10CB300028225C213C20FCF73FF9874C3723282230
:10CB40005C2164200094FCF737F9A4F6D130009002
:10CB50003723282293213C20FCF72EF93723282263
:10CB6000932164200094FCF727F938BDF8B5804C78
:10CB70004FF4C27594F8B51009B1022927D178484D
:10CB80002822009037235C211046FCF715F97948DC
:10CB90000090372328225C212846FCF70DF97648BF
:10CBA0004FF4AE7690F89D000028744802D041F210
:10CBB000A27101E041F2432108440090372328226A
:10CBC0005C213046FCF7F8F894F8B50018B194F8F9
:10CBD000B50001280ED16A4C282237239321104634
:10CBE0000094FCF7E9F83723282293212846009483
:10CBF000FCF7E2F8F8BD08B5584800903723282222
:10CC000093213C20FCF7D8F8554800903723282280
:10CC10005C213C20FCF7D0F84D48009037232822B7
:10CC20005C216420FCF7C8F84B4800903723282289
:10CC300093216420FCF7C0F870E608B548480090DE
:10CC4000372328225C213C20FCF7B6F84D480090A1
:10CC5000372328225C216420FCF7AEF83F4800907F
:10CC60003723282293213C20FCF7A6F83A4800906D
:10CC70003723282293216420FCF79EF84EE608B55E
:10CC800041480090372328225C213C20FCF794F88F
:10CC90003E4800903723282293213C20FCF78CF853
:10CCA0003CE62DE9FF4F83B0012600201C46B1462B
:10CCB000987002F025FAFF28FBD1DFF8D4B04FF0CE
:10CCC000FF0A9BF8B803A07032480290C01DC71D30
:10CCD0000190A8E0B9F1000F30D02F4D6FF07F40E8
:10CCE0004FF0000928602D486860FCF725FBC5F867
:10CCF00004A02C23C02218215820CDF800A0FBF757
:10CD000084FEA078264900EBC000421801231A21B6
:10CD10005820FCF7CFF9214868600025059805EBFD
:10CD2000850100EBC502542000EB01100023F12126
:10CD3000FCF7C0F96D1CEDB2052DEFD302F0E0F960
:10CD40000546FF2832D008F101082BE0E3E8020095
:10CD5000F6E9020068F0020072FF02007BF10200B7
:10CD60002FED02008EF2020009EB02001CEC020023
:10CD7000540E00104CFD0200C0500010D0E702001D
:10CD8000D104030038DB020042EE020055EF02003E
:10CD9000580F00109B0903001400001038003100E8
:10CDA00004080300B8F1030F3DD102E04FF0000882
:10CDB00039E04FF0010902F0BDF90B2D44D00EDC33
:10CDC000032D47D004DC012D35D0022D2BD143E0BB
:10CDD000092D11D00A2D26D107B0BDE8F08F132DF3
:10CDE00030D004DC112D12D0122D1CD130E0192DC1
:10CDF0001DD01B2D17D12BE0E178FC48405CFF28AB
:10CE000001D0A0700026A178CBF8B81309E0E17832
:10CE100002980EE0A178CBF8B813E078C05DFF2847
:10CE200001D084F802A0002E7FF454AFD4E7E1785B
:10CE30000198085C01E0E078C05DFF28EAD0A070AE
:10CE40000026E7E7062100E00521E9480160C3E785
:10CE5000002002E00A2000E002202070BCE72DE95B
:10CE6000F05FE44DE44E4FF0501B0446C5F804B0AB
:10CE700096F84000DFF8849368B999F870000023B1
:10CE800000EB400101EBC000DD4942181A214FF4CC
:10CE9000B970FCF70FF9DB48686096F8B500DFF869
:10CEA00068A3FF276FF07F4808B1022819D1D34A41
:10CEB0009AF800007132012802D196F8B40028B126
:10CEC000012C06D02CB1042C03D003E0C5F800805F
:10CED00000E02F605C218420FCF7C1F896F8B500D3
:10CEE00010B1C0B2012831D19AF8000018B196F8FB
:10CEF000B400012805D1022C16D0032C14D0042C28
:10CF000012D0C5F80080C148C14E012480784FF08E
:10CF1000000A58B1BFA293216420FCF7A0F801F0E9
:10CF200019FF86F800A005E02F60ECE72F60347051
:10CF300001F003FF99F871102D2911D0AF4A89F83B
:10CF4000C0A07B3293216420FCF789F8C5E9008BEF
:10CF5000BDE8F05F0023D221AFA21E20FCF7AAB8E3
:10CF6000932189F8C040AEA26420EDE730B5AFA2AE
:10CF70000C46D2E9001285B0B04DCDE90112ADA248
:10CF80003723D2E90012CDE9031201A92822085C57
:10CF900040F213114843284400905C214FF4BE70C6
:10CFA000FBF70AFF03A840F21311005D372300FBD3
:10CFB0000150009028225C214FF4D270FBF7FCFE58
:10CFC00005B030BD30B599A20C46D2E9001285B04B
:10CFD0009A4DCDE9011297A23723D2E90012CDE98B
:10CFE000031201A92822085C40F213114843284487
:10CFF000009093214FF4BE70FBF7DEFE03A840F2D1
:10D000001311005D372300FB01500090282293216B
:10D010004FF4D270FBF7D0FED2E710B5884CAB20AE
:10D02000E07052202071744890F840006071BF2079
:10D03000A07105F0E5FB012084F8550010BD10B586
:10D040007F4CAB20E070522020716B4890F840007C
:10D050006071BF20A07105F0ECFB012084F8550041
:10D0600010BD0EB5774807C88DE8070069467648B9
:10D0700006F013FA0EBD00B587B0142101A80AF01E
:10D08000A2F97248734A0068009060208DF804008D
:10D090006F48D0F8B81301EB4101535C8DF80530AF
:10D0A000702311448DF806304A788DF807207122DC
:10D0B0008DF8082089788DF80910802290218DF84C
:10D0C0000A208DF80C1090F8C4138DF80D10A021D3
:10D0D0008DF80E1090F820148DF80F10B0218DF8F7
:10D0E000101090F818148DF81110C0218DF812103E
:10D0F00090F824148DF81310E0218DF8141090F896
:10D10000D0038DF80B008DF81520BF208DF8160088
:10D1100000208DF8170069464B4806F0BEF907B0AD
:10D1200000BD10B5464CAB20E07000202071BF2040
:10D13000607105F065FB012084F8550010BD0146C3
:10D14000454806F0AAB900B585B000203F490190D6
:10D150000290039004904968009110218DF801100D
:10D160000D218DF802103D4909788DF80310BF217B
:10D170008DF80A108DF804008DF80B0069463248CE
:10D1800006F08BF905B000BD10B50C462D4900EB3B
:10D190004000703942180123C8218020FBF78AFF24
:10D1A00004EB44002749012343394218C821BDE854
:10D1B00010408820FBF77EBF10B50C46214900EBDC
:10D1C0004000703942180023C8214FF4C270FBF7A9
:10D1D00071FF04EB44001B49002343394218BDE8AA
:10D1E0001040C8214FF4C670FBF764BF94090300D8
:10D1F000BC00001014000010540E0010C0500010AD
:10D20000880C03003434650048000010A9000010A9
:10D210003800001020000000546573742E2E2E007C
:10D2200020302E3030303030000000000C0F101154
:10D23000160E0D00121314020B171600D0E7020091
:10D2400014550010FC15030000C0004088060300C0
:10D25000580F00105016030000C009407400001061
:10D2600030B58DB01822F8A168460AF093F818225C
:10D27000FBA106A80AF08EF8FF494FF050100123D9
:10D280004860FE4AC8213420FBF714FFFB4A012303
:10D290000A32C8214FF49C70FBF70CFFF84DF74C95
:10D2A000D5F8B803713C1DF8001014F89D0FFFF776
:10D2B0006BFFD5F8B80306A9095C6078FFF77CFF1F
:10D2C0000DB030BD2DE9F047EE4EEB4DDFF8B883E1
:10D2D00000244FF050174FF4C379A01E052801D346
:10D2E000082C01D96E6000E06F60002358F824001C
:10D2F00006221946FBF77BFFC4EB04110123E34A26
:10D3000048463A31FBF729FF641CE4B20B2CE4D306
:10D31000BDE8F08789B280B20123DDA2FBF7CABE67
:10D3200089B280B20123DBA2FBF7C4BED44808B5A2
:10D33000D94990F8B8230A7090F8C0234A7090F841
:10D34000C42390F8C833CB7090F8D0330B7190F8A9
:10D3500018344B7190F82034CB7190F824340B7250
:10D3600090F828344B728A7090F874248A7290F87E
:10D370007804C872C8484FF41872C84944300AF09B
:10D3800009F84FF4827000230090C54A19461846E8
:10D3900006F0DEFD50E408B54FF4827000230090E3
:10D3A000BF4A1946184606F041FE45E430B5BC4C6C
:10D3B00000202178012900D920706178012900D945
:10D3C0006070A178012900D9A070626E42F20F73DB
:10D3D0004FF47A719A4200D96166A26E032A01D98C
:10D3E0000222A266E26E012A00D9E06694F82020AB
:10D3F000012A01D984F8200094F84120022A01D999
:10D4000084F84100A26C9A4200D9A164E56C032221
:10D41000032D00D9E264256D012D00D92065656ECC
:10D420009D4200D96166A56E032D00D9A266E56E06
:10D43000012D00D9E066D4F88000984201D9C4F8E3
:10D440008010D4F88400032801D9C4F88420A06A8D
:10D45000984200D9A162E06A032800D9E262914BA8
:10D46000002004EB800103EB8005B1F8B8206D8843
:10D47000AA4203D833F82050AA4203D233F820201E
:10D48000A1F8B820401CC0B20728EAD3854B002081
:10D49000183B04EB800103EB8005B1F8BA206D88DE
:10D4A000AA4203D833F82050AA4203D233F82020EE
:10D4B000A1F8BA20401CC0B20728EAD330BD6E499B
:10D4C00008B5794A4A6001280CD002280DD00A60BC
:10D4D0007648009018233022F1214FF4CA70FBF7F0
:10D4E0006BFC57E74FF47F4000E0FF200860EFE758
:10D4F0002DE9F04FC3B0DFF8B88100F129090446E7
:10D500000D461FFA89F20B46CDF80080FBF7ACFA06
:10D51000681E83B2209004F12B0082B208902098FC
:10D52000661E81B2CDF80080B0B2FBF79DFAA81E4E
:10D53000CDF8008083B20F9004F12D0082B21490D8
:10D540000F9881B2B0B2FBF78FFAE81ECDF80080D9
:10D5500083B2199004F12E0082B21890199881B20A
:10D560002046FBF781FA281F83B2159004F13000A2
:10D5700082B22A901598CDF8008081B2A01C80B2AA
:10D58000FBF772FA681F83B21A9004F1310082B27D
:10D5900025901A9804F1230781B2CDF80080B8B223
:10D5A000FBF762FAA81F83B2333681B22B90B2B276
:10D5B000CDF80080B8B2FBF757FAE81F83B281B20A
:10D5C0000490B2B2CDF80080B8B2FBF74DFAA5F1E5
:10D5D000080083B281B27F1C1B90B2B2CDF80080EC
:10D5E000B8B2FBF741FAA5F1090083B2761C81B20B
:10D5F0003490B2B2CDF80080B8B2FBF735FAA5F19D
:10D600000A00CDF8008083B281B204F1250A0A90A5
:10D61000B2B21FFA8AF0FBF727FAA5F10B0083B22A
:10D6200081B21790B2B2CDF800801FFA8AF0FBF7F2
:10D630001BFAA5F10C00CDF8008083B281B21E90D8
:10D64000B2B21FFA8AF035E00000000000000001CD
:10D6500001010101010101020203030202020000B3
:10D660000606030206060206020206060602020576
:10D6700004050402060600001400001031510010D9
:10D68000580F00103434650078520010A852001072
:10D69000560000006D4100001C4E00105810001094
:10D6A000540E0010E415030038003100F8050300A3
:10D6B000F3520300FBF7D8F9A5F10D0083B2761CF5
:10D6C00081B2BF1C3890B2B2CDF80080B8B2FBF77F
:10D6D000CBF9A5F10E0083B281B21C90B2B2CDF8A5
:10D6E00000801FFA8AF0FBF7BFF9A5F10F0083B2A3
:10D6F00081B20B90B2B2CDF80080B8B2FBF7B4F9AA
:10D70000A5F1100083B281B20C90B2B2CDF80080C6
:10D71000B8B2FBF7A9F9A5F11100CDE9008083B2F9
:10D72000761C81B2B2B2B8B2FBF79EF940460090C7
:10D73000A5F1120083B281B27F1C0590B2B2B8B2DB
:10D74000FBF792F940460090A5F1130083B281B235
:10D750000690B2B2B8B2FBF787F940460090A5F147
:10D76000140083B2761C81B21090B2B2B8B2FBF74B
:10D770007BF940460090A5F1150083B281B27F1C71
:10D780000290B2B2B8B2FBF76FF94046A5F1160BA2
:10D7900000901FFA8BF3B2B21FFA8BF1B8B2FBF70D
:10D7A00063F940460090A5F1170083B281B2119051
:10D7B000B2B2B8B2FBF758F940460090A5F1180094
:10D7C00083B281B21D90B2B2B8B2FBF74DF94046B8
:10D7D000A5F1190A00901FFA8AF3B2B21FFA8AF172
:10D7E0001FFA89F0FBF740F94046A5F11A08761CAC
:10D7F00000901FFA88F3B2B21FFA88F11FFA89F07D
:10D80000FBF732F9FE480090A5F11B0083B281B20C
:10D810002290B2B21FFA89F0FBF726F9F84800907F
:10D82000A5F11C0083B20790701C82B20390079888
:10D8300004F12A0981B21FFA89F0FBF715F9F048C3
:10D8400000900398A5F11D0782B2BBB2B9B21FFACE
:10D8500089F0FBF709F9EA480090781E83B224901A
:10D86000039882B2249881B21FFA89F0FBF7FCF882
:10D87000E3480090B81E83B2B61C81B21290B2B2D7
:10D880001FFA89F0FBF7F0F8DD480090F81E83B22C
:10D8900081B20D90B2B21FFA89F0FBF7E5F8D848D3
:10D8A00000900398A5F1210982B208981FFA89F324
:10D8B0001FFA89F180B2FBF7D7F8D1480090781FA2
:10D8C00083B281B216900898B2B280B2FBF7CCF85E
:10D8D000CB480090B81F83B281B2089004F12C00AD
:10D8E0001390B2B280B2FBF7BFF8C548009004F1C4
:10D8F0003A0082B21F90FE1F1398B3B2B1B280B249
:10D90000FBF7B2F8BE480090701E83B209901F98D2
:10D9100082B2099881B2139880B2FBF7A5F8B84893
:10D920000090B01E83B20E9004F13B0082B22890AA
:10D930000E9881B2139880B2FBF796F8B048009029
:10D94000F01E83B20390289882B2039881B2139894
:10D9500080B2FBF789F8AA480090301F83B2139079
:10D96000289882B2139881B2149880B2FBF77CF8A1
:10D97000A3480090701F83B22190289882B221980A
:10D9800081B2149880B2FBF76FF89D480090B01FE9
:10D9900083B22C9004F13C0082B229902C9881B281
:10D9A000149880B2FBF760F8954800902999F01F11
:10D9B0008AB283B281B2149880B2FBF755F89048CE
:10D9C0000090A5F12C0083B22D90299882B22D9859
:10D9D00081B2189880B2FBF747F889480090A5F10A
:10D9E0002D0083B23090299882B2309881B2189875
:10D9F00080B2FBF739F882480090A5F12E0083B27F
:10DA0000319004F13D0082B22690319881B218988D
:10DA100080B2FBF729F87A480090A5F12F0083B275
:10DA20001890269882B2189881B204F12F002390A2
:10DA300080B2FBF719F872480090A5F1300083B26C
:10DA40002790269882B2279881B2239880B2FBF75C
:10DA50000BF86B48009004F13E0082B21490A5F1DF
:10DA6000310123988BB289B280B2FAF7FDFF644886
:10DA70000090A5F1320083B23390149882B23398AB
:10DA800081B2239880B2FAF7EFFF5D480090A5F1CC
:10DA9000330083B22F90269882B22F9881B22398B8
:10DAA00080B2FAF7E1FF56480090A5F1340083B246
:10DAB0002390149882B2239881B22A9880B2FAF700
:10DAC000D3FF4F4800901499A5F135008AB283B274
:10DAD00081B22A9880B2FAF7C7FF49480090A5F1B1
